{
  "_format": "hh3-artifact-1",
  "contractName": "SubsidyPayout",
  "sourceName": "contracts/SubsidyPayout.sol",
  "abi": [
    {
      "inputs": [
        {
          "internalType": "address",
          "name": "initialOracle",
          "type": "address"
        }
      ],
      "stateMutability": "nonpayable",
      "type": "constructor"
    },
    {
      "anonymous": false,
      "inputs": [
        {
          "indexed": true,
          "internalType": "uint256",
          "name": "claimId",
          "type": "uint256"
        },
        {
          "indexed": true,
          "internalType": "uint256",
          "name": "programsId",
          "type": "uint256"
        },
        {
          "indexed": true,
          "internalType": "address",
          "name": "farmer",
          "type": "address"
        }
      ],
      "name": "AutoClaimCreated",
      "type": "event"
    },
    {
      "anonymous": false,
      "inputs": [
        {
          "indexed": true,
          "internalType": "uint256",
          "name": "claimId",
          "type": "uint256"
        },
        {
          "indexed": true,
          "internalType": "uint256",
          "name": "programsId",
          "type": "uint256"
        },
        {
          "indexed": true,
          "internalType": "address",
          "name": "farmer",
          "type": "address"
        },
        {
          "indexed": false,
          "internalType": "uint256",
          "name": "amount",
          "type": "uint256"
        }
      ],
      "name": "ClaimApproved",
      "type": "event"
    },
    {
      "anonymous": false,
      "inputs": [
        {
          "indexed": true,
          "internalType": "uint256",
          "name": "claimId",
          "type": "uint256"
        },
        {
          "indexed": true,
          "internalType": "uint256",
          "name": "programsId",
          "type": "uint256"
        },
        {
          "indexed": true,
          "internalType": "address",
          "name": "farmer",
          "type": "address"
        },
        {
          "indexed": false,
          "internalType": "uint256",
          "name": "amount",
          "type": "uint256"
        }
      ],
      "name": "ClaimDisbursed",
      "type": "event"
    },
    {
      "anonymous": false,
      "inputs": [
        {
          "indexed": true,
          "internalType": "uint256",
          "name": "claimId",
          "type": "uint256"
        },
        {
          "indexed": true,
          "internalType": "uint256",
          "name": "programsId",
          "type": "uint256"
        },
        {
          "indexed": true,
          "internalType": "address",
          "name": "farmer",
          "type": "address"
        },
        {
          "indexed": false,
          "internalType": "uint256",
          "name": "amount",
          "type": "uint256"
        }
      ],
      "name": "ClaimPaid",
      "type": "event"
    },
    {
      "anonymous": false,
      "inputs": [
        {
          "indexed": true,
          "internalType": "uint256",
          "name": "claimId",
          "type": "uint256"
        },
        {
          "indexed": true,
          "internalType": "uint256",
          "name": "programsId",
          "type": "uint256"
        },
        {
          "indexed": true,
          "internalType": "address",
          "name": "farmer",
          "type": "address"
        },
        {
          "indexed": false,
          "internalType": "string",
          "name": "reason",
          "type": "string"
        }
      ],
      "name": "ClaimRejected",
      "type": "event"
    },
    {
      "anonymous": false,
      "inputs": [
        {
          "indexed": true,
          "internalType": "uint256",
          "name": "claimId",
          "type": "uint256"
        },
        {
          "indexed": true,
          "internalType": "uint256",
          "name": "programsId",
          "type": "uint256"
        },
        {
          "indexed": true,
          "internalType": "address",
          "name": "farmer",
          "type": "address"
        },
        {
          "indexed": false,
          "internalType": "uint256",
          "name": "amount",
          "type": "uint256"
        },
        {
          "indexed": false,
          "internalType": "bytes32",
          "name": "metadataHash",
          "type": "bytes32"
        }
      ],
      "name": "ClaimSubmitted",
      "type": "event"
    },
    {
      "anonymous": false,
      "inputs": [
        {
          "indexed": true,
          "internalType": "address",
          "name": "agency",
          "type": "address"
        },
        {
          "indexed": false,
          "internalType": "uint256",
          "name": "amount",
          "type": "uint256"
        }
      ],
      "name": "ContractFunded",
      "type": "event"
    },
    {
      "anonymous": false,
      "inputs": [
        {
          "indexed": true,
          "internalType": "uint256",
          "name": "programsId",
          "type": "uint256"
        }
      ],
      "name": "EligibilityUpdated",
      "type": "event"
    },
    {
      "anonymous": false,
      "inputs": [
        {
          "indexed": true,
          "internalType": "address",
          "name": "farmer",
          "type": "address"
        },
        {
          "indexed": true,
          "internalType": "uint256",
          "name": "programsId",
          "type": "uint256"
        }
      ],
      "name": "FarmerEnrolled",
      "type": "event"
    },
    {
      "anonymous": false,
      "inputs": [
        {
          "indexed": true,
          "internalType": "address",
          "name": "from",
          "type": "address"
        },
        {
          "indexed": false,
          "internalType": "uint256",
          "name": "amount",
          "type": "uint256"
        }
      ],
      "name": "FundsDeposited",
      "type": "event"
    },
    {
      "anonymous": false,
      "inputs": [
        {
          "indexed": true,
          "internalType": "address",
          "name": "account",
          "type": "address"
        }
      ],
      "name": "GovernmentRoleGranted",
      "type": "event"
    },
    {
      "anonymous": false,
      "inputs": [
        {
          "indexed": true,
          "internalType": "address",
          "name": "account",
          "type": "address"
        }
      ],
      "name": "GovernmentRoleRevoked",
      "type": "event"
    },
    {
      "anonymous": false,
      "inputs": [
        {
          "indexed": true,
          "internalType": "address",
          "name": "oracle",
          "type": "address"
        }
      ],
      "name": "OracleUpdated",
      "type": "event"
    },
    {
      "anonymous": false,
      "inputs": [
        {
          "indexed": true,
          "internalType": "address",
          "name": "owner",
          "type": "address"
        }
      ],
      "name": "OwnerUpdated",
      "type": "event"
    },
    {
      "anonymous": false,
      "inputs": [
        {
          "indexed": true,
          "internalType": "uint256",
          "name": "programsId",
          "type": "uint256"
        },
        {
          "indexed": false,
          "internalType": "string",
          "name": "name",
          "type": "string"
        },
        {
          "indexed": false,
          "internalType": "enum SubsidyPayout.ProgramType",
          "name": "programsType",
          "type": "uint8"
        },
        {
          "indexed": false,
          "internalType": "enum SubsidyPayout.ProgramStatus",
          "name": "status",
          "type": "uint8"
        },
        {
          "indexed": false,
          "internalType": "uint256",
          "name": "startDate",
          "type": "uint256"
        },
        {
          "indexed": false,
          "internalType": "uint256",
          "name": "endDate",
          "type": "uint256"
        },
        {
          "indexed": false,
          "internalType": "bytes32",
          "name": "metadataHash",
          "type": "bytes32"
        },
        {
          "indexed": false,
          "internalType": "uint256",
          "name": "payoutAmount",
          "type": "uint256"
        },
        {
          "indexed": false,
          "internalType": "uint256",
          "name": "payoutMaxCap",
          "type": "uint256"
        }
      ],
      "name": "ProgramCreated",
      "type": "event"
    },
    {
      "anonymous": false,
      "inputs": [
        {
          "indexed": true,
          "internalType": "uint256",
          "name": "programsId",
          "type": "uint256"
        },
        {
          "indexed": false,
          "internalType": "enum SubsidyPayout.ProgramStatus",
          "name": "status",
          "type": "uint8"
        }
      ],
      "name": "ProgramStatusUpdated",
      "type": "event"
    },
    {
      "anonymous": false,
      "inputs": [
        {
          "indexed": true,
          "internalType": "uint256",
          "name": "programsId",
          "type": "uint256"
        },
        {
          "indexed": false,
          "internalType": "uint256",
          "name": "payoutAmount",
          "type": "uint256"
        },
        {
          "indexed": false,
          "internalType": "uint256",
          "name": "payoutMaxCap",
          "type": "uint256"
        }
      ],
      "name": "ProgramUpdated",
      "type": "event"
    },
    {
      "inputs": [
        {
          "internalType": "address",
          "name": "",
          "type": "address"
        }
      ],
      "name": "agencyFunds",
      "outputs": [
        {
          "internalType": "uint256",
          "name": "",
          "type": "uint256"
        }
      ],
      "stateMutability": "view",
      "type": "function"
    },
    {
      "inputs": [
        {
          "internalType": "uint256",
          "name": "claimId",
          "type": "uint256"
        }
      ],
      "name": "approveAndPayout",
      "outputs": [],
      "stateMutability": "nonpayable",
      "type": "function"
    },
    {
      "inputs": [
        {
          "internalType": "uint256",
          "name": "claimId",
          "type": "uint256"
        }
      ],
      "name": "approveClaim",
      "outputs": [],
      "stateMutability": "nonpayable",
      "type": "function"
    },
    {
      "inputs": [
        {
          "internalType": "uint256",
          "name": "programsId",
          "type": "uint256"
        },
        {
          "internalType": "address",
          "name": "farmer",
          "type": "address"
        },
        {
          "internalType": "bytes32",
          "name": "metadataHash",
          "type": "bytes32"
        }
      ],
      "name": "autoCreateClaim",
      "outputs": [
        {
          "internalType": "uint256",
          "name": "claimId",
          "type": "uint256"
        }
      ],
      "stateMutability": "nonpayable",
      "type": "function"
    },
    {
      "inputs": [
        {
          "internalType": "uint256",
          "name": "",
          "type": "uint256"
        }
      ],
      "name": "claims",
      "outputs": [
        {
          "internalType": "uint256",
          "name": "programsId",
          "type": "uint256"
        },
        {
          "internalType": "address",
          "name": "farmer",
          "type": "address"
        },
        {
          "internalType": "uint256",
          "name": "amount",
          "type": "uint256"
        },
        {
          "internalType": "enum SubsidyPayout.ClaimStatus",
          "name": "status",
          "type": "uint8"
        },
        {
          "internalType": "bytes32",
          "name": "metadataHash",
          "type": "bytes32"
        },
        {
          "internalType": "uint256",
          "name": "submittedAt",
          "type": "uint256"
        },
        {
          "internalType": "string",
          "name": "rejectionReason",
          "type": "string"
        }
      ],
      "stateMutability": "view",
      "type": "function"
    },
    {
      "inputs": [
        {
          "internalType": "string",
          "name": "name",
          "type": "string"
        },
        {
          "internalType": "string",
          "name": "description",
          "type": "string"
        },
        {
          "internalType": "enum SubsidyPayout.ProgramType",
          "name": "programsType",
          "type": "uint8"
        },
        {
          "internalType": "enum SubsidyPayout.ProgramStatus",
          "name": "status",
          "type": "uint8"
        },
        {
          "internalType": "uint256",
          "name": "startDate",
          "type": "uint256"
        },
        {
          "internalType": "uint256",
          "name": "endDate",
          "type": "uint256"
        },
        {
          "internalType": "string",
          "name": "createdBy",
          "type": "string"
        },
        {
          "internalType": "bytes32",
          "name": "metadataHash",
          "type": "bytes32"
        },
        {
          "components": [
            {
              "internalType": "uint256",
              "name": "amount",
              "type": "uint256"
            },
            {
              "internalType": "uint256",
              "name": "maxCap",
              "type": "uint256"
            }
          ],
          "internalType": "struct SubsidyPayout.PayoutRule",
          "name": "payoutRule",
          "type": "tuple"
        },
        {
          "components": [
            {
              "internalType": "bool",
              "name": "hasMinFarmSize",
              "type": "bool"
            },
            {
              "internalType": "bool",
              "name": "hasMaxFarmSize",
              "type": "bool"
            },
            {
              "internalType": "uint256",
              "name": "minFarmSize",
              "type": "uint256"
            },
            {
              "internalType": "uint256",
              "name": "maxFarmSize",
              "type": "uint256"
            },
            {
              "internalType": "string[]",
              "name": "states",
              "type": "string[]"
            },
            {
              "internalType": "string[]",
              "name": "districts",
              "type": "string[]"
            },
            {
              "internalType": "string[]",
              "name": "cropTypes",
              "type": "string[]"
            },
            {
              "internalType": "string[]",
              "name": "certifications",
              "type": "string[]"
            }
          ],
          "internalType": "struct SubsidyPayout.Eligibility",
          "name": "eligibility",
          "type": "tuple"
        }
      ],
      "name": "createProgram",
      "outputs": [
        {
          "internalType": "uint256",
          "name": "programsId",
          "type": "uint256"
        }
      ],
      "stateMutability": "nonpayable",
      "type": "function"
    },
    {
      "inputs": [],
      "name": "deposit",
      "outputs": [],
      "stateMutability": "payable",
      "type": "function"
    },
    {
      "inputs": [
        {
          "internalType": "uint256",
          "name": "claimId",
          "type": "uint256"
        }
      ],
      "name": "disburseClaim",
      "outputs": [],
      "stateMutability": "nonpayable",
      "type": "function"
    },
    {
      "inputs": [
        {
          "internalType": "uint256",
          "name": "programsId",
          "type": "uint256"
        }
      ],
      "name": "enrollInProgram",
      "outputs": [],
      "stateMutability": "nonpayable",
      "type": "function"
    },
    {
      "inputs": [
        {
          "internalType": "address",
          "name": "",
          "type": "address"
        },
        {
          "internalType": "uint256",
          "name": "",
          "type": "uint256"
        }
      ],
      "name": "enrolledPrograms",
      "outputs": [
        {
          "internalType": "uint256",
          "name": "",
          "type": "uint256"
        }
      ],
      "stateMutability": "view",
      "type": "function"
    },
    {
      "inputs": [
        {
          "internalType": "address",
          "name": "agency",
          "type": "address"
        }
      ],
      "name": "getAgencyBalance",
      "outputs": [
        {
          "internalType": "uint256",
          "name": "",
          "type": "uint256"
        }
      ],
      "stateMutability": "view",
      "type": "function"
    },
    {
      "inputs": [
        {
          "internalType": "uint256",
          "name": "claimId",
          "type": "uint256"
        }
      ],
      "name": "getClaim",
      "outputs": [
        {
          "components": [
            {
              "internalType": "uint256",
              "name": "programsId",
              "type": "uint256"
            },
            {
              "internalType": "address",
              "name": "farmer",
              "type": "address"
            },
            {
              "internalType": "uint256",
              "name": "amount",
              "type": "uint256"
            },
            {
              "internalType": "enum SubsidyPayout.ClaimStatus",
              "name": "status",
              "type": "uint8"
            },
            {
              "internalType": "bytes32",
              "name": "metadataHash",
              "type": "bytes32"
            },
            {
              "internalType": "uint256",
              "name": "submittedAt",
              "type": "uint256"
            },
            {
              "internalType": "string",
              "name": "rejectionReason",
              "type": "string"
            }
          ],
          "internalType": "struct SubsidyPayout.Claim",
          "name": "",
          "type": "tuple"
        }
      ],
      "stateMutability": "view",
      "type": "function"
    },
    {
      "inputs": [
        {
          "internalType": "uint256",
          "name": "programsId",
          "type": "uint256"
        }
      ],
      "name": "getProgram",
      "outputs": [
        {
          "components": [
            {
              "internalType": "string",
              "name": "name",
              "type": "string"
            },
            {
              "internalType": "string",
              "name": "description",
              "type": "string"
            },
            {
              "internalType": "enum SubsidyPayout.ProgramType",
              "name": "programsType",
              "type": "uint8"
            },
            {
              "internalType": "enum SubsidyPayout.ProgramStatus",
              "name": "status",
              "type": "uint8"
            },
            {
              "internalType": "uint256",
              "name": "startDate",
              "type": "uint256"
            },
            {
              "internalType": "uint256",
              "name": "endDate",
              "type": "uint256"
            },
            {
              "internalType": "string",
              "name": "createdBy",
              "type": "string"
            },
            {
              "internalType": "bytes32",
              "name": "metadataHash",
              "type": "bytes32"
            },
            {
              "components": [
                {
                  "internalType": "uint256",
                  "name": "amount",
                  "type": "uint256"
                },
                {
                  "internalType": "uint256",
                  "name": "maxCap",
                  "type": "uint256"
                }
              ],
              "internalType": "struct SubsidyPayout.PayoutRule",
              "name": "payoutRule",
              "type": "tuple"
            },
            {
              "components": [
                {
                  "internalType": "bool",
                  "name": "hasMinFarmSize",
                  "type": "bool"
                },
                {
                  "internalType": "bool",
                  "name": "hasMaxFarmSize",
                  "type": "bool"
                },
                {
                  "internalType": "uint256",
                  "name": "minFarmSize",
                  "type": "uint256"
                },
                {
                  "internalType": "uint256",
                  "name": "maxFarmSize",
                  "type": "uint256"
                },
                {
                  "internalType": "string[]",
                  "name": "states",
                  "type": "string[]"
                },
                {
                  "internalType": "string[]",
                  "name": "districts",
                  "type": "string[]"
                },
                {
                  "internalType": "string[]",
                  "name": "cropTypes",
                  "type": "string[]"
                },
                {
                  "internalType": "string[]",
                  "name": "certifications",
                  "type": "string[]"
                }
              ],
              "internalType": "struct SubsidyPayout.Eligibility",
              "name": "eligibility",
              "type": "tuple"
            },
            {
              "internalType": "uint256",
              "name": "totalDisbursed",
              "type": "uint256"
            }
          ],
          "internalType": "struct SubsidyPayout.Program",
          "name": "",
          "type": "tuple"
        }
      ],
      "stateMutability": "view",
      "type": "function"
    },
    {
      "inputs": [
        {
          "internalType": "address",
          "name": "account",
          "type": "address"
        }
      ],
      "name": "grantGovernmentRole",
      "outputs": [],
      "stateMutability": "nonpayable",
      "type": "function"
    },
    {
      "inputs": [
        {
          "internalType": "uint256",
          "name": "",
          "type": "uint256"
        },
        {
          "internalType": "address",
          "name": "",
          "type": "address"
        }
      ],
      "name": "isFarmerEnrolled",
      "outputs": [
        {
          "internalType": "bool",
          "name": "",
          "type": "bool"
        }
      ],
      "stateMutability": "view",
      "type": "function"
    },
    {
      "inputs": [
        {
          "internalType": "address",
          "name": "",
          "type": "address"
        }
      ],
      "name": "isGovernment",
      "outputs": [
        {
          "internalType": "bool",
          "name": "",
          "type": "bool"
        }
      ],
      "stateMutability": "view",
      "type": "function"
    },
    {
      "inputs": [],
      "name": "nextClaimId",
      "outputs": [
        {
          "internalType": "uint256",
          "name": "",
          "type": "uint256"
        }
      ],
      "stateMutability": "view",
      "type": "function"
    },
    {
      "inputs": [],
      "name": "nextProgramId",
      "outputs": [
        {
          "internalType": "uint256",
          "name": "",
          "type": "uint256"
        }
      ],
      "stateMutability": "view",
      "type": "function"
    },
    {
      "inputs": [],
      "name": "oracle",
      "outputs": [
        {
          "internalType": "address",
          "name": "",
          "type": "address"
        }
      ],
      "stateMutability": "view",
      "type": "function"
    },
    {
      "inputs": [],
      "name": "owner",
      "outputs": [
        {
          "internalType": "address",
          "name": "",
          "type": "address"
        }
      ],
      "stateMutability": "view",
      "type": "function"
    },
    {
      "inputs": [
        {
          "internalType": "uint256",
          "name": "",
          "type": "uint256"
        }
      ],
      "name": "programs",
      "outputs": [
        {
          "internalType": "string",
          "name": "name",
          "type": "string"
        },
        {
          "internalType": "string",
          "name": "description",
          "type": "string"
        },
        {
          "internalType": "enum SubsidyPayout.ProgramType",
          "name": "programsType",
          "type": "uint8"
        },
        {
          "internalType": "enum SubsidyPayout.ProgramStatus",
          "name": "status",
          "type": "uint8"
        },
        {
          "internalType": "uint256",
          "name": "startDate",
          "type": "uint256"
        },
        {
          "internalType": "uint256",
          "name": "endDate",
          "type": "uint256"
        },
        {
          "internalType": "string",
          "name": "createdBy",
          "type": "string"
        },
        {
          "internalType": "bytes32",
          "name": "metadataHash",
          "type": "bytes32"
        },
        {
          "components": [
            {
              "internalType": "uint256",
              "name": "amount",
              "type": "uint256"
            },
            {
              "internalType": "uint256",
              "name": "maxCap",
              "type": "uint256"
            }
          ],
          "internalType": "struct SubsidyPayout.PayoutRule",
          "name": "payoutRule",
          "type": "tuple"
        },
        {
          "components": [
            {
              "internalType": "bool",
              "name": "hasMinFarmSize",
              "type": "bool"
            },
            {
              "internalType": "bool",
              "name": "hasMaxFarmSize",
              "type": "bool"
            },
            {
              "internalType": "uint256",
              "name": "minFarmSize",
              "type": "uint256"
            },
            {
              "internalType": "uint256",
              "name": "maxFarmSize",
              "type": "uint256"
            },
            {
              "internalType": "string[]",
              "name": "states",
              "type": "string[]"
            },
            {
              "internalType": "string[]",
              "name": "districts",
              "type": "string[]"
            },
            {
              "internalType": "string[]",
              "name": "cropTypes",
              "type": "string[]"
            },
            {
              "internalType": "string[]",
              "name": "certifications",
              "type": "string[]"
            }
          ],
          "internalType": "struct SubsidyPayout.Eligibility",
          "name": "eligibility",
          "type": "tuple"
        },
        {
          "internalType": "uint256",
          "name": "totalDisbursed",
          "type": "uint256"
        }
      ],
      "stateMutability": "view",
      "type": "function"
    },
    {
      "inputs": [
        {
          "internalType": "uint256",
          "name": "claimId",
          "type": "uint256"
        },
        {
          "internalType": "string",
          "name": "reason",
          "type": "string"
        }
      ],
      "name": "rejectClaim",
      "outputs": [],
      "stateMutability": "nonpayable",
      "type": "function"
    },
    {
      "inputs": [
        {
          "internalType": "address",
          "name": "account",
          "type": "address"
        }
      ],
      "name": "revokeGovernmentRole",
      "outputs": [],
      "stateMutability": "nonpayable",
      "type": "function"
    },
    {
      "inputs": [
        {
          "internalType": "uint256",
          "name": "programsId",
          "type": "uint256"
        },
        {
          "internalType": "bytes32",
          "name": "metadataHash",
          "type": "bytes32"
        }
      ],
      "name": "submitClaim",
      "outputs": [
        {
          "internalType": "uint256",
          "name": "claimId",
          "type": "uint256"
        }
      ],
      "stateMutability": "nonpayable",
      "type": "function"
    },
    {
      "inputs": [
        {
          "internalType": "uint256",
          "name": "programsId",
          "type": "uint256"
        },
        {
          "components": [
            {
              "internalType": "bool",
              "name": "hasMinFarmSize",
              "type": "bool"
            },
            {
              "internalType": "bool",
              "name": "hasMaxFarmSize",
              "type": "bool"
            },
            {
              "internalType": "uint256",
              "name": "minFarmSize",
              "type": "uint256"
            },
            {
              "internalType": "uint256",
              "name": "maxFarmSize",
              "type": "uint256"
            },
            {
              "internalType": "string[]",
              "name": "states",
              "type": "string[]"
            },
            {
              "internalType": "string[]",
              "name": "districts",
              "type": "string[]"
            },
            {
              "internalType": "string[]",
              "name": "cropTypes",
              "type": "string[]"
            },
            {
              "internalType": "string[]",
              "name": "certifications",
              "type": "string[]"
            }
          ],
          "internalType": "struct SubsidyPayout.Eligibility",
          "name": "eligibility",
          "type": "tuple"
        }
      ],
      "name": "updateEligibility",
      "outputs": [],
      "stateMutability": "nonpayable",
      "type": "function"
    },
    {
      "inputs": [
        {
          "internalType": "address",
          "name": "newOracle",
          "type": "address"
        }
      ],
      "name": "updateOracle",
      "outputs": [],
      "stateMutability": "nonpayable",
      "type": "function"
    },
    {
      "inputs": [
        {
          "internalType": "address",
          "name": "newOwner",
          "type": "address"
        }
      ],
      "name": "updateOwner",
      "outputs": [],
      "stateMutability": "nonpayable",
      "type": "function"
    },
    {
      "inputs": [
        {
          "internalType": "uint256",
          "name": "programsId",
          "type": "uint256"
        },
        {
          "components": [
            {
              "internalType": "uint256",
              "name": "amount",
              "type": "uint256"
            },
            {
              "internalType": "uint256",
              "name": "maxCap",
              "type": "uint256"
            }
          ],
          "internalType": "struct SubsidyPayout.PayoutRule",
          "name": "payoutRule",
          "type": "tuple"
        }
      ],
      "name": "updatePayoutRule",
      "outputs": [],
      "stateMutability": "nonpayable",
      "type": "function"
    },
    {
      "inputs": [
        {
          "internalType": "uint256",
          "name": "programsId",
          "type": "uint256"
        },
        {
          "internalType": "enum SubsidyPayout.ProgramStatus",
          "name": "status",
          "type": "uint8"
        }
      ],
      "name": "updateProgramStatus",
      "outputs": [],
      "stateMutability": "nonpayable",
      "type": "function"
    },
    {
      "stateMutability": "payable",
      "type": "receive"
    }
  ],
  "bytecode": "0x60803461010b57601f612abb38819003918201601f19168301916001600160401b0383118484101761010f5780849260209460405283398101031261010b57516001600160a01b0381169081900361010b576001600355600160045560018060a01b031990805f923381855416178455338452600260205260408420600160ff1982541617905560015416176001557f3df77beb5db05fcdd70a30fc8adf3f83f9501b68579455adbd100b818094039460405192337f4ffd725fc4a22075e9ec71c59edf9c38cdeb588a91b24fc5b61388c5be41282b8280a2337f06b7e73b864eee3b44819c423de068a65e4ab0266e23e5b6dd94442347d55cad8280a280a261299790816101248239f35b5f80fd5b634e487b7160e01b5f52604160045260245ffdfe6080604052600436101561008b575b3615610018575f80fd5b335f52600960205260405f2061002f348254612299565b90556040513481527f0939f6f4877faf071412e527bc4c6d0bd65ad077e52b57334f7765265647a7f160203392a26040513481527f543ba50a5eec5e6178218e364b1d0f396157b3c8fa278522c2cb7fd99407d47460203392a2005b5f3560e01c80631489ab8714611beb57806319700eda14611a585780631cb44dfc146119b45780633577a5ad146118c25780633bebc0511461184a57806346e30135146117515780635aef244714611639578063644d72b9146113a65780636536fabb146110b15780636c2b04fd146110745780637dc0d1d01461104c578063880cdc3114610faa5780638da5cb5b14610f8357806392db281614610e6d578063998970ac14610da4578063a0021cf114610d87578063a0c222b414610b1f578063a5717a4614610ad6578063a888c2cd14610a40578063b6d9cd1e146109e9578063b7a3657214610962578063ba71b33014610945578063bf62d3c914610840578063c3ecf897146105f5578063cc8fd314146105bd578063cf965b69146105bd578063d0e30db014610567578063d23c617e146104b25763e7484b5c0361000e57346104ae576020806003193601126104ae57600180546001600160a01b0390600435908216331480156104a2575b6102059061257b565b600a549361021660ff8616156125b4565b8360ff1980961617600a55815f526006815260405f2092600384019384549460ff861660048110156104575761046b57815495865f526005855260405f206102686102618254611e88565b151561244c565b600281019860ff8a5460081c166002811015610457576102a39a61028f8360ff931461248a565b828d479660028a019e8f54809910156125f5565b161786558287019a888c5416908b7f63e70868dc2d7ec072e727d9012d2ae383920c1f02e6f38e7017cd5f06ae09718c6040518a8152a45460081c16906002821015610457576102f3911461248a565b600881015480610402575b50601061031a91610311844710156125f5565b01918254612299565b90556003888254161790555f808080858954168a54905af13d156103fd573d61034281612548565b906103506040519283611f49565b81525f853d92013e5b156103c657907f4d937c601acb1048c3bd89bcee038b2ad7bbc3d48c65c30cc61fda42436fd2bc92915494541694548585857fe126a82946b3a6f5969d735bc2da134b26667bbdb0818d872a70cd8aee56b0fc85604051868152a4604051908152a4600a5416600a555f80f35b60405162461bcd60e51b815260048101849052600f60248201526e151c985b9cd9995c8819985a5b1959608a1b6044820152606490fd5b610359565b610410836010840154612299565b1161041b575f6102fe565b60405162461bcd60e51b8152600481018790526014602482015273141c9bd9dc985b4818d85c08195e18d95959195960621b6044820152606490fd5b634e487b7160e01b5f52602160045260245ffd5b60405162461bcd60e51b815260048101859052600f60248201526e4d7573742062652070656e64696e6760881b6044820152606490fd5b505f54821633146101fc565b5f80fd5b346104ae576003196040368201126104ae5760043590602435906001600160401b0382116104ae576101009082360301126104ae5761054190825f526005602052600960405f20916105076102618454611e88565b610513600c84016128e1565b61051f600d84016128e1565b61052b600e84016128e1565b610537600f84016128e1565b6004019101612753565b7f2ab80980f0eef9858eb5302d23051163010f1aede064abfb6140086c098c2b5e5f80a2005b5f3660031901126104ae57341561058f57335f52600960205260405f2061002f348254612299565b60405162461bcd60e51b815260206004820152600660248201526509cde408aa8960d31b6044820152606490fd5b346104ae5760203660031901126104ae576001600160a01b036105de611de4565b165f526009602052602060405f2054604051908152f35b346104ae5760203660031901126104ae575f61014060405161061681611edb565b60608152606060208201528260408201528260608201528260808201528260a0820152606060c08201528260e082015260405161065281611ef7565b83815283602082015261010082015260405161066d81611f12565b83815283602082015283604082015283606082015260606080820152606060a0820152606060c0820152606060e082015261012082015201526004355f52600560205260405f20604051906106c182611edb565b6106ca81611f6a565b82526106d860018201611f6a565b6020830152600281015460ff81169060038210156104575760ff91604085015260081c1690600282101561045757601091606084015260038101546080840152600481015460a084015261072e60058201611f6a565b60c0840152600681015460e08401526107496007820161200b565b61010084015261075b60098201612087565b61012084015201546101408201526040518091602082526101406108336107fa6107ac610796855161018060208901526101a0880190611e4a565b6020860151878203601f19016040890152611e4a565b6107be60408601516060880190612105565b6107d060608601516080880190612112565b608085015160a087015260a085015160c087015260c0850151601f198783030160e0880152611e4a565b60e084015161010086015260206101008501518051610120880152015183860152610120840151601f198683030161016087015261217a565b9101516101808301520390f35b346104ae5760203660031901126104ae57610859611de4565b5f546001600160a01b0390811691610872338414612226565b169061087f82151561225e565b811461090a57805f52600260205260ff60405f205416156108d457805f52600260205260405f2060ff1981541690557f356c02df5f27e0e70ccc1fe4d9fdce0ac870948ebc6b824e6169812b4ec6c6165f80a2005b60405162461bcd60e51b815260206004820152600e60248201526d139bdd0819dbdd995c9b9b595b9d60921b6044820152606490fd5b60405162461bcd60e51b815260206004820152601360248201527221b0b73737ba103932bb37b5b29037bbb732b960691b6044820152606490fd5b346104ae575f3660031901126104ae576020600354604051908152f35b346104ae5760603660031901126104ae5760043560403660231901126104ae57805f5260056020527fae39d9d6b7241a27f43670effb759a4f874fb2441335e82a5298a367763798e16040805f206109bd6102618254611e88565b6008602435916109ce8315156122a6565b826007820155604435918291015582519182526020820152a2005b346104ae5760403660031901126104ae57610a02611de4565b6001600160a01b03165f908152600760205260409020805460243591908210156104ae57602091610a32916121fd565b90546040519160031b1c8152f35b346104ae5760203660031901126104ae576004355f52600660205260405f208054610ad260018060a01b036001840154169260028101549060ff600382015416610ab7600483015491610a9a600660058601549501611f6a565b946040519889988952602089015260408801526060870190611e3d565b608085015260a084015260e060c084015260e0830190611e4a565b0390f35b346104ae5760403660031901126104ae57610aef611dfa565b6004355f52600860205260405f209060018060a01b03165f52602052602060ff60405f2054166040519015158152f35b346104ae5760403660031901126104ae5760043560243590805f526020916005835260405f2091610b536102618454611e88565b60ff600284015460081c16600281101561045757610b74600180921461248a565b600384015442101580610d79575b610b8b906124c9565b815f526008855260405f20335f528552610bab60ff60405f205416612506565b600760045494610bba866122e7565b600455019081549060405191610bcf83611ec0565b848352878301923384526040810191825260608101915f8352608082019288845260a083019142835260405196610c0588611f2e565b5f80895260c086019889528c815260068e5260409020945185555186850180546001600160a01b0319166001600160a01b03929092169190911790555160028401555192600484101561045757610c6160069460038501612563565b5160048301555160058201550191518051906001600160401b038211610d6557610c9582610c8f8654611e88565b8661230b565b8890601f8311600114610d06579282939183925f94610cfb575b50501b915f199060031b1c19161790555b549160405192835284830152827f5a5cab0ce7e50ff4a469602322193052db5a543b8ca05e6ecf08ad55084ff30a60403394a4604051908152f35b015192508a80610caf565b90601f19831691855f52838b5f20935f5b8d88838310610d4e5750505010610d36575b505050811b019055610cc0565b01515f1960f88460031b161c19169055888080610d29565b868601518855909601959485019487935001610d17565b634e487b7160e01b5f52604160045260245ffd5b506004840154421115610b82565b346104ae575f3660031901126104ae576020600454604051908152f35b346104ae5760203660031901126104ae57610dbd611de4565b5f546001600160a01b039190610dd69083163314612226565b16610de281151561225e565b805f52600260205260ff60405f205416610e3357805f52600260205260405f20600160ff198254161790557f06b7e73b864eee3b44819c423de068a65e4ab0266e23e5b6dd94442347d55cad5f80a2005b60405162461bcd60e51b8152602060048201526012602482015271105b1c9958591e4819dbdd995c9b9b595b9d60721b6044820152606490fd5b346104ae5760203660031901126104ae576004355f52600560205260405f20610e9581611f6a565b610ea160018301611f6a565b91600281015490600381015491600482015460058301610ec090611f6a565b600684015492610ed26007860161200b565b92610edf60098701612087565b956010015496604051998a99610180808c528b01610efc91611e4a565b8a810360208c0152610f0d91611e4a565b92610f1e60408b0160ff8316612105565b60608a019060081c60ff1690610f3391612112565b608089015260a088015286810360c0880152610f4e91611e4a565b9160e0860152805161010086015260200151610120850152838103610140850152610f789161217a565b906101608301520390f35b346104ae575f3660031901126104ae575f546040516001600160a01b039091168152602090f35b346104ae5760203660031901126104ae57610fc3611de4565b5f54906001600160a01b0390610fdc3383851614612226565b1690811561101a576001600160a01b03191681175f9081557f4ffd725fc4a22075e9ec71c59edf9c38cdeb588a91b24fc5b61388c5be41282b9080a2005b60405162461bcd60e51b815260206004820152600a6024820152692d32b9379037bbb732b960b11b6044820152606490fd5b346104ae575f3660031901126104ae576001546040516001600160a01b039091168152602090f35b346104ae5760203660031901126104ae576001600160a01b03611095611de4565b165f526002602052602060ff60405f2054166040519015158152f35b346104ae5760603660031901126104ae576004356110cd611dfa565b600180549092916001600160a01b03916044359083163314801561139a575b6110f59061257b565b835f526020946005865260405f20936111116102618654611e88565b60ff600286015460081c1692600284101561045757611132835f951461248a565b60038601544210158061138c575b611149906124c9565b868452600888528160408520951694858552885261116d60ff604086205416612506565b8760076004549761117d896122e7565b6004550192878454916040519261119384611ec0565b8b84528484018a81526040850191825260608501928a84526006608087019789895260a08801964288526040519d8e6111cb81611f2e565b5260c089019d8e525f525260405f20955186558986019151166bffffffffffffffffffffffff60a01b825416179055516002840155519260048410156104575761121a60069460038501612563565b516004830155516005820155019351918251946001600160401b038611610d6557858995899561124f8a99610c8f8654611e88565b8c90601f84116001146112e45792807f5a5cab0ce7e50ff4a469602322193052db5a543b8ca05e6ecf08ad55084ff30a9795938193604098965f946112d9575b50501b915f199060031b1c19161790555b549082519182528a820152a460405192827fa0ae011a7e92dd1401f20d322e6cea9fd114ca02abaf366d067e86d2eb75883a5f80a48152f35b015192505f8061128f565b908d91601f949394198416865f52835f20935f905b82821061135a57505091604097959391857f5a5cab0ce7e50ff4a469602322193052db5a543b8ca05e6ecf08ad55084ff30a9a98969410611342575b505050811b0190556112a0565b01515f1960f88460031b161c191690558e8080611335565b93879a9d50838594979a9d5081999c509792959197015181550195019301928c9895928c9895928f958d9c99966112f9565b506004860154421115611140565b505f54831633146110ec565b346104ae57600319610160368201126104ae576001600160401b03906004358281116104ae576113da903690600401611e10565b90916024358481116104ae576113f4903690600401611e10565b939092600360443510156104ae57600260643510156104ae5760c4358681116104ae57611425903690600401611e10565b9390966040610103193601126104ae5761014435116104ae576101009061014435360301126104ae578015611604576114626101043515156122a6565b60a43560843510156115cf5761153c7f31962994ecd7152a21753913c6fcad495a95e706c60082dbfc1402098658cbf9936020976114f06003549889986114a88a6122e7565b600355895f5260058c526114c861014435600401600960405f2001612753565b895f5260058c526114dd878960405f2061234e565b895f5260058c52600160405f200161234e565b865f5260058952611519600260405f200160ff1981541660ff604435161781556064359061240d565b865f5260058952600560405f20608435600382015560a43560048201550161234e565b835f526005865260405f2060e435908160068201556101043560078201555f601061012435928360088201550155611583604051948594610100865261010086019161242c565b91611592898501604435612105565b6115a160408501606435612112565b608435606085015260a435608085015260a08401526101043560c084015260e08301520390a2604051908152f35b60405162461bcd60e51b815260206004820152600d60248201526c496e76616c696420646174657360981b6044820152606490fd5b60405162461bcd60e51b815260206004820152600d60248201526c13985b59481c995c5d5a5c9959609a1b6044820152606490fd5b346104ae576020806003193601126104ae57606060c060405161165b81611ec0565b5f81525f848201525f60408201525f838201525f60808201525f60a082015201526004355f526006815260405f206040519061169682611ec0565b8054825260018101546001600160a01b039081168484019081526002830154604085019081526003840154909391929060ff1660608601600482101561045757610ad29561173392825260048501549360808901948552611705600660058801549760a08c0198895201611f6a565b9660c08a019788526040519a8b9a818c5251908b015251166040890152516060880152516080870190611e3d565b5160a08501525160c08401525160e080840152610100830190611e4a565b346104ae5760203660031901126104ae57600435805f52600660205260405f2090600382019081549160ff831660048110156104575761180d57835492835f52600560205260ff600260405f206117ab6102618254611e88565b015460081c16906002821015610457576117c8600180931461248a565b60ff19161790557f63e70868dc2d7ec072e727d9012d2ae383920c1f02e6f38e7017cd5f06ae09716020600260018060a01b03600187015416950154604051908152a4005b60405162461bcd60e51b8152602060048201526015602482015274436c61696d206d7573742062652070656e64696e6760581b6044820152606490fd5b346104ae5760403660031901126104ae5760043560243560028110156104ae5760207f7ae6cca0b26c8504c4e19b9ef5fb80349af56d9c3d4be8ce0e4d76856507456291835f52600582526118b281600260405f206118ac6102618254611e88565b0161240d565b6118bf6040518092612112565ba2005b346104ae5760403660031901126104ae576004356024356001600160401b0381116104ae576118f5903690600401611e10565b91805f52600660205260405f2091600383019081549160ff83166004811015610457576119815760027f6014f6f9dbb4598f3aac859c39462a5a20d68534e732c8bae08cd8bb90264bf09360ff191617905561195585826006870161234e565b8354936001808060a01b03910154169461197c60405192839260208452602084019161242c565b0390a4005b60405162461bcd60e51b815260206004820152600b60248201526a4e6f742070656e64696e6760a81b6044820152606490fd5b346104ae5760203660031901126104ae576119cd611de4565b5f546001600160a01b0391906119e69083163314612226565b168015611a2557600180546001600160a01b031916821790557f3df77beb5db05fcdd70a30fc8adf3f83f9501b68579455adbd100b81809403945f80a2005b60405162461bcd60e51b815260206004820152600b60248201526a5a65726f206f7261636c6560a81b6044820152606490fd5b346104ae576020806003193601126104ae5760043590815f526005815260405f20611a866102618254611e88565b60ff600282015460081c16600281101561045757600103611bb157600401544211611b7d57815f526008815260405f20335f52815260ff60405f205416611b4657600790825f526008815260405f20335f52815260405f20600160ff198254161790555260405f208054600160401b811015610d6557611b0b916001820181556121fd565b81549060031b9083821b915f19901b1916179055337f5330331063e367acf9dbb83b95dbaed37e954e0ddff33e12337f5671bb28a54c5f80a3005b6064906040519062461bcd60e51b82526004820152601060248201526f105b1c9958591e48195b9c9bdb1b195960821b6044820152fd5b6064906040519062461bcd60e51b82526004820152600d60248201526c141c9bd9dc985b48195b991959609a1b6044820152fd5b60405162461bcd60e51b815260048101839052601260248201527150726f6772616d206e6f742061637469766560701b6044820152606490fd5b346104ae576020806003193601126104ae57600a5490600435611c1160ff8416156125b4565b600160ff1980941617600a55805f526006825260405f2090600382019260ff845416600481101561045757600103611da75782545f526005815260405f2093611c5d6102618654611e88565b60ff600286015460081c1660028110156104575760011494611c7e8661248a565b335f526009835260405f2054611ca56002870197611ca0895480941015612641565b61248a565b600882015480611d52575b503315611d4157335f5260098452611cce8160405f20541015612641565b335f526009845260405f208054918203918211611d2d57555b611cf8601087549201918254612299565b9055600386825416179055600183019260018060a01b03905f808080858954168a54905af13d156103fd573d61034281612548565b634e487b7160e01b5f52601160045260245ffd5b611d4d904710156125f5565b611ce7565b611d60826010850154612299565b11611d6b5788611cb0565b60405162461bcd60e51b8152600481018590526014602482015273141c9bd9dc985b4818d85c08195e18d95959195960621b6044820152606490fd5b6064906040519062461bcd60e51b82526004820152601660248201527510db185a5b481b5d5cdd08189948185c1c1c9bdd995960521b6044820152fd5b600435906001600160a01b03821682036104ae57565b602435906001600160a01b03821682036104ae57565b9181601f840112156104ae578235916001600160401b0383116104ae57602083818601950101116104ae57565b9060048210156104575752565b91908251928382525f5b848110611e74575050825f602080949584010152601f8019910116010190565b602081830181015184830182015201611e54565b90600182811c92168015611eb6575b6020831014611ea257565b634e487b7160e01b5f52602260045260245ffd5b91607f1691611e97565b60e081019081106001600160401b03821117610d6557604052565b61016081019081106001600160401b03821117610d6557604052565b604081019081106001600160401b03821117610d6557604052565b61010081019081106001600160401b03821117610d6557604052565b602081019081106001600160401b03821117610d6557604052565b90601f801991011681019081106001600160401b03821117610d6557604052565b9060405191825f825492611f7d84611e88565b9081845260019485811690815f14611fe85750600114611fa8575b5050611fa692500383611f49565b565b909391505f52602090815f20935f915b818310611fd0575050611fa693508201015f80611f98565b85548884018501529485019487945091830191611fb8565b915050611fa694506020925060ff191682840152151560051b8201015f80611f98565b9060405161201881611ef7565b602060018294805484520154910152565b9081546001600160401b038111610d655760405192602061204f818460051b0186611f49565b8285525f9182528082208186015b84841061206b575050505050565b600183819261207985611f6a565b81520192019301929061205d565b9060405161209481611f12565b60e06121006006839560ff81548181161515875260081c161515602086015260018101546040860152600281015460608601526120d360038201612029565b60808601526120e460048201612029565b60a08601526120f560058201612029565b60c086015201612029565b910152565b9060038210156104575752565b9060028210156104575752565b90808183519182825260208080809401958560051b01019501935f915b84831061214c5750505050505090565b909192939495848061216a600193601f198682030187528a51611e4a565b980193019301919493929061213c565b6121fa91815115158152602082015115156020820152604082015160408201526060820151606082015260e06121e96121d76121c5608086015161010080608088015286019061211f565b60a086015185820360a087015261211f565b60c085015184820360c086015261211f565b9201519060e081840391015261211f565b90565b8054821015612212575f5260205f2001905f90565b634e487b7160e01b5f52603260045260245ffd5b1561222d57565b60405162461bcd60e51b81526020600482015260096024820152682737ba1037bbb732b960b91b6044820152606490fd5b1561226557565b60405162461bcd60e51b815260206004820152600c60248201526b16995c9bc81858d8dbdd5b9d60a21b6044820152606490fd5b91908201809211611d2d57565b156122ad57565b60405162461bcd60e51b815260206004820152601260248201527105061796f7574206d757374206265203e20360741b6044820152606490fd5b5f198114611d2d5760010190565b818110612300575050565b5f81556001016122f5565b9190601f811161231a57505050565b611fa6925f5260205f20906020601f840160051c83019310612344575b601f0160051c01906122f5565b9091508190612337565b9092916001600160401b038111610d65576123738161236d8454611e88565b8461230b565b5f601f82116001146123aa57819293945f9261239f575b50508160011b915f199060031b1c1916179055565b013590505f8061238a565b601f198216948382526020918281209281905b8882106123f5575050836001959697106123dc575b505050811b019055565b01355f19600384901b60f8161c191690555f80806123d2565b806001849682949587013581550195019201906123bd565b9060028110156104575761ff0082549160081b169061ff001916179055565b908060209392818452848401375f828201840152601f01601f1916010190565b1561245357565b60405162461bcd60e51b815260206004820152600f60248201526e50726f6772616d206d697373696e6760881b6044820152606490fd5b1561249157565b60405162461bcd60e51b815260206004820152601060248201526f50726f6772616d20696e61637469766560801b6044820152606490fd5b156124d057565b60405162461bcd60e51b815260206004820152600e60248201526d4f7574736964652077696e646f7760901b6044820152606490fd5b1561250d57565b60405162461bcd60e51b815260206004820152601360248201527211985c9b595c881b9bdd08195b9c9bdb1b1959606a1b6044820152606490fd5b6001600160401b038111610d6557601f01601f191660200190565b9060048110156104575760ff80198354169116179055565b1561258257565b60405162461bcd60e51b815260206004820152600a6024820152694e6f74206f7261636c6560b01b6044820152606490fd5b156125bb57565b60405162461bcd60e51b81526020600482015260126024820152711499595b9d1c985b98de48189b1bd8dad95960721b6044820152606490fd5b156125fc57565b60405162461bcd60e51b815260206004820152601d60248201527f496e73756666696369656e7420636f6e74726163742062616c616e63650000006044820152606490fd5b1561264857565b60405162461bcd60e51b815260206004820152601b60248201527f4167656e637920696e73756666696369656e742062616c616e636500000000006044820152606490fd5b3580151581036104ae5790565b903590601e19813603018212156104ae57018035906001600160401b0382116104ae57602001918160051b360383136104ae57565b91908110156122125760051b81013590601e19813603018212156104ae5701908135916001600160401b0383116104ae5760200182360381136104ae579190565b9190918054600160401b811015610d6557612730916001820181556121fd565b92909261274057611fa69261234e565b634e487b7160e01b5f525f60045260245ffd5b9061275d8161268d565b151560ff835491168060ff19831617845561ff0061277d6020850161268d565b151560081b169161ffff1916171782556001906040810135828401556060810135600284015581805f905b61289f575b505f815b61285d575b505f815b61281b575b505f905b6127ce575b50505050565b60e08201906127dd828461269a565b90508110156128155761280a612800826127fa61280f958761269a565b906126cf565b9060068801612710565b6122e7565b826127c3565b506127c8565b60c083019061282a828561269a565b90508110156128575761280a612847826127fa612851958861269a565b9060058901612710565b816127ba565b506127bf565b60a083019061286c828561269a565b90508110156128995761280a612889826127fa612893958861269a565b9060048901612710565b816127b1565b506127b6565b60808301906128ae828561269a565b90508110156128db5761280a6128cb826127fa6128d5958861269a565b9060038901612710565b816127a8565b506127ad565b8054905f90818155826128f357505050565b81526020808220928301925b83811061290c5750505050565b808361291a60019354611e88565b80612928575b5050016128ff565b601f808211851461293f57505081555b835f612920565b61295890848452868420920160051c82018583016122f5565b8183555561293856fea2646970667358221220d6cf61066d641b72a8a279687b7afeeedbd0bca465916e3f4f8206a30d5d904c64736f6c63430008140033",
  "linkReferences": {},
  "deployedLinkReferences": {},
  "immutableReferences": {},
  "inputSourceName": "project/contracts/SubsidyPayout.sol",
  "buildInfoId": "solc-0_8_20-680fea7986eaaa5b763e792f1e91c9233da2c3d8"
}