{
  "_format": "hh3-artifact-1",
  "contractName": "Traceability",
  "sourceName": "contracts/Traceability.sol",
  "abi": [
    {
      "anonymous": false,
      "inputs": [
        {
          "indexed": false,
          "internalType": "string",
          "name": "batchId",
          "type": "string"
        },
        {
          "indexed": true,
          "internalType": "address",
          "name": "recordedBy",
          "type": "address"
        },
        {
          "indexed": false,
          "internalType": "string",
          "name": "produceHash",
          "type": "string"
        },
        {
          "indexed": false,
          "internalType": "string",
          "name": "qrHash",
          "type": "string"
        },
        {
          "indexed": false,
          "internalType": "uint256",
          "name": "timestamp",
          "type": "uint256"
        }
      ],
      "name": "ProduceRecorded",
      "type": "event"
    },
    {
      "inputs": [
        {
          "internalType": "string",
          "name": "batchId",
          "type": "string"
        }
      ],
      "name": "getProduce",
      "outputs": [
        {
          "components": [
            {
              "internalType": "string",
              "name": "batchId",
              "type": "string"
            },
            {
              "internalType": "string",
              "name": "produceHash",
              "type": "string"
            },
            {
              "internalType": "string",
              "name": "qrHash",
              "type": "string"
            },
            {
              "internalType": "address",
              "name": "recordedBy",
              "type": "address"
            },
            {
              "internalType": "uint256",
              "name": "timestamp",
              "type": "uint256"
            }
          ],
          "internalType": "struct Traceability.Produce",
          "name": "",
          "type": "tuple"
        }
      ],
      "stateMutability": "view",
      "type": "function"
    },
    {
      "inputs": [
        {
          "internalType": "string",
          "name": "batchId",
          "type": "string"
        },
        {
          "internalType": "string",
          "name": "produceHash",
          "type": "string"
        },
        {
          "internalType": "string",
          "name": "qrHash",
          "type": "string"
        }
      ],
      "name": "recordProduce",
      "outputs": [],
      "stateMutability": "nonpayable",
      "type": "function"
    }
  ],
  "bytecode": "0x60808060405234610016576108f7908161001b8239f35b5f80fdfe60806040526004361015610011575f80fd5b5f3560e01c80638f4a333b146101cf5763ddf240251461002f575f80fd5b346101cb576020806003193601126101cb5760043567ffffffffffffffff81116101cb5761006190369060040161074c565b6040519061006e8261070e565b5f6080606093848152848682015284604082015282858201520152604051906100b38151928581818501956100a48183896107a2565b81015f815203019020546107e8565b15610194578360a094926100d2926040519384928392519283916107a2565b81015f81520301902090604051926100e98461070e565b6100f283610820565b845261018261010360018501610820565b83860190815261011560028601610820565b9060408701918252600180891b039361017261015c60048760038b01541699848c019a8b5201549760808b019889526040519b8c9b828d5251918c015260c08b01906107c3565b925192601f1993848b83030160408c01526107c3565b92519188840301908801526107c3565b92511660808401525160a08301520390f35b60405162461bcd60e51b815260048101859052600f60248201526e10985d18da081b9bdd08199bdd5b99608a1b6044820152606490fd5b5f80fd5b346101cb5760603660031901126101cb5760043567ffffffffffffffff81116101cb5761020090369060040161074c565b60243567ffffffffffffffff81116101cb5761022090369060040161074c565b60443567ffffffffffffffff81116101cb5761024090369060040161074c565b9060405161025c845191602081818801946100a48183886107a2565b6106d05761029d6020604051926102728461070e565b86845284828501528560408501523360608501524260808501526040518093819289519283916107a2565b81015f81520301902090805180519067ffffffffffffffff82116105375781906102c785546107e8565b601f8111610683575b50602090601f831160011461061f575f92610614575b50508160011b915f199060031b1c19161782555b602081015180519067ffffffffffffffff821161053757819061032060018601546107e8565b601f81116105c4575b50602090601f8311600114610556575f9261054b575b50508160011b915f199060031b1c19161760018301555b604081015180519067ffffffffffffffff82116105375761037a60028501546107e8565b601f81116104f3575b50602090601f831160011461045a576080610432948461044098957f9d2e799931ec8cabfea8205aafdbabd268fb169e13524142d6734a5f7f5216009a98956004955f9261044f575b50508160011b915f199060031b1c19161760028501555b6003840160018060a01b036060830151166bffffffffffffffffffffffff60a01b8254161790550151910155610424604051966080885260808801906107c3565b9086820360208801526107c3565b9084820360408601526107c3565b914260608201528033930390a2005b015190508c806103cc565b90601f19831691600286015f5260205f20925f5b8181106104db5750946001857f9d2e799931ec8cabfea8205aafdbabd268fb169e13524142d6734a5f7f5216009a98956004956080956104409c996104329b106104c3575b505050811b0160028501556103e3565b01515f1960f88460031b161c191690558c80806104b3565b9293602060018192878601518155019501930161046e565b600285015f5260205f20601f840160051c810160208510610530575b601f830160051c82018110610525575050610383565b5f815560010161050f565b508061050f565b634e487b7160e01b5f52604160045260245ffd5b01519050878061033f565b9250600185015f5260205f20905f935b601f19841685106105a9576001945083601f19811610610591575b505050811b016001830155610356565b01515f1960f88460031b161c19169055878080610581565b81810151835560209485019460019093019290910190610566565b909150600185015f5260205f20601f840160051c81016020851061060d575b90849392915b601f830160051c820181106105ff575050610329565b5f81558594506001016105e9565b50806105e3565b0151905087806102e6565b5f868152602081209350601f198516905b81811061066b5750908460019594939210610653575b505050811b0182556102fa565b01515f1960f88460031b161c19169055878080610646565b92936020600181928786015181550195019301610630565b909150845f5260205f20601f840160051c8101602085106106c9575b90849392915b601f830160051c820181106106bb5750506102d0565b5f81558594506001016106a5565b508061069f565b60405162461bcd60e51b815260206004820152601660248201527510985d18da08185b1c9958591e481c9958dbdc99195960521b6044820152606490fd5b60a0810190811067ffffffffffffffff82111761053757604052565b90601f8019910116810190811067ffffffffffffffff82111761053757604052565b81601f820112156101cb5780359067ffffffffffffffff82116105375760405192610781601f8401601f19166020018561072a565b828452602083830101116101cb57815f926020809301838601378301015290565b5f5b8381106107b35750505f910152565b81810151838201526020016107a4565b906020916107dc815180928185528580860191016107a2565b601f01601f1916010190565b90600182811c92168015610816575b602083101461080257565b634e487b7160e01b5f52602260045260245ffd5b91607f16916107f7565b9060405191825f825492610833846107e8565b9081845260019485811690815f1461089e575060011461085e575b505061085c9250038361072a565b565b909391505f52602090815f20935f915b81831061088657505061085c93508201015f8061084e565b8554888401850152948501948794509183019161086e565b91505061085c94506020925060ff191682840152151560051b8201015f8061084e56fea2646970667358221220429972943d86c6d5ed87b15a76889f07d143f625e08a89a197f4debb1130f9da64736f6c63430008140033",
  "linkReferences": {},
  "deployedLinkReferences": {},
  "immutableReferences": {},
  "inputSourceName": "project/contracts/Traceability.sol",
  "buildInfoId": "solc-0_8_20-f8506b537e66bcaa5e2f9d72a1eb378e3455438d"
}