{
  "project/contracts/Traceability.sol": {
    "Traceability": {
      "abi": [
        {
          "anonymous": false,
          "inputs": [
            {
              "indexed": false,
              "internalType": "string",
              "name": "batchId",
              "type": "string"
            },
            {
              "indexed": true,
              "internalType": "address",
              "name": "recordedBy",
              "type": "address"
            },
            {
              "indexed": false,
              "internalType": "string",
              "name": "produceHash",
              "type": "string"
            },
            {
              "indexed": false,
              "internalType": "string",
              "name": "qrHash",
              "type": "string"
            },
            {
              "indexed": false,
              "internalType": "uint256",
              "name": "timestamp",
              "type": "uint256"
            }
          ],
          "name": "ProduceRecorded",
          "type": "event"
        },
        {
          "inputs": [
            {
              "internalType": "string",
              "name": "batchId",
              "type": "string"
            }
          ],
          "name": "getProduce",
          "outputs": [
            {
              "components": [
                {
                  "internalType": "string",
                  "name": "batchId",
                  "type": "string"
                },
                {
                  "internalType": "string",
                  "name": "produceHash",
                  "type": "string"
                },
                {
                  "internalType": "string",
                  "name": "qrHash",
                  "type": "string"
                },
                {
                  "internalType": "address",
                  "name": "recordedBy",
                  "type": "address"
                },
                {
                  "internalType": "uint256",
                  "name": "timestamp",
                  "type": "uint256"
                }
              ],
              "internalType": "struct Traceability.Produce",
              "name": "",
              "type": "tuple"
            }
          ],
          "stateMutability": "view",
          "type": "function"
        },
        {
          "inputs": [
            {
              "internalType": "string",
              "name": "batchId",
              "type": "string"
            },
            {
              "internalType": "string",
              "name": "produceHash",
              "type": "string"
            },
            {
              "internalType": "string",
              "name": "qrHash",
              "type": "string"
            }
          ],
          "name": "recordProduce",
          "outputs": [],
          "stateMutability": "nonpayable",
          "type": "function"
        },
        {
          "inputs": [
            {
              "internalType": "string",
              "name": "batchId",
              "type": "string"
            },
            {
              "internalType": "string",
              "name": "hashToCheck",
              "type": "string"
            }
          ],
          "name": "verifyProduce",
          "outputs": [
            {
              "internalType": "bool",
              "name": "",
              "type": "bool"
            }
          ],
          "stateMutability": "view",
          "type": "function"
        }
      ],
      "evm": {
        "bytecode": {
          "linkReferences": {},
          "object": "60808060405234610016576109c8908161001b8239f35b5f80fdfe60806040526004361015610011575f80fd5b5f3560e01c806305fe50691461070c5780638f4a333b146101cd5763ddf240251461003a575f80fd5b346101c9576020806003193601126101c9576004359067ffffffffffffffff82116101c95761006f60a09236906004016107ef565b906100e18160405193610081856107b1565b5f6080606096878152878582015287604082015282888201520152604051906100d06100c98251938581818601966100ba81838a610845565b81015f8152030190205461088b565b15156108c3565b604051938492839251928391610845565b81015f81520301902090604051926100f8846107b1565b604051610110816101098187610901565b03826107cd565b84526101b7604051610129816101098160018901610901565b8386019081526040519061014b826101448160028a01610901565b03836107cd565b60408701918252600180891b03936101a761019160048760038b01541699848c019a8b5201549760808b019889526040519b8c9b828d5251918c015260c08b0190610866565b925192601f1993848b83030160408c0152610866565b9251918884030190880152610866565b92511660808401525160a08301520390f35b5f80fd5b346101c95760603660031901126101c95760043567ffffffffffffffff81116101c9576101fe9036906004016107ef565b60243567ffffffffffffffff81116101c95761021e9036906004016107ef565b60443567ffffffffffffffff81116101c95761023e9036906004016107ef565b9060405161025a845191602081818801946100ba818388610845565b6106ce5761029b602060405192610270846107b1565b8684528482850152856040850152336060850152426080850152604051809381928951928391610845565b81015f81520301902090805180519067ffffffffffffffff82116105355781906102c5855461088b565b601f8111610681575b50602090601f831160011461061d575f92610612575b50508160011b915f199060031b1c19161782555b602081015180519067ffffffffffffffff821161053557819061031e600186015461088b565b601f81116105c2575b50602090601f8311600114610554575f92610549575b50508160011b915f199060031b1c19161760018301555b604081015180519067ffffffffffffffff821161053557610378600285015461088b565b601f81116104f1575b50602090601f8311600114610458576080610430948461043e98957f9d2e799931ec8cabfea8205aafdbabd268fb169e13524142d6734a5f7f5216009a98956004955f9261044d575b50508160011b915f199060031b1c19161760028501555b6003840160018060a01b036060830151166bffffffffffffffffffffffff60a01b825416179055015191015561042260405196608088526080880190610866565b908682036020880152610866565b908482036040860152610866565b914260608201528033930390a2005b015190508c806103ca565b90601f19831691600286015f5260205f20925f5b8181106104d95750946001857f9d2e799931ec8cabfea8205aafdbabd268fb169e13524142d6734a5f7f5216009a989560049560809561043e9c996104309b106104c1575b505050811b0160028501556103e1565b01515f1960f88460031b161c191690558c80806104b1565b9293602060018192878601518155019501930161046c565b600285015f5260205f20601f840160051c81016020851061052e575b601f830160051c82018110610523575050610381565b5f815560010161050d565b508061050d565b634e487b7160e01b5f52604160045260245ffd5b01519050878061033d565b9250600185015f5260205f20905f935b601f19841685106105a7576001945083601f1981161061058f575b505050811b016001830155610354565b01515f1960f88460031b161c1916905587808061057f565b81810151835560209485019460019093019290910190610564565b909150600185015f5260205f20601f840160051c81016020851061060b575b90849392915b601f830160051c820181106105fd575050610327565b5f81558594506001016105e7565b50806105e1565b0151905087806102e4565b5f868152602081209350601f198516905b8181106106695750908460019594939210610651575b505050811b0182556102f8565b01515f1960f88460031b161c19169055878080610644565b9293602060018192878601518155019501930161062e565b909150845f5260205f20601f840160051c8101602085106106c7575b90849392915b601f830160051c820181106106b95750506102ce565b5f81558594506001016106a3565b508061069d565b60405162461bcd60e51b815260206004820152601660248201527510985d18da08185b1c9958591e481c9958dbdc99195960521b6044820152606490fd5b346101c95760403660031901126101c95767ffffffffffffffff6004358181116101c95761073e9036906004016107ef565b6024359182116101c95761010961079b60016107856107646100c99636906004016107ef565b94604051908051906100d0602099848b8096818601966100ba81838a610845565b81015f8152030190200160405192838092610901565b8281519101209082815191012014604051908152f35b60a0810190811067ffffffffffffffff82111761053557604052565b90601f8019910116810190811067ffffffffffffffff82111761053557604052565b81601f820112156101c95780359067ffffffffffffffff82116105355760405192610824601f8401601f1916602001856107cd565b828452602083830101116101c957815f926020809301838601378301015290565b5f5b8381106108565750505f910152565b8181015183820152602001610847565b9060209161087f81518092818552858086019101610845565b601f01601f1916010190565b90600182811c921680156108b9575b60208310146108a557565b634e487b7160e01b5f52602260045260245ffd5b91607f169161089a565b156108ca57565b60405162461bcd60e51b815260206004820152600f60248201526e10985d18da081b9bdd08199bdd5b99608a1b6044820152606490fd5b905f92918054916109118361088b565b9182825260019384811690815f1461096f5750600114610932575b50505050565b90919394505f52602092835f2092845f945b83861061095b57505050500101905f80808061092c565b805485870183015294019385908201610944565b9294505050602093945060ff191683830152151560051b0101905f80808061092c56fea26469706673582212202cc0bbb14e3acb3f1bd9f7ddbea3dcef6e33a77a57e531db8f32a301736ee4e064736f6c63430008140033",
          "opcodes": "PUSH1 0x80 DUP1 PUSH1 0x40 MSTORE CALLVALUE PUSH2 0x16 JUMPI PUSH2 0x9C8 SWAP1 DUP2 PUSH2 0x1B DUP3 CODECOPY RETURN JUMPDEST PUSH0 DUP1 REVERT INVALID PUSH1 0x80 PUSH1 0x40 MSTORE PUSH1 0x4 CALLDATASIZE LT ISZERO PUSH2 0x11 JUMPI PUSH0 DUP1 REVERT JUMPDEST PUSH0 CALLDATALOAD PUSH1 0xE0 SHR DUP1 PUSH4 0x5FE5069 EQ PUSH2 0x70C JUMPI DUP1 PUSH4 0x8F4A333B EQ PUSH2 0x1CD JUMPI PUSH4 0xDDF24025 EQ PUSH2 0x3A JUMPI PUSH0 DUP1 REVERT JUMPDEST CALLVALUE PUSH2 0x1C9 JUMPI PUSH1 0x20 DUP1 PUSH1 0x3 NOT CALLDATASIZE ADD SLT PUSH2 0x1C9 JUMPI PUSH1 0x4 CALLDATALOAD SWAP1 PUSH8 0xFFFFFFFFFFFFFFFF DUP3 GT PUSH2 0x1C9 JUMPI PUSH2 0x6F PUSH1 0xA0 SWAP3 CALLDATASIZE SWAP1 PUSH1 0x4 ADD PUSH2 0x7EF JUMP JUMPDEST SWAP1 PUSH2 0xE1 DUP2 PUSH1 0x40 MLOAD SWAP4 PUSH2 0x81 DUP6 PUSH2 0x7B1 JUMP JUMPDEST PUSH0 PUSH1 0x80 PUSH1 0x60 SWAP7 DUP8 DUP2 MSTORE DUP8 DUP6 DUP3 ADD MSTORE DUP8 PUSH1 0x40 DUP3 ADD MSTORE DUP3 DUP9 DUP3 ADD MSTORE ADD MSTORE PUSH1 0x40 MLOAD SWAP1 PUSH2 0xD0 PUSH2 0xC9 DUP3 MLOAD SWAP4 DUP6 DUP2 DUP2 DUP7 ADD SWAP7 PUSH2 0xBA DUP2 DUP4 DUP11 PUSH2 0x845 JUMP JUMPDEST DUP2 ADD PUSH0 DUP2 MSTORE SUB ADD SWAP1 KECCAK256 SLOAD PUSH2 0x88B JUMP JUMPDEST ISZERO ISZERO PUSH2 0x8C3 JUMP JUMPDEST PUSH1 0x40 MLOAD SWAP4 DUP5 SWAP3 DUP4 SWAP3 MLOAD SWAP3 DUP4 SWAP2 PUSH2 0x845 JUMP JUMPDEST DUP2 ADD PUSH0 DUP2 MSTORE SUB ADD SWAP1 KECCAK256 SWAP1 PUSH1 0x40 MLOAD SWAP3 PUSH2 0xF8 DUP5 PUSH2 0x7B1 JUMP JUMPDEST PUSH1 0x40 MLOAD PUSH2 0x110 DUP2 PUSH2 0x109 DUP2 DUP8 PUSH2 0x901 JUMP JUMPDEST SUB DUP3 PUSH2 0x7CD JUMP JUMPDEST DUP5 MSTORE PUSH2 0x1B7 PUSH1 0x40 MLOAD PUSH2 0x129 DUP2 PUSH2 0x109 DUP2 PUSH1 0x1 DUP10 ADD PUSH2 0x901 JUMP JUMPDEST DUP4 DUP7 ADD SWAP1 DUP2 MSTORE PUSH1 0x40 MLOAD SWAP1 PUSH2 0x14B DUP3 PUSH2 0x144 DUP2 PUSH1 0x2 DUP11 ADD PUSH2 0x901 JUMP JUMPDEST SUB DUP4 PUSH2 0x7CD JUMP JUMPDEST PUSH1 0x40 DUP8 ADD SWAP2 DUP3 MSTORE PUSH1 0x1 DUP1 DUP10 SHL SUB SWAP4 PUSH2 0x1A7 PUSH2 0x191 PUSH1 0x4 DUP8 PUSH1 0x3 DUP12 ADD SLOAD AND SWAP10 DUP5 DUP13 ADD SWAP11 DUP12 MSTORE ADD SLOAD SWAP8 PUSH1 0x80 DUP12 ADD SWAP9 DUP10 MSTORE PUSH1 0x40 MLOAD SWAP12 DUP13 SWAP12 DUP3 DUP14 MSTORE MLOAD SWAP2 DUP13 ADD MSTORE PUSH1 0xC0 DUP12 ADD SWAP1 PUSH2 0x866 JUMP JUMPDEST SWAP3 MLOAD SWAP3 PUSH1 0x1F NOT SWAP4 DUP5 DUP12 DUP4 SUB ADD PUSH1 0x40 DUP13 ADD MSTORE PUSH2 0x866 JUMP JUMPDEST SWAP3 MLOAD SWAP2 DUP9 DUP5 SUB ADD SWAP1 DUP9 ADD MSTORE PUSH2 0x866 JUMP JUMPDEST SWAP3 MLOAD AND PUSH1 0x80 DUP5 ADD MSTORE MLOAD PUSH1 0xA0 DUP4 ADD MSTORE SUB SWAP1 RETURN JUMPDEST PUSH0 DUP1 REVERT JUMPDEST CALLVALUE PUSH2 0x1C9 JUMPI PUSH1 0x60 CALLDATASIZE PUSH1 0x3 NOT ADD SLT PUSH2 0x1C9 JUMPI PUSH1 0x4 CALLDATALOAD PUSH8 0xFFFFFFFFFFFFFFFF DUP2 GT PUSH2 0x1C9 JUMPI PUSH2 0x1FE SWAP1 CALLDATASIZE SWAP1 PUSH1 0x4 ADD PUSH2 0x7EF JUMP JUMPDEST PUSH1 0x24 CALLDATALOAD PUSH8 0xFFFFFFFFFFFFFFFF DUP2 GT PUSH2 0x1C9 JUMPI PUSH2 0x21E SWAP1 CALLDATASIZE SWAP1 PUSH1 0x4 ADD PUSH2 0x7EF JUMP JUMPDEST PUSH1 0x44 CALLDATALOAD PUSH8 0xFFFFFFFFFFFFFFFF DUP2 GT PUSH2 0x1C9 JUMPI PUSH2 0x23E SWAP1 CALLDATASIZE SWAP1 PUSH1 0x4 ADD PUSH2 0x7EF JUMP JUMPDEST SWAP1 PUSH1 0x40 MLOAD PUSH2 0x25A DUP5 MLOAD SWAP2 PUSH1 0x20 DUP2 DUP2 DUP9 ADD SWAP5 PUSH2 0xBA DUP2 DUP4 DUP9 PUSH2 0x845 JUMP JUMPDEST PUSH2 0x6CE JUMPI PUSH2 0x29B PUSH1 0x20 PUSH1 0x40 MLOAD SWAP3 PUSH2 0x270 DUP5 PUSH2 0x7B1 JUMP JUMPDEST DUP7 DUP5 MSTORE DUP5 DUP3 DUP6 ADD MSTORE DUP6 PUSH1 0x40 DUP6 ADD MSTORE CALLER PUSH1 0x60 DUP6 ADD MSTORE TIMESTAMP PUSH1 0x80 DUP6 ADD MSTORE PUSH1 0x40 MLOAD DUP1 SWAP4 DUP2 SWAP3 DUP10 MLOAD SWAP3 DUP4 SWAP2 PUSH2 0x845 JUMP JUMPDEST DUP2 ADD PUSH0 DUP2 MSTORE SUB ADD SWAP1 KECCAK256 SWAP1 DUP1 MLOAD DUP1 MLOAD SWAP1 PUSH8 0xFFFFFFFFFFFFFFFF DUP3 GT PUSH2 0x535 JUMPI DUP2 SWAP1 PUSH2 0x2C5 DUP6 SLOAD PUSH2 0x88B JUMP JUMPDEST PUSH1 0x1F DUP2 GT PUSH2 0x681 JUMPI JUMPDEST POP PUSH1 0x20 SWAP1 PUSH1 0x1F DUP4 GT PUSH1 0x1 EQ PUSH2 0x61D JUMPI PUSH0 SWAP3 PUSH2 0x612 JUMPI JUMPDEST POP POP DUP2 PUSH1 0x1 SHL SWAP2 PUSH0 NOT SWAP1 PUSH1 0x3 SHL SHR NOT AND OR DUP3 SSTORE JUMPDEST PUSH1 0x20 DUP2 ADD MLOAD DUP1 MLOAD SWAP1 PUSH8 0xFFFFFFFFFFFFFFFF DUP3 GT PUSH2 0x535 JUMPI DUP2 SWAP1 PUSH2 0x31E PUSH1 0x1 DUP7 ADD SLOAD PUSH2 0x88B JUMP JUMPDEST PUSH1 0x1F DUP2 GT PUSH2 0x5C2 JUMPI JUMPDEST POP PUSH1 0x20 SWAP1 PUSH1 0x1F DUP4 GT PUSH1 0x1 EQ PUSH2 0x554 JUMPI PUSH0 SWAP3 PUSH2 0x549 JUMPI JUMPDEST POP POP DUP2 PUSH1 0x1 SHL SWAP2 PUSH0 NOT SWAP1 PUSH1 0x3 SHL SHR NOT AND OR PUSH1 0x1 DUP4 ADD SSTORE JUMPDEST PUSH1 0x40 DUP2 ADD MLOAD DUP1 MLOAD SWAP1 PUSH8 0xFFFFFFFFFFFFFFFF DUP3 GT PUSH2 0x535 JUMPI PUSH2 0x378 PUSH1 0x2 DUP6 ADD SLOAD PUSH2 0x88B JUMP JUMPDEST PUSH1 0x1F DUP2 GT PUSH2 0x4F1 JUMPI JUMPDEST POP PUSH1 0x20 SWAP1 PUSH1 0x1F DUP4 GT PUSH1 0x1 EQ PUSH2 0x458 JUMPI PUSH1 0x80 PUSH2 0x430 SWAP5 DUP5 PUSH2 0x43E SWAP9 SWAP6 PUSH32 0x9D2E799931EC8CABFEA8205AAFDBABD268FB169E13524142D6734A5F7F521600 SWAP11 SWAP9 SWAP6 PUSH1 0x4 SWAP6 PUSH0 SWAP3 PUSH2 0x44D JUMPI JUMPDEST POP POP DUP2 PUSH1 0x1 SHL SWAP2 PUSH0 NOT SWAP1 PUSH1 0x3 SHL SHR NOT AND OR PUSH1 0x2 DUP6 ADD SSTORE JUMPDEST PUSH1 0x3 DUP5 ADD PUSH1 0x1 DUP1 PUSH1 0xA0 SHL SUB PUSH1 0x60 DUP4 ADD MLOAD AND PUSH12 0xFFFFFFFFFFFFFFFFFFFFFFFF PUSH1 0xA0 SHL DUP3 SLOAD AND OR SWAP1 SSTORE ADD MLOAD SWAP2 ADD SSTORE PUSH2 0x422 PUSH1 0x40 MLOAD SWAP7 PUSH1 0x80 DUP9 MSTORE PUSH1 0x80 DUP9 ADD SWAP1 PUSH2 0x866 JUMP JUMPDEST SWAP1 DUP7 DUP3 SUB PUSH1 0x20 DUP9 ADD MSTORE PUSH2 0x866 JUMP JUMPDEST SWAP1 DUP5 DUP3 SUB PUSH1 0x40 DUP7 ADD MSTORE PUSH2 0x866 JUMP JUMPDEST SWAP2 TIMESTAMP PUSH1 0x60 DUP3 ADD MSTORE DUP1 CALLER SWAP4 SUB SWAP1 LOG2 STOP JUMPDEST ADD MLOAD SWAP1 POP DUP13 DUP1 PUSH2 0x3CA JUMP JUMPDEST SWAP1 PUSH1 0x1F NOT DUP4 AND SWAP2 PUSH1 0x2 DUP7 ADD PUSH0 MSTORE PUSH1 0x20 PUSH0 KECCAK256 SWAP3 PUSH0 JUMPDEST DUP2 DUP2 LT PUSH2 0x4D9 JUMPI POP SWAP5 PUSH1 0x1 DUP6 PUSH32 0x9D2E799931EC8CABFEA8205AAFDBABD268FB169E13524142D6734A5F7F521600 SWAP11 SWAP9 SWAP6 PUSH1 0x4 SWAP6 PUSH1 0x80 SWAP6 PUSH2 0x43E SWAP13 SWAP10 PUSH2 0x430 SWAP12 LT PUSH2 0x4C1 JUMPI JUMPDEST POP POP POP DUP2 SHL ADD PUSH1 0x2 DUP6 ADD SSTORE PUSH2 0x3E1 JUMP JUMPDEST ADD MLOAD PUSH0 NOT PUSH1 0xF8 DUP5 PUSH1 0x3 SHL AND SHR NOT AND SWAP1 SSTORE DUP13 DUP1 DUP1 PUSH2 0x4B1 JUMP JUMPDEST SWAP3 SWAP4 PUSH1 0x20 PUSH1 0x1 DUP2 SWAP3 DUP8 DUP7 ADD MLOAD DUP2 SSTORE ADD SWAP6 ADD SWAP4 ADD PUSH2 0x46C JUMP JUMPDEST PUSH1 0x2 DUP6 ADD PUSH0 MSTORE PUSH1 0x20 PUSH0 KECCAK256 PUSH1 0x1F DUP5 ADD PUSH1 0x5 SHR DUP2 ADD PUSH1 0x20 DUP6 LT PUSH2 0x52E JUMPI JUMPDEST PUSH1 0x1F DUP4 ADD PUSH1 0x5 SHR DUP3 ADD DUP2 LT PUSH2 0x523 JUMPI POP POP PUSH2 0x381 JUMP JUMPDEST PUSH0 DUP2 SSTORE PUSH1 0x1 ADD PUSH2 0x50D JUMP JUMPDEST POP DUP1 PUSH2 0x50D JUMP JUMPDEST PUSH4 0x4E487B71 PUSH1 0xE0 SHL PUSH0 MSTORE PUSH1 0x41 PUSH1 0x4 MSTORE PUSH1 0x24 PUSH0 REVERT JUMPDEST ADD MLOAD SWAP1 POP DUP8 DUP1 PUSH2 0x33D JUMP JUMPDEST SWAP3 POP PUSH1 0x1 DUP6 ADD PUSH0 MSTORE PUSH1 0x20 PUSH0 KECCAK256 SWAP1 PUSH0 SWAP4 JUMPDEST PUSH1 0x1F NOT DUP5 AND DUP6 LT PUSH2 0x5A7 JUMPI PUSH1 0x1 SWAP5 POP DUP4 PUSH1 0x1F NOT DUP2 AND LT PUSH2 0x58F JUMPI JUMPDEST POP POP POP DUP2 SHL ADD PUSH1 0x1 DUP4 ADD SSTORE PUSH2 0x354 JUMP JUMPDEST ADD MLOAD PUSH0 NOT PUSH1 0xF8 DUP5 PUSH1 0x3 SHL AND SHR NOT AND SWAP1 SSTORE DUP8 DUP1 DUP1 PUSH2 0x57F JUMP JUMPDEST DUP2 DUP2 ADD MLOAD DUP4 SSTORE PUSH1 0x20 SWAP5 DUP6 ADD SWAP5 PUSH1 0x1 SWAP1 SWAP4 ADD SWAP3 SWAP1 SWAP2 ADD SWAP1 PUSH2 0x564 JUMP JUMPDEST SWAP1 SWAP2 POP PUSH1 0x1 DUP6 ADD PUSH0 MSTORE PUSH1 0x20 PUSH0 KECCAK256 PUSH1 0x1F DUP5 ADD PUSH1 0x5 SHR DUP2 ADD PUSH1 0x20 DUP6 LT PUSH2 0x60B JUMPI JUMPDEST SWAP1 DUP5 SWAP4 SWAP3 SWAP2 JUMPDEST PUSH1 0x1F DUP4 ADD PUSH1 0x5 SHR DUP3 ADD DUP2 LT PUSH2 0x5FD JUMPI POP POP PUSH2 0x327 JUMP JUMPDEST PUSH0 DUP2 SSTORE DUP6 SWAP5 POP PUSH1 0x1 ADD PUSH2 0x5E7 JUMP JUMPDEST POP DUP1 PUSH2 0x5E1 JUMP JUMPDEST ADD MLOAD SWAP1 POP DUP8 DUP1 PUSH2 0x2E4 JUMP JUMPDEST PUSH0 DUP7 DUP2 MSTORE PUSH1 0x20 DUP2 KECCAK256 SWAP4 POP PUSH1 0x1F NOT DUP6 AND SWAP1 JUMPDEST DUP2 DUP2 LT PUSH2 0x669 JUMPI POP SWAP1 DUP5 PUSH1 0x1 SWAP6 SWAP5 SWAP4 SWAP3 LT PUSH2 0x651 JUMPI JUMPDEST POP POP POP DUP2 SHL ADD DUP3 SSTORE PUSH2 0x2F8 JUMP JUMPDEST ADD MLOAD PUSH0 NOT PUSH1 0xF8 DUP5 PUSH1 0x3 SHL AND SHR NOT AND SWAP1 SSTORE DUP8 DUP1 DUP1 PUSH2 0x644 JUMP JUMPDEST SWAP3 SWAP4 PUSH1 0x20 PUSH1 0x1 DUP2 SWAP3 DUP8 DUP7 ADD MLOAD DUP2 SSTORE ADD SWAP6 ADD SWAP4 ADD PUSH2 0x62E JUMP JUMPDEST SWAP1 SWAP2 POP DUP5 PUSH0 MSTORE PUSH1 0x20 PUSH0 KECCAK256 PUSH1 0x1F DUP5 ADD PUSH1 0x5 SHR DUP2 ADD PUSH1 0x20 DUP6 LT PUSH2 0x6C7 JUMPI JUMPDEST SWAP1 DUP5 SWAP4 SWAP3 SWAP2 JUMPDEST PUSH1 0x1F DUP4 ADD PUSH1 0x5 SHR DUP3 ADD DUP2 LT PUSH2 0x6B9 JUMPI POP POP PUSH2 0x2CE JUMP JUMPDEST PUSH0 DUP2 SSTORE DUP6 SWAP5 POP PUSH1 0x1 ADD PUSH2 0x6A3 JUMP JUMPDEST POP DUP1 PUSH2 0x69D JUMP JUMPDEST PUSH1 0x40 MLOAD PUSH3 0x461BCD PUSH1 0xE5 SHL DUP2 MSTORE PUSH1 0x20 PUSH1 0x4 DUP3 ADD MSTORE PUSH1 0x16 PUSH1 0x24 DUP3 ADD MSTORE PUSH22 0x10985D18DA08185B1C9958591E481C9958DBDC991959 PUSH1 0x52 SHL PUSH1 0x44 DUP3 ADD MSTORE PUSH1 0x64 SWAP1 REVERT JUMPDEST CALLVALUE PUSH2 0x1C9 JUMPI PUSH1 0x40 CALLDATASIZE PUSH1 0x3 NOT ADD SLT PUSH2 0x1C9 JUMPI PUSH8 0xFFFFFFFFFFFFFFFF PUSH1 0x4 CALLDATALOAD DUP2 DUP2 GT PUSH2 0x1C9 JUMPI PUSH2 0x73E SWAP1 CALLDATASIZE SWAP1 PUSH1 0x4 ADD PUSH2 0x7EF JUMP JUMPDEST PUSH1 0x24 CALLDATALOAD SWAP2 DUP3 GT PUSH2 0x1C9 JUMPI PUSH2 0x109 PUSH2 0x79B PUSH1 0x1 PUSH2 0x785 PUSH2 0x764 PUSH2 0xC9 SWAP7 CALLDATASIZE SWAP1 PUSH1 0x4 ADD PUSH2 0x7EF JUMP JUMPDEST SWAP5 PUSH1 0x40 MLOAD SWAP1 DUP1 MLOAD SWAP1 PUSH2 0xD0 PUSH1 0x20 SWAP10 DUP5 DUP12 DUP1 SWAP7 DUP2 DUP7 ADD SWAP7 PUSH2 0xBA DUP2 DUP4 DUP11 PUSH2 0x845 JUMP JUMPDEST DUP2 ADD PUSH0 DUP2 MSTORE SUB ADD SWAP1 KECCAK256 ADD PUSH1 0x40 MLOAD SWAP3 DUP4 DUP1 SWAP3 PUSH2 0x901 JUMP JUMPDEST DUP3 DUP2 MLOAD SWAP2 ADD KECCAK256 SWAP1 DUP3 DUP2 MLOAD SWAP2 ADD KECCAK256 EQ PUSH1 0x40 MLOAD SWAP1 DUP2 MSTORE RETURN JUMPDEST PUSH1 0xA0 DUP2 ADD SWAP1 DUP2 LT PUSH8 0xFFFFFFFFFFFFFFFF DUP3 GT OR PUSH2 0x535 JUMPI PUSH1 0x40 MSTORE JUMP JUMPDEST SWAP1 PUSH1 0x1F DUP1 NOT SWAP2 ADD AND DUP2 ADD SWAP1 DUP2 LT PUSH8 0xFFFFFFFFFFFFFFFF DUP3 GT OR PUSH2 0x535 JUMPI PUSH1 0x40 MSTORE JUMP JUMPDEST DUP2 PUSH1 0x1F DUP3 ADD SLT ISZERO PUSH2 0x1C9 JUMPI DUP1 CALLDATALOAD SWAP1 PUSH8 0xFFFFFFFFFFFFFFFF DUP3 GT PUSH2 0x535 JUMPI PUSH1 0x40 MLOAD SWAP3 PUSH2 0x824 PUSH1 0x1F DUP5 ADD PUSH1 0x1F NOT AND PUSH1 0x20 ADD DUP6 PUSH2 0x7CD JUMP JUMPDEST DUP3 DUP5 MSTORE PUSH1 0x20 DUP4 DUP4 ADD ADD GT PUSH2 0x1C9 JUMPI DUP2 PUSH0 SWAP3 PUSH1 0x20 DUP1 SWAP4 ADD DUP4 DUP7 ADD CALLDATACOPY DUP4 ADD ADD MSTORE SWAP1 JUMP JUMPDEST PUSH0 JUMPDEST DUP4 DUP2 LT PUSH2 0x856 JUMPI POP POP PUSH0 SWAP2 ADD MSTORE JUMP JUMPDEST DUP2 DUP2 ADD MLOAD DUP4 DUP3 ADD MSTORE PUSH1 0x20 ADD PUSH2 0x847 JUMP JUMPDEST SWAP1 PUSH1 0x20 SWAP2 PUSH2 0x87F DUP2 MLOAD DUP1 SWAP3 DUP2 DUP6 MSTORE DUP6 DUP1 DUP7 ADD SWAP2 ADD PUSH2 0x845 JUMP JUMPDEST PUSH1 0x1F ADD PUSH1 0x1F NOT AND ADD ADD SWAP1 JUMP JUMPDEST SWAP1 PUSH1 0x1 DUP3 DUP2 SHR SWAP3 AND DUP1 ISZERO PUSH2 0x8B9 JUMPI JUMPDEST PUSH1 0x20 DUP4 LT EQ PUSH2 0x8A5 JUMPI JUMP JUMPDEST PUSH4 0x4E487B71 PUSH1 0xE0 SHL PUSH0 MSTORE PUSH1 0x22 PUSH1 0x4 MSTORE PUSH1 0x24 PUSH0 REVERT JUMPDEST SWAP2 PUSH1 0x7F AND SWAP2 PUSH2 0x89A JUMP JUMPDEST ISZERO PUSH2 0x8CA JUMPI JUMP JUMPDEST PUSH1 0x40 MLOAD PUSH3 0x461BCD PUSH1 0xE5 SHL DUP2 MSTORE PUSH1 0x20 PUSH1 0x4 DUP3 ADD MSTORE PUSH1 0xF PUSH1 0x24 DUP3 ADD MSTORE PUSH15 0x10985D18DA081B9BDD08199BDD5B99 PUSH1 0x8A SHL PUSH1 0x44 DUP3 ADD MSTORE PUSH1 0x64 SWAP1 REVERT JUMPDEST SWAP1 PUSH0 SWAP3 SWAP2 DUP1 SLOAD SWAP2 PUSH2 0x911 DUP4 PUSH2 0x88B JUMP JUMPDEST SWAP2 DUP3 DUP3 MSTORE PUSH1 0x1 SWAP4 DUP5 DUP2 AND SWAP1 DUP2 PUSH0 EQ PUSH2 0x96F JUMPI POP PUSH1 0x1 EQ PUSH2 0x932 JUMPI JUMPDEST POP POP POP POP JUMP JUMPDEST SWAP1 SWAP2 SWAP4 SWAP5 POP PUSH0 MSTORE PUSH1 0x20 SWAP3 DUP4 PUSH0 KECCAK256 SWAP3 DUP5 PUSH0 SWAP5 JUMPDEST DUP4 DUP7 LT PUSH2 0x95B JUMPI POP POP POP POP ADD ADD SWAP1 PUSH0 DUP1 DUP1 DUP1 PUSH2 0x92C JUMP JUMPDEST DUP1 SLOAD DUP6 DUP8 ADD DUP4 ADD MSTORE SWAP5 ADD SWAP4 DUP6 SWAP1 DUP3 ADD PUSH2 0x944 JUMP JUMPDEST SWAP3 SWAP5 POP POP POP PUSH1 0x20 SWAP4 SWAP5 POP PUSH1 0xFF NOT AND DUP4 DUP4 ADD MSTORE ISZERO ISZERO PUSH1 0x5 SHL ADD ADD SWAP1 PUSH0 DUP1 DUP1 DUP1 PUSH2 0x92C JUMP INVALID LOG2 PUSH5 0x6970667358 0x22 SLT KECCAK256 0x2C 0xC0 0xBB 0xB1 0x4E GASPRICE 0xCB EXTCODEHASH SHL 0xD9 0xF7 0xDD 0xBE LOG3 0xDC 0xEF PUSH15 0x33A77A57E531DB8F32A301736EE4E0 PUSH5 0x736F6C6343 STOP ADDMOD EQ STOP CALLER "
        },
        "methodIdentifiers": {
          "getProduce(string)": "ddf24025",
          "recordProduce(string,string,string)": "8f4a333b",
          "verifyProduce(string,string)": "05fe5069"
        }
      }
    }
  }
}