{
  "npm/@chainlink/contracts@1.5.0/src/v0.8/functions/v1_0_0/libraries/FunctionsRequest.sol": {
    "FunctionsRequest": {
      "abi": [
        {
          "inputs": [],
          "name": "EmptyArgs",
          "type": "error"
        },
        {
          "inputs": [],
          "name": "EmptySecrets",
          "type": "error"
        },
        {
          "inputs": [],
          "name": "EmptySource",
          "type": "error"
        },
        {
          "inputs": [],
          "name": "NoInlineSecrets",
          "type": "error"
        },
        {
          "inputs": [],
          "name": "REQUEST_DATA_VERSION",
          "outputs": [
            {
              "internalType": "uint16",
              "name": "",
              "type": "uint16"
            }
          ],
          "stateMutability": "view",
          "type": "function"
        }
      ],
      "evm": {
        "bytecode": {
          "linkReferences": {},
          "object": "608080604052346018576070908161001d823930815050f35b5f80fdfe60808060405260043610156011575f80fd5b5f3560e01c635d641dfc146023575f80fd5b5f36600319011260365780600160209252f35b5f80fdfea26469706673582212209cbdb4e6f8fd08952fee1b49bb46572869dc779a069b62a26b5e16e96e7890d364736f6c63430008140033",
          "opcodes": "PUSH1 0x80 DUP1 PUSH1 0x40 MSTORE CALLVALUE PUSH1 0x18 JUMPI PUSH1 0x70 SWAP1 DUP2 PUSH2 0x1D DUP3 CODECOPY ADDRESS DUP2 POP POP RETURN JUMPDEST PUSH0 DUP1 REVERT INVALID PUSH1 0x80 DUP1 PUSH1 0x40 MSTORE PUSH1 0x4 CALLDATASIZE LT ISZERO PUSH1 0x11 JUMPI PUSH0 DUP1 REVERT JUMPDEST PUSH0 CALLDATALOAD PUSH1 0xE0 SHR PUSH4 0x5D641DFC EQ PUSH1 0x23 JUMPI PUSH0 DUP1 REVERT JUMPDEST PUSH0 CALLDATASIZE PUSH1 0x3 NOT ADD SLT PUSH1 0x36 JUMPI DUP1 PUSH1 0x1 PUSH1 0x20 SWAP3 MSTORE RETURN JUMPDEST PUSH0 DUP1 REVERT INVALID LOG2 PUSH5 0x6970667358 0x22 SLT KECCAK256 SWAP13 0xBD 0xB4 0xE6 0xF8 REVERT ADDMOD SWAP6 0x2F 0xEE SHL 0x49 0xBB CHAINID JUMPI 0x28 PUSH10 0xDC779A069B62A26B5E16 0xE9 PUSH15 0x7890D364736F6C6343000814003300 "
        },
        "methodIdentifiers": {
          "REQUEST_DATA_VERSION()": "5d641dfc"
        }
      }
    }
  }
}