{
  "project/contracts/SubsidyPayout.sol": {
    "SubsidyPayout": {
      "abi": [
        {
          "inputs": [
            {
              "internalType": "address",
              "name": "initialOracle",
              "type": "address"
            }
          ],
          "stateMutability": "nonpayable",
          "type": "constructor"
        },
        {
          "anonymous": false,
          "inputs": [
            {
              "indexed": true,
              "internalType": "uint256",
              "name": "claimId",
              "type": "uint256"
            },
            {
              "indexed": true,
              "internalType": "uint256",
              "name": "programsId",
              "type": "uint256"
            },
            {
              "indexed": true,
              "internalType": "address",
              "name": "farmer",
              "type": "address"
            }
          ],
          "name": "AutoClaimCreated",
          "type": "event"
        },
        {
          "anonymous": false,
          "inputs": [
            {
              "indexed": true,
              "internalType": "uint256",
              "name": "claimId",
              "type": "uint256"
            },
            {
              "indexed": true,
              "internalType": "uint256",
              "name": "programsId",
              "type": "uint256"
            },
            {
              "indexed": true,
              "internalType": "address",
              "name": "farmer",
              "type": "address"
            },
            {
              "indexed": false,
              "internalType": "uint256",
              "name": "amount",
              "type": "uint256"
            }
          ],
          "name": "ClaimApproved",
          "type": "event"
        },
        {
          "anonymous": false,
          "inputs": [
            {
              "indexed": true,
              "internalType": "uint256",
              "name": "claimId",
              "type": "uint256"
            },
            {
              "indexed": true,
              "internalType": "uint256",
              "name": "programsId",
              "type": "uint256"
            },
            {
              "indexed": true,
              "internalType": "address",
              "name": "farmer",
              "type": "address"
            },
            {
              "indexed": false,
              "internalType": "uint256",
              "name": "amount",
              "type": "uint256"
            }
          ],
          "name": "ClaimPaid",
          "type": "event"
        },
        {
          "anonymous": false,
          "inputs": [
            {
              "indexed": true,
              "internalType": "uint256",
              "name": "claimId",
              "type": "uint256"
            },
            {
              "indexed": true,
              "internalType": "uint256",
              "name": "programsId",
              "type": "uint256"
            },
            {
              "indexed": true,
              "internalType": "address",
              "name": "farmer",
              "type": "address"
            },
            {
              "indexed": false,
              "internalType": "string",
              "name": "reason",
              "type": "string"
            }
          ],
          "name": "ClaimRejected",
          "type": "event"
        },
        {
          "anonymous": false,
          "inputs": [
            {
              "indexed": true,
              "internalType": "uint256",
              "name": "claimId",
              "type": "uint256"
            },
            {
              "indexed": true,
              "internalType": "uint256",
              "name": "programsId",
              "type": "uint256"
            },
            {
              "indexed": true,
              "internalType": "address",
              "name": "farmer",
              "type": "address"
            },
            {
              "indexed": false,
              "internalType": "uint256",
              "name": "amount",
              "type": "uint256"
            },
            {
              "indexed": false,
              "internalType": "bytes32",
              "name": "metadataHash",
              "type": "bytes32"
            }
          ],
          "name": "ClaimSubmitted",
          "type": "event"
        },
        {
          "anonymous": false,
          "inputs": [
            {
              "indexed": true,
              "internalType": "uint256",
              "name": "programsId",
              "type": "uint256"
            }
          ],
          "name": "EligibilityUpdated",
          "type": "event"
        },
        {
          "anonymous": false,
          "inputs": [
            {
              "indexed": true,
              "internalType": "address",
              "name": "farmer",
              "type": "address"
            },
            {
              "indexed": true,
              "internalType": "uint256",
              "name": "programsId",
              "type": "uint256"
            }
          ],
          "name": "FarmerEnrolled",
          "type": "event"
        },
        {
          "anonymous": false,
          "inputs": [
            {
              "indexed": true,
              "internalType": "address",
              "name": "from",
              "type": "address"
            },
            {
              "indexed": false,
              "internalType": "uint256",
              "name": "amount",
              "type": "uint256"
            }
          ],
          "name": "FundsDeposited",
          "type": "event"
        },
        {
          "anonymous": false,
          "inputs": [
            {
              "indexed": true,
              "internalType": "address",
              "name": "account",
              "type": "address"
            }
          ],
          "name": "GovernmentRoleGranted",
          "type": "event"
        },
        {
          "anonymous": false,
          "inputs": [
            {
              "indexed": true,
              "internalType": "address",
              "name": "account",
              "type": "address"
            }
          ],
          "name": "GovernmentRoleRevoked",
          "type": "event"
        },
        {
          "anonymous": false,
          "inputs": [
            {
              "indexed": true,
              "internalType": "address",
              "name": "oracle",
              "type": "address"
            }
          ],
          "name": "OracleUpdated",
          "type": "event"
        },
        {
          "anonymous": false,
          "inputs": [
            {
              "indexed": true,
              "internalType": "address",
              "name": "owner",
              "type": "address"
            }
          ],
          "name": "OwnerUpdated",
          "type": "event"
        },
        {
          "anonymous": false,
          "inputs": [
            {
              "indexed": true,
              "internalType": "uint256",
              "name": "programsId",
              "type": "uint256"
            },
            {
              "indexed": false,
              "internalType": "string",
              "name": "name",
              "type": "string"
            },
            {
              "indexed": false,
              "internalType": "enum SubsidyPayout.ProgramType",
              "name": "programsType",
              "type": "uint8"
            },
            {
              "indexed": false,
              "internalType": "enum SubsidyPayout.ProgramStatus",
              "name": "status",
              "type": "uint8"
            },
            {
              "indexed": false,
              "internalType": "uint256",
              "name": "startDate",
              "type": "uint256"
            },
            {
              "indexed": false,
              "internalType": "uint256",
              "name": "endDate",
              "type": "uint256"
            },
            {
              "indexed": false,
              "internalType": "bytes32",
              "name": "metadataHash",
              "type": "bytes32"
            },
            {
              "indexed": false,
              "internalType": "uint256",
              "name": "payoutAmount",
              "type": "uint256"
            },
            {
              "indexed": false,
              "internalType": "uint256",
              "name": "payoutMaxCap",
              "type": "uint256"
            }
          ],
          "name": "ProgramCreated",
          "type": "event"
        },
        {
          "anonymous": false,
          "inputs": [
            {
              "indexed": true,
              "internalType": "uint256",
              "name": "programsId",
              "type": "uint256"
            },
            {
              "indexed": false,
              "internalType": "enum SubsidyPayout.ProgramStatus",
              "name": "status",
              "type": "uint8"
            }
          ],
          "name": "ProgramStatusUpdated",
          "type": "event"
        },
        {
          "anonymous": false,
          "inputs": [
            {
              "indexed": true,
              "internalType": "uint256",
              "name": "programsId",
              "type": "uint256"
            },
            {
              "indexed": false,
              "internalType": "uint256",
              "name": "payoutAmount",
              "type": "uint256"
            },
            {
              "indexed": false,
              "internalType": "uint256",
              "name": "payoutMaxCap",
              "type": "uint256"
            }
          ],
          "name": "ProgramUpdated",
          "type": "event"
        },
        {
          "inputs": [
            {
              "internalType": "uint256",
              "name": "claimId",
              "type": "uint256"
            }
          ],
          "name": "approveAndPayout",
          "outputs": [],
          "stateMutability": "nonpayable",
          "type": "function"
        },
        {
          "inputs": [
            {
              "internalType": "uint256",
              "name": "claimId",
              "type": "uint256"
            }
          ],
          "name": "approveClaim",
          "outputs": [],
          "stateMutability": "nonpayable",
          "type": "function"
        },
        {
          "inputs": [
            {
              "internalType": "uint256",
              "name": "programsId",
              "type": "uint256"
            },
            {
              "internalType": "address",
              "name": "farmer",
              "type": "address"
            },
            {
              "internalType": "bytes32",
              "name": "metadataHash",
              "type": "bytes32"
            }
          ],
          "name": "autoCreateClaim",
          "outputs": [
            {
              "internalType": "uint256",
              "name": "claimId",
              "type": "uint256"
            }
          ],
          "stateMutability": "nonpayable",
          "type": "function"
        },
        {
          "inputs": [
            {
              "internalType": "uint256",
              "name": "",
              "type": "uint256"
            }
          ],
          "name": "claims",
          "outputs": [
            {
              "internalType": "uint256",
              "name": "programsId",
              "type": "uint256"
            },
            {
              "internalType": "address",
              "name": "farmer",
              "type": "address"
            },
            {
              "internalType": "uint256",
              "name": "amount",
              "type": "uint256"
            },
            {
              "internalType": "enum SubsidyPayout.ClaimStatus",
              "name": "status",
              "type": "uint8"
            },
            {
              "internalType": "bytes32",
              "name": "metadataHash",
              "type": "bytes32"
            },
            {
              "internalType": "uint256",
              "name": "submittedAt",
              "type": "uint256"
            },
            {
              "internalType": "string",
              "name": "rejectionReason",
              "type": "string"
            }
          ],
          "stateMutability": "view",
          "type": "function"
        },
        {
          "inputs": [
            {
              "internalType": "string",
              "name": "name",
              "type": "string"
            },
            {
              "internalType": "string",
              "name": "description",
              "type": "string"
            },
            {
              "internalType": "enum SubsidyPayout.ProgramType",
              "name": "programsType",
              "type": "uint8"
            },
            {
              "internalType": "enum SubsidyPayout.ProgramStatus",
              "name": "status",
              "type": "uint8"
            },
            {
              "internalType": "uint256",
              "name": "startDate",
              "type": "uint256"
            },
            {
              "internalType": "uint256",
              "name": "endDate",
              "type": "uint256"
            },
            {
              "internalType": "string",
              "name": "createdBy",
              "type": "string"
            },
            {
              "internalType": "bytes32",
              "name": "metadataHash",
              "type": "bytes32"
            },
            {
              "components": [
                {
                  "internalType": "uint256",
                  "name": "amount",
                  "type": "uint256"
                },
                {
                  "internalType": "uint256",
                  "name": "maxCap",
                  "type": "uint256"
                }
              ],
              "internalType": "struct SubsidyPayout.PayoutRule",
              "name": "payoutRule",
              "type": "tuple"
            },
            {
              "components": [
                {
                  "internalType": "bool",
                  "name": "hasMinFarmSize",
                  "type": "bool"
                },
                {
                  "internalType": "bool",
                  "name": "hasMaxFarmSize",
                  "type": "bool"
                },
                {
                  "internalType": "uint256",
                  "name": "minFarmSize",
                  "type": "uint256"
                },
                {
                  "internalType": "uint256",
                  "name": "maxFarmSize",
                  "type": "uint256"
                },
                {
                  "internalType": "string[]",
                  "name": "states",
                  "type": "string[]"
                },
                {
                  "internalType": "string[]",
                  "name": "districts",
                  "type": "string[]"
                },
                {
                  "internalType": "string[]",
                  "name": "cropTypes",
                  "type": "string[]"
                },
                {
                  "internalType": "string[]",
                  "name": "certifications",
                  "type": "string[]"
                }
              ],
              "internalType": "struct SubsidyPayout.Eligibility",
              "name": "eligibility",
              "type": "tuple"
            }
          ],
          "name": "createProgram",
          "outputs": [
            {
              "internalType": "uint256",
              "name": "programsId",
              "type": "uint256"
            }
          ],
          "stateMutability": "nonpayable",
          "type": "function"
        },
        {
          "inputs": [],
          "name": "deposit",
          "outputs": [],
          "stateMutability": "payable",
          "type": "function"
        },
        {
          "inputs": [
            {
              "internalType": "uint256",
              "name": "programsId",
              "type": "uint256"
            }
          ],
          "name": "enrollInProgram",
          "outputs": [],
          "stateMutability": "nonpayable",
          "type": "function"
        },
        {
          "inputs": [
            {
              "internalType": "address",
              "name": "",
              "type": "address"
            },
            {
              "internalType": "uint256",
              "name": "",
              "type": "uint256"
            }
          ],
          "name": "enrolledPrograms",
          "outputs": [
            {
              "internalType": "uint256",
              "name": "",
              "type": "uint256"
            }
          ],
          "stateMutability": "view",
          "type": "function"
        },
        {
          "inputs": [
            {
              "internalType": "uint256",
              "name": "claimId",
              "type": "uint256"
            }
          ],
          "name": "getClaim",
          "outputs": [
            {
              "components": [
                {
                  "internalType": "uint256",
                  "name": "programsId",
                  "type": "uint256"
                },
                {
                  "internalType": "address",
                  "name": "farmer",
                  "type": "address"
                },
                {
                  "internalType": "uint256",
                  "name": "amount",
                  "type": "uint256"
                },
                {
                  "internalType": "enum SubsidyPayout.ClaimStatus",
                  "name": "status",
                  "type": "uint8"
                },
                {
                  "internalType": "bytes32",
                  "name": "metadataHash",
                  "type": "bytes32"
                },
                {
                  "internalType": "uint256",
                  "name": "submittedAt",
                  "type": "uint256"
                },
                {
                  "internalType": "string",
                  "name": "rejectionReason",
                  "type": "string"
                }
              ],
              "internalType": "struct SubsidyPayout.Claim",
              "name": "",
              "type": "tuple"
            }
          ],
          "stateMutability": "view",
          "type": "function"
        },
        {
          "inputs": [
            {
              "internalType": "uint256",
              "name": "programsId",
              "type": "uint256"
            }
          ],
          "name": "getProgram",
          "outputs": [
            {
              "components": [
                {
                  "internalType": "string",
                  "name": "name",
                  "type": "string"
                },
                {
                  "internalType": "string",
                  "name": "description",
                  "type": "string"
                },
                {
                  "internalType": "enum SubsidyPayout.ProgramType",
                  "name": "programsType",
                  "type": "uint8"
                },
                {
                  "internalType": "enum SubsidyPayout.ProgramStatus",
                  "name": "status",
                  "type": "uint8"
                },
                {
                  "internalType": "uint256",
                  "name": "startDate",
                  "type": "uint256"
                },
                {
                  "internalType": "uint256",
                  "name": "endDate",
                  "type": "uint256"
                },
                {
                  "internalType": "string",
                  "name": "createdBy",
                  "type": "string"
                },
                {
                  "internalType": "bytes32",
                  "name": "metadataHash",
                  "type": "bytes32"
                },
                {
                  "components": [
                    {
                      "internalType": "uint256",
                      "name": "amount",
                      "type": "uint256"
                    },
                    {
                      "internalType": "uint256",
                      "name": "maxCap",
                      "type": "uint256"
                    }
                  ],
                  "internalType": "struct SubsidyPayout.PayoutRule",
                  "name": "payoutRule",
                  "type": "tuple"
                },
                {
                  "components": [
                    {
                      "internalType": "bool",
                      "name": "hasMinFarmSize",
                      "type": "bool"
                    },
                    {
                      "internalType": "bool",
                      "name": "hasMaxFarmSize",
                      "type": "bool"
                    },
                    {
                      "internalType": "uint256",
                      "name": "minFarmSize",
                      "type": "uint256"
                    },
                    {
                      "internalType": "uint256",
                      "name": "maxFarmSize",
                      "type": "uint256"
                    },
                    {
                      "internalType": "string[]",
                      "name": "states",
                      "type": "string[]"
                    },
                    {
                      "internalType": "string[]",
                      "name": "districts",
                      "type": "string[]"
                    },
                    {
                      "internalType": "string[]",
                      "name": "cropTypes",
                      "type": "string[]"
                    },
                    {
                      "internalType": "string[]",
                      "name": "certifications",
                      "type": "string[]"
                    }
                  ],
                  "internalType": "struct SubsidyPayout.Eligibility",
                  "name": "eligibility",
                  "type": "tuple"
                },
                {
                  "internalType": "uint256",
                  "name": "totalDisbursed",
                  "type": "uint256"
                }
              ],
              "internalType": "struct SubsidyPayout.Program",
              "name": "",
              "type": "tuple"
            }
          ],
          "stateMutability": "view",
          "type": "function"
        },
        {
          "inputs": [
            {
              "internalType": "address",
              "name": "account",
              "type": "address"
            }
          ],
          "name": "grantGovernmentRole",
          "outputs": [],
          "stateMutability": "nonpayable",
          "type": "function"
        },
        {
          "inputs": [
            {
              "internalType": "uint256",
              "name": "",
              "type": "uint256"
            },
            {
              "internalType": "address",
              "name": "",
              "type": "address"
            }
          ],
          "name": "isFarmerEnrolled",
          "outputs": [
            {
              "internalType": "bool",
              "name": "",
              "type": "bool"
            }
          ],
          "stateMutability": "view",
          "type": "function"
        },
        {
          "inputs": [
            {
              "internalType": "address",
              "name": "",
              "type": "address"
            }
          ],
          "name": "isGovernment",
          "outputs": [
            {
              "internalType": "bool",
              "name": "",
              "type": "bool"
            }
          ],
          "stateMutability": "view",
          "type": "function"
        },
        {
          "inputs": [],
          "name": "nextClaimId",
          "outputs": [
            {
              "internalType": "uint256",
              "name": "",
              "type": "uint256"
            }
          ],
          "stateMutability": "view",
          "type": "function"
        },
        {
          "inputs": [],
          "name": "nextProgramId",
          "outputs": [
            {
              "internalType": "uint256",
              "name": "",
              "type": "uint256"
            }
          ],
          "stateMutability": "view",
          "type": "function"
        },
        {
          "inputs": [],
          "name": "oracle",
          "outputs": [
            {
              "internalType": "address",
              "name": "",
              "type": "address"
            }
          ],
          "stateMutability": "view",
          "type": "function"
        },
        {
          "inputs": [],
          "name": "owner",
          "outputs": [
            {
              "internalType": "address",
              "name": "",
              "type": "address"
            }
          ],
          "stateMutability": "view",
          "type": "function"
        },
        {
          "inputs": [
            {
              "internalType": "uint256",
              "name": "",
              "type": "uint256"
            }
          ],
          "name": "programs",
          "outputs": [
            {
              "internalType": "string",
              "name": "name",
              "type": "string"
            },
            {
              "internalType": "string",
              "name": "description",
              "type": "string"
            },
            {
              "internalType": "enum SubsidyPayout.ProgramType",
              "name": "programsType",
              "type": "uint8"
            },
            {
              "internalType": "enum SubsidyPayout.ProgramStatus",
              "name": "status",
              "type": "uint8"
            },
            {
              "internalType": "uint256",
              "name": "startDate",
              "type": "uint256"
            },
            {
              "internalType": "uint256",
              "name": "endDate",
              "type": "uint256"
            },
            {
              "internalType": "string",
              "name": "createdBy",
              "type": "string"
            },
            {
              "internalType": "bytes32",
              "name": "metadataHash",
              "type": "bytes32"
            },
            {
              "components": [
                {
                  "internalType": "uint256",
                  "name": "amount",
                  "type": "uint256"
                },
                {
                  "internalType": "uint256",
                  "name": "maxCap",
                  "type": "uint256"
                }
              ],
              "internalType": "struct SubsidyPayout.PayoutRule",
              "name": "payoutRule",
              "type": "tuple"
            },
            {
              "components": [
                {
                  "internalType": "bool",
                  "name": "hasMinFarmSize",
                  "type": "bool"
                },
                {
                  "internalType": "bool",
                  "name": "hasMaxFarmSize",
                  "type": "bool"
                },
                {
                  "internalType": "uint256",
                  "name": "minFarmSize",
                  "type": "uint256"
                },
                {
                  "internalType": "uint256",
                  "name": "maxFarmSize",
                  "type": "uint256"
                },
                {
                  "internalType": "string[]",
                  "name": "states",
                  "type": "string[]"
                },
                {
                  "internalType": "string[]",
                  "name": "districts",
                  "type": "string[]"
                },
                {
                  "internalType": "string[]",
                  "name": "cropTypes",
                  "type": "string[]"
                },
                {
                  "internalType": "string[]",
                  "name": "certifications",
                  "type": "string[]"
                }
              ],
              "internalType": "struct SubsidyPayout.Eligibility",
              "name": "eligibility",
              "type": "tuple"
            },
            {
              "internalType": "uint256",
              "name": "totalDisbursed",
              "type": "uint256"
            }
          ],
          "stateMutability": "view",
          "type": "function"
        },
        {
          "inputs": [
            {
              "internalType": "uint256",
              "name": "claimId",
              "type": "uint256"
            },
            {
              "internalType": "string",
              "name": "reason",
              "type": "string"
            }
          ],
          "name": "rejectClaim",
          "outputs": [],
          "stateMutability": "nonpayable",
          "type": "function"
        },
        {
          "inputs": [
            {
              "internalType": "address",
              "name": "account",
              "type": "address"
            }
          ],
          "name": "revokeGovernmentRole",
          "outputs": [],
          "stateMutability": "nonpayable",
          "type": "function"
        },
        {
          "inputs": [
            {
              "internalType": "uint256",
              "name": "programsId",
              "type": "uint256"
            },
            {
              "internalType": "bytes32",
              "name": "metadataHash",
              "type": "bytes32"
            }
          ],
          "name": "submitClaim",
          "outputs": [
            {
              "internalType": "uint256",
              "name": "claimId",
              "type": "uint256"
            }
          ],
          "stateMutability": "nonpayable",
          "type": "function"
        },
        {
          "inputs": [
            {
              "internalType": "uint256",
              "name": "programsId",
              "type": "uint256"
            },
            {
              "components": [
                {
                  "internalType": "bool",
                  "name": "hasMinFarmSize",
                  "type": "bool"
                },
                {
                  "internalType": "bool",
                  "name": "hasMaxFarmSize",
                  "type": "bool"
                },
                {
                  "internalType": "uint256",
                  "name": "minFarmSize",
                  "type": "uint256"
                },
                {
                  "internalType": "uint256",
                  "name": "maxFarmSize",
                  "type": "uint256"
                },
                {
                  "internalType": "string[]",
                  "name": "states",
                  "type": "string[]"
                },
                {
                  "internalType": "string[]",
                  "name": "districts",
                  "type": "string[]"
                },
                {
                  "internalType": "string[]",
                  "name": "cropTypes",
                  "type": "string[]"
                },
                {
                  "internalType": "string[]",
                  "name": "certifications",
                  "type": "string[]"
                }
              ],
              "internalType": "struct SubsidyPayout.Eligibility",
              "name": "eligibility",
              "type": "tuple"
            }
          ],
          "name": "updateEligibility",
          "outputs": [],
          "stateMutability": "nonpayable",
          "type": "function"
        },
        {
          "inputs": [
            {
              "internalType": "address",
              "name": "newOracle",
              "type": "address"
            }
          ],
          "name": "updateOracle",
          "outputs": [],
          "stateMutability": "nonpayable",
          "type": "function"
        },
        {
          "inputs": [
            {
              "internalType": "address",
              "name": "newOwner",
              "type": "address"
            }
          ],
          "name": "updateOwner",
          "outputs": [],
          "stateMutability": "nonpayable",
          "type": "function"
        },
        {
          "inputs": [
            {
              "internalType": "uint256",
              "name": "programsId",
              "type": "uint256"
            },
            {
              "components": [
                {
                  "internalType": "uint256",
                  "name": "amount",
                  "type": "uint256"
                },
                {
                  "internalType": "uint256",
                  "name": "maxCap",
                  "type": "uint256"
                }
              ],
              "internalType": "struct SubsidyPayout.PayoutRule",
              "name": "payoutRule",
              "type": "tuple"
            }
          ],
          "name": "updatePayoutRule",
          "outputs": [],
          "stateMutability": "nonpayable",
          "type": "function"
        },
        {
          "inputs": [
            {
              "internalType": "uint256",
              "name": "programsId",
              "type": "uint256"
            },
            {
              "internalType": "enum SubsidyPayout.ProgramStatus",
              "name": "status",
              "type": "uint8"
            }
          ],
          "name": "updateProgramStatus",
          "outputs": [],
          "stateMutability": "nonpayable",
          "type": "function"
        },
        {
          "stateMutability": "payable",
          "type": "receive"
        }
      ],
      "evm": {
        "bytecode": {
          "linkReferences": {},
          "object": "60803461010b57601f6128b638819003918201601f19168301916001600160401b0383118484101761010f5780849260209460405283398101031261010b57516001600160a01b0381169081900361010b576001600355600160045560018060a01b031990805f923381855416178455338452600260205260408420600160ff1982541617905560015416176001557f3df77beb5db05fcdd70a30fc8adf3f83f9501b68579455adbd100b818094039460405192337f4ffd725fc4a22075e9ec71c59edf9c38cdeb588a91b24fc5b61388c5be41282b8280a2337f06b7e73b864eee3b44819c423de068a65e4ab0266e23e5b6dd94442347d55cad8280a280a261279290816101248239f35b5f80fd5b634e487b7160e01b5f52604160045260245ffdfe60806040526004361015610046575b3615610018575f80fd5b6040513481527f543ba50a5eec5e6178218e364b1d0f396157b3c8fa278522c2cb7fd99407d47460203392a2005b5f3560e01c80631cb44dfc1461199e57806321b0d525146116ba5780632b07fce3146114715780633577a5ad1461138757806346e301351461127d5780634956973f146112265780635aef24471461110e5780636536fabb14610e175780636c2b04fd14610dda5780637dc0d1d014610db2578063880cdc3114610d105780638da5cb5b14610ce9578063998970ac14610c20578063a0021cf114610c03578063a0c222b4146109b0578063a5717a4614610967578063a888c2cd146108d0578063b7a3657214610814578063b963a5d114610769578063bf62d3c914610697578063c6e06e4f146104de578063cad0b8db146104c1578063d0e30db014610452578063d23c617e14610362578063d3e89483146102485763e7484b5c0361000e5734610244576020366003190112610244576001546004359061019f90336001600160a01b0391821614908115610237575b506121f0565b600954906101b060ff831615612229565b600160ff1980931617600955805f52600660205260405f2090600160ff6003840154166101dc81611ad9565b0361020357816101f892545f52600560205260405f20916122b1565b600954166009555f80f35b60405162461bcd60e51b815260206004820152600c60248201526b139bdd08185c1c1c9bdd995960a21b6044820152606490fd5b90505f541633145f610199565b5f80fd5b34610244576020366003190112610244576004355f52600560205260405f2061027081611cd9565b61027c60018301611cd9565b9160028101549060ff821660038201546004830154916005840161029f90611cd9565b90600685015493600786016102b390611d7a565b936102c060098801611df6565b9660100154976040519a8b9a610180808d528c016102dd91611a9b565b8b810360208d01526102ee91611a9b565b936102f881611ad9565b60408b015260608a019060081c60ff169061031291611ae3565b608089015260a088015286810360c088015261032d91611a9b565b9160e086015280516101008601526020015161012085015283810361014085015261035791611b4b565b906101608301520390f35b34610244576003196040368201126102445760043590602435906001600160401b03821161024457610100908236030112610244576104149060018060a01b035f54163314801561043a575b6103b790611ee7565b825f526005602052600960405f20916103da6103d38454611bf7565b15156120de565b6103e6600c84016126dc565b6103f2600d84016126dc565b6103fe600e84016126dc565b61040a600f84016126dc565b600401910161254e565b7f2ab80980f0eef9858eb5302d23051163010f1aede064abfb6140086c098c2b5e5f80a2005b50335f9081526002602052604090205460ff166103ae565b5f366003190112610244573415610491576040513481527f543ba50a5eec5e6178218e364b1d0f396157b3c8fa278522c2cb7fd99407d47460203392a2005b60405162461bcd60e51b81526020600482015260086024820152674e6f2076616c756560c01b6044820152606490fd5b34610244575f366003190112610244576020600354604051908152f35b34610244576020806003193601126102445760043590815f526005815260405f2061050c6103d38254611bf7565b60ff600282015460081c1660038110156106835760010361064a5760040154421161061757815f526008815260405f20335f52815260ff60405f2054166105e057600790825f526008815260405f20335f52815260405f20600160ff198254161790555260405f208054600160401b8110156105cc5761059191600182018155611bce565b81549060031b9083821b915f19901b1916179055337f5330331063e367acf9dbb83b95dbaed37e954e0ddff33e12337f5671bb28a54c5f80a3005b634e487b7160e01b5f52604160045260245ffd5b6064906040519062461bcd60e51b82526004820152601060248201526f105b1c9958591e48195b9c9bdb1b195960821b6044820152fd5b6064906040519062461bcd60e51b82526004820152600c60248201526b141bdb1a58de48195b99195960a21b6044820152fd5b60405162461bcd60e51b8152600481018390526011602482015270506f6c696379206e6f742061637469766560781b6044820152606490fd5b634e487b7160e01b5f52602160045260245ffd5b34610244576020366003190112610244576106b0611a42565b5f546001600160a01b03908116916106c9338414611e74565b16906106d6821515611eac565b811461072e57805f5260026020526106f460ff60405f205416611ee7565b805f52600260205260405f2060ff1981541690557f356c02df5f27e0e70ccc1fe4d9fdce0ac870948ebc6b824e6169812b4ec6c6165f80a2005b60405162461bcd60e51b815260206004820152601360248201527221b0b73737ba103932bb37b5b29037bbb732b960691b6044820152606490fd5b346102445760403660031901126102445760043560243560038110156102445760207fddba6ca814ce3f0cb8c9b4b44e5e1891ef8c2857746e6b7453464abc1539209b9160018060a01b035f5416331480156107fd575b6107c990611ee7565b835f52600582526107ed81600260405f206107e76103d38254611bf7565b0161209f565b6107fa6040518092611ae3565ba2005b50335f90815260028352604090205460ff166107c0565b34610244576060366003190112610244576004356040366023190112610244575f546001600160a01b0316331480156108b8575b61085190611ee7565b805f5260056020527f3badea81551087ffbccf48e1f2096512ab718dfab5d02debd5a148d4bb5a6f576040805f2061088c6103d38254611bf7565b60086024359161089d831515611f24565b826007820155604435918291015582519182526020820152a2005b50335f9081526002602052604090205460ff16610848565b34610244576020366003190112610244576004355f52600660205260405f20805461096360018060a01b036001840154169260028101549060ff600382015416600482015490610927600660058501549401611cd9565b9360405197889788526020880152604087015261094381611ad9565b6060860152608085015260a084015260e060c084015260e0830190611a9b565b0390f35b3461024457604036600319011261024457610980611a58565b6004355f52600860205260405f209060018060a01b03165f52602052602060ff60405f2054166040519015158152f35b346102445760403660031901126102445760043560243590805f526020916005835260405f20916109e46103d38454611bf7565b60ff600284015460081c16600381101561068357600793610a08600180931461211b565b600381015442101580610bf5575b610a1f90612159565b825f526008865260405f20335f528652610a3f60ff60405f205416612196565b600454948591610a4e83611f65565b6004550191600683548860405191610a6583611c82565b878352610af1828401913383526040850190815260608501905f825260808601938c85528760a08801964288526040519b610a9f8d611c9d565b5f8d5260c08a019c8d525f525260405f20965187558887019060018060a01b039051166bffffffffffffffffffffffff60a01b82541617905551600286015551610ae881611ad9565b600385016121d8565b5160048301555160058201550191518051906001600160401b0382116105cc57610b2582610b1f8654611bf7565b86611f9d565b8890601f8311600114610b96579282939183925f94610b8b575b50501b915f199060031b1c19161790555b549160405192835284830152827f5a5cab0ce7e50ff4a469602322193052db5a543b8ca05e6ecf08ad55084ff30a60403394a4604051908152f35b015192508a80610b3f565b90601f19831691855f52838b5f20935f5b8d88838310610bde5750505010610bc6575b505050811b019055610b50565b01515f1960f88460031b161c19169055888080610bb9565b868601518855909601959485019487935001610ba7565b506004810154421115610a16565b34610244575f366003190112610244576020600454604051908152f35b3461024457602036600319011261024457610c39611a42565b5f546001600160a01b039190610c529083163314611e74565b16610c5e811515611eac565b805f52600260205260ff60405f205416610caf57805f52600260205260405f20600160ff198254161790557f06b7e73b864eee3b44819c423de068a65e4ab0266e23e5b6dd94442347d55cad5f80a2005b60405162461bcd60e51b8152602060048201526012602482015271105b1c9958591e4819dbdd995c9b9b595b9d60721b6044820152606490fd5b34610244575f366003190112610244575f546040516001600160a01b039091168152602090f35b3461024457602036600319011261024457610d29611a42565b5f54906001600160a01b0390610d423383851614611e74565b16908115610d80576001600160a01b03191681175f9081557f4ffd725fc4a22075e9ec71c59edf9c38cdeb588a91b24fc5b61388c5be41282b9080a2005b60405162461bcd60e51b815260206004820152600a6024820152692d32b9379037bbb732b960b11b6044820152606490fd5b34610244575f366003190112610244576001546040516001600160a01b039091168152602090f35b34610244576020366003190112610244576001600160a01b03610dfb611a42565b165f526002602052602060ff60405f2054166040519015158152f35b3461024457606036600319011261024457600435610e33611a58565b600180549092916001600160a01b039160443590831633148015611102575b610e5b906121f0565b835f526020946005865260405f2093610e776103d38654611bf7565b60ff600286015460081c1692600384101561068357610e988389951461211b565b6003860154421015806110f4575b610eaf90612159565b865f52600884528160405f20951694855f52845260405f205460ff16610ed490612196565b60045495610ee187611f65565b6004556007019182549060405191610ef883611c82565b898352868301908882526040840190815260608401905f8252608085019286845260a08601944286526040519a610f2e8c611c9d565b5f8c5260c088019b8c528d5f526006905260405f20965187558987019151166bffffffffffffffffffffffff60a01b82541617905551600285015551610f7381611ad9565b610f8090600385016121d8565b5160048301555160058201556006019351918251946001600160401b0386116105cc578589958995610fb78a99610b1f8654611bf7565b8c90601f841160011461104c5792807f5a5cab0ce7e50ff4a469602322193052db5a543b8ca05e6ecf08ad55084ff30a9795938193604098965f94611041575b50501b915f199060031b1c19161790555b549082519182528a820152a460405192827fa0ae011a7e92dd1401f20d322e6cea9fd114ca02abaf366d067e86d2eb75883a5f80a48152f35b015192505f80610ff7565b908d91601f949394198416865f52835f20935f905b8282106110c257505091604097959391857f5a5cab0ce7e50ff4a469602322193052db5a543b8ca05e6ecf08ad55084ff30a9a989694106110aa575b505050811b019055611008565b01515f1960f88460031b161c191690558e808061109d565b93879a9d50838594979a9d5081999c509792959197015181550195019301928c9895928c9895928f958d9c9996611061565b506004860154421115610ea6565b505f5483163314610e52565b346102445760208060031936011261024457606060c060405161113081611c82565b5f81525f848201525f60408201525f838201525f60808201525f60a082015201526004355f526006815260405f206109636040519161116e83611c82565b8054835260018101546001600160a01b0390811685850190815260028301546040860190815260038401549193929160608701919060ff166111af81611ad9565b8252600484015492608088019384526111d6600660058701549660a08b0197885201611cd9565b9560c08901968752604051998a99818b5251908a0152511660408801525160608701525161120381611ad9565b60808601525160a08501525160c08401525160e080840152610100830190611a9b565b346102445760403660031901126102445761123f611a42565b6001600160a01b03165f908152600760205260409020805460243591908210156102445760209161126f91611bce565b90546040519160031b1c8152f35b34610244576020366003190112610244575f54600435906001600160a01b039081163314801561136f575b6112b190611ee7565b600954916112c260ff841615612229565b600160ff1980941617600955805f52600660205260405f2060038101918254936112f860ff86166112f281611ad9565b1561226a565b825490815f52600560205260405f209460ff600287015460081c16966003881015610683578860019161132f836101f89b1461211b565b1617905560018401541690827f63e70868dc2d7ec072e727d9012d2ae383920c1f02e6f38e7017cd5f06ae097160206002870154604051908152a46122b1565b50335f9081526002602052604090205460ff166112a8565b34610244576040366003190112610244576004356024356001600160401b038111610244576113ba903690600401611a6e565b917f6014f6f9dbb4598f3aac859c39462a5a20d68534e732c8bae08cd8bb90264bf060018060a01b0392835f541633148015611459575b6113fa90611ee7565b825f52600660205260405f2093600385016002815461141f60ff82166112f281611ad9565b60ff1916179055611434868360068801611fe0565b6001855495015416946114546040519283926020845260208401916120be565b0390a4005b50335f9081526002602052604090205460ff166113f1565b34610244576020366003190112610244575f61014060405161149281611c2f565b60608152606060208201528260408201528260608201528260808201528260a0820152606060c08201528260e08201526040516114ce81611c4b565b8381528360208201526101008201526040516114e981611c66565b83815283602082015283604082015283606082015260606080820152606060a0820152606060c0820152606060e082015261012082015201526004355f52600560205260405f206040519061153d82611c2f565b61154681611cd9565b825261155460018201611cd9565b602083015260ff600282015481811661156c81611ad9565b604085015260081c1690600382101561068357601091606084015260038101546080840152600481015460a08401526115a760058201611cd9565b60c0840152600681015460e08401526115c260078201611d7a565b6101008401526115d460098201611df6565b61012084015201546101408201526040518091602082526101406116ad61167461162561160f855161018060208901526101a0880190611a9b565b6020860151878203601f19016040890152611a9b565b604085015161163381611ad9565b606087015261164a60608601516080880190611ae3565b608085015160a087015260a085015160c087015260c0850151601f198783030160e0880152611a9b565b60e084015161010086015260206101008501518051610120880152015183860152610120840151601f1986830301610160870152611b4b565b9101516101808301520390f35b346102445760031961016036820112610244576001600160401b0390600435828111610244576116ee903690600401611a6e565b909160243584811161024457611708903690600401611a6e565b9390926004604435101561024457600360643510156102445760c43586811161024457611739903690600401611a6e565b93909660406101031936011261024457610144351161024457610100906101443536030112610244575f546001600160a01b031633148015611986575b61177f90611ee7565b801561195157611793610104351515611f24565b60a435608435101561191c576118857f7014be439cff2298158ebe0cd06c517f761942b02930045bef4f2bacb0c4ed4d936020976118216003549889986117d98a611f65565b600355895f5260058c526117f961014435600401600960405f200161254e565b895f5260058c5261180e878960405f20611fe0565b895f5260058c52600160405f2001611fe0565b865f5260058952600260405f200161183a604435611ad9565b60ff1981541660ff60443516179055865f5260058952611862606435600260405f200161209f565b865f5260058952600560405f20608435600382015560a435600482015501611fe0565b835f526005865260405f2060e435908160068201556101043560078201555f6010610124359283600882015501556118cc60405194859461010086526101008601916120be565b916118d8604435611ad9565b604435898501526118ee60408501606435611ae3565b608435606085015260a435608085015260a08401526101043560c084015260e08301520390a2604051908152f35b60405162461bcd60e51b815260206004820152600d60248201526c496e76616c696420646174657360981b6044820152606490fd5b60405162461bcd60e51b815260206004820152600d60248201526c13985b59481c995c5d5a5c9959609a1b6044820152606490fd5b50335f9081526002602052604090205460ff16611776565b34610244576020366003190112610244576119b7611a42565b5f546001600160a01b0391906119d09083163314611e74565b168015611a0f57600180546001600160a01b031916821790557f3df77beb5db05fcdd70a30fc8adf3f83f9501b68579455adbd100b81809403945f80a2005b60405162461bcd60e51b815260206004820152600b60248201526a5a65726f206f7261636c6560a81b6044820152606490fd5b600435906001600160a01b038216820361024457565b602435906001600160a01b038216820361024457565b9181601f84011215610244578235916001600160401b038311610244576020838186019501011161024457565b91908251928382525f5b848110611ac5575050825f602080949584010152601f8019910116010190565b602081830181015184830182015201611aa5565b6004111561068357565b9060038210156106835752565b908082519081815260208091019281808460051b8301019501935f915b848310611b1d5750505050505090565b9091929394958480611b3b600193601f198682030187528a51611a9b565b9801930193019194939290611b0d565b611bcb91815115158152602082015115156020820152604082015160408201526060820151606082015260e0611bba611ba8611b966080860151610100806080880152860190611af0565b60a086015185820360a0870152611af0565b60c085015184820360c0860152611af0565b9201519060e0818403910152611af0565b90565b8054821015611be3575f5260205f2001905f90565b634e487b7160e01b5f52603260045260245ffd5b90600182811c92168015611c25575b6020831014611c1157565b634e487b7160e01b5f52602260045260245ffd5b91607f1691611c06565b61016081019081106001600160401b038211176105cc57604052565b604081019081106001600160401b038211176105cc57604052565b61010081019081106001600160401b038211176105cc57604052565b60e081019081106001600160401b038211176105cc57604052565b602081019081106001600160401b038211176105cc57604052565b90601f801991011681019081106001600160401b038211176105cc57604052565b9060405191825f825492611cec84611bf7565b9081845260019485811690815f14611d575750600114611d17575b5050611d1592500383611cb8565b565b909391505f52602090815f20935f915b818310611d3f575050611d1593508201015f80611d07565b85548884018501529485019487945091830191611d27565b915050611d1594506020925060ff191682840152151560051b8201015f80611d07565b90604051611d8781611c4b565b602060018294805484520154910152565b9081546001600160401b0381116105cc57604051926020611dbe818460051b0186611cb8565b8285525f9182528082208186015b848410611dda575050505050565b6001838192611de885611cd9565b815201920193019290611dcc565b90604051611e0381611c66565b60e0611e6f6006839560ff81548181161515875260081c16151560208601526001810154604086015260028101546060860152611e4260038201611d98565b6080860152611e5360048201611d98565b60a0860152611e6460058201611d98565b60c086015201611d98565b910152565b15611e7b57565b60405162461bcd60e51b81526020600482015260096024820152682737ba1037bbb732b960b91b6044820152606490fd5b15611eb357565b60405162461bcd60e51b815260206004820152600c60248201526b16995c9bc81858d8dbdd5b9d60a21b6044820152606490fd5b15611eee57565b60405162461bcd60e51b815260206004820152600e60248201526d139bdd0819dbdd995c9b9b595b9d60921b6044820152606490fd5b15611f2b57565b60405162461bcd60e51b815260206004820152601260248201527105061796f7574206d757374206265203e20360741b6044820152606490fd5b5f198114611f735760010190565b634e487b7160e01b5f52601160045260245ffd5b818110611f92575050565b5f8155600101611f87565b9190601f8111611fac57505050565b611d15925f5260205f20906020601f840160051c83019310611fd6575b601f0160051c0190611f87565b9091508190611fc9565b9092916001600160401b0381116105cc5761200581611fff8454611bf7565b84611f9d565b5f601f821160011461203c57819293945f92612031575b50508160011b915f199060031b1c1916179055565b013590505f8061201c565b601f198216948382526020918281209281905b8882106120875750508360019596971061206e575b505050811b019055565b01355f19600384901b60f8161c191690555f8080612064565b8060018496829495870135815501950192019061204f565b9060038110156106835761ff0082549160081b169061ff001916179055565b908060209392818452848401375f828201840152601f01601f1916010190565b156120e557565b60405162461bcd60e51b815260206004820152600e60248201526d506f6c696379206d697373696e6760901b6044820152606490fd5b1561212257565b60405162461bcd60e51b815260206004820152600f60248201526e506f6c69637920696e61637469766560881b6044820152606490fd5b1561216057565b60405162461bcd60e51b815260206004820152600e60248201526d4f7574736964652077696e646f7760901b6044820152606490fd5b1561219d57565b60405162461bcd60e51b815260206004820152601360248201527211985c9b595c881b9bdd08195b9c9bdb1b1959606a1b6044820152606490fd5b906121e281611ad9565b60ff80198354169116179055565b156121f757565b60405162461bcd60e51b815260206004820152600a6024820152694e6f74206f7261636c6560b01b6044820152606490fd5b1561223057565b60405162461bcd60e51b81526020600482015260126024820152711499595b9d1c985b98de48189b1bd8dad95960721b6044820152606490fd5b1561227157565b60405162461bcd60e51b815260206004820152600b60248201526a4e6f742070656e64696e6760a81b6044820152606490fd5b91908201809211611f7357565b60ff600284015460081c1660038110156106835760016122d1911461211b565b60088301548061242f575b5047600283019384548092106123ea5760106122fb91019182546122a4565b905560038201600360ff19825416179055600182019160018060a01b0390818454165f80808080948a54905af1903d156123e4573d906001600160401b0382116123d05760405191612357601f8201601f191660200184611cb8565b825260203d92013e5b15612399577fe126a82946b3a6f5969d735bc2da134b26667bbdb0818d872a70cd8aee56b0fc91602091549454169454604051908152a4565b60405162461bcd60e51b815260206004820152600f60248201526e151c985b9cd9995c8819985a5b1959608a1b6044820152606490fd5b634e487b7160e01b81526041600452602490fd5b50612360565b60405162461bcd60e51b815260206004820152601d60248201527f496e73756666696369656e7420636f6e74726163742062616c616e63650000006044820152606490fd5b61244260108501546002850154906122a4565b1161244d575f6122dc565b60405162461bcd60e51b8152602060048201526013602482015272141bdb1a58de4818d85c08195e18d959591959606a1b6044820152606490fd5b3580151581036102445790565b903590601e198136030182121561024457018035906001600160401b03821161024457602001918160051b3603831361024457565b9190811015611be35760051b81013590601e19813603018212156102445701908135916001600160401b038311610244576020018236038113610244579190565b9190918054600160401b8110156105cc5761252b91600182018155611bce565b92909261253b57611d1592611fe0565b634e487b7160e01b5f525f60045260245ffd5b9061255881612488565b151560ff835491168060ff19831617845561ff0061257860208501612488565b151560081b169161ffff1916171782556001906040810135828401556060810135600284015581805f905b61269a575b505f815b612658575b505f815b612616575b505f905b6125c9575b50505050565b60e08201906125d88284612495565b9050811015612610576126056125fb826125f561260a9587612495565b906124ca565b906006880161250b565b611f65565b826125be565b506125c3565b60c08301906126258285612495565b905081101561265257612605612642826125f561264c9588612495565b906005890161250b565b816125b5565b506125ba565b60a08301906126678285612495565b905081101561269457612605612684826125f561268e9588612495565b906004890161250b565b816125ac565b506125b1565b60808301906126a98285612495565b90508110156126d6576126056126c6826125f56126d09588612495565b906003890161250b565b816125a3565b506125a8565b8054905f90818155826126ee57505050565b81526020808220928301925b8381106127075750505050565b808361271560019354611bf7565b80612723575b5050016126fa565b601f808211851461273a57505081555b835f61271b565b61275390848452868420920160051c8201858301611f87565b8183555561273356fea26469706673582212202481b152092f4951cf17e13f3241f3468a4603c99e0f31f69a68eb5c86903f1d64736f6c63430008140033",
          "opcodes": "PUSH1 0x80 CALLVALUE PUSH2 0x10B JUMPI PUSH1 0x1F PUSH2 0x28B6 CODESIZE DUP2 SWAP1 SUB SWAP2 DUP3 ADD PUSH1 0x1F NOT AND DUP4 ADD SWAP2 PUSH1 0x1 PUSH1 0x1 PUSH1 0x40 SHL SUB DUP4 GT DUP5 DUP5 LT OR PUSH2 0x10F JUMPI DUP1 DUP5 SWAP3 PUSH1 0x20 SWAP5 PUSH1 0x40 MSTORE DUP4 CODECOPY DUP2 ADD SUB SLT PUSH2 0x10B JUMPI MLOAD PUSH1 0x1 PUSH1 0x1 PUSH1 0xA0 SHL SUB DUP2 AND SWAP1 DUP2 SWAP1 SUB PUSH2 0x10B JUMPI PUSH1 0x1 PUSH1 0x3 SSTORE PUSH1 0x1 PUSH1 0x4 SSTORE PUSH1 0x1 DUP1 PUSH1 0xA0 SHL SUB NOT SWAP1 DUP1 PUSH0 SWAP3 CALLER DUP2 DUP6 SLOAD AND OR DUP5 SSTORE CALLER DUP5 MSTORE PUSH1 0x2 PUSH1 0x20 MSTORE PUSH1 0x40 DUP5 KECCAK256 PUSH1 0x1 PUSH1 0xFF NOT DUP3 SLOAD AND OR SWAP1 SSTORE PUSH1 0x1 SLOAD AND OR PUSH1 0x1 SSTORE PUSH32 0x3DF77BEB5DB05FCDD70A30FC8ADF3F83F9501B68579455ADBD100B8180940394 PUSH1 0x40 MLOAD SWAP3 CALLER PUSH32 0x4FFD725FC4A22075E9EC71C59EDF9C38CDEB588A91B24FC5B61388C5BE41282B DUP3 DUP1 LOG2 CALLER PUSH32 0x6B7E73B864EEE3B44819C423DE068A65E4AB0266E23E5B6DD94442347D55CAD DUP3 DUP1 LOG2 DUP1 LOG2 PUSH2 0x2792 SWAP1 DUP2 PUSH2 0x124 DUP3 CODECOPY RETURN JUMPDEST PUSH0 DUP1 REVERT JUMPDEST PUSH4 0x4E487B71 PUSH1 0xE0 SHL PUSH0 MSTORE PUSH1 0x41 PUSH1 0x4 MSTORE PUSH1 0x24 PUSH0 REVERT INVALID PUSH1 0x80 PUSH1 0x40 MSTORE PUSH1 0x4 CALLDATASIZE LT ISZERO PUSH2 0x46 JUMPI JUMPDEST CALLDATASIZE ISZERO PUSH2 0x18 JUMPI PUSH0 DUP1 REVERT JUMPDEST PUSH1 0x40 MLOAD CALLVALUE DUP2 MSTORE PUSH32 0x543BA50A5EEC5E6178218E364B1D0F396157B3C8FA278522C2CB7FD99407D474 PUSH1 0x20 CALLER SWAP3 LOG2 STOP JUMPDEST PUSH0 CALLDATALOAD PUSH1 0xE0 SHR DUP1 PUSH4 0x1CB44DFC EQ PUSH2 0x199E JUMPI DUP1 PUSH4 0x21B0D525 EQ PUSH2 0x16BA JUMPI DUP1 PUSH4 0x2B07FCE3 EQ PUSH2 0x1471 JUMPI DUP1 PUSH4 0x3577A5AD EQ PUSH2 0x1387 JUMPI DUP1 PUSH4 0x46E30135 EQ PUSH2 0x127D JUMPI DUP1 PUSH4 0x4956973F EQ PUSH2 0x1226 JUMPI DUP1 PUSH4 0x5AEF2447 EQ PUSH2 0x110E JUMPI DUP1 PUSH4 0x6536FABB EQ PUSH2 0xE17 JUMPI DUP1 PUSH4 0x6C2B04FD EQ PUSH2 0xDDA JUMPI DUP1 PUSH4 0x7DC0D1D0 EQ PUSH2 0xDB2 JUMPI DUP1 PUSH4 0x880CDC31 EQ PUSH2 0xD10 JUMPI DUP1 PUSH4 0x8DA5CB5B EQ PUSH2 0xCE9 JUMPI DUP1 PUSH4 0x998970AC EQ PUSH2 0xC20 JUMPI DUP1 PUSH4 0xA0021CF1 EQ PUSH2 0xC03 JUMPI DUP1 PUSH4 0xA0C222B4 EQ PUSH2 0x9B0 JUMPI DUP1 PUSH4 0xA5717A46 EQ PUSH2 0x967 JUMPI DUP1 PUSH4 0xA888C2CD EQ PUSH2 0x8D0 JUMPI DUP1 PUSH4 0xB7A36572 EQ PUSH2 0x814 JUMPI DUP1 PUSH4 0xB963A5D1 EQ PUSH2 0x769 JUMPI DUP1 PUSH4 0xBF62D3C9 EQ PUSH2 0x697 JUMPI DUP1 PUSH4 0xC6E06E4F EQ PUSH2 0x4DE JUMPI DUP1 PUSH4 0xCAD0B8DB EQ PUSH2 0x4C1 JUMPI DUP1 PUSH4 0xD0E30DB0 EQ PUSH2 0x452 JUMPI DUP1 PUSH4 0xD23C617E EQ PUSH2 0x362 JUMPI DUP1 PUSH4 0xD3E89483 EQ PUSH2 0x248 JUMPI PUSH4 0xE7484B5C SUB PUSH2 0xE JUMPI CALLVALUE PUSH2 0x244 JUMPI PUSH1 0x20 CALLDATASIZE PUSH1 0x3 NOT ADD SLT PUSH2 0x244 JUMPI PUSH1 0x1 SLOAD PUSH1 0x4 CALLDATALOAD SWAP1 PUSH2 0x19F SWAP1 CALLER PUSH1 0x1 PUSH1 0x1 PUSH1 0xA0 SHL SUB SWAP2 DUP3 AND EQ SWAP1 DUP2 ISZERO PUSH2 0x237 JUMPI JUMPDEST POP PUSH2 0x21F0 JUMP JUMPDEST PUSH1 0x9 SLOAD SWAP1 PUSH2 0x1B0 PUSH1 0xFF DUP4 AND ISZERO PUSH2 0x2229 JUMP JUMPDEST PUSH1 0x1 PUSH1 0xFF NOT DUP1 SWAP4 AND OR PUSH1 0x9 SSTORE DUP1 PUSH0 MSTORE PUSH1 0x6 PUSH1 0x20 MSTORE PUSH1 0x40 PUSH0 KECCAK256 SWAP1 PUSH1 0x1 PUSH1 0xFF PUSH1 0x3 DUP5 ADD SLOAD AND PUSH2 0x1DC DUP2 PUSH2 0x1AD9 JUMP JUMPDEST SUB PUSH2 0x203 JUMPI DUP2 PUSH2 0x1F8 SWAP3 SLOAD PUSH0 MSTORE PUSH1 0x5 PUSH1 0x20 MSTORE PUSH1 0x40 PUSH0 KECCAK256 SWAP2 PUSH2 0x22B1 JUMP JUMPDEST PUSH1 0x9 SLOAD AND PUSH1 0x9 SSTORE PUSH0 DUP1 RETURN JUMPDEST PUSH1 0x40 MLOAD PUSH3 0x461BCD PUSH1 0xE5 SHL DUP2 MSTORE PUSH1 0x20 PUSH1 0x4 DUP3 ADD MSTORE PUSH1 0xC PUSH1 0x24 DUP3 ADD MSTORE PUSH12 0x139BDD08185C1C1C9BDD9959 PUSH1 0xA2 SHL PUSH1 0x44 DUP3 ADD MSTORE PUSH1 0x64 SWAP1 REVERT JUMPDEST SWAP1 POP PUSH0 SLOAD AND CALLER EQ PUSH0 PUSH2 0x199 JUMP JUMPDEST PUSH0 DUP1 REVERT JUMPDEST CALLVALUE PUSH2 0x244 JUMPI PUSH1 0x20 CALLDATASIZE PUSH1 0x3 NOT ADD SLT PUSH2 0x244 JUMPI PUSH1 0x4 CALLDATALOAD PUSH0 MSTORE PUSH1 0x5 PUSH1 0x20 MSTORE PUSH1 0x40 PUSH0 KECCAK256 PUSH2 0x270 DUP2 PUSH2 0x1CD9 JUMP JUMPDEST PUSH2 0x27C PUSH1 0x1 DUP4 ADD PUSH2 0x1CD9 JUMP JUMPDEST SWAP2 PUSH1 0x2 DUP2 ADD SLOAD SWAP1 PUSH1 0xFF DUP3 AND PUSH1 0x3 DUP3 ADD SLOAD PUSH1 0x4 DUP4 ADD SLOAD SWAP2 PUSH1 0x5 DUP5 ADD PUSH2 0x29F SWAP1 PUSH2 0x1CD9 JUMP JUMPDEST SWAP1 PUSH1 0x6 DUP6 ADD SLOAD SWAP4 PUSH1 0x7 DUP7 ADD PUSH2 0x2B3 SWAP1 PUSH2 0x1D7A JUMP JUMPDEST SWAP4 PUSH2 0x2C0 PUSH1 0x9 DUP9 ADD PUSH2 0x1DF6 JUMP JUMPDEST SWAP7 PUSH1 0x10 ADD SLOAD SWAP8 PUSH1 0x40 MLOAD SWAP11 DUP12 SWAP11 PUSH2 0x180 DUP1 DUP14 MSTORE DUP13 ADD PUSH2 0x2DD SWAP2 PUSH2 0x1A9B JUMP JUMPDEST DUP12 DUP2 SUB PUSH1 0x20 DUP14 ADD MSTORE PUSH2 0x2EE SWAP2 PUSH2 0x1A9B JUMP JUMPDEST SWAP4 PUSH2 0x2F8 DUP2 PUSH2 0x1AD9 JUMP JUMPDEST PUSH1 0x40 DUP12 ADD MSTORE PUSH1 0x60 DUP11 ADD SWAP1 PUSH1 0x8 SHR PUSH1 0xFF AND SWAP1 PUSH2 0x312 SWAP2 PUSH2 0x1AE3 JUMP JUMPDEST PUSH1 0x80 DUP10 ADD MSTORE PUSH1 0xA0 DUP9 ADD MSTORE DUP7 DUP2 SUB PUSH1 0xC0 DUP9 ADD MSTORE PUSH2 0x32D SWAP2 PUSH2 0x1A9B JUMP JUMPDEST SWAP2 PUSH1 0xE0 DUP7 ADD MSTORE DUP1 MLOAD PUSH2 0x100 DUP7 ADD MSTORE PUSH1 0x20 ADD MLOAD PUSH2 0x120 DUP6 ADD MSTORE DUP4 DUP2 SUB PUSH2 0x140 DUP6 ADD MSTORE PUSH2 0x357 SWAP2 PUSH2 0x1B4B JUMP JUMPDEST SWAP1 PUSH2 0x160 DUP4 ADD MSTORE SUB SWAP1 RETURN JUMPDEST CALLVALUE PUSH2 0x244 JUMPI PUSH1 0x3 NOT PUSH1 0x40 CALLDATASIZE DUP3 ADD SLT PUSH2 0x244 JUMPI PUSH1 0x4 CALLDATALOAD SWAP1 PUSH1 0x24 CALLDATALOAD SWAP1 PUSH1 0x1 PUSH1 0x1 PUSH1 0x40 SHL SUB DUP3 GT PUSH2 0x244 JUMPI PUSH2 0x100 SWAP1 DUP3 CALLDATASIZE SUB ADD SLT PUSH2 0x244 JUMPI PUSH2 0x414 SWAP1 PUSH1 0x1 DUP1 PUSH1 0xA0 SHL SUB PUSH0 SLOAD AND CALLER EQ DUP1 ISZERO PUSH2 0x43A JUMPI JUMPDEST PUSH2 0x3B7 SWAP1 PUSH2 0x1EE7 JUMP JUMPDEST DUP3 PUSH0 MSTORE PUSH1 0x5 PUSH1 0x20 MSTORE PUSH1 0x9 PUSH1 0x40 PUSH0 KECCAK256 SWAP2 PUSH2 0x3DA PUSH2 0x3D3 DUP5 SLOAD PUSH2 0x1BF7 JUMP JUMPDEST ISZERO ISZERO PUSH2 0x20DE JUMP JUMPDEST PUSH2 0x3E6 PUSH1 0xC DUP5 ADD PUSH2 0x26DC JUMP JUMPDEST PUSH2 0x3F2 PUSH1 0xD DUP5 ADD PUSH2 0x26DC JUMP JUMPDEST PUSH2 0x3FE PUSH1 0xE DUP5 ADD PUSH2 0x26DC JUMP JUMPDEST PUSH2 0x40A PUSH1 0xF DUP5 ADD PUSH2 0x26DC JUMP JUMPDEST PUSH1 0x4 ADD SWAP2 ADD PUSH2 0x254E JUMP JUMPDEST PUSH32 0x2AB80980F0EEF9858EB5302D23051163010F1AEDE064ABFB6140086C098C2B5E PUSH0 DUP1 LOG2 STOP JUMPDEST POP CALLER PUSH0 SWAP1 DUP2 MSTORE PUSH1 0x2 PUSH1 0x20 MSTORE PUSH1 0x40 SWAP1 KECCAK256 SLOAD PUSH1 0xFF AND PUSH2 0x3AE JUMP JUMPDEST PUSH0 CALLDATASIZE PUSH1 0x3 NOT ADD SLT PUSH2 0x244 JUMPI CALLVALUE ISZERO PUSH2 0x491 JUMPI PUSH1 0x40 MLOAD CALLVALUE DUP2 MSTORE PUSH32 0x543BA50A5EEC5E6178218E364B1D0F396157B3C8FA278522C2CB7FD99407D474 PUSH1 0x20 CALLER SWAP3 LOG2 STOP JUMPDEST PUSH1 0x40 MLOAD PUSH3 0x461BCD PUSH1 0xE5 SHL DUP2 MSTORE PUSH1 0x20 PUSH1 0x4 DUP3 ADD MSTORE PUSH1 0x8 PUSH1 0x24 DUP3 ADD MSTORE PUSH8 0x4E6F2076616C7565 PUSH1 0xC0 SHL PUSH1 0x44 DUP3 ADD MSTORE PUSH1 0x64 SWAP1 REVERT JUMPDEST CALLVALUE PUSH2 0x244 JUMPI PUSH0 CALLDATASIZE PUSH1 0x3 NOT ADD SLT PUSH2 0x244 JUMPI PUSH1 0x20 PUSH1 0x3 SLOAD PUSH1 0x40 MLOAD SWAP1 DUP2 MSTORE RETURN JUMPDEST CALLVALUE PUSH2 0x244 JUMPI PUSH1 0x20 DUP1 PUSH1 0x3 NOT CALLDATASIZE ADD SLT PUSH2 0x244 JUMPI PUSH1 0x4 CALLDATALOAD SWAP1 DUP2 PUSH0 MSTORE PUSH1 0x5 DUP2 MSTORE PUSH1 0x40 PUSH0 KECCAK256 PUSH2 0x50C PUSH2 0x3D3 DUP3 SLOAD PUSH2 0x1BF7 JUMP JUMPDEST PUSH1 0xFF PUSH1 0x2 DUP3 ADD SLOAD PUSH1 0x8 SHR AND PUSH1 0x3 DUP2 LT ISZERO PUSH2 0x683 JUMPI PUSH1 0x1 SUB PUSH2 0x64A JUMPI PUSH1 0x4 ADD SLOAD TIMESTAMP GT PUSH2 0x617 JUMPI DUP2 PUSH0 MSTORE PUSH1 0x8 DUP2 MSTORE PUSH1 0x40 PUSH0 KECCAK256 CALLER PUSH0 MSTORE DUP2 MSTORE PUSH1 0xFF PUSH1 0x40 PUSH0 KECCAK256 SLOAD AND PUSH2 0x5E0 JUMPI PUSH1 0x7 SWAP1 DUP3 PUSH0 MSTORE PUSH1 0x8 DUP2 MSTORE PUSH1 0x40 PUSH0 KECCAK256 CALLER PUSH0 MSTORE DUP2 MSTORE PUSH1 0x40 PUSH0 KECCAK256 PUSH1 0x1 PUSH1 0xFF NOT DUP3 SLOAD AND OR SWAP1 SSTORE MSTORE PUSH1 0x40 PUSH0 KECCAK256 DUP1 SLOAD PUSH1 0x1 PUSH1 0x40 SHL DUP2 LT ISZERO PUSH2 0x5CC JUMPI PUSH2 0x591 SWAP2 PUSH1 0x1 DUP3 ADD DUP2 SSTORE PUSH2 0x1BCE JUMP JUMPDEST DUP2 SLOAD SWAP1 PUSH1 0x3 SHL SWAP1 DUP4 DUP3 SHL SWAP2 PUSH0 NOT SWAP1 SHL NOT AND OR SWAP1 SSTORE CALLER PUSH32 0x5330331063E367ACF9DBB83B95DBAED37E954E0DDFF33E12337F5671BB28A54C PUSH0 DUP1 LOG3 STOP JUMPDEST PUSH4 0x4E487B71 PUSH1 0xE0 SHL PUSH0 MSTORE PUSH1 0x41 PUSH1 0x4 MSTORE PUSH1 0x24 PUSH0 REVERT JUMPDEST PUSH1 0x64 SWAP1 PUSH1 0x40 MLOAD SWAP1 PUSH3 0x461BCD PUSH1 0xE5 SHL DUP3 MSTORE PUSH1 0x4 DUP3 ADD MSTORE PUSH1 0x10 PUSH1 0x24 DUP3 ADD MSTORE PUSH16 0x105B1C9958591E48195B9C9BDB1B1959 PUSH1 0x82 SHL PUSH1 0x44 DUP3 ADD MSTORE REVERT JUMPDEST PUSH1 0x64 SWAP1 PUSH1 0x40 MLOAD SWAP1 PUSH3 0x461BCD PUSH1 0xE5 SHL DUP3 MSTORE PUSH1 0x4 DUP3 ADD MSTORE PUSH1 0xC PUSH1 0x24 DUP3 ADD MSTORE PUSH12 0x141BDB1A58DE48195B991959 PUSH1 0xA2 SHL PUSH1 0x44 DUP3 ADD MSTORE REVERT JUMPDEST PUSH1 0x40 MLOAD PUSH3 0x461BCD PUSH1 0xE5 SHL DUP2 MSTORE PUSH1 0x4 DUP2 ADD DUP4 SWAP1 MSTORE PUSH1 0x11 PUSH1 0x24 DUP3 ADD MSTORE PUSH17 0x506F6C696379206E6F7420616374697665 PUSH1 0x78 SHL PUSH1 0x44 DUP3 ADD MSTORE PUSH1 0x64 SWAP1 REVERT JUMPDEST PUSH4 0x4E487B71 PUSH1 0xE0 SHL PUSH0 MSTORE PUSH1 0x21 PUSH1 0x4 MSTORE PUSH1 0x24 PUSH0 REVERT JUMPDEST CALLVALUE PUSH2 0x244 JUMPI PUSH1 0x20 CALLDATASIZE PUSH1 0x3 NOT ADD SLT PUSH2 0x244 JUMPI PUSH2 0x6B0 PUSH2 0x1A42 JUMP JUMPDEST PUSH0 SLOAD PUSH1 0x1 PUSH1 0x1 PUSH1 0xA0 SHL SUB SWAP1 DUP2 AND SWAP2 PUSH2 0x6C9 CALLER DUP5 EQ PUSH2 0x1E74 JUMP JUMPDEST AND SWAP1 PUSH2 0x6D6 DUP3 ISZERO ISZERO PUSH2 0x1EAC JUMP JUMPDEST DUP2 EQ PUSH2 0x72E JUMPI DUP1 PUSH0 MSTORE PUSH1 0x2 PUSH1 0x20 MSTORE PUSH2 0x6F4 PUSH1 0xFF PUSH1 0x40 PUSH0 KECCAK256 SLOAD AND PUSH2 0x1EE7 JUMP JUMPDEST DUP1 PUSH0 MSTORE PUSH1 0x2 PUSH1 0x20 MSTORE PUSH1 0x40 PUSH0 KECCAK256 PUSH1 0xFF NOT DUP2 SLOAD AND SWAP1 SSTORE PUSH32 0x356C02DF5F27E0E70CCC1FE4D9FDCE0AC870948EBC6B824E6169812B4EC6C616 PUSH0 DUP1 LOG2 STOP JUMPDEST PUSH1 0x40 MLOAD PUSH3 0x461BCD PUSH1 0xE5 SHL DUP2 MSTORE PUSH1 0x20 PUSH1 0x4 DUP3 ADD MSTORE PUSH1 0x13 PUSH1 0x24 DUP3 ADD MSTORE PUSH19 0x21B0B73737BA103932BB37B5B29037BBB732B9 PUSH1 0x69 SHL PUSH1 0x44 DUP3 ADD MSTORE PUSH1 0x64 SWAP1 REVERT JUMPDEST CALLVALUE PUSH2 0x244 JUMPI PUSH1 0x40 CALLDATASIZE PUSH1 0x3 NOT ADD SLT PUSH2 0x244 JUMPI PUSH1 0x4 CALLDATALOAD PUSH1 0x24 CALLDATALOAD PUSH1 0x3 DUP2 LT ISZERO PUSH2 0x244 JUMPI PUSH1 0x20 PUSH32 0xDDBA6CA814CE3F0CB8C9B4B44E5E1891EF8C2857746E6B7453464ABC1539209B SWAP2 PUSH1 0x1 DUP1 PUSH1 0xA0 SHL SUB PUSH0 SLOAD AND CALLER EQ DUP1 ISZERO PUSH2 0x7FD JUMPI JUMPDEST PUSH2 0x7C9 SWAP1 PUSH2 0x1EE7 JUMP JUMPDEST DUP4 PUSH0 MSTORE PUSH1 0x5 DUP3 MSTORE PUSH2 0x7ED DUP2 PUSH1 0x2 PUSH1 0x40 PUSH0 KECCAK256 PUSH2 0x7E7 PUSH2 0x3D3 DUP3 SLOAD PUSH2 0x1BF7 JUMP JUMPDEST ADD PUSH2 0x209F JUMP JUMPDEST PUSH2 0x7FA PUSH1 0x40 MLOAD DUP1 SWAP3 PUSH2 0x1AE3 JUMP JUMPDEST LOG2 STOP JUMPDEST POP CALLER PUSH0 SWAP1 DUP2 MSTORE PUSH1 0x2 DUP4 MSTORE PUSH1 0x40 SWAP1 KECCAK256 SLOAD PUSH1 0xFF AND PUSH2 0x7C0 JUMP JUMPDEST CALLVALUE PUSH2 0x244 JUMPI PUSH1 0x60 CALLDATASIZE PUSH1 0x3 NOT ADD SLT PUSH2 0x244 JUMPI PUSH1 0x4 CALLDATALOAD PUSH1 0x40 CALLDATASIZE PUSH1 0x23 NOT ADD SLT PUSH2 0x244 JUMPI PUSH0 SLOAD PUSH1 0x1 PUSH1 0x1 PUSH1 0xA0 SHL SUB AND CALLER EQ DUP1 ISZERO PUSH2 0x8B8 JUMPI JUMPDEST PUSH2 0x851 SWAP1 PUSH2 0x1EE7 JUMP JUMPDEST DUP1 PUSH0 MSTORE PUSH1 0x5 PUSH1 0x20 MSTORE PUSH32 0x3BADEA81551087FFBCCF48E1F2096512AB718DFAB5D02DEBD5A148D4BB5A6F57 PUSH1 0x40 DUP1 PUSH0 KECCAK256 PUSH2 0x88C PUSH2 0x3D3 DUP3 SLOAD PUSH2 0x1BF7 JUMP JUMPDEST PUSH1 0x8 PUSH1 0x24 CALLDATALOAD SWAP2 PUSH2 0x89D DUP4 ISZERO ISZERO PUSH2 0x1F24 JUMP JUMPDEST DUP3 PUSH1 0x7 DUP3 ADD SSTORE PUSH1 0x44 CALLDATALOAD SWAP2 DUP3 SWAP2 ADD SSTORE DUP3 MLOAD SWAP2 DUP3 MSTORE PUSH1 0x20 DUP3 ADD MSTORE LOG2 STOP JUMPDEST POP CALLER PUSH0 SWAP1 DUP2 MSTORE PUSH1 0x2 PUSH1 0x20 MSTORE PUSH1 0x40 SWAP1 KECCAK256 SLOAD PUSH1 0xFF AND PUSH2 0x848 JUMP JUMPDEST CALLVALUE PUSH2 0x244 JUMPI PUSH1 0x20 CALLDATASIZE PUSH1 0x3 NOT ADD SLT PUSH2 0x244 JUMPI PUSH1 0x4 CALLDATALOAD PUSH0 MSTORE PUSH1 0x6 PUSH1 0x20 MSTORE PUSH1 0x40 PUSH0 KECCAK256 DUP1 SLOAD PUSH2 0x963 PUSH1 0x1 DUP1 PUSH1 0xA0 SHL SUB PUSH1 0x1 DUP5 ADD SLOAD AND SWAP3 PUSH1 0x2 DUP2 ADD SLOAD SWAP1 PUSH1 0xFF PUSH1 0x3 DUP3 ADD SLOAD AND PUSH1 0x4 DUP3 ADD SLOAD SWAP1 PUSH2 0x927 PUSH1 0x6 PUSH1 0x5 DUP6 ADD SLOAD SWAP5 ADD PUSH2 0x1CD9 JUMP JUMPDEST SWAP4 PUSH1 0x40 MLOAD SWAP8 DUP9 SWAP8 DUP9 MSTORE PUSH1 0x20 DUP9 ADD MSTORE PUSH1 0x40 DUP8 ADD MSTORE PUSH2 0x943 DUP2 PUSH2 0x1AD9 JUMP JUMPDEST PUSH1 0x60 DUP7 ADD MSTORE PUSH1 0x80 DUP6 ADD MSTORE PUSH1 0xA0 DUP5 ADD MSTORE PUSH1 0xE0 PUSH1 0xC0 DUP5 ADD MSTORE PUSH1 0xE0 DUP4 ADD SWAP1 PUSH2 0x1A9B JUMP JUMPDEST SUB SWAP1 RETURN JUMPDEST CALLVALUE PUSH2 0x244 JUMPI PUSH1 0x40 CALLDATASIZE PUSH1 0x3 NOT ADD SLT PUSH2 0x244 JUMPI PUSH2 0x980 PUSH2 0x1A58 JUMP JUMPDEST PUSH1 0x4 CALLDATALOAD PUSH0 MSTORE PUSH1 0x8 PUSH1 0x20 MSTORE PUSH1 0x40 PUSH0 KECCAK256 SWAP1 PUSH1 0x1 DUP1 PUSH1 0xA0 SHL SUB AND PUSH0 MSTORE PUSH1 0x20 MSTORE PUSH1 0x20 PUSH1 0xFF PUSH1 0x40 PUSH0 KECCAK256 SLOAD AND PUSH1 0x40 MLOAD SWAP1 ISZERO ISZERO DUP2 MSTORE RETURN JUMPDEST CALLVALUE PUSH2 0x244 JUMPI PUSH1 0x40 CALLDATASIZE PUSH1 0x3 NOT ADD SLT PUSH2 0x244 JUMPI PUSH1 0x4 CALLDATALOAD PUSH1 0x24 CALLDATALOAD SWAP1 DUP1 PUSH0 MSTORE PUSH1 0x20 SWAP2 PUSH1 0x5 DUP4 MSTORE PUSH1 0x40 PUSH0 KECCAK256 SWAP2 PUSH2 0x9E4 PUSH2 0x3D3 DUP5 SLOAD PUSH2 0x1BF7 JUMP JUMPDEST PUSH1 0xFF PUSH1 0x2 DUP5 ADD SLOAD PUSH1 0x8 SHR AND PUSH1 0x3 DUP2 LT ISZERO PUSH2 0x683 JUMPI PUSH1 0x7 SWAP4 PUSH2 0xA08 PUSH1 0x1 DUP1 SWAP4 EQ PUSH2 0x211B JUMP JUMPDEST PUSH1 0x3 DUP2 ADD SLOAD TIMESTAMP LT ISZERO DUP1 PUSH2 0xBF5 JUMPI JUMPDEST PUSH2 0xA1F SWAP1 PUSH2 0x2159 JUMP JUMPDEST DUP3 PUSH0 MSTORE PUSH1 0x8 DUP7 MSTORE PUSH1 0x40 PUSH0 KECCAK256 CALLER PUSH0 MSTORE DUP7 MSTORE PUSH2 0xA3F PUSH1 0xFF PUSH1 0x40 PUSH0 KECCAK256 SLOAD AND PUSH2 0x2196 JUMP JUMPDEST PUSH1 0x4 SLOAD SWAP5 DUP6 SWAP2 PUSH2 0xA4E DUP4 PUSH2 0x1F65 JUMP JUMPDEST PUSH1 0x4 SSTORE ADD SWAP2 PUSH1 0x6 DUP4 SLOAD DUP9 PUSH1 0x40 MLOAD SWAP2 PUSH2 0xA65 DUP4 PUSH2 0x1C82 JUMP JUMPDEST DUP8 DUP4 MSTORE PUSH2 0xAF1 DUP3 DUP5 ADD SWAP2 CALLER DUP4 MSTORE PUSH1 0x40 DUP6 ADD SWAP1 DUP2 MSTORE PUSH1 0x60 DUP6 ADD SWAP1 PUSH0 DUP3 MSTORE PUSH1 0x80 DUP7 ADD SWAP4 DUP13 DUP6 MSTORE DUP8 PUSH1 0xA0 DUP9 ADD SWAP7 TIMESTAMP DUP9 MSTORE PUSH1 0x40 MLOAD SWAP12 PUSH2 0xA9F DUP14 PUSH2 0x1C9D JUMP JUMPDEST PUSH0 DUP14 MSTORE PUSH1 0xC0 DUP11 ADD SWAP13 DUP14 MSTORE PUSH0 MSTORE MSTORE PUSH1 0x40 PUSH0 KECCAK256 SWAP7 MLOAD DUP8 SSTORE DUP9 DUP8 ADD SWAP1 PUSH1 0x1 DUP1 PUSH1 0xA0 SHL SUB SWAP1 MLOAD AND PUSH12 0xFFFFFFFFFFFFFFFFFFFFFFFF PUSH1 0xA0 SHL DUP3 SLOAD AND OR SWAP1 SSTORE MLOAD PUSH1 0x2 DUP7 ADD SSTORE MLOAD PUSH2 0xAE8 DUP2 PUSH2 0x1AD9 JUMP JUMPDEST PUSH1 0x3 DUP6 ADD PUSH2 0x21D8 JUMP JUMPDEST MLOAD PUSH1 0x4 DUP4 ADD SSTORE MLOAD PUSH1 0x5 DUP3 ADD SSTORE ADD SWAP2 MLOAD DUP1 MLOAD SWAP1 PUSH1 0x1 PUSH1 0x1 PUSH1 0x40 SHL SUB DUP3 GT PUSH2 0x5CC JUMPI PUSH2 0xB25 DUP3 PUSH2 0xB1F DUP7 SLOAD PUSH2 0x1BF7 JUMP JUMPDEST DUP7 PUSH2 0x1F9D JUMP JUMPDEST DUP9 SWAP1 PUSH1 0x1F DUP4 GT PUSH1 0x1 EQ PUSH2 0xB96 JUMPI SWAP3 DUP3 SWAP4 SWAP2 DUP4 SWAP3 PUSH0 SWAP5 PUSH2 0xB8B JUMPI JUMPDEST POP POP SHL SWAP2 PUSH0 NOT SWAP1 PUSH1 0x3 SHL SHR NOT AND OR SWAP1 SSTORE JUMPDEST SLOAD SWAP2 PUSH1 0x40 MLOAD SWAP3 DUP4 MSTORE DUP5 DUP4 ADD MSTORE DUP3 PUSH32 0x5A5CAB0CE7E50FF4A469602322193052DB5A543B8CA05E6ECF08AD55084FF30A PUSH1 0x40 CALLER SWAP5 LOG4 PUSH1 0x40 MLOAD SWAP1 DUP2 MSTORE RETURN JUMPDEST ADD MLOAD SWAP3 POP DUP11 DUP1 PUSH2 0xB3F JUMP JUMPDEST SWAP1 PUSH1 0x1F NOT DUP4 AND SWAP2 DUP6 PUSH0 MSTORE DUP4 DUP12 PUSH0 KECCAK256 SWAP4 PUSH0 JUMPDEST DUP14 DUP9 DUP4 DUP4 LT PUSH2 0xBDE JUMPI POP POP POP LT PUSH2 0xBC6 JUMPI JUMPDEST POP POP POP DUP2 SHL ADD SWAP1 SSTORE PUSH2 0xB50 JUMP JUMPDEST ADD MLOAD PUSH0 NOT PUSH1 0xF8 DUP5 PUSH1 0x3 SHL AND SHR NOT AND SWAP1 SSTORE DUP9 DUP1 DUP1 PUSH2 0xBB9 JUMP JUMPDEST DUP7 DUP7 ADD MLOAD DUP9 SSTORE SWAP1 SWAP7 ADD SWAP6 SWAP5 DUP6 ADD SWAP5 DUP8 SWAP4 POP ADD PUSH2 0xBA7 JUMP JUMPDEST POP PUSH1 0x4 DUP2 ADD SLOAD TIMESTAMP GT ISZERO PUSH2 0xA16 JUMP JUMPDEST CALLVALUE PUSH2 0x244 JUMPI PUSH0 CALLDATASIZE PUSH1 0x3 NOT ADD SLT PUSH2 0x244 JUMPI PUSH1 0x20 PUSH1 0x4 SLOAD PUSH1 0x40 MLOAD SWAP1 DUP2 MSTORE RETURN JUMPDEST CALLVALUE PUSH2 0x244 JUMPI PUSH1 0x20 CALLDATASIZE PUSH1 0x3 NOT ADD SLT PUSH2 0x244 JUMPI PUSH2 0xC39 PUSH2 0x1A42 JUMP JUMPDEST PUSH0 SLOAD PUSH1 0x1 PUSH1 0x1 PUSH1 0xA0 SHL SUB SWAP2 SWAP1 PUSH2 0xC52 SWAP1 DUP4 AND CALLER EQ PUSH2 0x1E74 JUMP JUMPDEST AND PUSH2 0xC5E DUP2 ISZERO ISZERO PUSH2 0x1EAC JUMP JUMPDEST DUP1 PUSH0 MSTORE PUSH1 0x2 PUSH1 0x20 MSTORE PUSH1 0xFF PUSH1 0x40 PUSH0 KECCAK256 SLOAD AND PUSH2 0xCAF JUMPI DUP1 PUSH0 MSTORE PUSH1 0x2 PUSH1 0x20 MSTORE PUSH1 0x40 PUSH0 KECCAK256 PUSH1 0x1 PUSH1 0xFF NOT DUP3 SLOAD AND OR SWAP1 SSTORE PUSH32 0x6B7E73B864EEE3B44819C423DE068A65E4AB0266E23E5B6DD94442347D55CAD PUSH0 DUP1 LOG2 STOP JUMPDEST PUSH1 0x40 MLOAD PUSH3 0x461BCD PUSH1 0xE5 SHL DUP2 MSTORE PUSH1 0x20 PUSH1 0x4 DUP3 ADD MSTORE PUSH1 0x12 PUSH1 0x24 DUP3 ADD MSTORE PUSH18 0x105B1C9958591E4819DBDD995C9B9B595B9D PUSH1 0x72 SHL PUSH1 0x44 DUP3 ADD MSTORE PUSH1 0x64 SWAP1 REVERT JUMPDEST CALLVALUE PUSH2 0x244 JUMPI PUSH0 CALLDATASIZE PUSH1 0x3 NOT ADD SLT PUSH2 0x244 JUMPI PUSH0 SLOAD PUSH1 0x40 MLOAD PUSH1 0x1 PUSH1 0x1 PUSH1 0xA0 SHL SUB SWAP1 SWAP2 AND DUP2 MSTORE PUSH1 0x20 SWAP1 RETURN JUMPDEST CALLVALUE PUSH2 0x244 JUMPI PUSH1 0x20 CALLDATASIZE PUSH1 0x3 NOT ADD SLT PUSH2 0x244 JUMPI PUSH2 0xD29 PUSH2 0x1A42 JUMP JUMPDEST PUSH0 SLOAD SWAP1 PUSH1 0x1 PUSH1 0x1 PUSH1 0xA0 SHL SUB SWAP1 PUSH2 0xD42 CALLER DUP4 DUP6 AND EQ PUSH2 0x1E74 JUMP JUMPDEST AND SWAP1 DUP2 ISZERO PUSH2 0xD80 JUMPI PUSH1 0x1 PUSH1 0x1 PUSH1 0xA0 SHL SUB NOT AND DUP2 OR PUSH0 SWAP1 DUP2 SSTORE PUSH32 0x4FFD725FC4A22075E9EC71C59EDF9C38CDEB588A91B24FC5B61388C5BE41282B SWAP1 DUP1 LOG2 STOP JUMPDEST PUSH1 0x40 MLOAD PUSH3 0x461BCD PUSH1 0xE5 SHL DUP2 MSTORE PUSH1 0x20 PUSH1 0x4 DUP3 ADD MSTORE PUSH1 0xA PUSH1 0x24 DUP3 ADD MSTORE PUSH10 0x2D32B9379037BBB732B9 PUSH1 0xB1 SHL PUSH1 0x44 DUP3 ADD MSTORE PUSH1 0x64 SWAP1 REVERT JUMPDEST CALLVALUE PUSH2 0x244 JUMPI PUSH0 CALLDATASIZE PUSH1 0x3 NOT ADD SLT PUSH2 0x244 JUMPI PUSH1 0x1 SLOAD PUSH1 0x40 MLOAD PUSH1 0x1 PUSH1 0x1 PUSH1 0xA0 SHL SUB SWAP1 SWAP2 AND DUP2 MSTORE PUSH1 0x20 SWAP1 RETURN JUMPDEST CALLVALUE PUSH2 0x244 JUMPI PUSH1 0x20 CALLDATASIZE PUSH1 0x3 NOT ADD SLT PUSH2 0x244 JUMPI PUSH1 0x1 PUSH1 0x1 PUSH1 0xA0 SHL SUB PUSH2 0xDFB PUSH2 0x1A42 JUMP JUMPDEST AND PUSH0 MSTORE PUSH1 0x2 PUSH1 0x20 MSTORE PUSH1 0x20 PUSH1 0xFF PUSH1 0x40 PUSH0 KECCAK256 SLOAD AND PUSH1 0x40 MLOAD SWAP1 ISZERO ISZERO DUP2 MSTORE RETURN JUMPDEST CALLVALUE PUSH2 0x244 JUMPI PUSH1 0x60 CALLDATASIZE PUSH1 0x3 NOT ADD SLT PUSH2 0x244 JUMPI PUSH1 0x4 CALLDATALOAD PUSH2 0xE33 PUSH2 0x1A58 JUMP JUMPDEST PUSH1 0x1 DUP1 SLOAD SWAP1 SWAP3 SWAP2 PUSH1 0x1 PUSH1 0x1 PUSH1 0xA0 SHL SUB SWAP2 PUSH1 0x44 CALLDATALOAD SWAP1 DUP4 AND CALLER EQ DUP1 ISZERO PUSH2 0x1102 JUMPI JUMPDEST PUSH2 0xE5B SWAP1 PUSH2 0x21F0 JUMP JUMPDEST DUP4 PUSH0 MSTORE PUSH1 0x20 SWAP5 PUSH1 0x5 DUP7 MSTORE PUSH1 0x40 PUSH0 KECCAK256 SWAP4 PUSH2 0xE77 PUSH2 0x3D3 DUP7 SLOAD PUSH2 0x1BF7 JUMP JUMPDEST PUSH1 0xFF PUSH1 0x2 DUP7 ADD SLOAD PUSH1 0x8 SHR AND SWAP3 PUSH1 0x3 DUP5 LT ISZERO PUSH2 0x683 JUMPI PUSH2 0xE98 DUP4 DUP10 SWAP6 EQ PUSH2 0x211B JUMP JUMPDEST PUSH1 0x3 DUP7 ADD SLOAD TIMESTAMP LT ISZERO DUP1 PUSH2 0x10F4 JUMPI JUMPDEST PUSH2 0xEAF SWAP1 PUSH2 0x2159 JUMP JUMPDEST DUP7 PUSH0 MSTORE PUSH1 0x8 DUP5 MSTORE DUP2 PUSH1 0x40 PUSH0 KECCAK256 SWAP6 AND SWAP5 DUP6 PUSH0 MSTORE DUP5 MSTORE PUSH1 0x40 PUSH0 KECCAK256 SLOAD PUSH1 0xFF AND PUSH2 0xED4 SWAP1 PUSH2 0x2196 JUMP JUMPDEST PUSH1 0x4 SLOAD SWAP6 PUSH2 0xEE1 DUP8 PUSH2 0x1F65 JUMP JUMPDEST PUSH1 0x4 SSTORE PUSH1 0x7 ADD SWAP2 DUP3 SLOAD SWAP1 PUSH1 0x40 MLOAD SWAP2 PUSH2 0xEF8 DUP4 PUSH2 0x1C82 JUMP JUMPDEST DUP10 DUP4 MSTORE DUP7 DUP4 ADD SWAP1 DUP9 DUP3 MSTORE PUSH1 0x40 DUP5 ADD SWAP1 DUP2 MSTORE PUSH1 0x60 DUP5 ADD SWAP1 PUSH0 DUP3 MSTORE PUSH1 0x80 DUP6 ADD SWAP3 DUP7 DUP5 MSTORE PUSH1 0xA0 DUP7 ADD SWAP5 TIMESTAMP DUP7 MSTORE PUSH1 0x40 MLOAD SWAP11 PUSH2 0xF2E DUP13 PUSH2 0x1C9D JUMP JUMPDEST PUSH0 DUP13 MSTORE PUSH1 0xC0 DUP9 ADD SWAP12 DUP13 MSTORE DUP14 PUSH0 MSTORE PUSH1 0x6 SWAP1 MSTORE PUSH1 0x40 PUSH0 KECCAK256 SWAP7 MLOAD DUP8 SSTORE DUP10 DUP8 ADD SWAP2 MLOAD AND PUSH12 0xFFFFFFFFFFFFFFFFFFFFFFFF PUSH1 0xA0 SHL DUP3 SLOAD AND OR SWAP1 SSTORE MLOAD PUSH1 0x2 DUP6 ADD SSTORE MLOAD PUSH2 0xF73 DUP2 PUSH2 0x1AD9 JUMP JUMPDEST PUSH2 0xF80 SWAP1 PUSH1 0x3 DUP6 ADD PUSH2 0x21D8 JUMP JUMPDEST MLOAD PUSH1 0x4 DUP4 ADD SSTORE MLOAD PUSH1 0x5 DUP3 ADD SSTORE PUSH1 0x6 ADD SWAP4 MLOAD SWAP2 DUP3 MLOAD SWAP5 PUSH1 0x1 PUSH1 0x1 PUSH1 0x40 SHL SUB DUP7 GT PUSH2 0x5CC JUMPI DUP6 DUP10 SWAP6 DUP10 SWAP6 PUSH2 0xFB7 DUP11 SWAP10 PUSH2 0xB1F DUP7 SLOAD PUSH2 0x1BF7 JUMP JUMPDEST DUP13 SWAP1 PUSH1 0x1F DUP5 GT PUSH1 0x1 EQ PUSH2 0x104C JUMPI SWAP3 DUP1 PUSH32 0x5A5CAB0CE7E50FF4A469602322193052DB5A543B8CA05E6ECF08AD55084FF30A SWAP8 SWAP6 SWAP4 DUP2 SWAP4 PUSH1 0x40 SWAP9 SWAP7 PUSH0 SWAP5 PUSH2 0x1041 JUMPI JUMPDEST POP POP SHL SWAP2 PUSH0 NOT SWAP1 PUSH1 0x3 SHL SHR NOT AND OR SWAP1 SSTORE JUMPDEST SLOAD SWAP1 DUP3 MLOAD SWAP2 DUP3 MSTORE DUP11 DUP3 ADD MSTORE LOG4 PUSH1 0x40 MLOAD SWAP3 DUP3 PUSH32 0xA0AE011A7E92DD1401F20D322E6CEA9FD114CA02ABAF366D067E86D2EB75883A PUSH0 DUP1 LOG4 DUP2 MSTORE RETURN JUMPDEST ADD MLOAD SWAP3 POP PUSH0 DUP1 PUSH2 0xFF7 JUMP JUMPDEST SWAP1 DUP14 SWAP2 PUSH1 0x1F SWAP5 SWAP4 SWAP5 NOT DUP5 AND DUP7 PUSH0 MSTORE DUP4 PUSH0 KECCAK256 SWAP4 PUSH0 SWAP1 JUMPDEST DUP3 DUP3 LT PUSH2 0x10C2 JUMPI POP POP SWAP2 PUSH1 0x40 SWAP8 SWAP6 SWAP4 SWAP2 DUP6 PUSH32 0x5A5CAB0CE7E50FF4A469602322193052DB5A543B8CA05E6ECF08AD55084FF30A SWAP11 SWAP9 SWAP7 SWAP5 LT PUSH2 0x10AA JUMPI JUMPDEST POP POP POP DUP2 SHL ADD SWAP1 SSTORE PUSH2 0x1008 JUMP JUMPDEST ADD MLOAD PUSH0 NOT PUSH1 0xF8 DUP5 PUSH1 0x3 SHL AND SHR NOT AND SWAP1 SSTORE DUP15 DUP1 DUP1 PUSH2 0x109D JUMP JUMPDEST SWAP4 DUP8 SWAP11 SWAP14 POP DUP4 DUP6 SWAP5 SWAP8 SWAP11 SWAP14 POP DUP2 SWAP10 SWAP13 POP SWAP8 SWAP3 SWAP6 SWAP2 SWAP8 ADD MLOAD DUP2 SSTORE ADD SWAP6 ADD SWAP4 ADD SWAP3 DUP13 SWAP9 SWAP6 SWAP3 DUP13 SWAP9 SWAP6 SWAP3 DUP16 SWAP6 DUP14 SWAP13 SWAP10 SWAP7 PUSH2 0x1061 JUMP JUMPDEST POP PUSH1 0x4 DUP7 ADD SLOAD TIMESTAMP GT ISZERO PUSH2 0xEA6 JUMP JUMPDEST POP PUSH0 SLOAD DUP4 AND CALLER EQ PUSH2 0xE52 JUMP JUMPDEST CALLVALUE PUSH2 0x244 JUMPI PUSH1 0x20 DUP1 PUSH1 0x3 NOT CALLDATASIZE ADD SLT PUSH2 0x244 JUMPI PUSH1 0x60 PUSH1 0xC0 PUSH1 0x40 MLOAD PUSH2 0x1130 DUP2 PUSH2 0x1C82 JUMP JUMPDEST PUSH0 DUP2 MSTORE PUSH0 DUP5 DUP3 ADD MSTORE PUSH0 PUSH1 0x40 DUP3 ADD MSTORE PUSH0 DUP4 DUP3 ADD MSTORE PUSH0 PUSH1 0x80 DUP3 ADD MSTORE PUSH0 PUSH1 0xA0 DUP3 ADD MSTORE ADD MSTORE PUSH1 0x4 CALLDATALOAD PUSH0 MSTORE PUSH1 0x6 DUP2 MSTORE PUSH1 0x40 PUSH0 KECCAK256 PUSH2 0x963 PUSH1 0x40 MLOAD SWAP2 PUSH2 0x116E DUP4 PUSH2 0x1C82 JUMP JUMPDEST DUP1 SLOAD DUP4 MSTORE PUSH1 0x1 DUP2 ADD SLOAD PUSH1 0x1 PUSH1 0x1 PUSH1 0xA0 SHL SUB SWAP1 DUP2 AND DUP6 DUP6 ADD SWAP1 DUP2 MSTORE PUSH1 0x2 DUP4 ADD SLOAD PUSH1 0x40 DUP7 ADD SWAP1 DUP2 MSTORE PUSH1 0x3 DUP5 ADD SLOAD SWAP2 SWAP4 SWAP3 SWAP2 PUSH1 0x60 DUP8 ADD SWAP2 SWAP1 PUSH1 0xFF AND PUSH2 0x11AF DUP2 PUSH2 0x1AD9 JUMP JUMPDEST DUP3 MSTORE PUSH1 0x4 DUP5 ADD SLOAD SWAP3 PUSH1 0x80 DUP9 ADD SWAP4 DUP5 MSTORE PUSH2 0x11D6 PUSH1 0x6 PUSH1 0x5 DUP8 ADD SLOAD SWAP7 PUSH1 0xA0 DUP12 ADD SWAP8 DUP9 MSTORE ADD PUSH2 0x1CD9 JUMP JUMPDEST SWAP6 PUSH1 0xC0 DUP10 ADD SWAP7 DUP8 MSTORE PUSH1 0x40 MLOAD SWAP10 DUP11 SWAP10 DUP2 DUP12 MSTORE MLOAD SWAP1 DUP11 ADD MSTORE MLOAD AND PUSH1 0x40 DUP9 ADD MSTORE MLOAD PUSH1 0x60 DUP8 ADD MSTORE MLOAD PUSH2 0x1203 DUP2 PUSH2 0x1AD9 JUMP JUMPDEST PUSH1 0x80 DUP7 ADD MSTORE MLOAD PUSH1 0xA0 DUP6 ADD MSTORE MLOAD PUSH1 0xC0 DUP5 ADD MSTORE MLOAD PUSH1 0xE0 DUP1 DUP5 ADD MSTORE PUSH2 0x100 DUP4 ADD SWAP1 PUSH2 0x1A9B JUMP JUMPDEST CALLVALUE PUSH2 0x244 JUMPI PUSH1 0x40 CALLDATASIZE PUSH1 0x3 NOT ADD SLT PUSH2 0x244 JUMPI PUSH2 0x123F PUSH2 0x1A42 JUMP JUMPDEST PUSH1 0x1 PUSH1 0x1 PUSH1 0xA0 SHL SUB AND PUSH0 SWAP1 DUP2 MSTORE PUSH1 0x7 PUSH1 0x20 MSTORE PUSH1 0x40 SWAP1 KECCAK256 DUP1 SLOAD PUSH1 0x24 CALLDATALOAD SWAP2 SWAP1 DUP3 LT ISZERO PUSH2 0x244 JUMPI PUSH1 0x20 SWAP2 PUSH2 0x126F SWAP2 PUSH2 0x1BCE JUMP JUMPDEST SWAP1 SLOAD PUSH1 0x40 MLOAD SWAP2 PUSH1 0x3 SHL SHR DUP2 MSTORE RETURN JUMPDEST CALLVALUE PUSH2 0x244 JUMPI PUSH1 0x20 CALLDATASIZE PUSH1 0x3 NOT ADD SLT PUSH2 0x244 JUMPI PUSH0 SLOAD PUSH1 0x4 CALLDATALOAD SWAP1 PUSH1 0x1 PUSH1 0x1 PUSH1 0xA0 SHL SUB SWAP1 DUP2 AND CALLER EQ DUP1 ISZERO PUSH2 0x136F JUMPI JUMPDEST PUSH2 0x12B1 SWAP1 PUSH2 0x1EE7 JUMP JUMPDEST PUSH1 0x9 SLOAD SWAP2 PUSH2 0x12C2 PUSH1 0xFF DUP5 AND ISZERO PUSH2 0x2229 JUMP JUMPDEST PUSH1 0x1 PUSH1 0xFF NOT DUP1 SWAP5 AND OR PUSH1 0x9 SSTORE DUP1 PUSH0 MSTORE PUSH1 0x6 PUSH1 0x20 MSTORE PUSH1 0x40 PUSH0 KECCAK256 PUSH1 0x3 DUP2 ADD SWAP2 DUP3 SLOAD SWAP4 PUSH2 0x12F8 PUSH1 0xFF DUP7 AND PUSH2 0x12F2 DUP2 PUSH2 0x1AD9 JUMP JUMPDEST ISZERO PUSH2 0x226A JUMP JUMPDEST DUP3 SLOAD SWAP1 DUP2 PUSH0 MSTORE PUSH1 0x5 PUSH1 0x20 MSTORE PUSH1 0x40 PUSH0 KECCAK256 SWAP5 PUSH1 0xFF PUSH1 0x2 DUP8 ADD SLOAD PUSH1 0x8 SHR AND SWAP7 PUSH1 0x3 DUP9 LT ISZERO PUSH2 0x683 JUMPI DUP9 PUSH1 0x1 SWAP2 PUSH2 0x132F DUP4 PUSH2 0x1F8 SWAP12 EQ PUSH2 0x211B JUMP JUMPDEST AND OR SWAP1 SSTORE PUSH1 0x1 DUP5 ADD SLOAD AND SWAP1 DUP3 PUSH32 0x63E70868DC2D7EC072E727D9012D2AE383920C1F02E6F38E7017CD5F06AE0971 PUSH1 0x20 PUSH1 0x2 DUP8 ADD SLOAD PUSH1 0x40 MLOAD SWAP1 DUP2 MSTORE LOG4 PUSH2 0x22B1 JUMP JUMPDEST POP CALLER PUSH0 SWAP1 DUP2 MSTORE PUSH1 0x2 PUSH1 0x20 MSTORE PUSH1 0x40 SWAP1 KECCAK256 SLOAD PUSH1 0xFF AND PUSH2 0x12A8 JUMP JUMPDEST CALLVALUE PUSH2 0x244 JUMPI PUSH1 0x40 CALLDATASIZE PUSH1 0x3 NOT ADD SLT PUSH2 0x244 JUMPI PUSH1 0x4 CALLDATALOAD PUSH1 0x24 CALLDATALOAD PUSH1 0x1 PUSH1 0x1 PUSH1 0x40 SHL SUB DUP2 GT PUSH2 0x244 JUMPI PUSH2 0x13BA SWAP1 CALLDATASIZE SWAP1 PUSH1 0x4 ADD PUSH2 0x1A6E JUMP JUMPDEST SWAP2 PUSH32 0x6014F6F9DBB4598F3AAC859C39462A5A20D68534E732C8BAE08CD8BB90264BF0 PUSH1 0x1 DUP1 PUSH1 0xA0 SHL SUB SWAP3 DUP4 PUSH0 SLOAD AND CALLER EQ DUP1 ISZERO PUSH2 0x1459 JUMPI JUMPDEST PUSH2 0x13FA SWAP1 PUSH2 0x1EE7 JUMP JUMPDEST DUP3 PUSH0 MSTORE PUSH1 0x6 PUSH1 0x20 MSTORE PUSH1 0x40 PUSH0 KECCAK256 SWAP4 PUSH1 0x3 DUP6 ADD PUSH1 0x2 DUP2 SLOAD PUSH2 0x141F PUSH1 0xFF DUP3 AND PUSH2 0x12F2 DUP2 PUSH2 0x1AD9 JUMP JUMPDEST PUSH1 0xFF NOT AND OR SWAP1 SSTORE PUSH2 0x1434 DUP7 DUP4 PUSH1 0x6 DUP9 ADD PUSH2 0x1FE0 JUMP JUMPDEST PUSH1 0x1 DUP6 SLOAD SWAP6 ADD SLOAD AND SWAP5 PUSH2 0x1454 PUSH1 0x40 MLOAD SWAP3 DUP4 SWAP3 PUSH1 0x20 DUP5 MSTORE PUSH1 0x20 DUP5 ADD SWAP2 PUSH2 0x20BE JUMP JUMPDEST SUB SWAP1 LOG4 STOP JUMPDEST POP CALLER PUSH0 SWAP1 DUP2 MSTORE PUSH1 0x2 PUSH1 0x20 MSTORE PUSH1 0x40 SWAP1 KECCAK256 SLOAD PUSH1 0xFF AND PUSH2 0x13F1 JUMP JUMPDEST CALLVALUE PUSH2 0x244 JUMPI PUSH1 0x20 CALLDATASIZE PUSH1 0x3 NOT ADD SLT PUSH2 0x244 JUMPI PUSH0 PUSH2 0x140 PUSH1 0x40 MLOAD PUSH2 0x1492 DUP2 PUSH2 0x1C2F JUMP JUMPDEST PUSH1 0x60 DUP2 MSTORE PUSH1 0x60 PUSH1 0x20 DUP3 ADD MSTORE DUP3 PUSH1 0x40 DUP3 ADD MSTORE DUP3 PUSH1 0x60 DUP3 ADD MSTORE DUP3 PUSH1 0x80 DUP3 ADD MSTORE DUP3 PUSH1 0xA0 DUP3 ADD MSTORE PUSH1 0x60 PUSH1 0xC0 DUP3 ADD MSTORE DUP3 PUSH1 0xE0 DUP3 ADD MSTORE PUSH1 0x40 MLOAD PUSH2 0x14CE DUP2 PUSH2 0x1C4B JUMP JUMPDEST DUP4 DUP2 MSTORE DUP4 PUSH1 0x20 DUP3 ADD MSTORE PUSH2 0x100 DUP3 ADD MSTORE PUSH1 0x40 MLOAD PUSH2 0x14E9 DUP2 PUSH2 0x1C66 JUMP JUMPDEST DUP4 DUP2 MSTORE DUP4 PUSH1 0x20 DUP3 ADD MSTORE DUP4 PUSH1 0x40 DUP3 ADD MSTORE DUP4 PUSH1 0x60 DUP3 ADD MSTORE PUSH1 0x60 PUSH1 0x80 DUP3 ADD MSTORE PUSH1 0x60 PUSH1 0xA0 DUP3 ADD MSTORE PUSH1 0x60 PUSH1 0xC0 DUP3 ADD MSTORE PUSH1 0x60 PUSH1 0xE0 DUP3 ADD MSTORE PUSH2 0x120 DUP3 ADD MSTORE ADD MSTORE PUSH1 0x4 CALLDATALOAD PUSH0 MSTORE PUSH1 0x5 PUSH1 0x20 MSTORE PUSH1 0x40 PUSH0 KECCAK256 PUSH1 0x40 MLOAD SWAP1 PUSH2 0x153D DUP3 PUSH2 0x1C2F JUMP JUMPDEST PUSH2 0x1546 DUP2 PUSH2 0x1CD9 JUMP JUMPDEST DUP3 MSTORE PUSH2 0x1554 PUSH1 0x1 DUP3 ADD PUSH2 0x1CD9 JUMP JUMPDEST PUSH1 0x20 DUP4 ADD MSTORE PUSH1 0xFF PUSH1 0x2 DUP3 ADD SLOAD DUP2 DUP2 AND PUSH2 0x156C DUP2 PUSH2 0x1AD9 JUMP JUMPDEST PUSH1 0x40 DUP6 ADD MSTORE PUSH1 0x8 SHR AND SWAP1 PUSH1 0x3 DUP3 LT ISZERO PUSH2 0x683 JUMPI PUSH1 0x10 SWAP2 PUSH1 0x60 DUP5 ADD MSTORE PUSH1 0x3 DUP2 ADD SLOAD PUSH1 0x80 DUP5 ADD MSTORE PUSH1 0x4 DUP2 ADD SLOAD PUSH1 0xA0 DUP5 ADD MSTORE PUSH2 0x15A7 PUSH1 0x5 DUP3 ADD PUSH2 0x1CD9 JUMP JUMPDEST PUSH1 0xC0 DUP5 ADD MSTORE PUSH1 0x6 DUP2 ADD SLOAD PUSH1 0xE0 DUP5 ADD MSTORE PUSH2 0x15C2 PUSH1 0x7 DUP3 ADD PUSH2 0x1D7A JUMP JUMPDEST PUSH2 0x100 DUP5 ADD MSTORE PUSH2 0x15D4 PUSH1 0x9 DUP3 ADD PUSH2 0x1DF6 JUMP JUMPDEST PUSH2 0x120 DUP5 ADD MSTORE ADD SLOAD PUSH2 0x140 DUP3 ADD MSTORE PUSH1 0x40 MLOAD DUP1 SWAP2 PUSH1 0x20 DUP3 MSTORE PUSH2 0x140 PUSH2 0x16AD PUSH2 0x1674 PUSH2 0x1625 PUSH2 0x160F DUP6 MLOAD PUSH2 0x180 PUSH1 0x20 DUP10 ADD MSTORE PUSH2 0x1A0 DUP9 ADD SWAP1 PUSH2 0x1A9B JUMP JUMPDEST PUSH1 0x20 DUP7 ADD MLOAD DUP8 DUP3 SUB PUSH1 0x1F NOT ADD PUSH1 0x40 DUP10 ADD MSTORE PUSH2 0x1A9B JUMP JUMPDEST PUSH1 0x40 DUP6 ADD MLOAD PUSH2 0x1633 DUP2 PUSH2 0x1AD9 JUMP JUMPDEST PUSH1 0x60 DUP8 ADD MSTORE PUSH2 0x164A PUSH1 0x60 DUP7 ADD MLOAD PUSH1 0x80 DUP9 ADD SWAP1 PUSH2 0x1AE3 JUMP JUMPDEST PUSH1 0x80 DUP6 ADD MLOAD PUSH1 0xA0 DUP8 ADD MSTORE PUSH1 0xA0 DUP6 ADD MLOAD PUSH1 0xC0 DUP8 ADD MSTORE PUSH1 0xC0 DUP6 ADD MLOAD PUSH1 0x1F NOT DUP8 DUP4 SUB ADD PUSH1 0xE0 DUP9 ADD MSTORE PUSH2 0x1A9B JUMP JUMPDEST PUSH1 0xE0 DUP5 ADD MLOAD PUSH2 0x100 DUP7 ADD MSTORE PUSH1 0x20 PUSH2 0x100 DUP6 ADD MLOAD DUP1 MLOAD PUSH2 0x120 DUP9 ADD MSTORE ADD MLOAD DUP4 DUP7 ADD MSTORE PUSH2 0x120 DUP5 ADD MLOAD PUSH1 0x1F NOT DUP7 DUP4 SUB ADD PUSH2 0x160 DUP8 ADD MSTORE PUSH2 0x1B4B JUMP JUMPDEST SWAP2 ADD MLOAD PUSH2 0x180 DUP4 ADD MSTORE SUB SWAP1 RETURN JUMPDEST CALLVALUE PUSH2 0x244 JUMPI PUSH1 0x3 NOT PUSH2 0x160 CALLDATASIZE DUP3 ADD SLT PUSH2 0x244 JUMPI PUSH1 0x1 PUSH1 0x1 PUSH1 0x40 SHL SUB SWAP1 PUSH1 0x4 CALLDATALOAD DUP3 DUP2 GT PUSH2 0x244 JUMPI PUSH2 0x16EE SWAP1 CALLDATASIZE SWAP1 PUSH1 0x4 ADD PUSH2 0x1A6E JUMP JUMPDEST SWAP1 SWAP2 PUSH1 0x24 CALLDATALOAD DUP5 DUP2 GT PUSH2 0x244 JUMPI PUSH2 0x1708 SWAP1 CALLDATASIZE SWAP1 PUSH1 0x4 ADD PUSH2 0x1A6E JUMP JUMPDEST SWAP4 SWAP1 SWAP3 PUSH1 0x4 PUSH1 0x44 CALLDATALOAD LT ISZERO PUSH2 0x244 JUMPI PUSH1 0x3 PUSH1 0x64 CALLDATALOAD LT ISZERO PUSH2 0x244 JUMPI PUSH1 0xC4 CALLDATALOAD DUP7 DUP2 GT PUSH2 0x244 JUMPI PUSH2 0x1739 SWAP1 CALLDATASIZE SWAP1 PUSH1 0x4 ADD PUSH2 0x1A6E JUMP JUMPDEST SWAP4 SWAP1 SWAP7 PUSH1 0x40 PUSH2 0x103 NOT CALLDATASIZE ADD SLT PUSH2 0x244 JUMPI PUSH2 0x144 CALLDATALOAD GT PUSH2 0x244 JUMPI PUSH2 0x100 SWAP1 PUSH2 0x144 CALLDATALOAD CALLDATASIZE SUB ADD SLT PUSH2 0x244 JUMPI PUSH0 SLOAD PUSH1 0x1 PUSH1 0x1 PUSH1 0xA0 SHL SUB AND CALLER EQ DUP1 ISZERO PUSH2 0x1986 JUMPI JUMPDEST PUSH2 0x177F SWAP1 PUSH2 0x1EE7 JUMP JUMPDEST DUP1 ISZERO PUSH2 0x1951 JUMPI PUSH2 0x1793 PUSH2 0x104 CALLDATALOAD ISZERO ISZERO PUSH2 0x1F24 JUMP JUMPDEST PUSH1 0xA4 CALLDATALOAD PUSH1 0x84 CALLDATALOAD LT ISZERO PUSH2 0x191C JUMPI PUSH2 0x1885 PUSH32 0x7014BE439CFF2298158EBE0CD06C517F761942B02930045BEF4F2BACB0C4ED4D SWAP4 PUSH1 0x20 SWAP8 PUSH2 0x1821 PUSH1 0x3 SLOAD SWAP9 DUP10 SWAP9 PUSH2 0x17D9 DUP11 PUSH2 0x1F65 JUMP JUMPDEST PUSH1 0x3 SSTORE DUP10 PUSH0 MSTORE PUSH1 0x5 DUP13 MSTORE PUSH2 0x17F9 PUSH2 0x144 CALLDATALOAD PUSH1 0x4 ADD PUSH1 0x9 PUSH1 0x40 PUSH0 KECCAK256 ADD PUSH2 0x254E JUMP JUMPDEST DUP10 PUSH0 MSTORE PUSH1 0x5 DUP13 MSTORE PUSH2 0x180E DUP8 DUP10 PUSH1 0x40 PUSH0 KECCAK256 PUSH2 0x1FE0 JUMP JUMPDEST DUP10 PUSH0 MSTORE PUSH1 0x5 DUP13 MSTORE PUSH1 0x1 PUSH1 0x40 PUSH0 KECCAK256 ADD PUSH2 0x1FE0 JUMP JUMPDEST DUP7 PUSH0 MSTORE PUSH1 0x5 DUP10 MSTORE PUSH1 0x2 PUSH1 0x40 PUSH0 KECCAK256 ADD PUSH2 0x183A PUSH1 0x44 CALLDATALOAD PUSH2 0x1AD9 JUMP JUMPDEST PUSH1 0xFF NOT DUP2 SLOAD AND PUSH1 0xFF PUSH1 0x44 CALLDATALOAD AND OR SWAP1 SSTORE DUP7 PUSH0 MSTORE PUSH1 0x5 DUP10 MSTORE PUSH2 0x1862 PUSH1 0x64 CALLDATALOAD PUSH1 0x2 PUSH1 0x40 PUSH0 KECCAK256 ADD PUSH2 0x209F JUMP JUMPDEST DUP7 PUSH0 MSTORE PUSH1 0x5 DUP10 MSTORE PUSH1 0x5 PUSH1 0x40 PUSH0 KECCAK256 PUSH1 0x84 CALLDATALOAD PUSH1 0x3 DUP3 ADD SSTORE PUSH1 0xA4 CALLDATALOAD PUSH1 0x4 DUP3 ADD SSTORE ADD PUSH2 0x1FE0 JUMP JUMPDEST DUP4 PUSH0 MSTORE PUSH1 0x5 DUP7 MSTORE PUSH1 0x40 PUSH0 KECCAK256 PUSH1 0xE4 CALLDATALOAD SWAP1 DUP2 PUSH1 0x6 DUP3 ADD SSTORE PUSH2 0x104 CALLDATALOAD PUSH1 0x7 DUP3 ADD SSTORE PUSH0 PUSH1 0x10 PUSH2 0x124 CALLDATALOAD SWAP3 DUP4 PUSH1 0x8 DUP3 ADD SSTORE ADD SSTORE PUSH2 0x18CC PUSH1 0x40 MLOAD SWAP5 DUP6 SWAP5 PUSH2 0x100 DUP7 MSTORE PUSH2 0x100 DUP7 ADD SWAP2 PUSH2 0x20BE JUMP JUMPDEST SWAP2 PUSH2 0x18D8 PUSH1 0x44 CALLDATALOAD PUSH2 0x1AD9 JUMP JUMPDEST PUSH1 0x44 CALLDATALOAD DUP10 DUP6 ADD MSTORE PUSH2 0x18EE PUSH1 0x40 DUP6 ADD PUSH1 0x64 CALLDATALOAD PUSH2 0x1AE3 JUMP JUMPDEST PUSH1 0x84 CALLDATALOAD PUSH1 0x60 DUP6 ADD MSTORE PUSH1 0xA4 CALLDATALOAD PUSH1 0x80 DUP6 ADD MSTORE PUSH1 0xA0 DUP5 ADD MSTORE PUSH2 0x104 CALLDATALOAD PUSH1 0xC0 DUP5 ADD MSTORE PUSH1 0xE0 DUP4 ADD MSTORE SUB SWAP1 LOG2 PUSH1 0x40 MLOAD SWAP1 DUP2 MSTORE RETURN JUMPDEST PUSH1 0x40 MLOAD PUSH3 0x461BCD PUSH1 0xE5 SHL DUP2 MSTORE PUSH1 0x20 PUSH1 0x4 DUP3 ADD MSTORE PUSH1 0xD PUSH1 0x24 DUP3 ADD MSTORE PUSH13 0x496E76616C6964206461746573 PUSH1 0x98 SHL PUSH1 0x44 DUP3 ADD MSTORE PUSH1 0x64 SWAP1 REVERT JUMPDEST PUSH1 0x40 MLOAD PUSH3 0x461BCD PUSH1 0xE5 SHL DUP2 MSTORE PUSH1 0x20 PUSH1 0x4 DUP3 ADD MSTORE PUSH1 0xD PUSH1 0x24 DUP3 ADD MSTORE PUSH13 0x13985B59481C995C5D5A5C9959 PUSH1 0x9A SHL PUSH1 0x44 DUP3 ADD MSTORE PUSH1 0x64 SWAP1 REVERT JUMPDEST POP CALLER PUSH0 SWAP1 DUP2 MSTORE PUSH1 0x2 PUSH1 0x20 MSTORE PUSH1 0x40 SWAP1 KECCAK256 SLOAD PUSH1 0xFF AND PUSH2 0x1776 JUMP JUMPDEST CALLVALUE PUSH2 0x244 JUMPI PUSH1 0x20 CALLDATASIZE PUSH1 0x3 NOT ADD SLT PUSH2 0x244 JUMPI PUSH2 0x19B7 PUSH2 0x1A42 JUMP JUMPDEST PUSH0 SLOAD PUSH1 0x1 PUSH1 0x1 PUSH1 0xA0 SHL SUB SWAP2 SWAP1 PUSH2 0x19D0 SWAP1 DUP4 AND CALLER EQ PUSH2 0x1E74 JUMP JUMPDEST AND DUP1 ISZERO PUSH2 0x1A0F JUMPI PUSH1 0x1 DUP1 SLOAD PUSH1 0x1 PUSH1 0x1 PUSH1 0xA0 SHL SUB NOT AND DUP3 OR SWAP1 SSTORE PUSH32 0x3DF77BEB5DB05FCDD70A30FC8ADF3F83F9501B68579455ADBD100B8180940394 PUSH0 DUP1 LOG2 STOP JUMPDEST PUSH1 0x40 MLOAD PUSH3 0x461BCD PUSH1 0xE5 SHL DUP2 MSTORE PUSH1 0x20 PUSH1 0x4 DUP3 ADD MSTORE PUSH1 0xB PUSH1 0x24 DUP3 ADD MSTORE PUSH11 0x5A65726F206F7261636C65 PUSH1 0xA8 SHL PUSH1 0x44 DUP3 ADD MSTORE PUSH1 0x64 SWAP1 REVERT JUMPDEST PUSH1 0x4 CALLDATALOAD SWAP1 PUSH1 0x1 PUSH1 0x1 PUSH1 0xA0 SHL SUB DUP3 AND DUP3 SUB PUSH2 0x244 JUMPI JUMP JUMPDEST PUSH1 0x24 CALLDATALOAD SWAP1 PUSH1 0x1 PUSH1 0x1 PUSH1 0xA0 SHL SUB DUP3 AND DUP3 SUB PUSH2 0x244 JUMPI JUMP JUMPDEST SWAP2 DUP2 PUSH1 0x1F DUP5 ADD SLT ISZERO PUSH2 0x244 JUMPI DUP3 CALLDATALOAD SWAP2 PUSH1 0x1 PUSH1 0x1 PUSH1 0x40 SHL SUB DUP4 GT PUSH2 0x244 JUMPI PUSH1 0x20 DUP4 DUP2 DUP7 ADD SWAP6 ADD ADD GT PUSH2 0x244 JUMPI JUMP JUMPDEST SWAP2 SWAP1 DUP3 MLOAD SWAP3 DUP4 DUP3 MSTORE PUSH0 JUMPDEST DUP5 DUP2 LT PUSH2 0x1AC5 JUMPI POP POP DUP3 PUSH0 PUSH1 0x20 DUP1 SWAP5 SWAP6 DUP5 ADD ADD MSTORE PUSH1 0x1F DUP1 NOT SWAP2 ADD AND ADD ADD SWAP1 JUMP JUMPDEST PUSH1 0x20 DUP2 DUP4 ADD DUP2 ADD MLOAD DUP5 DUP4 ADD DUP3 ADD MSTORE ADD PUSH2 0x1AA5 JUMP JUMPDEST PUSH1 0x4 GT ISZERO PUSH2 0x683 JUMPI JUMP JUMPDEST SWAP1 PUSH1 0x3 DUP3 LT ISZERO PUSH2 0x683 JUMPI MSTORE JUMP JUMPDEST SWAP1 DUP1 DUP3 MLOAD SWAP1 DUP2 DUP2 MSTORE PUSH1 0x20 DUP1 SWAP2 ADD SWAP3 DUP2 DUP1 DUP5 PUSH1 0x5 SHL DUP4 ADD ADD SWAP6 ADD SWAP4 PUSH0 SWAP2 JUMPDEST DUP5 DUP4 LT PUSH2 0x1B1D JUMPI POP POP POP POP POP POP SWAP1 JUMP JUMPDEST SWAP1 SWAP2 SWAP3 SWAP4 SWAP5 SWAP6 DUP5 DUP1 PUSH2 0x1B3B PUSH1 0x1 SWAP4 PUSH1 0x1F NOT DUP7 DUP3 SUB ADD DUP8 MSTORE DUP11 MLOAD PUSH2 0x1A9B JUMP JUMPDEST SWAP9 ADD SWAP4 ADD SWAP4 ADD SWAP2 SWAP5 SWAP4 SWAP3 SWAP1 PUSH2 0x1B0D JUMP JUMPDEST PUSH2 0x1BCB SWAP2 DUP2 MLOAD ISZERO ISZERO DUP2 MSTORE PUSH1 0x20 DUP3 ADD MLOAD ISZERO ISZERO PUSH1 0x20 DUP3 ADD MSTORE PUSH1 0x40 DUP3 ADD MLOAD PUSH1 0x40 DUP3 ADD MSTORE PUSH1 0x60 DUP3 ADD MLOAD PUSH1 0x60 DUP3 ADD MSTORE PUSH1 0xE0 PUSH2 0x1BBA PUSH2 0x1BA8 PUSH2 0x1B96 PUSH1 0x80 DUP7 ADD MLOAD PUSH2 0x100 DUP1 PUSH1 0x80 DUP9 ADD MSTORE DUP7 ADD SWAP1 PUSH2 0x1AF0 JUMP JUMPDEST PUSH1 0xA0 DUP7 ADD MLOAD DUP6 DUP3 SUB PUSH1 0xA0 DUP8 ADD MSTORE PUSH2 0x1AF0 JUMP JUMPDEST PUSH1 0xC0 DUP6 ADD MLOAD DUP5 DUP3 SUB PUSH1 0xC0 DUP7 ADD MSTORE PUSH2 0x1AF0 JUMP JUMPDEST SWAP3 ADD MLOAD SWAP1 PUSH1 0xE0 DUP2 DUP5 SUB SWAP2 ADD MSTORE PUSH2 0x1AF0 JUMP JUMPDEST SWAP1 JUMP JUMPDEST DUP1 SLOAD DUP3 LT ISZERO PUSH2 0x1BE3 JUMPI PUSH0 MSTORE PUSH1 0x20 PUSH0 KECCAK256 ADD SWAP1 PUSH0 SWAP1 JUMP JUMPDEST PUSH4 0x4E487B71 PUSH1 0xE0 SHL PUSH0 MSTORE PUSH1 0x32 PUSH1 0x4 MSTORE PUSH1 0x24 PUSH0 REVERT JUMPDEST SWAP1 PUSH1 0x1 DUP3 DUP2 SHR SWAP3 AND DUP1 ISZERO PUSH2 0x1C25 JUMPI JUMPDEST PUSH1 0x20 DUP4 LT EQ PUSH2 0x1C11 JUMPI JUMP JUMPDEST PUSH4 0x4E487B71 PUSH1 0xE0 SHL PUSH0 MSTORE PUSH1 0x22 PUSH1 0x4 MSTORE PUSH1 0x24 PUSH0 REVERT JUMPDEST SWAP2 PUSH1 0x7F AND SWAP2 PUSH2 0x1C06 JUMP JUMPDEST PUSH2 0x160 DUP2 ADD SWAP1 DUP2 LT PUSH1 0x1 PUSH1 0x1 PUSH1 0x40 SHL SUB DUP3 GT OR PUSH2 0x5CC JUMPI PUSH1 0x40 MSTORE JUMP JUMPDEST PUSH1 0x40 DUP2 ADD SWAP1 DUP2 LT PUSH1 0x1 PUSH1 0x1 PUSH1 0x40 SHL SUB DUP3 GT OR PUSH2 0x5CC JUMPI PUSH1 0x40 MSTORE JUMP JUMPDEST PUSH2 0x100 DUP2 ADD SWAP1 DUP2 LT PUSH1 0x1 PUSH1 0x1 PUSH1 0x40 SHL SUB DUP3 GT OR PUSH2 0x5CC JUMPI PUSH1 0x40 MSTORE JUMP JUMPDEST PUSH1 0xE0 DUP2 ADD SWAP1 DUP2 LT PUSH1 0x1 PUSH1 0x1 PUSH1 0x40 SHL SUB DUP3 GT OR PUSH2 0x5CC JUMPI PUSH1 0x40 MSTORE JUMP JUMPDEST PUSH1 0x20 DUP2 ADD SWAP1 DUP2 LT PUSH1 0x1 PUSH1 0x1 PUSH1 0x40 SHL SUB DUP3 GT OR PUSH2 0x5CC JUMPI PUSH1 0x40 MSTORE JUMP JUMPDEST SWAP1 PUSH1 0x1F DUP1 NOT SWAP2 ADD AND DUP2 ADD SWAP1 DUP2 LT PUSH1 0x1 PUSH1 0x1 PUSH1 0x40 SHL SUB DUP3 GT OR PUSH2 0x5CC JUMPI PUSH1 0x40 MSTORE JUMP JUMPDEST SWAP1 PUSH1 0x40 MLOAD SWAP2 DUP3 PUSH0 DUP3 SLOAD SWAP3 PUSH2 0x1CEC DUP5 PUSH2 0x1BF7 JUMP JUMPDEST SWAP1 DUP2 DUP5 MSTORE PUSH1 0x1 SWAP5 DUP6 DUP2 AND SWAP1 DUP2 PUSH0 EQ PUSH2 0x1D57 JUMPI POP PUSH1 0x1 EQ PUSH2 0x1D17 JUMPI JUMPDEST POP POP PUSH2 0x1D15 SWAP3 POP SUB DUP4 PUSH2 0x1CB8 JUMP JUMPDEST JUMP JUMPDEST SWAP1 SWAP4 SWAP2 POP PUSH0 MSTORE PUSH1 0x20 SWAP1 DUP2 PUSH0 KECCAK256 SWAP4 PUSH0 SWAP2 JUMPDEST DUP2 DUP4 LT PUSH2 0x1D3F JUMPI POP POP PUSH2 0x1D15 SWAP4 POP DUP3 ADD ADD PUSH0 DUP1 PUSH2 0x1D07 JUMP JUMPDEST DUP6 SLOAD DUP9 DUP5 ADD DUP6 ADD MSTORE SWAP5 DUP6 ADD SWAP5 DUP8 SWAP5 POP SWAP2 DUP4 ADD SWAP2 PUSH2 0x1D27 JUMP JUMPDEST SWAP2 POP POP PUSH2 0x1D15 SWAP5 POP PUSH1 0x20 SWAP3 POP PUSH1 0xFF NOT AND DUP3 DUP5 ADD MSTORE ISZERO ISZERO PUSH1 0x5 SHL DUP3 ADD ADD PUSH0 DUP1 PUSH2 0x1D07 JUMP JUMPDEST SWAP1 PUSH1 0x40 MLOAD PUSH2 0x1D87 DUP2 PUSH2 0x1C4B JUMP JUMPDEST PUSH1 0x20 PUSH1 0x1 DUP3 SWAP5 DUP1 SLOAD DUP5 MSTORE ADD SLOAD SWAP2 ADD MSTORE JUMP JUMPDEST SWAP1 DUP2 SLOAD PUSH1 0x1 PUSH1 0x1 PUSH1 0x40 SHL SUB DUP2 GT PUSH2 0x5CC JUMPI PUSH1 0x40 MLOAD SWAP3 PUSH1 0x20 PUSH2 0x1DBE DUP2 DUP5 PUSH1 0x5 SHL ADD DUP7 PUSH2 0x1CB8 JUMP JUMPDEST DUP3 DUP6 MSTORE PUSH0 SWAP2 DUP3 MSTORE DUP1 DUP3 KECCAK256 DUP2 DUP7 ADD JUMPDEST DUP5 DUP5 LT PUSH2 0x1DDA JUMPI POP POP POP POP POP JUMP JUMPDEST PUSH1 0x1 DUP4 DUP2 SWAP3 PUSH2 0x1DE8 DUP6 PUSH2 0x1CD9 JUMP JUMPDEST DUP2 MSTORE ADD SWAP3 ADD SWAP4 ADD SWAP3 SWAP1 PUSH2 0x1DCC JUMP JUMPDEST SWAP1 PUSH1 0x40 MLOAD PUSH2 0x1E03 DUP2 PUSH2 0x1C66 JUMP JUMPDEST PUSH1 0xE0 PUSH2 0x1E6F PUSH1 0x6 DUP4 SWAP6 PUSH1 0xFF DUP2 SLOAD DUP2 DUP2 AND ISZERO ISZERO DUP8 MSTORE PUSH1 0x8 SHR AND ISZERO ISZERO PUSH1 0x20 DUP7 ADD MSTORE PUSH1 0x1 DUP2 ADD SLOAD PUSH1 0x40 DUP7 ADD MSTORE PUSH1 0x2 DUP2 ADD SLOAD PUSH1 0x60 DUP7 ADD MSTORE PUSH2 0x1E42 PUSH1 0x3 DUP3 ADD PUSH2 0x1D98 JUMP JUMPDEST PUSH1 0x80 DUP7 ADD MSTORE PUSH2 0x1E53 PUSH1 0x4 DUP3 ADD PUSH2 0x1D98 JUMP JUMPDEST PUSH1 0xA0 DUP7 ADD MSTORE PUSH2 0x1E64 PUSH1 0x5 DUP3 ADD PUSH2 0x1D98 JUMP JUMPDEST PUSH1 0xC0 DUP7 ADD MSTORE ADD PUSH2 0x1D98 JUMP JUMPDEST SWAP2 ADD MSTORE JUMP JUMPDEST ISZERO PUSH2 0x1E7B JUMPI JUMP JUMPDEST PUSH1 0x40 MLOAD PUSH3 0x461BCD PUSH1 0xE5 SHL DUP2 MSTORE PUSH1 0x20 PUSH1 0x4 DUP3 ADD MSTORE PUSH1 0x9 PUSH1 0x24 DUP3 ADD MSTORE PUSH9 0x2737BA1037BBB732B9 PUSH1 0xB9 SHL PUSH1 0x44 DUP3 ADD MSTORE PUSH1 0x64 SWAP1 REVERT JUMPDEST ISZERO PUSH2 0x1EB3 JUMPI JUMP JUMPDEST PUSH1 0x40 MLOAD PUSH3 0x461BCD PUSH1 0xE5 SHL DUP2 MSTORE PUSH1 0x20 PUSH1 0x4 DUP3 ADD MSTORE PUSH1 0xC PUSH1 0x24 DUP3 ADD MSTORE PUSH12 0x16995C9BC81858D8DBDD5B9D PUSH1 0xA2 SHL PUSH1 0x44 DUP3 ADD MSTORE PUSH1 0x64 SWAP1 REVERT JUMPDEST ISZERO PUSH2 0x1EEE JUMPI JUMP JUMPDEST PUSH1 0x40 MLOAD PUSH3 0x461BCD PUSH1 0xE5 SHL DUP2 MSTORE PUSH1 0x20 PUSH1 0x4 DUP3 ADD MSTORE PUSH1 0xE PUSH1 0x24 DUP3 ADD MSTORE PUSH14 0x139BDD0819DBDD995C9B9B595B9D PUSH1 0x92 SHL PUSH1 0x44 DUP3 ADD MSTORE PUSH1 0x64 SWAP1 REVERT JUMPDEST ISZERO PUSH2 0x1F2B JUMPI JUMP JUMPDEST PUSH1 0x40 MLOAD PUSH3 0x461BCD PUSH1 0xE5 SHL DUP2 MSTORE PUSH1 0x20 PUSH1 0x4 DUP3 ADD MSTORE PUSH1 0x12 PUSH1 0x24 DUP3 ADD MSTORE PUSH18 0x5061796F7574206D757374206265203E203 PUSH1 0x74 SHL PUSH1 0x44 DUP3 ADD MSTORE PUSH1 0x64 SWAP1 REVERT JUMPDEST PUSH0 NOT DUP2 EQ PUSH2 0x1F73 JUMPI PUSH1 0x1 ADD SWAP1 JUMP JUMPDEST PUSH4 0x4E487B71 PUSH1 0xE0 SHL PUSH0 MSTORE PUSH1 0x11 PUSH1 0x4 MSTORE PUSH1 0x24 PUSH0 REVERT JUMPDEST DUP2 DUP2 LT PUSH2 0x1F92 JUMPI POP POP JUMP JUMPDEST PUSH0 DUP2 SSTORE PUSH1 0x1 ADD PUSH2 0x1F87 JUMP JUMPDEST SWAP2 SWAP1 PUSH1 0x1F DUP2 GT PUSH2 0x1FAC JUMPI POP POP POP JUMP JUMPDEST PUSH2 0x1D15 SWAP3 PUSH0 MSTORE PUSH1 0x20 PUSH0 KECCAK256 SWAP1 PUSH1 0x20 PUSH1 0x1F DUP5 ADD PUSH1 0x5 SHR DUP4 ADD SWAP4 LT PUSH2 0x1FD6 JUMPI JUMPDEST PUSH1 0x1F ADD PUSH1 0x5 SHR ADD SWAP1 PUSH2 0x1F87 JUMP JUMPDEST SWAP1 SWAP2 POP DUP2 SWAP1 PUSH2 0x1FC9 JUMP JUMPDEST SWAP1 SWAP3 SWAP2 PUSH1 0x1 PUSH1 0x1 PUSH1 0x40 SHL SUB DUP2 GT PUSH2 0x5CC JUMPI PUSH2 0x2005 DUP2 PUSH2 0x1FFF DUP5 SLOAD PUSH2 0x1BF7 JUMP JUMPDEST DUP5 PUSH2 0x1F9D JUMP JUMPDEST PUSH0 PUSH1 0x1F DUP3 GT PUSH1 0x1 EQ PUSH2 0x203C JUMPI DUP2 SWAP3 SWAP4 SWAP5 PUSH0 SWAP3 PUSH2 0x2031 JUMPI JUMPDEST POP POP DUP2 PUSH1 0x1 SHL SWAP2 PUSH0 NOT SWAP1 PUSH1 0x3 SHL SHR NOT AND OR SWAP1 SSTORE JUMP JUMPDEST ADD CALLDATALOAD SWAP1 POP PUSH0 DUP1 PUSH2 0x201C JUMP JUMPDEST PUSH1 0x1F NOT DUP3 AND SWAP5 DUP4 DUP3 MSTORE PUSH1 0x20 SWAP2 DUP3 DUP2 KECCAK256 SWAP3 DUP2 SWAP1 JUMPDEST DUP9 DUP3 LT PUSH2 0x2087 JUMPI POP POP DUP4 PUSH1 0x1 SWAP6 SWAP7 SWAP8 LT PUSH2 0x206E JUMPI JUMPDEST POP POP POP DUP2 SHL ADD SWAP1 SSTORE JUMP JUMPDEST ADD CALLDATALOAD PUSH0 NOT PUSH1 0x3 DUP5 SWAP1 SHL PUSH1 0xF8 AND SHR NOT AND SWAP1 SSTORE PUSH0 DUP1 DUP1 PUSH2 0x2064 JUMP JUMPDEST DUP1 PUSH1 0x1 DUP5 SWAP7 DUP3 SWAP5 SWAP6 DUP8 ADD CALLDATALOAD DUP2 SSTORE ADD SWAP6 ADD SWAP3 ADD SWAP1 PUSH2 0x204F JUMP JUMPDEST SWAP1 PUSH1 0x3 DUP2 LT ISZERO PUSH2 0x683 JUMPI PUSH2 0xFF00 DUP3 SLOAD SWAP2 PUSH1 0x8 SHL AND SWAP1 PUSH2 0xFF00 NOT AND OR SWAP1 SSTORE JUMP JUMPDEST SWAP1 DUP1 PUSH1 0x20 SWAP4 SWAP3 DUP2 DUP5 MSTORE DUP5 DUP5 ADD CALLDATACOPY PUSH0 DUP3 DUP3 ADD DUP5 ADD MSTORE PUSH1 0x1F ADD PUSH1 0x1F NOT AND ADD ADD SWAP1 JUMP JUMPDEST ISZERO PUSH2 0x20E5 JUMPI JUMP JUMPDEST PUSH1 0x40 MLOAD PUSH3 0x461BCD PUSH1 0xE5 SHL DUP2 MSTORE PUSH1 0x20 PUSH1 0x4 DUP3 ADD MSTORE PUSH1 0xE PUSH1 0x24 DUP3 ADD MSTORE PUSH14 0x506F6C696379206D697373696E67 PUSH1 0x90 SHL PUSH1 0x44 DUP3 ADD MSTORE PUSH1 0x64 SWAP1 REVERT JUMPDEST ISZERO PUSH2 0x2122 JUMPI JUMP JUMPDEST PUSH1 0x40 MLOAD PUSH3 0x461BCD PUSH1 0xE5 SHL DUP2 MSTORE PUSH1 0x20 PUSH1 0x4 DUP3 ADD MSTORE PUSH1 0xF PUSH1 0x24 DUP3 ADD MSTORE PUSH15 0x506F6C69637920696E616374697665 PUSH1 0x88 SHL PUSH1 0x44 DUP3 ADD MSTORE PUSH1 0x64 SWAP1 REVERT JUMPDEST ISZERO PUSH2 0x2160 JUMPI JUMP JUMPDEST PUSH1 0x40 MLOAD PUSH3 0x461BCD PUSH1 0xE5 SHL DUP2 MSTORE PUSH1 0x20 PUSH1 0x4 DUP3 ADD MSTORE PUSH1 0xE PUSH1 0x24 DUP3 ADD MSTORE PUSH14 0x4F7574736964652077696E646F77 PUSH1 0x90 SHL PUSH1 0x44 DUP3 ADD MSTORE PUSH1 0x64 SWAP1 REVERT JUMPDEST ISZERO PUSH2 0x219D JUMPI JUMP JUMPDEST PUSH1 0x40 MLOAD PUSH3 0x461BCD PUSH1 0xE5 SHL DUP2 MSTORE PUSH1 0x20 PUSH1 0x4 DUP3 ADD MSTORE PUSH1 0x13 PUSH1 0x24 DUP3 ADD MSTORE PUSH19 0x11985C9B595C881B9BDD08195B9C9BDB1B1959 PUSH1 0x6A SHL PUSH1 0x44 DUP3 ADD MSTORE PUSH1 0x64 SWAP1 REVERT JUMPDEST SWAP1 PUSH2 0x21E2 DUP2 PUSH2 0x1AD9 JUMP JUMPDEST PUSH1 0xFF DUP1 NOT DUP4 SLOAD AND SWAP2 AND OR SWAP1 SSTORE JUMP JUMPDEST ISZERO PUSH2 0x21F7 JUMPI JUMP JUMPDEST PUSH1 0x40 MLOAD PUSH3 0x461BCD PUSH1 0xE5 SHL DUP2 MSTORE PUSH1 0x20 PUSH1 0x4 DUP3 ADD MSTORE PUSH1 0xA PUSH1 0x24 DUP3 ADD MSTORE PUSH10 0x4E6F74206F7261636C65 PUSH1 0xB0 SHL PUSH1 0x44 DUP3 ADD MSTORE PUSH1 0x64 SWAP1 REVERT JUMPDEST ISZERO PUSH2 0x2230 JUMPI JUMP JUMPDEST PUSH1 0x40 MLOAD PUSH3 0x461BCD PUSH1 0xE5 SHL DUP2 MSTORE PUSH1 0x20 PUSH1 0x4 DUP3 ADD MSTORE PUSH1 0x12 PUSH1 0x24 DUP3 ADD MSTORE PUSH18 0x1499595B9D1C985B98DE48189B1BD8DAD959 PUSH1 0x72 SHL PUSH1 0x44 DUP3 ADD MSTORE PUSH1 0x64 SWAP1 REVERT JUMPDEST ISZERO PUSH2 0x2271 JUMPI JUMP JUMPDEST PUSH1 0x40 MLOAD PUSH3 0x461BCD PUSH1 0xE5 SHL DUP2 MSTORE PUSH1 0x20 PUSH1 0x4 DUP3 ADD MSTORE PUSH1 0xB PUSH1 0x24 DUP3 ADD MSTORE PUSH11 0x4E6F742070656E64696E67 PUSH1 0xA8 SHL PUSH1 0x44 DUP3 ADD MSTORE PUSH1 0x64 SWAP1 REVERT JUMPDEST SWAP2 SWAP1 DUP3 ADD DUP1 SWAP3 GT PUSH2 0x1F73 JUMPI JUMP JUMPDEST PUSH1 0xFF PUSH1 0x2 DUP5 ADD SLOAD PUSH1 0x8 SHR AND PUSH1 0x3 DUP2 LT ISZERO PUSH2 0x683 JUMPI PUSH1 0x1 PUSH2 0x22D1 SWAP2 EQ PUSH2 0x211B JUMP JUMPDEST PUSH1 0x8 DUP4 ADD SLOAD DUP1 PUSH2 0x242F JUMPI JUMPDEST POP SELFBALANCE PUSH1 0x2 DUP4 ADD SWAP4 DUP5 SLOAD DUP1 SWAP3 LT PUSH2 0x23EA JUMPI PUSH1 0x10 PUSH2 0x22FB SWAP2 ADD SWAP2 DUP3 SLOAD PUSH2 0x22A4 JUMP JUMPDEST SWAP1 SSTORE PUSH1 0x3 DUP3 ADD PUSH1 0x3 PUSH1 0xFF NOT DUP3 SLOAD AND OR SWAP1 SSTORE PUSH1 0x1 DUP3 ADD SWAP2 PUSH1 0x1 DUP1 PUSH1 0xA0 SHL SUB SWAP1 DUP2 DUP5 SLOAD AND PUSH0 DUP1 DUP1 DUP1 DUP1 SWAP5 DUP11 SLOAD SWAP1 GAS CALL SWAP1 RETURNDATASIZE ISZERO PUSH2 0x23E4 JUMPI RETURNDATASIZE SWAP1 PUSH1 0x1 PUSH1 0x1 PUSH1 0x40 SHL SUB DUP3 GT PUSH2 0x23D0 JUMPI PUSH1 0x40 MLOAD SWAP2 PUSH2 0x2357 PUSH1 0x1F DUP3 ADD PUSH1 0x1F NOT AND PUSH1 0x20 ADD DUP5 PUSH2 0x1CB8 JUMP JUMPDEST DUP3 MSTORE PUSH1 0x20 RETURNDATASIZE SWAP3 ADD RETURNDATACOPY JUMPDEST ISZERO PUSH2 0x2399 JUMPI PUSH32 0xE126A82946B3A6F5969D735BC2DA134B26667BBDB0818D872A70CD8AEE56B0FC SWAP2 PUSH1 0x20 SWAP2 SLOAD SWAP5 SLOAD AND SWAP5 SLOAD PUSH1 0x40 MLOAD SWAP1 DUP2 MSTORE LOG4 JUMP JUMPDEST PUSH1 0x40 MLOAD PUSH3 0x461BCD PUSH1 0xE5 SHL DUP2 MSTORE PUSH1 0x20 PUSH1 0x4 DUP3 ADD MSTORE PUSH1 0xF PUSH1 0x24 DUP3 ADD MSTORE PUSH15 0x151C985B9CD9995C8819985A5B1959 PUSH1 0x8A SHL PUSH1 0x44 DUP3 ADD MSTORE PUSH1 0x64 SWAP1 REVERT JUMPDEST PUSH4 0x4E487B71 PUSH1 0xE0 SHL DUP2 MSTORE PUSH1 0x41 PUSH1 0x4 MSTORE PUSH1 0x24 SWAP1 REVERT JUMPDEST POP PUSH2 0x2360 JUMP JUMPDEST PUSH1 0x40 MLOAD PUSH3 0x461BCD PUSH1 0xE5 SHL DUP2 MSTORE PUSH1 0x20 PUSH1 0x4 DUP3 ADD MSTORE PUSH1 0x1D PUSH1 0x24 DUP3 ADD MSTORE PUSH32 0x496E73756666696369656E7420636F6E74726163742062616C616E6365000000 PUSH1 0x44 DUP3 ADD MSTORE PUSH1 0x64 SWAP1 REVERT JUMPDEST PUSH2 0x2442 PUSH1 0x10 DUP6 ADD SLOAD PUSH1 0x2 DUP6 ADD SLOAD SWAP1 PUSH2 0x22A4 JUMP JUMPDEST GT PUSH2 0x244D JUMPI PUSH0 PUSH2 0x22DC JUMP JUMPDEST PUSH1 0x40 MLOAD PUSH3 0x461BCD PUSH1 0xE5 SHL DUP2 MSTORE PUSH1 0x20 PUSH1 0x4 DUP3 ADD MSTORE PUSH1 0x13 PUSH1 0x24 DUP3 ADD MSTORE PUSH19 0x141BDB1A58DE4818D85C08195E18D959591959 PUSH1 0x6A SHL PUSH1 0x44 DUP3 ADD MSTORE PUSH1 0x64 SWAP1 REVERT JUMPDEST CALLDATALOAD DUP1 ISZERO ISZERO DUP2 SUB PUSH2 0x244 JUMPI SWAP1 JUMP JUMPDEST SWAP1 CALLDATALOAD SWAP1 PUSH1 0x1E NOT DUP2 CALLDATASIZE SUB ADD DUP3 SLT ISZERO PUSH2 0x244 JUMPI ADD DUP1 CALLDATALOAD SWAP1 PUSH1 0x1 PUSH1 0x1 PUSH1 0x40 SHL SUB DUP3 GT PUSH2 0x244 JUMPI PUSH1 0x20 ADD SWAP2 DUP2 PUSH1 0x5 SHL CALLDATASIZE SUB DUP4 SGT PUSH2 0x244 JUMPI JUMP JUMPDEST SWAP2 SWAP1 DUP2 LT ISZERO PUSH2 0x1BE3 JUMPI PUSH1 0x5 SHL DUP2 ADD CALLDATALOAD SWAP1 PUSH1 0x1E NOT DUP2 CALLDATASIZE SUB ADD DUP3 SLT ISZERO PUSH2 0x244 JUMPI ADD SWAP1 DUP2 CALLDATALOAD SWAP2 PUSH1 0x1 PUSH1 0x1 PUSH1 0x40 SHL SUB DUP4 GT PUSH2 0x244 JUMPI PUSH1 0x20 ADD DUP3 CALLDATASIZE SUB DUP2 SGT PUSH2 0x244 JUMPI SWAP2 SWAP1 JUMP JUMPDEST SWAP2 SWAP1 SWAP2 DUP1 SLOAD PUSH1 0x1 PUSH1 0x40 SHL DUP2 LT ISZERO PUSH2 0x5CC JUMPI PUSH2 0x252B SWAP2 PUSH1 0x1 DUP3 ADD DUP2 SSTORE PUSH2 0x1BCE JUMP JUMPDEST SWAP3 SWAP1 SWAP3 PUSH2 0x253B JUMPI PUSH2 0x1D15 SWAP3 PUSH2 0x1FE0 JUMP JUMPDEST PUSH4 0x4E487B71 PUSH1 0xE0 SHL PUSH0 MSTORE PUSH0 PUSH1 0x4 MSTORE PUSH1 0x24 PUSH0 REVERT JUMPDEST SWAP1 PUSH2 0x2558 DUP2 PUSH2 0x2488 JUMP JUMPDEST ISZERO ISZERO PUSH1 0xFF DUP4 SLOAD SWAP2 AND DUP1 PUSH1 0xFF NOT DUP4 AND OR DUP5 SSTORE PUSH2 0xFF00 PUSH2 0x2578 PUSH1 0x20 DUP6 ADD PUSH2 0x2488 JUMP JUMPDEST ISZERO ISZERO PUSH1 0x8 SHL AND SWAP2 PUSH2 0xFFFF NOT AND OR OR DUP3 SSTORE PUSH1 0x1 SWAP1 PUSH1 0x40 DUP2 ADD CALLDATALOAD DUP3 DUP5 ADD SSTORE PUSH1 0x60 DUP2 ADD CALLDATALOAD PUSH1 0x2 DUP5 ADD SSTORE DUP2 DUP1 PUSH0 SWAP1 JUMPDEST PUSH2 0x269A JUMPI JUMPDEST POP PUSH0 DUP2 JUMPDEST PUSH2 0x2658 JUMPI JUMPDEST POP PUSH0 DUP2 JUMPDEST PUSH2 0x2616 JUMPI JUMPDEST POP PUSH0 SWAP1 JUMPDEST PUSH2 0x25C9 JUMPI JUMPDEST POP POP POP POP JUMP JUMPDEST PUSH1 0xE0 DUP3 ADD SWAP1 PUSH2 0x25D8 DUP3 DUP5 PUSH2 0x2495 JUMP JUMPDEST SWAP1 POP DUP2 LT ISZERO PUSH2 0x2610 JUMPI PUSH2 0x2605 PUSH2 0x25FB DUP3 PUSH2 0x25F5 PUSH2 0x260A SWAP6 DUP8 PUSH2 0x2495 JUMP JUMPDEST SWAP1 PUSH2 0x24CA JUMP JUMPDEST SWAP1 PUSH1 0x6 DUP9 ADD PUSH2 0x250B JUMP JUMPDEST PUSH2 0x1F65 JUMP JUMPDEST DUP3 PUSH2 0x25BE JUMP JUMPDEST POP PUSH2 0x25C3 JUMP JUMPDEST PUSH1 0xC0 DUP4 ADD SWAP1 PUSH2 0x2625 DUP3 DUP6 PUSH2 0x2495 JUMP JUMPDEST SWAP1 POP DUP2 LT ISZERO PUSH2 0x2652 JUMPI PUSH2 0x2605 PUSH2 0x2642 DUP3 PUSH2 0x25F5 PUSH2 0x264C SWAP6 DUP9 PUSH2 0x2495 JUMP JUMPDEST SWAP1 PUSH1 0x5 DUP10 ADD PUSH2 0x250B JUMP JUMPDEST DUP2 PUSH2 0x25B5 JUMP JUMPDEST POP PUSH2 0x25BA JUMP JUMPDEST PUSH1 0xA0 DUP4 ADD SWAP1 PUSH2 0x2667 DUP3 DUP6 PUSH2 0x2495 JUMP JUMPDEST SWAP1 POP DUP2 LT ISZERO PUSH2 0x2694 JUMPI PUSH2 0x2605 PUSH2 0x2684 DUP3 PUSH2 0x25F5 PUSH2 0x268E SWAP6 DUP9 PUSH2 0x2495 JUMP JUMPDEST SWAP1 PUSH1 0x4 DUP10 ADD PUSH2 0x250B JUMP JUMPDEST DUP2 PUSH2 0x25AC JUMP JUMPDEST POP PUSH2 0x25B1 JUMP JUMPDEST PUSH1 0x80 DUP4 ADD SWAP1 PUSH2 0x26A9 DUP3 DUP6 PUSH2 0x2495 JUMP JUMPDEST SWAP1 POP DUP2 LT ISZERO PUSH2 0x26D6 JUMPI PUSH2 0x2605 PUSH2 0x26C6 DUP3 PUSH2 0x25F5 PUSH2 0x26D0 SWAP6 DUP9 PUSH2 0x2495 JUMP JUMPDEST SWAP1 PUSH1 0x3 DUP10 ADD PUSH2 0x250B JUMP JUMPDEST DUP2 PUSH2 0x25A3 JUMP JUMPDEST POP PUSH2 0x25A8 JUMP JUMPDEST DUP1 SLOAD SWAP1 PUSH0 SWAP1 DUP2 DUP2 SSTORE DUP3 PUSH2 0x26EE JUMPI POP POP POP JUMP JUMPDEST DUP2 MSTORE PUSH1 0x20 DUP1 DUP3 KECCAK256 SWAP3 DUP4 ADD SWAP3 JUMPDEST DUP4 DUP2 LT PUSH2 0x2707 JUMPI POP POP POP POP JUMP JUMPDEST DUP1 DUP4 PUSH2 0x2715 PUSH1 0x1 SWAP4 SLOAD PUSH2 0x1BF7 JUMP JUMPDEST DUP1 PUSH2 0x2723 JUMPI JUMPDEST POP POP ADD PUSH2 0x26FA JUMP JUMPDEST PUSH1 0x1F DUP1 DUP3 GT DUP6 EQ PUSH2 0x273A JUMPI POP POP DUP2 SSTORE JUMPDEST DUP4 PUSH0 PUSH2 0x271B JUMP JUMPDEST PUSH2 0x2753 SWAP1 DUP5 DUP5 MSTORE DUP7 DUP5 KECCAK256 SWAP3 ADD PUSH1 0x5 SHR DUP3 ADD DUP6 DUP4 ADD PUSH2 0x1F87 JUMP JUMPDEST DUP2 DUP4 SSTORE SSTORE PUSH2 0x2733 JUMP INVALID LOG2 PUSH5 0x6970667358 0x22 SLT KECCAK256 0x24 DUP2 0xB1 MSTORE MULMOD 0x2F 0x49 MLOAD 0xCF OR 0xE1 EXTCODEHASH ORIGIN COINBASE RETURN CHAINID DUP11 CHAINID SUB 0xC9 SWAP15 0xF BALANCE 0xF6 SWAP11 PUSH9 0xEB5C86903F1D64736F PUSH13 0x63430008140033000000000000 "
        },
        "methodIdentifiers": {
          "approveAndPayout(uint256)": "e7484b5c",
          "approveClaim(uint256)": "46e30135",
          "autoCreateClaim(uint256,address,bytes32)": "6536fabb",
          "claims(uint256)": "a888c2cd",
          "createProgram(string,string,uint8,uint8,uint256,uint256,string,bytes32,(uint256,uint256),(bool,bool,uint256,uint256,string[],string[],string[],string[]))": "21b0d525",
          "deposit()": "d0e30db0",
          "enrollInProgram(uint256)": "c6e06e4f",
          "enrolledPrograms(address,uint256)": "4956973f",
          "getClaim(uint256)": "5aef2447",
          "getProgram(uint256)": "2b07fce3",
          "grantGovernmentRole(address)": "998970ac",
          "isFarmerEnrolled(uint256,address)": "a5717a46",
          "isGovernment(address)": "6c2b04fd",
          "nextClaimId()": "a0021cf1",
          "nextProgramId()": "cad0b8db",
          "oracle()": "7dc0d1d0",
          "owner()": "8da5cb5b",
          "programs(uint256)": "d3e89483",
          "rejectClaim(uint256,string)": "3577a5ad",
          "revokeGovernmentRole(address)": "bf62d3c9",
          "submitClaim(uint256,bytes32)": "a0c222b4",
          "updateEligibility(uint256,(bool,bool,uint256,uint256,string[],string[],string[],string[]))": "d23c617e",
          "updateOracle(address)": "1cb44dfc",
          "updateOwner(address)": "880cdc31",
          "updatePayoutRule(uint256,(uint256,uint256))": "b7a36572",
          "updateProgramStatus(uint256,uint8)": "b963a5d1"
        }
      }
    }
  }
}