{
  "_format": "hh3-artifact-1",
  "contractName": "Traceability",
  "sourceName": "contracts/Traceability.sol",
  "abi": [
    {
      "anonymous": false,
      "inputs": [
        {
          "indexed": false,
          "internalType": "string",
          "name": "batchId",
          "type": "string"
        },
        {
          "indexed": true,
          "internalType": "address",
          "name": "recordedBy",
          "type": "address"
        },
        {
          "indexed": false,
          "internalType": "string",
          "name": "produceHash",
          "type": "string"
        },
        {
          "indexed": false,
          "internalType": "string",
          "name": "qrHash",
          "type": "string"
        },
        {
          "indexed": false,
          "internalType": "uint256",
          "name": "timestamp",
          "type": "uint256"
        }
      ],
      "name": "ProduceRecorded",
      "type": "event"
    },
    {
      "inputs": [
        {
          "internalType": "string",
          "name": "batchId",
          "type": "string"
        }
      ],
      "name": "getProduce",
      "outputs": [
        {
          "components": [
            {
              "internalType": "string",
              "name": "batchId",
              "type": "string"
            },
            {
              "internalType": "string",
              "name": "produceHash",
              "type": "string"
            },
            {
              "internalType": "string",
              "name": "qrHash",
              "type": "string"
            },
            {
              "internalType": "address",
              "name": "recordedBy",
              "type": "address"
            },
            {
              "internalType": "uint256",
              "name": "timestamp",
              "type": "uint256"
            }
          ],
          "internalType": "struct Traceability.Produce",
          "name": "",
          "type": "tuple"
        }
      ],
      "stateMutability": "view",
      "type": "function"
    },
    {
      "inputs": [
        {
          "internalType": "string",
          "name": "batchId",
          "type": "string"
        },
        {
          "internalType": "string",
          "name": "produceHash",
          "type": "string"
        },
        {
          "internalType": "string",
          "name": "qrHash",
          "type": "string"
        }
      ],
      "name": "recordProduce",
      "outputs": [],
      "stateMutability": "nonpayable",
      "type": "function"
    },
    {
      "inputs": [
        {
          "internalType": "string",
          "name": "batchId",
          "type": "string"
        },
        {
          "internalType": "string",
          "name": "hashToCheck",
          "type": "string"
        }
      ],
      "name": "verifyProduce",
      "outputs": [
        {
          "internalType": "bool",
          "name": "",
          "type": "bool"
        }
      ],
      "stateMutability": "view",
      "type": "function"
    }
  ],
  "bytecode": "0x60808060405234610016576109c8908161001b8239f35b5f80fdfe60806040526004361015610011575f80fd5b5f3560e01c806305fe50691461070c5780638f4a333b146101cd5763ddf240251461003a575f80fd5b346101c9576020806003193601126101c9576004359067ffffffffffffffff82116101c95761006f60a09236906004016107ef565b906100e18160405193610081856107b1565b5f6080606096878152878582015287604082015282888201520152604051906100d06100c98251938581818601966100ba81838a610845565b81015f8152030190205461088b565b15156108c3565b604051938492839251928391610845565b81015f81520301902090604051926100f8846107b1565b604051610110816101098187610901565b03826107cd565b84526101b7604051610129816101098160018901610901565b8386019081526040519061014b826101448160028a01610901565b03836107cd565b60408701918252600180891b03936101a761019160048760038b01541699848c019a8b5201549760808b019889526040519b8c9b828d5251918c015260c08b0190610866565b925192601f1993848b83030160408c0152610866565b9251918884030190880152610866565b92511660808401525160a08301520390f35b5f80fd5b346101c95760603660031901126101c95760043567ffffffffffffffff81116101c9576101fe9036906004016107ef565b60243567ffffffffffffffff81116101c95761021e9036906004016107ef565b60443567ffffffffffffffff81116101c95761023e9036906004016107ef565b9060405161025a845191602081818801946100ba818388610845565b6106ce5761029b602060405192610270846107b1565b8684528482850152856040850152336060850152426080850152604051809381928951928391610845565b81015f81520301902090805180519067ffffffffffffffff82116105355781906102c5855461088b565b601f8111610681575b50602090601f831160011461061d575f92610612575b50508160011b915f199060031b1c19161782555b602081015180519067ffffffffffffffff821161053557819061031e600186015461088b565b601f81116105c2575b50602090601f8311600114610554575f92610549575b50508160011b915f199060031b1c19161760018301555b604081015180519067ffffffffffffffff821161053557610378600285015461088b565b601f81116104f1575b50602090601f8311600114610458576080610430948461043e98957f9d2e799931ec8cabfea8205aafdbabd268fb169e13524142d6734a5f7f5216009a98956004955f9261044d575b50508160011b915f199060031b1c19161760028501555b6003840160018060a01b036060830151166bffffffffffffffffffffffff60a01b825416179055015191015561042260405196608088526080880190610866565b908682036020880152610866565b908482036040860152610866565b914260608201528033930390a2005b015190508c806103ca565b90601f19831691600286015f5260205f20925f5b8181106104d95750946001857f9d2e799931ec8cabfea8205aafdbabd268fb169e13524142d6734a5f7f5216009a989560049560809561043e9c996104309b106104c1575b505050811b0160028501556103e1565b01515f1960f88460031b161c191690558c80806104b1565b9293602060018192878601518155019501930161046c565b600285015f5260205f20601f840160051c81016020851061052e575b601f830160051c82018110610523575050610381565b5f815560010161050d565b508061050d565b634e487b7160e01b5f52604160045260245ffd5b01519050878061033d565b9250600185015f5260205f20905f935b601f19841685106105a7576001945083601f1981161061058f575b505050811b016001830155610354565b01515f1960f88460031b161c1916905587808061057f565b81810151835560209485019460019093019290910190610564565b909150600185015f5260205f20601f840160051c81016020851061060b575b90849392915b601f830160051c820181106105fd575050610327565b5f81558594506001016105e7565b50806105e1565b0151905087806102e4565b5f868152602081209350601f198516905b8181106106695750908460019594939210610651575b505050811b0182556102f8565b01515f1960f88460031b161c19169055878080610644565b9293602060018192878601518155019501930161062e565b909150845f5260205f20601f840160051c8101602085106106c7575b90849392915b601f830160051c820181106106b95750506102ce565b5f81558594506001016106a3565b508061069d565b60405162461bcd60e51b815260206004820152601660248201527510985d18da08185b1c9958591e481c9958dbdc99195960521b6044820152606490fd5b346101c95760403660031901126101c95767ffffffffffffffff6004358181116101c95761073e9036906004016107ef565b6024359182116101c95761010961079b60016107856107646100c99636906004016107ef565b94604051908051906100d0602099848b8096818601966100ba81838a610845565b81015f8152030190200160405192838092610901565b8281519101209082815191012014604051908152f35b60a0810190811067ffffffffffffffff82111761053557604052565b90601f8019910116810190811067ffffffffffffffff82111761053557604052565b81601f820112156101c95780359067ffffffffffffffff82116105355760405192610824601f8401601f1916602001856107cd565b828452602083830101116101c957815f926020809301838601378301015290565b5f5b8381106108565750505f910152565b8181015183820152602001610847565b9060209161087f81518092818552858086019101610845565b601f01601f1916010190565b90600182811c921680156108b9575b60208310146108a557565b634e487b7160e01b5f52602260045260245ffd5b91607f169161089a565b156108ca57565b60405162461bcd60e51b815260206004820152600f60248201526e10985d18da081b9bdd08199bdd5b99608a1b6044820152606490fd5b905f92918054916109118361088b565b9182825260019384811690815f1461096f5750600114610932575b50505050565b90919394505f52602092835f2092845f945b83861061095b57505050500101905f80808061092c565b805485870183015294019385908201610944565b9294505050602093945060ff191683830152151560051b0101905f80808061092c56fea26469706673582212202cc0bbb14e3acb3f1bd9f7ddbea3dcef6e33a77a57e531db8f32a301736ee4e064736f6c63430008140033",
  "linkReferences": {},
  "deployedLinkReferences": {},
  "immutableReferences": {},
  "inputSourceName": "project/contracts/Traceability.sol",
  "buildInfoId": "solc-0_8_20-006138eb92f49b1b9256278da7658c616a6e9c0a"
}