{
  "_format": "hh3-artifact-1",
  "contractName": "SubsidyPayoutOracleConsumer",
  "sourceName": "contracts/SubsidyPayoutOracleConsumer.sol",
  "abi": [
    {
      "inputs": [
        {
          "internalType": "address",
          "name": "router",
          "type": "address"
        },
        {
          "internalType": "address payable",
          "name": "payoutContract",
          "type": "address"
        },
        {
          "internalType": "uint64",
          "name": "functionsSubscriptionId",
          "type": "uint64"
        },
        {
          "internalType": "bytes32",
          "name": "functionsDonId",
          "type": "bytes32"
        },
        {
          "internalType": "string",
          "name": "defaultSource",
          "type": "string"
        }
      ],
      "stateMutability": "nonpayable",
      "type": "constructor"
    },
    {
      "inputs": [],
      "name": "EmptyArgs",
      "type": "error"
    },
    {
      "inputs": [],
      "name": "EmptySource",
      "type": "error"
    },
    {
      "inputs": [],
      "name": "NoInlineSecrets",
      "type": "error"
    },
    {
      "inputs": [],
      "name": "OnlyRouterCanFulfill",
      "type": "error"
    },
    {
      "anonymous": false,
      "inputs": [
        {
          "indexed": true,
          "internalType": "uint256",
          "name": "claimId",
          "type": "uint256"
        }
      ],
      "name": "ApprovedPayoutExecuted",
      "type": "event"
    },
    {
      "anonymous": false,
      "inputs": [
        {
          "indexed": true,
          "internalType": "bytes32",
          "name": "requestId",
          "type": "bytes32"
        },
        {
          "indexed": true,
          "internalType": "uint256",
          "name": "policyId",
          "type": "uint256"
        },
        {
          "indexed": true,
          "internalType": "address",
          "name": "farmer",
          "type": "address"
        }
      ],
      "name": "AutoClaimCreationFailed",
      "type": "event"
    },
    {
      "anonymous": false,
      "inputs": [
        {
          "indexed": true,
          "internalType": "address",
          "name": "newCaller",
          "type": "address"
        }
      ],
      "name": "AutomationCallerUpdated",
      "type": "event"
    },
    {
      "anonymous": false,
      "inputs": [
        {
          "indexed": false,
          "internalType": "uint256",
          "name": "policyId",
          "type": "uint256"
        },
        {
          "indexed": false,
          "internalType": "address",
          "name": "farmer",
          "type": "address"
        },
        {
          "indexed": false,
          "internalType": "string",
          "name": "state",
          "type": "string"
        },
        {
          "indexed": false,
          "internalType": "string",
          "name": "district",
          "type": "string"
        },
        {
          "indexed": false,
          "internalType": "string",
          "name": "stationId",
          "type": "string"
        },
        {
          "indexed": false,
          "internalType": "bytes32",
          "name": "metadataHash",
          "type": "bytes32"
        }
      ],
      "name": "AutomationConfigUpdated",
      "type": "event"
    },
    {
      "anonymous": false,
      "inputs": [
        {
          "indexed": false,
          "internalType": "uint64",
          "name": "subscriptionId",
          "type": "uint64"
        },
        {
          "indexed": false,
          "internalType": "bytes32",
          "name": "donId",
          "type": "bytes32"
        },
        {
          "indexed": false,
          "internalType": "uint32",
          "name": "gasLimit",
          "type": "uint32"
        }
      ],
      "name": "ConfigUpdated",
      "type": "event"
    },
    {
      "anonymous": false,
      "inputs": [
        {
          "indexed": true,
          "internalType": "address",
          "name": "newOwner",
          "type": "address"
        }
      ],
      "name": "OwnerUpdated",
      "type": "event"
    },
    {
      "anonymous": false,
      "inputs": [
        {
          "indexed": true,
          "internalType": "bytes32",
          "name": "id",
          "type": "bytes32"
        }
      ],
      "name": "RequestFulfilled",
      "type": "event"
    },
    {
      "anonymous": false,
      "inputs": [
        {
          "indexed": true,
          "internalType": "bytes32",
          "name": "id",
          "type": "bytes32"
        }
      ],
      "name": "RequestSent",
      "type": "event"
    },
    {
      "anonymous": false,
      "inputs": [
        {
          "indexed": false,
          "internalType": "string",
          "name": "source",
          "type": "string"
        }
      ],
      "name": "SourceUpdated",
      "type": "event"
    },
    {
      "anonymous": false,
      "inputs": [
        {
          "indexed": true,
          "internalType": "bytes32",
          "name": "requestId",
          "type": "bytes32"
        },
        {
          "indexed": false,
          "internalType": "bytes",
          "name": "error",
          "type": "bytes"
        }
      ],
      "name": "WaterLevelCheckErrored",
      "type": "event"
    },
    {
      "anonymous": false,
      "inputs": [
        {
          "indexed": true,
          "internalType": "bytes32",
          "name": "requestId",
          "type": "bytes32"
        },
        {
          "indexed": true,
          "internalType": "uint256",
          "name": "policyId",
          "type": "uint256"
        },
        {
          "indexed": true,
          "internalType": "address",
          "name": "farmer",
          "type": "address"
        },
        {
          "indexed": false,
          "internalType": "string",
          "name": "state",
          "type": "string"
        },
        {
          "indexed": false,
          "internalType": "string",
          "name": "district",
          "type": "string"
        },
        {
          "indexed": false,
          "internalType": "string",
          "name": "stationId",
          "type": "string"
        },
        {
          "indexed": false,
          "internalType": "uint256",
          "name": "waterLevelCurrent",
          "type": "uint256"
        },
        {
          "indexed": false,
          "internalType": "uint256",
          "name": "waterLevelDanger",
          "type": "uint256"
        },
        {
          "indexed": false,
          "internalType": "bool",
          "name": "triggered",
          "type": "bool"
        },
        {
          "indexed": false,
          "internalType": "bool",
          "name": "enrolled",
          "type": "bool"
        },
        {
          "indexed": false,
          "internalType": "uint256",
          "name": "claimId",
          "type": "uint256"
        }
      ],
      "name": "WaterLevelCheckFulfilled",
      "type": "event"
    },
    {
      "anonymous": false,
      "inputs": [
        {
          "indexed": true,
          "internalType": "bytes32",
          "name": "requestId",
          "type": "bytes32"
        },
        {
          "indexed": true,
          "internalType": "uint256",
          "name": "policyId",
          "type": "uint256"
        },
        {
          "indexed": true,
          "internalType": "address",
          "name": "farmer",
          "type": "address"
        },
        {
          "indexed": false,
          "internalType": "string",
          "name": "state",
          "type": "string"
        },
        {
          "indexed": false,
          "internalType": "string",
          "name": "district",
          "type": "string"
        },
        {
          "indexed": false,
          "internalType": "string",
          "name": "stationId",
          "type": "string"
        },
        {
          "indexed": false,
          "internalType": "bytes32",
          "name": "metadataHash",
          "type": "bytes32"
        }
      ],
      "name": "WaterLevelCheckRequested",
      "type": "event"
    },
    {
      "inputs": [],
      "name": "autoDistrict",
      "outputs": [
        {
          "internalType": "string",
          "name": "",
          "type": "string"
        }
      ],
      "stateMutability": "view",
      "type": "function"
    },
    {
      "inputs": [],
      "name": "autoFarmer",
      "outputs": [
        {
          "internalType": "address",
          "name": "",
          "type": "address"
        }
      ],
      "stateMutability": "view",
      "type": "function"
    },
    {
      "inputs": [],
      "name": "autoMetadataHash",
      "outputs": [
        {
          "internalType": "bytes32",
          "name": "",
          "type": "bytes32"
        }
      ],
      "stateMutability": "view",
      "type": "function"
    },
    {
      "inputs": [],
      "name": "autoPolicyId",
      "outputs": [
        {
          "internalType": "uint256",
          "name": "",
          "type": "uint256"
        }
      ],
      "stateMutability": "view",
      "type": "function"
    },
    {
      "inputs": [],
      "name": "autoState",
      "outputs": [
        {
          "internalType": "string",
          "name": "",
          "type": "string"
        }
      ],
      "stateMutability": "view",
      "type": "function"
    },
    {
      "inputs": [],
      "name": "autoStationId",
      "outputs": [
        {
          "internalType": "string",
          "name": "",
          "type": "string"
        }
      ],
      "stateMutability": "view",
      "type": "function"
    },
    {
      "inputs": [],
      "name": "automationCaller",
      "outputs": [
        {
          "internalType": "address",
          "name": "",
          "type": "address"
        }
      ],
      "stateMutability": "view",
      "type": "function"
    },
    {
      "inputs": [],
      "name": "donId",
      "outputs": [
        {
          "internalType": "bytes32",
          "name": "",
          "type": "bytes32"
        }
      ],
      "stateMutability": "view",
      "type": "function"
    },
    {
      "inputs": [
        {
          "internalType": "uint256",
          "name": "claimId",
          "type": "uint256"
        }
      ],
      "name": "executeApprovedPayout",
      "outputs": [],
      "stateMutability": "nonpayable",
      "type": "function"
    },
    {
      "inputs": [],
      "name": "gasLimit",
      "outputs": [
        {
          "internalType": "uint32",
          "name": "",
          "type": "uint32"
        }
      ],
      "stateMutability": "view",
      "type": "function"
    },
    {
      "inputs": [
        {
          "internalType": "bytes32",
          "name": "requestId",
          "type": "bytes32"
        },
        {
          "internalType": "bytes",
          "name": "response",
          "type": "bytes"
        },
        {
          "internalType": "bytes",
          "name": "err",
          "type": "bytes"
        }
      ],
      "name": "handleOracleFulfillment",
      "outputs": [],
      "stateMutability": "nonpayable",
      "type": "function"
    },
    {
      "inputs": [],
      "name": "owner",
      "outputs": [
        {
          "internalType": "address",
          "name": "",
          "type": "address"
        }
      ],
      "stateMutability": "view",
      "type": "function"
    },
    {
      "inputs": [],
      "name": "payout",
      "outputs": [
        {
          "internalType": "contract SubsidyPayout",
          "name": "",
          "type": "address"
        }
      ],
      "stateMutability": "view",
      "type": "function"
    },
    {
      "inputs": [
        {
          "internalType": "bytes32",
          "name": "",
          "type": "bytes32"
        }
      ],
      "name": "pendingRequests",
      "outputs": [
        {
          "internalType": "uint256",
          "name": "policyId",
          "type": "uint256"
        },
        {
          "internalType": "address",
          "name": "farmer",
          "type": "address"
        },
        {
          "internalType": "string",
          "name": "state",
          "type": "string"
        },
        {
          "internalType": "string",
          "name": "district",
          "type": "string"
        },
        {
          "internalType": "string",
          "name": "stationId",
          "type": "string"
        },
        {
          "internalType": "bytes32",
          "name": "metadataHash",
          "type": "bytes32"
        },
        {
          "internalType": "bool",
          "name": "exists",
          "type": "bool"
        }
      ],
      "stateMutability": "view",
      "type": "function"
    },
    {
      "inputs": [
        {
          "internalType": "bytes",
          "name": "",
          "type": "bytes"
        }
      ],
      "name": "performUpkeep",
      "outputs": [],
      "stateMutability": "nonpayable",
      "type": "function"
    },
    {
      "inputs": [
        {
          "internalType": "uint256",
          "name": "policyId",
          "type": "uint256"
        },
        {
          "internalType": "address",
          "name": "farmer",
          "type": "address"
        },
        {
          "internalType": "string",
          "name": "state",
          "type": "string"
        },
        {
          "internalType": "string",
          "name": "district",
          "type": "string"
        },
        {
          "internalType": "string",
          "name": "stationId",
          "type": "string"
        },
        {
          "internalType": "bytes32",
          "name": "metadataHash",
          "type": "bytes32"
        }
      ],
      "name": "requestWaterLevelCheck",
      "outputs": [
        {
          "internalType": "bytes32",
          "name": "requestId",
          "type": "bytes32"
        }
      ],
      "stateMutability": "nonpayable",
      "type": "function"
    },
    {
      "inputs": [],
      "name": "source",
      "outputs": [
        {
          "internalType": "string",
          "name": "",
          "type": "string"
        }
      ],
      "stateMutability": "view",
      "type": "function"
    },
    {
      "inputs": [],
      "name": "subscriptionId",
      "outputs": [
        {
          "internalType": "uint64",
          "name": "",
          "type": "uint64"
        }
      ],
      "stateMutability": "view",
      "type": "function"
    },
    {
      "inputs": [
        {
          "internalType": "address",
          "name": "newCaller",
          "type": "address"
        }
      ],
      "name": "updateAutomationCaller",
      "outputs": [],
      "stateMutability": "nonpayable",
      "type": "function"
    },
    {
      "inputs": [
        {
          "internalType": "uint256",
          "name": "policyId",
          "type": "uint256"
        },
        {
          "internalType": "address",
          "name": "farmer",
          "type": "address"
        },
        {
          "internalType": "string",
          "name": "state",
          "type": "string"
        },
        {
          "internalType": "string",
          "name": "district",
          "type": "string"
        },
        {
          "internalType": "string",
          "name": "stationId",
          "type": "string"
        },
        {
          "internalType": "bytes32",
          "name": "metadataHash",
          "type": "bytes32"
        }
      ],
      "name": "updateAutomationConfig",
      "outputs": [],
      "stateMutability": "nonpayable",
      "type": "function"
    },
    {
      "inputs": [
        {
          "internalType": "uint64",
          "name": "functionsSubscriptionId",
          "type": "uint64"
        },
        {
          "internalType": "bytes32",
          "name": "functionsDonId",
          "type": "bytes32"
        },
        {
          "internalType": "uint32",
          "name": "functionsGasLimit",
          "type": "uint32"
        }
      ],
      "name": "updateConfig",
      "outputs": [],
      "stateMutability": "nonpayable",
      "type": "function"
    },
    {
      "inputs": [
        {
          "internalType": "string",
          "name": "newSource",
          "type": "string"
        }
      ],
      "name": "updateSource",
      "outputs": [],
      "stateMutability": "nonpayable",
      "type": "function"
    }
  ],
  "bytecode": "0x604060a0815234620003e057620039e790813803806200001f81620003f8565b938439820160a083820312620003e05782516001600160a01b03919082811690819003620003e05760209182860151938416809403620003e057858501516001600160401b038082169790929091889003620003e057606082015191608081015190848211620003e0570192601f92828486011215620003e057845195828711620003e457601f1995620000b988870188168a01620003f8565b97808952898901958a8284010111620003e057858a620000da93016200041e565b608052600b805463ffffffff1916620493e01790555f80546001600160a01b031990811633178255600180549091169099178955600980546001600160401b031916909b17909a55600a558451969896818111620003cc57600c548a81811c91168015620003c1575b88821014620003ad5784811162000368575b508899889997985088858311600114620002bd576101208b84806060967f73989100303daec2fbf01e92f61095af6e662a5fb8d7d0b44224ed39e5d51c269f965f80516020620039a7833981519152965f80516020620039c78339815191529a9893620002b1575b501b915f199060031b1c191617600c555b8a5190337f4ffd725fc4a22075e9ec71c59edf9c38cdeb588a91b24fc5b61388c5be41282b8280a2807fc6a05c0189e2eafd31475d2c303def6d669a3e9f58e1229b4659e34b0798fcdc8180a2808252808d83015260c08c8301528060c083015260e0868301528060e08301528061010080608085015283015260a0820152a160095416600a5463ffffffff600b54169089519283528a83015288820152a16200028b85519687958187525192838092880152878701906200041e565b01168101030190a15161356590816200044282396080518181816103e301526122630152f35b8e015192505f620001bd565b600c8b52898b209a9290878216845b8181106200034f5750935f80516020620039c78339815191529593837f73989100303daec2fbf01e92f61095af6e662a5fb8d7d0b44224ed39e5d51c269e610120945f80516020620039a7833981519152966060991062000336575b5050811b01600c55620001ce565b8d01515f1960f88460031b161c191690555f8062000328565b8a8301518e559c84019c8e9b50918c01918c01620002cc565b600c89528789208580840160051c8201928a8510620003a3575b0160051c01905b81811062000398575062000155565b8981558b0162000389565b9250819262000382565b634e487b7160e01b89526022600452602489fd5b90607f169062000143565b634e487b7160e01b88526041600452602488fd5b5f80fd5b634e487b7160e01b5f52604160045260245ffd5b6040519190601f01601f191682016001600160401b03811183821017620003e457604052565b5f5b838110620004305750505f910152565b81810151838201526020016200042056fe60806040526004361015610011575f80fd5b5f3560e01c806302b92c671461017457806309c1ba2e1461016f5780630ca761751461016a5780632795ad201461016557806332b317e7146101605780634585e33b1461015b5780634948e43c146101565780636156beba1461015157806363bd1d4a1461014c57806367e828bf1461014757806379c87e3c14610142578063817852651461013d5780638960790d146101385780638da5cb5b146101335780638dbe7b9d1461012e578063bb69586414610129578063d603b68814610124578063e10e37741461011f578063f60ce3c41461011a578063f68016b714610115578063fa303a53146101105763ffb6b5ad1461010b575f80fd5b61101f565b610ff7565b610fd4565b610e94565b610e6c565b610e51565b610d62565b610d45565b610d1e565b610cc5565b610c27565b610c0c565b610b3f565b610b17565b610ae4565b610a2f565b61090d565b610895565b6107dc565b610394565b61022d565b3461021f57606036600319011261021f576004356001600160401b03811680910361021f576024356044359163ffffffff831680930361021f577fada7c059d03027c2d19603401220dcab0db47516c3cb26f0ee1218a123b1548f926060926101e760018060a01b035f54163314611195565b826001600160401b0319600954161760095580600a558163ffffffff19600b541617600b5560405192835260208301526040820152a1005b5f80fd5b5f91031261021f57565b3461021f575f36600319011261021f5760206001600160401b0360095416604051908152f35b634e487b7160e01b5f52604160045260245ffd5b6001600160401b03811161027a57604052565b610253565b60e081019081106001600160401b0382111761027a57604052565b604081019081106001600160401b0382111761027a57604052565b90601f801991011681019081106001600160401b0382111761027a57604052565b6040519061010082018281106001600160401b0382111761027a57604052565b6040519061016082018281106001600160401b0382111761027a57604052565b604051906103238261027f565b565b6001600160401b03811161027a57601f01601f191660200190565b92919261034c82610325565b9161035a60405193846102b5565b82948184528183011161021f578281602093845f960137010152565b9080601f8301121561021f5781602061039193359101610340565b90565b3461021f57606036600319011261021f576004356001600160401b0360243581811161021f576103c8903690600401610376565b9060443590811161021f576103e1903690600401610376565b7f00000000000000000000000000000000000000000000000000000000000000006001600160a01b031633036104415761041b918361326f565b7f85e1543bf2f84fe80c6badbce3648c8539ad1df4d2b3d822938ca0538be727e65f80a2005b60405163c6829f8360e01b8152600490fd5b90600182811c92168015610481575b602083101461046d57565b634e487b7160e01b5f52602260045260245ffd5b91607f1691610462565b604051905f826005549161049e83610453565b8083529260019081811690811561052357506001146104c5575b50610323925003836102b5565b60055f90815291507f036b6384b5eca791c62761152d0c79bb0604c104a5fb6f4eb0703f3154bb3db05b848310610508575061032393505081016020015f6104b8565b81935090816020925483858a010152019101909185926104ef565b90506020925061032394915060ff191682840152151560051b8201015f6104b8565b604051905f826006549161055883610453565b80835292600190818116908115610523575060011461057e5750610323925003836102b5565b60065f90815291507ff652222313e28459528d920b65115c16c04f3efc82aaedc97be59f3f377c0d3f5b8483106105c1575061032393505081016020015f6104b8565b81935090816020925483858a010152019101909185926105a8565b604051905f82600754916105ef83610453565b8083529260019081811690811561052357506001146106155750610323925003836102b5565b60075f90815291507fa66cc928b5edb82af9bd49922954155ab7b0942694bea4ce44661d9a8736c6885b848310610658575061032393505081016020015f6104b8565b81935090816020925483858a0101520191019091859261063f565b604051905f82600c549161068683610453565b8083529260019081811690811561052357506001146106ac5750610323925003836102b5565b600c5f90815291505f805160206135108339815191525b8483106106dc575061032393505081016020015f6104b8565b81935090816020925483858a010152019101909185926106c3565b9060405191825f82549261070a84610453565b9081845260019485811690815f146107735750600114610733575b5050610323925003836102b5565b909391505f52602090815f20935f915b81831061075b57505061032393508201015f80610725565b85548884018501529485019487945091830191610743565b91505061032394506020925060ff191682840152151560051b8201015f80610725565b5f5b8381106107a75750505f910152565b8181015183820152602001610798565b906020916107d081518092818552858086019101610796565b601f01601f1916010190565b3461021f57602036600319011261021f576004355f908152600d60205260409020805460018201546001600160a01b03169161081a600282016106f7565b610884610829600384016106f7565b610876610838600486016106f7565b9161086860ff600660058901549801541695604051998a998a5260208a015260e060408a015260e08901906107b7565b9087820360608901526107b7565b9085820360808701526107b7565b9160a0840152151560c08301520390f35b3461021f575f36600319011261021f576020600354604051908152f35b9181601f8401121561021f578235916001600160401b03831161021f576020838186019501011161021f57565b602060031982011261021f57600435906001600160401b03821161021f57610909916004016108b2565b9091565b3461021f5761091b366108df565b505060025461093a906001600160a01b03165b6001600160a01b031690565b331480156109f7575b61094c906117de565b6109b6600354801515806109e3575b6109649061181b565b61096f600554610453565b1515806109d0575b806109b8575b61098690611867565b6004546001600160a01b0316906008549161099f61048b565b6109a7610545565b916109b06105dc565b93611fb3565b005b506109866109c7600754610453565b1515905061097d565b506109dc600654610453565b1515610977565b506004546001600160a01b0316151561095b565b505f5461094c90610a10906001600160a01b031661092e565b33149050610943565b600435906001600160a01b038216820361021f57565b3461021f57602036600319011261021f57610a48610a19565b5f546001600160a01b039190610a619083163314611195565b168015610aa057600280546001600160a01b031916821790557fc6a05c0189e2eafd31475d2c303def6d669a3e9f58e1229b4659e34b0798fcdc5f80a2005b60405162461bcd60e51b815260206004820152600b60248201526a2d32b9379031b0b63632b960a91b6044820152606490fd5b9060206103919281815201906107b7565b3461021f575f36600319011261021f57610b13610aff610545565b6040519182916020835260208301906107b7565b0390f35b3461021f575f36600319011261021f576001546040516001600160a01b039091168152602090f35b3461021f575f80600319360112610c09576040519080600c54610b6181610453565b80855291600191808316908115610bdf5750600114610b97575b610b1385610b8b818703826102b5565b60405191829182610ad3565b9250600c83525f805160206135108339815191525b828410610bc7575050508101602001610b8b82610b13610b7b565b80546020858701810191909152909301928101610bac565b869550610b1396935060209250610b8b94915060ff191682840152151560051b8201019293610b7b565b80fd5b3461021f575f36600319011261021f57610b13610aff61048b565b3461021f575f36600319011261021f576020600854604051908152f35b9060c060031983011261021f57600435916024356001600160a01b038116810361021f57916001600160401b0360443581811161021f5783610c88916004016108b2565b9390939260643583811161021f5782610ca3916004016108b2565b9390939260843591821161021f57610cbd916004016108b2565b909160a43590565b3461021f576020610d166109b0610d06610d0e610ce136610c44565b9a959098939297999194610cff60018060a01b035f54163314611195565b3691610340565b953691610340565b943691610340565b604051908152f35b3461021f575f36600319011261021f575f546040516001600160a01b039091168152602090f35b3461021f575f36600319011261021f576020600a54604051908152f35b3461021f57602036600319011261021f5760025460043590610d8c906001600160a01b031661092e565b33148015610e2f575b610d9e906134d2565b600154610db3906001600160a01b031661092e565b90813b1561021f576040516339d212d760e21b8152600481018290525f9283908290602490829084905af18015610e2a57610e11575b507fe60d1aa66a2c42ef798d19b94385714ce444de8e8a47ccd12d2abde1b41420e98280a280f35b80610e1e610e2492610267565b80610223565b5f610de9565b61173b565b505f54610d9e90610e48906001600160a01b031661092e565b33149050610d95565b3461021f575f36600319011261021f57610b13610aff6105dc565b3461021f575f36600319011261021f576004546040516001600160a01b039091168152602090f35b3461021f57610ea2366108df565b5f90610eb860018060a01b038354163314611195565b6001600160401b03811161027a57610eda81610ed5600c54610453565b6111e3565b8192601f8211600114610f46578183947f73989100303daec2fbf01e92f61095af6e662a5fb8d7d0b44224ed39e5d51c269491610f3b575b508260011b905f198460031b1c191617600c555b610f356040519283928361160f565b0390a180f35b90508101355f610f12565b600c5f52601f198216935f8051602061351083398151915290845b868110610fbc5750837f73989100303daec2fbf01e92f61095af6e662a5fb8d7d0b44224ed39e5d51c26959610610fa3575b5050600182811b01600c55610f26565b8201355f19600385901b60f8161c191690555f80610f93565b90916020600181928587013581550193019101610f61565b3461021f575f36600319011261021f57602063ffffffff600b5416604051908152f35b3461021f575f36600319011261021f576002546040516001600160a01b039091168152602090f35b3461021f576110ca61103036610c44565b9461107c60018060a09b9a9b9794979695961b03611052815f54163314611195565b61105d831515611620565b61106885151561165d565b61107387151561169d565b8a1615156116dc565b6001546020908a90611096906001600160a01b031661092e565b6040516352b8bd2360e11b8152600481018c90526001600160a01b039092166024830152909b8c9190829081906044820190565b03915afa968715610e2a5761110b611162987fb6b204db04670974c4729ff9da54706816ab9cce3713f19a6940d84302f46b049c5f91611167575b50611746565b61111489600355565b600480546001600160a01b0319166001600160a01b038c161790556111398282611367565b611143848461143f565b61114d8686611517565b61115687600855565b604051998a998a611788565b0390a1005b611188915060203d811161118e575b61118081836102b5565b810190611727565b5f611105565b503d611176565b1561119c57565b60405162461bcd60e51b81526020600482015260096024820152682737ba1037bbb732b960b91b6044820152606490fd5b8181106111d8575050565b5f81556001016111cd565b90601f82116111f0575050565b61032391600c5f525f80516020613510833981519152906020601f840160051c83019310611226575b601f0160051c01906111cd565b9091508190611219565b90601f821161123d575050565b6103239160055f527f036b6384b5eca791c62761152d0c79bb0604c104a5fb6f4eb0703f3154bb3db0906020601f840160051c8301931061122657601f0160051c01906111cd565b90601f8211611292575050565b6103239160065f527ff652222313e28459528d920b65115c16c04f3efc82aaedc97be59f3f377c0d3f906020601f840160051c8301931061122657601f0160051c01906111cd565b90601f82116112e7575050565b6103239160075f527fa66cc928b5edb82af9bd49922954155ab7b0942694bea4ce44661d9a8736c688906020601f840160051c8301931061122657601f0160051c01906111cd565b9190601f811161133e57505050565b610323925f5260205f20906020601f840160051c8301931061122657601f0160051c01906111cd565b91906001600160401b03811161027a5761138b81611386600554610453565b611230565b5f601f82116001146113c2578192935f926113b7575b50508160011b915f199060031b1c191617600555565b013590505f806113a1565b60055f52601f198216937f036b6384b5eca791c62761152d0c79bb0604c104a5fb6f4eb0703f3154bb3db091805b868110611427575083600195961061140e575b505050811b01600555565b01355f19600384901b60f8161c191690555f8080611403565b909260206001819286860135815501940191016113f0565b91906001600160401b03811161027a576114638161145e600654610453565b611285565b5f601f821160011461149a578192935f9261148f575b50508160011b915f199060031b1c191617600655565b013590505f80611479565b60065f52601f198216937ff652222313e28459528d920b65115c16c04f3efc82aaedc97be59f3f377c0d3f91805b8681106114ff57508360019596106114e6575b505050811b01600655565b01355f19600384901b60f8161c191690555f80806114db565b909260206001819286860135815501940191016114c8565b91906001600160401b03811161027a5761153b81611536600754610453565b6112da565b5f601f8211600114611572578192935f92611567575b50508160011b915f199060031b1c191617600755565b013590505f80611551565b60075f52601f198216937fa66cc928b5edb82af9bd49922954155ab7b0942694bea4ce44661d9a8736c68891805b8681106115d757508360019596106115be575b505050811b01600755565b01355f19600384901b60f8161c191690555f80806115b3565b909260206001819286860135815501940191016115a0565b908060209392818452848401375f828201840152601f01601f1916010190565b9160206103919381815201916115ef565b1561162757565b60405162461bcd60e51b815260206004820152600e60248201526d14dd185d19481c995c5d5a5c995960921b6044820152606490fd5b1561166457565b60405162461bcd60e51b8152602060048201526011602482015270111a5cdd1c9a58dd081c995c5d5a5c9959607a1b6044820152606490fd5b156116a457565b60405162461bcd60e51b815260206004820152601060248201526f14dd185d1a5bdb881c995c5d5a5c995960821b6044820152606490fd5b156116e357565b60405162461bcd60e51b815260206004820152600f60248201526e11985c9b595c881c995c5d5a5c9959608a1b6044820152606490fd5b5190811515820361021f57565b9081602091031261021f576103919061171a565b6040513d5f823e3d90fd5b1561174d57565b60405162461bcd60e51b815260206004820152601360248201527211985c9b595c881b9bdd08195b9c9bdb1b1959606a1b6044820152606490fd5b999897936117cb936117bd9160c060408e60a09c9a976117d99c9782526001808f1b03166020820152015260c08d01916115ef565b918a830360608c01526115ef565b9187830360808901526115ef565b930152565b156117e557565b60405162461bcd60e51b815260206004820152600e60248201526d2737ba1030baba37b6b0ba34b7b760911b6044820152606490fd5b1561182257565b60405162461bcd60e51b815260206004820152601960248201527f4175746f6d6174696f6e20636f6e666967206d697373696e67000000000000006044820152606490fd5b1561186e57565b60405162461bcd60e51b815260206004820152601b60248201527f4175746f6d6174696f6e206c6f636174696f6e206d697373696e6700000000006044820152606490fd5b81601f8201121561021f5780516118c981610325565b926118d760405194856102b5565b8184526020828401011161021f576103919160208085019101610796565b6004111561021f57565b5190610323826118f5565b6003111561021f57565b51906103238261190a565b919082608091031261021f57604051608081018181106001600160401b0382111761027a576040526060808294805184526020810151602085015260408101516119688161190a565b6040850152015191611979836118f5565b0152565b6001600160401b03811161027a5760051b60200190565b9080601f8301121561021f578151906119ac8261197d565b926119ba60405194856102b5565b828452602092838086019160051b8301019280841161021f57848301915b8483106119e85750505050505090565b82516001600160401b03811161021f578691611a09848480948901016118b3565b8152019201916119d8565b9190916101008184031261021f57611a2a6102d6565b92611a348261171a565b8452611a426020830161171a565b6020850152604082015160408501526060820151606085015260808201516001600160401b039081811161021f5782611a7c918501611994565b608086015260a083015181811161021f5782611a99918501611994565b60a086015260c083015181811161021f5782611ab6918501611994565b60c086015260e083015190811161021f57611ad19201611994565b60e0830152565b9060208282031261021f5781516001600160401b039283821161021f57016101c08183031261021f57611b096102f6565b92815181811161021f5783611b1f9184016118b3565b8452602082015181811161021f5783611b399184016118b3565b6020850152611b4a604083016118ff565b6040850152611b5b60608301611914565b60608501526080820151608085015260a082015160a085015260c082015181811161021f5783611b8c9184016118b3565b60c085015260e082015160e0850152610100611baa8482850161191f565b9085015261018082015190811161021f576101a092611bca918301611a14565b610120840152015161014082015290565b15611be257565b60405162461bcd60e51b815260206004820152600e60248201526d506f6c696379206d697373696e6760901b6044820152606490fd5b634e487b7160e01b5f52602160045260245ffd5b60031115611c3657565b611c18565b15611c4257565b60405162461bcd60e51b815260206004820152600f60248201526e506f6c69637920696e61637469766560881b6044820152606490fd5b60405190611c868261027f565b606060c0835f81525f60208201525f604082015282808201528260808201528260a08201520152565b60405190608082018281106001600160401b0382111761027a576040526003825281905f5b606080821015611cee579060209182828701015201611cd4565b5050909150565b634e487b7160e01b5f52603260045260245ffd5b805115611d165760200190565b611cf5565b805160011015611d165760400190565b805160021015611d165760600190565b8051821015611d165760209160051b010190565b91909182516001600160401b03811161027a57611d7681611d708454610453565b8461132f565b602080601f8311600114611db05750819293945f92611da5575b50508160011b915f199060031b1c1916179055565b015190505f80611d90565b90601f19831695611dc4855f5260205f2090565b925f905b888210611dff57505083600195969710611de7575b505050811b019055565b01515f1960f88460031b161c191690555f8080611ddd565b80600185968294968601518155019501930190611dc8565b81518155602080830151600180840180546001600160a01b0319166001600160a01b039390931692909217909155929060028301906040830151948551916001600160401b03831161027a57611e7783611e718654610453565b8661132f565b80601f8411600114611eff575092828060c09460069794611ee1976103239b5f94611ef4575b50501b915f199060031b1c19161790555b611ebf606082015160038701611d4f565b611ed0608082015160048701611d4f565b60a081015160058601550151151590565b91019060ff801983541691151516179055565b015192505f80611e9d565b9193949596601f198416611f16875f5260205f2090565b935f905b828210611f625750509361032398979360069793611ee197938360c09810611f4a575b505050811b019055611eae565b01515f1960f88460031b161c191690555f8080611f3d565b808886978294978701518155019601940190611f1a565b949392611fa5606093611f976117d99460808a5260808a01906107b7565b9088820360208a01526107b7565b9086820360408801526107b7565b60015494969594909391929190611fd2906001600160a01b031661092e565b604051632b07fce360e01b8152600481018690529092905f81602481875afa8015610e2a57606060019161202f935f916121dc575b506120158151511515611bdb565b015161202081611c2c565b61202981611c2c565b14611c3b565b61203b81511515611620565b6120478251151561165d565b6120538851151561169d565b6001600160a01b038416956120698715156116dc565b6040516352b8bd2360e11b8152600481018790526001600160a01b038616602482015293602090859060449082905afa908115610e2a576121cb996120d96121d7937f8a4230aed0ddfad69bc5865fa9f57face291b99e6ad0ad5a4d6276174631fcf7975f916111675750611746565b61216c61214d6120e7611c79565b6120f86120f2610673565b826125f5565b612148612103611caf565b8861210d82611d09565b5261211781611d09565b508961212282611d1b565b5261212c81611d1b565b508561213782611d2b565b5261214181611d2b565b508261261d565b612424565b6009546001600160401b0316600b5463ffffffff1690600a549261220c565b9a8b9761218f61217a610316565b8b81526001600160a01b039092166020830152565b8560408201528660608201528260808201528360a08201526121b460c0820160019052565b6121c6895f52600d60205260405f2090565b611e17565b60405194859485611f79565b0390a4565b6121f7913d8091833e6121ef81836102b5565b810190611ad8565b5f612007565b9081602091031261021f575190565b92906020926001600160401b039263ffffffff61224b604051978896879663230e93b160e11b885216600487015260a0602487015260a48601906107b7565b6001604486015292166064840152608483015203815f7f00000000000000000000000000000000000000000000000000000000000000006001600160a01b03165af1908115610e2a575f916122c4575b50807f1131472297a800fee664d1d89cfa8f7676ff07189ecc53f80bbb5f4969099db85f80a290565b6122e5915060203d81116122eb575b6122dd81836102b5565b8101906121fd565b5f61229b565b503d6122d3565b604051906122ff8261029a565b600c82526b31b7b232a637b1b0ba34b7b760a11b6020830152565b604051906123278261029a565b60088252676c616e677561676560c01b6020830152565b60011115611c3657565b604051906123558261029a565b6006825265736f7572636560d01b6020830152565b604051906123778261029a565b60048252636172677360e01b6020830152565b634e487b7160e01b5f52601160045260245ffd5b5f1981146123ac5760010190565b61238a565b604051906123be8261029a565b600f82526e39b2b1b932ba39a637b1b0ba34b7b760891b6020830152565b604051906123e98261029a565b60078252667365637265747360c81b6020830152565b6040519061240c8261029a565b600982526862797465734172677360b81b6020830152565b61242c612655565b9061243e6124386122f2565b83612da7565b61245b815161244c81611c2c565b61245581611c2c565b8361271d565b61246661243861231a565b61248060408201516124778161233e565b6124558161233e565b61248b612438612348565b612499606082015183612da7565b60a0810180515161259d575b50608081019081515161251d575b60c09150018051516124c6575b50515190565b916124d26124386123ff565b6124db82612e2b565b5f5b8351805182101561250a57906125006124f98261250594611d3b565b5185612cf2565b61239e565b6124dd565b5050915061251781612eb7565b5f6124c0565b60208101805161252c81611c2c565b61253581611c2c565b1561258b5760c09261256e6125869261255561254f6123b1565b88612da7565b5161255f81611c2c565b61256881611c2c565b8661271d565b61257f6125796123dc565b86612da7565b5184612cf2565b6124b3565b60405163a80d31f760e01b8152600490fd5b926125af6125a961236a565b84612da7565b6125b883612e2b565b5f5b845180518210156125e257906125006125d6826125dd94611d3b565b5186612da7565b6125ba565b505092506125ef82612eb7565b5f6124a5565b81511561260b575f808252604082015260600152565b6040516322ce3edd60e01b8152600490fd5b81511561262a5760a00152565b60405163fe936cb760e01b8152600490fd5b604051906126498261029a565b5f602083606081520152565b6040516126618161029a565b61266961263c565b808252602082015f815261267b61263c565b5061010060208301526040518092525f8252610120820191821061021f575f916040525290565b601f198101919082116123ac57565b90602082018092116123ac57565b919082018092116123ac57565b906126d561263c565b50601f811680612703575b50806020830152604051908183525f8252810160200190811061021f5760405290565b602003602081116123ac5781018091116123ac575f6126e0565b9081519161272961263c565b5082515160018101908181116123ac576020850151811015612782575b60c26020610323965192830101538051821161277a575b5050604051916020830152602082526127758261029a565b612cf2565b525f8061275d565b8160011b94828604600214831517156123ac576020816127b4610323986127ad60c2955191846126cc565b5082612c3b565b5096505050612746565b908160011b91808304600214901517156123ac57565b6127dc61263c565b5080515160018101908181116123ac576020830151811015612815575b605b6020845192830101538051821161281157505090565b5290565b8160011b828104600214831517156123ac5761283e90612837855191866126cc565b5084612c3b565b506127f9565b61284c61263c565b5080515160018101908181116123ac576020830151811015612881575b605a6020845192830101538051821161281157505090565b8160011b828104600214831517156123ac576128a390612837855191866126cc565b50612869565b6128b161263c565b5080515160018101908181116123ac5760208301518110156128e6575b60596020845192830101538051821161281157505090565b8160011b828104600214831517156123ac5761290890612837855191866126cc565b506128ce565b61291661263c565b5080515160018101908181116123ac57602083015181101561294b575b60586020845192830101538051821161281157505090565b8160011b828104600214831517156123ac5761296d90612837855191866126cc565b50612933565b61297b61263c565b5080515160018101908181116123ac5760208301518110156129b0575b607b6020845192830101538051821161281157505090565b8160011b828104600214831517156123ac576129d290612837855191866126cc565b50612998565b6129e061263c565b5080515160018101908181116123ac576020830151811015612a15575b607a6020845192830101538051821161281157505090565b8160011b828104600214831517156123ac57612a3790612837855191866126cc565b506129fd565b612a4561263c565b5080515160018101908181116123ac576020830151811015612a7a575b60796020845192830101538051821161281157505090565b8160011b828104600214831517156123ac57612a9c90612837855191866126cc565b50612a62565b612aaa61263c565b5080515160018101908181116123ac576020830151811015612adf575b60786020845192830101538051821161281157505090565b8160011b828104600214831517156123ac57612b0190612837855191866126cc565b50612ac7565b90612b1061263c565b5081515160018101918282116123ac576020840151821015612b43575b6020845192830101538051821161281157505090565b8260011b838104600214841517156123ac57612b6c90612b65865191876126cc565b5085612c3b565b50612b2d565b90612b7f825191836126cc565b50612b8861263c565b50805190612b9461263c565b50612ba28151831115612ceb565b82515192612bb083856126bf565b916020928284809401518211612c24575b5183815197820101968211612c1c575b505001915b81811015612bf6575f1991036101000a0190811990511690825116179052565b9192612c11612c0b612c1792865181526126b1565b946126b1565b926126a2565b612bd6565b525f80612bd1565b612c36612c30836127be565b82612b72565b612bc1565b90612c4461263c565b508051612c4f61263c565b50612c5d8251821115612ceb565b82515191612c6b82846126bf565b6020918291828701518111612cd4575b865183815197820101968211612ccc575b505001915b81811015612cb2575f1991036101000a019081199051169082511617905290565b9192612c11612c0b612cc792865181526126b1565b612c91565b525f80612c8c565b612ce6612ce0826127be565b88612b72565b612c7b565b1561021f57565b8151612d299291906001600160401b0381169060178211612d2c57612d219150604060ff845192161790612b07565b505b51612c3b565b50565b5060ff8111612d5157612d4b90612d43835161290e565b50825161307f565b50612d23565b61ffff8111612d7057612d4b90612d6883516128a9565b508251613018565b63ffffffff8111612d9157612d4b90612d898351612844565b508251612faf565b612d4b90612d9f83516127d4565b508251612f43565b8151612d299291906001600160401b0381169060178211612dd657612d219150606060ff845192161790612b07565b5060ff8111612ded57612d4b90612d438351612aa2565b61ffff8111612e0457612d4b90612d688351612a3d565b63ffffffff8111612e1d57612d4b90612d8983516129d8565b612d4b90612d9f8351612973565b805190612e3661263c565b5081515160018101908181116123ac576020840151811015612e84575b609f6020809551928301015380518211612e7c575b505001805190600182018092116123ac5752565b525f80612e68565b8160011b93828504600214831517156123ac57602081612ead82976127ad609f955191846126cc565b5095505050612e53565b805190612ec261263c565b5081515160018101908181116123ac576020840151811015612f10575b60ff6020809551928301015380518211612f08575b50500180515f198101919082116123ac5752565b525f80612ef4565b8160011b93828504600214831517156123ac57602081612f3982976127ad60ff955191846126cc565b5095505050612edf565b90612f4c61263c565b508151518060080191826008116123ac5760208401518311612f8e575b6008845192830101906001600160401b03198251161790528051821161281157505090565b8260011b838104600214841517156123ac57612faa9085612b72565b612f69565b90612fb861263c565b508151518060040191826004116123ac5760208401518311612ff7575b60048451928301019063ffffffff198251161790528051821161281157505090565b8260011b838104600214841517156123ac576130139085612b72565b612fd5565b9061302161263c565b508151518060020191826002116123ac576020840151831161305e575b60028451928301019061ffff198251161790528051821161281157505090565b8260011b838104600214841517156123ac5761307a9085612b72565b61303e565b9061308861263c565b508151518060010191826001116123ac57602084015183116130c4575b60018451928301019060ff198251161790528051821161281157505090565b8260011b838104600214841517156123ac576130e09085612b72565b6130a5565b906040516130f28161027f565b60c060ff600683958054855260018060a01b03600182015416602086015261311c600282016106f7565b604086015261312d600382016106f7565b606086015261313e600482016106f7565b6080860152600581015460a08601520154161515910152565b1561315e57565b60405162461bcd60e51b815260206004820152600f60248201526e155b9adb9bdddb881c995c5d595cdd608a1b6044820152606490fd5b61319f8154610453565b90816131a9575050565b81601f5f93116001146131ba575055565b9080839182526131d9601f60208420940160051c8401600185016111cd565b5555565b60065f918281558260018201556131f660028201613195565b61320260038201613195565b61320e60048201613195565b8260058201550155565b919082604091031261021f576020825192015190565b949192611fa560e09794611f97613252949c9b9a979c610100808b528a01906107b7565b9760608501526080840152151560a0830152151560c08201520152565b613289613284825f52600d60205260405f2090565b6130e5565b9261329f61329a60c0860151151590565b613157565b6132b96132b4835f52600d60205260405f2090565b6131dd565b805161349857506132d4602092838082518301019101613218565b919093821515928361348d575b6001549394929361333993906132ff906001600160a01b031661092e565b835182850180516040516352b8bd2360e11b815260048101939093526001600160a01b031660248301529790958390879081906044820190565b0381855afa908115610e2a57886121d7947f7d72a47abc6e4d5d2b8923454ebb1ca42ae524b52ff1e35739bbb96580f12ca8985f9461346e575b505f948380613467575b6133b4575b50508651995160408089015160608a01516080909a015191516001600160a01b039093169d92998a999450908961322e565b8851925160a08a0151604051636536fabb60e01b815260048101959095526001600160a01b039091166024850152604484015281908390606490829089905af19182918693613448575b50506134415750855189516001600160a01b031690897f731328e429d00b4d00c6b6136c81ca932cf1e2c068dbcd3cc800d6ce7e5d914d5f80a45b885f80613382565b9250613439565b61345f929350803d106122eb576122dd81836102b5565b905f806133fe565b508461337d565b816134869295503d861161118e5761118081836102b5565b925f613373565b8086101593506132e1565b6134cd9193507fe69c818c088485a993a95be2d0dc41c93570d7a322c941c98a32a234235b33ff925060405191829182610ad3565b0390a2565b156134d957565b60405162461bcd60e51b815260206004820152600e60248201526d139bdd08185d5d1a1bdc9a5e995960921b6044820152606490fdfedf6966c971051c3d54ec59162606531493a51404a002842f56009d7e5cf4a8c7a2646970667358221220d342ddae563ed50ad6681b3773ebbb73b7dfd063a435358d272c1524f25fcade64736f6c63430008140033b6b204db04670974c4729ff9da54706816ab9cce3713f19a6940d84302f46b04ada7c059d03027c2d19603401220dcab0db47516c3cb26f0ee1218a123b1548f",
  "linkReferences": {},
  "deployedLinkReferences": {},
  "immutableReferences": {
    "17": [
      {
        "length": 32,
        "start": 995
      },
      {
        "length": 32,
        "start": 8803
      }
    ]
  },
  "inputSourceName": "project/contracts/SubsidyPayoutOracleConsumer.sol",
  "buildInfoId": "solc-0_8_20-14ddaedf849c233778ac9ad8eb38d3c2d916e1a8"
}