{
  "_format": "hh3-artifact-1",
  "contractName": "SubsidyPayoutOracleConsumer",
  "sourceName": "contracts/SubsidyPayoutOracleConsumer.sol",
  "abi": [
    {
      "inputs": [
        {
          "internalType": "address",
          "name": "router",
          "type": "address"
        },
        {
          "internalType": "address payable",
          "name": "payoutContract",
          "type": "address"
        },
        {
          "internalType": "uint64",
          "name": "functionsSubscriptionId",
          "type": "uint64"
        },
        {
          "internalType": "bytes32",
          "name": "functionsDonId",
          "type": "bytes32"
        },
        {
          "internalType": "string",
          "name": "defaultSource",
          "type": "string"
        }
      ],
      "stateMutability": "nonpayable",
      "type": "constructor"
    },
    {
      "inputs": [],
      "name": "EmptyArgs",
      "type": "error"
    },
    {
      "inputs": [],
      "name": "EmptySource",
      "type": "error"
    },
    {
      "inputs": [],
      "name": "NoInlineSecrets",
      "type": "error"
    },
    {
      "inputs": [],
      "name": "OnlyRouterCanFulfill",
      "type": "error"
    },
    {
      "anonymous": false,
      "inputs": [
        {
          "indexed": true,
          "internalType": "uint256",
          "name": "claimId",
          "type": "uint256"
        }
      ],
      "name": "ApprovedPayoutExecuted",
      "type": "event"
    },
    {
      "anonymous": false,
      "inputs": [
        {
          "indexed": true,
          "internalType": "bytes32",
          "name": "requestId",
          "type": "bytes32"
        },
        {
          "indexed": true,
          "internalType": "uint256",
          "name": "policyId",
          "type": "uint256"
        },
        {
          "indexed": true,
          "internalType": "address",
          "name": "farmer",
          "type": "address"
        }
      ],
      "name": "AutoClaimCreationFailed",
      "type": "event"
    },
    {
      "anonymous": false,
      "inputs": [
        {
          "indexed": true,
          "internalType": "address",
          "name": "newCaller",
          "type": "address"
        }
      ],
      "name": "AutomationCallerUpdated",
      "type": "event"
    },
    {
      "anonymous": false,
      "inputs": [
        {
          "indexed": false,
          "internalType": "uint256",
          "name": "policyId",
          "type": "uint256"
        },
        {
          "indexed": false,
          "internalType": "address",
          "name": "farmer",
          "type": "address"
        },
        {
          "indexed": false,
          "internalType": "string",
          "name": "state",
          "type": "string"
        },
        {
          "indexed": false,
          "internalType": "string",
          "name": "district",
          "type": "string"
        },
        {
          "indexed": false,
          "internalType": "string",
          "name": "stationId",
          "type": "string"
        },
        {
          "indexed": false,
          "internalType": "bytes32",
          "name": "metadataHash",
          "type": "bytes32"
        }
      ],
      "name": "AutomationConfigUpdated",
      "type": "event"
    },
    {
      "anonymous": false,
      "inputs": [
        {
          "indexed": false,
          "internalType": "uint64",
          "name": "subscriptionId",
          "type": "uint64"
        },
        {
          "indexed": false,
          "internalType": "bytes32",
          "name": "donId",
          "type": "bytes32"
        },
        {
          "indexed": false,
          "internalType": "uint32",
          "name": "gasLimit",
          "type": "uint32"
        }
      ],
      "name": "ConfigUpdated",
      "type": "event"
    },
    {
      "anonymous": false,
      "inputs": [
        {
          "indexed": true,
          "internalType": "address",
          "name": "newOwner",
          "type": "address"
        }
      ],
      "name": "OwnerUpdated",
      "type": "event"
    },
    {
      "anonymous": false,
      "inputs": [
        {
          "indexed": true,
          "internalType": "bytes32",
          "name": "id",
          "type": "bytes32"
        }
      ],
      "name": "RequestFulfilled",
      "type": "event"
    },
    {
      "anonymous": false,
      "inputs": [
        {
          "indexed": true,
          "internalType": "bytes32",
          "name": "id",
          "type": "bytes32"
        }
      ],
      "name": "RequestSent",
      "type": "event"
    },
    {
      "anonymous": false,
      "inputs": [
        {
          "indexed": false,
          "internalType": "string",
          "name": "source",
          "type": "string"
        }
      ],
      "name": "SourceUpdated",
      "type": "event"
    },
    {
      "anonymous": false,
      "inputs": [
        {
          "indexed": true,
          "internalType": "bytes32",
          "name": "requestId",
          "type": "bytes32"
        },
        {
          "indexed": false,
          "internalType": "bytes",
          "name": "error",
          "type": "bytes"
        }
      ],
      "name": "WaterLevelCheckErrored",
      "type": "event"
    },
    {
      "anonymous": false,
      "inputs": [
        {
          "indexed": true,
          "internalType": "bytes32",
          "name": "requestId",
          "type": "bytes32"
        },
        {
          "indexed": true,
          "internalType": "uint256",
          "name": "policyId",
          "type": "uint256"
        },
        {
          "indexed": true,
          "internalType": "address",
          "name": "farmer",
          "type": "address"
        },
        {
          "indexed": false,
          "internalType": "string",
          "name": "state",
          "type": "string"
        },
        {
          "indexed": false,
          "internalType": "string",
          "name": "district",
          "type": "string"
        },
        {
          "indexed": false,
          "internalType": "string",
          "name": "stationId",
          "type": "string"
        },
        {
          "indexed": false,
          "internalType": "uint256",
          "name": "waterLevelCurrent",
          "type": "uint256"
        },
        {
          "indexed": false,
          "internalType": "uint256",
          "name": "waterLevelDanger",
          "type": "uint256"
        },
        {
          "indexed": false,
          "internalType": "bool",
          "name": "triggered",
          "type": "bool"
        },
        {
          "indexed": false,
          "internalType": "bool",
          "name": "enrolled",
          "type": "bool"
        },
        {
          "indexed": false,
          "internalType": "uint256",
          "name": "claimId",
          "type": "uint256"
        }
      ],
      "name": "WaterLevelCheckFulfilled",
      "type": "event"
    },
    {
      "anonymous": false,
      "inputs": [
        {
          "indexed": true,
          "internalType": "bytes32",
          "name": "requestId",
          "type": "bytes32"
        },
        {
          "indexed": true,
          "internalType": "uint256",
          "name": "policyId",
          "type": "uint256"
        },
        {
          "indexed": true,
          "internalType": "address",
          "name": "farmer",
          "type": "address"
        },
        {
          "indexed": false,
          "internalType": "string",
          "name": "state",
          "type": "string"
        },
        {
          "indexed": false,
          "internalType": "string",
          "name": "district",
          "type": "string"
        },
        {
          "indexed": false,
          "internalType": "string",
          "name": "stationId",
          "type": "string"
        },
        {
          "indexed": false,
          "internalType": "bytes32",
          "name": "metadataHash",
          "type": "bytes32"
        }
      ],
      "name": "WaterLevelCheckRequested",
      "type": "event"
    },
    {
      "inputs": [],
      "name": "autoDistrict",
      "outputs": [
        {
          "internalType": "string",
          "name": "",
          "type": "string"
        }
      ],
      "stateMutability": "view",
      "type": "function"
    },
    {
      "inputs": [],
      "name": "autoFarmer",
      "outputs": [
        {
          "internalType": "address",
          "name": "",
          "type": "address"
        }
      ],
      "stateMutability": "view",
      "type": "function"
    },
    {
      "inputs": [],
      "name": "autoMetadataHash",
      "outputs": [
        {
          "internalType": "bytes32",
          "name": "",
          "type": "bytes32"
        }
      ],
      "stateMutability": "view",
      "type": "function"
    },
    {
      "inputs": [],
      "name": "autoPolicyId",
      "outputs": [
        {
          "internalType": "uint256",
          "name": "",
          "type": "uint256"
        }
      ],
      "stateMutability": "view",
      "type": "function"
    },
    {
      "inputs": [],
      "name": "autoState",
      "outputs": [
        {
          "internalType": "string",
          "name": "",
          "type": "string"
        }
      ],
      "stateMutability": "view",
      "type": "function"
    },
    {
      "inputs": [],
      "name": "autoStationId",
      "outputs": [
        {
          "internalType": "string",
          "name": "",
          "type": "string"
        }
      ],
      "stateMutability": "view",
      "type": "function"
    },
    {
      "inputs": [],
      "name": "automationCaller",
      "outputs": [
        {
          "internalType": "address",
          "name": "",
          "type": "address"
        }
      ],
      "stateMutability": "view",
      "type": "function"
    },
    {
      "inputs": [],
      "name": "donId",
      "outputs": [
        {
          "internalType": "bytes32",
          "name": "",
          "type": "bytes32"
        }
      ],
      "stateMutability": "view",
      "type": "function"
    },
    {
      "inputs": [
        {
          "internalType": "uint256",
          "name": "claimId",
          "type": "uint256"
        }
      ],
      "name": "executeApprovedPayout",
      "outputs": [],
      "stateMutability": "nonpayable",
      "type": "function"
    },
    {
      "inputs": [],
      "name": "gasLimit",
      "outputs": [
        {
          "internalType": "uint32",
          "name": "",
          "type": "uint32"
        }
      ],
      "stateMutability": "view",
      "type": "function"
    },
    {
      "inputs": [
        {
          "internalType": "bytes32",
          "name": "requestId",
          "type": "bytes32"
        },
        {
          "internalType": "bytes",
          "name": "response",
          "type": "bytes"
        },
        {
          "internalType": "bytes",
          "name": "err",
          "type": "bytes"
        }
      ],
      "name": "handleOracleFulfillment",
      "outputs": [],
      "stateMutability": "nonpayable",
      "type": "function"
    },
    {
      "inputs": [],
      "name": "owner",
      "outputs": [
        {
          "internalType": "address",
          "name": "",
          "type": "address"
        }
      ],
      "stateMutability": "view",
      "type": "function"
    },
    {
      "inputs": [],
      "name": "payout",
      "outputs": [
        {
          "internalType": "contract SubsidyPayout",
          "name": "",
          "type": "address"
        }
      ],
      "stateMutability": "view",
      "type": "function"
    },
    {
      "inputs": [
        {
          "internalType": "bytes32",
          "name": "",
          "type": "bytes32"
        }
      ],
      "name": "pendingRequests",
      "outputs": [
        {
          "internalType": "uint256",
          "name": "policyId",
          "type": "uint256"
        },
        {
          "internalType": "address",
          "name": "farmer",
          "type": "address"
        },
        {
          "internalType": "string",
          "name": "state",
          "type": "string"
        },
        {
          "internalType": "string",
          "name": "district",
          "type": "string"
        },
        {
          "internalType": "string",
          "name": "stationId",
          "type": "string"
        },
        {
          "internalType": "bytes32",
          "name": "metadataHash",
          "type": "bytes32"
        },
        {
          "internalType": "bool",
          "name": "exists",
          "type": "bool"
        }
      ],
      "stateMutability": "view",
      "type": "function"
    },
    {
      "inputs": [
        {
          "internalType": "bytes",
          "name": "",
          "type": "bytes"
        }
      ],
      "name": "performUpkeep",
      "outputs": [],
      "stateMutability": "nonpayable",
      "type": "function"
    },
    {
      "inputs": [
        {
          "internalType": "uint256",
          "name": "policyId",
          "type": "uint256"
        },
        {
          "internalType": "address",
          "name": "farmer",
          "type": "address"
        },
        {
          "internalType": "string",
          "name": "state",
          "type": "string"
        },
        {
          "internalType": "string",
          "name": "district",
          "type": "string"
        },
        {
          "internalType": "string",
          "name": "stationId",
          "type": "string"
        },
        {
          "internalType": "bytes32",
          "name": "metadataHash",
          "type": "bytes32"
        }
      ],
      "name": "requestWaterLevelCheck",
      "outputs": [
        {
          "internalType": "bytes32",
          "name": "requestId",
          "type": "bytes32"
        }
      ],
      "stateMutability": "nonpayable",
      "type": "function"
    },
    {
      "inputs": [],
      "name": "source",
      "outputs": [
        {
          "internalType": "string",
          "name": "",
          "type": "string"
        }
      ],
      "stateMutability": "view",
      "type": "function"
    },
    {
      "inputs": [],
      "name": "subscriptionId",
      "outputs": [
        {
          "internalType": "uint64",
          "name": "",
          "type": "uint64"
        }
      ],
      "stateMutability": "view",
      "type": "function"
    },
    {
      "inputs": [
        {
          "internalType": "address",
          "name": "newCaller",
          "type": "address"
        }
      ],
      "name": "updateAutomationCaller",
      "outputs": [],
      "stateMutability": "nonpayable",
      "type": "function"
    },
    {
      "inputs": [
        {
          "internalType": "uint256",
          "name": "policyId",
          "type": "uint256"
        },
        {
          "internalType": "address",
          "name": "farmer",
          "type": "address"
        },
        {
          "internalType": "string",
          "name": "state",
          "type": "string"
        },
        {
          "internalType": "string",
          "name": "district",
          "type": "string"
        },
        {
          "internalType": "string",
          "name": "stationId",
          "type": "string"
        },
        {
          "internalType": "bytes32",
          "name": "metadataHash",
          "type": "bytes32"
        }
      ],
      "name": "updateAutomationConfig",
      "outputs": [],
      "stateMutability": "nonpayable",
      "type": "function"
    },
    {
      "inputs": [
        {
          "internalType": "uint64",
          "name": "functionsSubscriptionId",
          "type": "uint64"
        },
        {
          "internalType": "bytes32",
          "name": "functionsDonId",
          "type": "bytes32"
        },
        {
          "internalType": "uint32",
          "name": "functionsGasLimit",
          "type": "uint32"
        }
      ],
      "name": "updateConfig",
      "outputs": [],
      "stateMutability": "nonpayable",
      "type": "function"
    },
    {
      "inputs": [
        {
          "internalType": "string",
          "name": "newSource",
          "type": "string"
        }
      ],
      "name": "updateSource",
      "outputs": [],
      "stateMutability": "nonpayable",
      "type": "function"
    }
  ],
  "bytecode": "0x604060a0815234620003e0576200390890813803806200001f81620003f8565b938439820160a083820312620003e05782516001600160a01b03919082811690819003620003e05760209182860151938416809403620003e057858501516001600160401b038082169790929091889003620003e057606082015191608081015190848211620003e0570192601f92828486011215620003e057845195828711620003e457601f1995620000b988870188168a01620003f8565b97808952898901958a8284010111620003e057858a620000da93016200041e565b608052600b805463ffffffff1916620493e01790555f80546001600160a01b031990811633178255600180549091169099178955600980546001600160401b031916909b17909a55600a558451969896818111620003cc57600c548a81811c91168015620003c1575b88821014620003ad5784811162000368575b508899889997985088858311600114620002bd576101208b84806060967f73989100303daec2fbf01e92f61095af6e662a5fb8d7d0b44224ed39e5d51c269f965f80516020620038c8833981519152965f80516020620038e88339815191529a9893620002b1575b501b915f199060031b1c191617600c555b8a5190337f4ffd725fc4a22075e9ec71c59edf9c38cdeb588a91b24fc5b61388c5be41282b8280a2807fc6a05c0189e2eafd31475d2c303def6d669a3e9f58e1229b4659e34b0798fcdc8180a2808252808d83015260c08c8301528060c083015260e0868301528060e08301528061010080608085015283015260a0820152a160095416600a5463ffffffff600b54169089519283528a83015288820152a16200028b85519687958187525192838092880152878701906200041e565b01168101030190a15161348690816200044282396080518181816103e301526121a40152f35b8e015192505f620001bd565b600c8b52898b209a9290878216845b8181106200034f5750935f80516020620038e88339815191529593837f73989100303daec2fbf01e92f61095af6e662a5fb8d7d0b44224ed39e5d51c269e610120945f80516020620038c8833981519152966060991062000336575b5050811b01600c55620001ce565b8d01515f1960f88460031b161c191690555f8062000328565b8a8301518e559c84019c8e9b50918c01918c01620002cc565b600c89528789208580840160051c8201928a8510620003a3575b0160051c01905b81811062000398575062000155565b8981558b0162000389565b9250819262000382565b634e487b7160e01b89526022600452602489fd5b90607f169062000143565b634e487b7160e01b88526041600452602488fd5b5f80fd5b634e487b7160e01b5f52604160045260245ffd5b6040519190601f01601f191682016001600160401b03811183821017620003e457604052565b5f5b838110620004305750505f910152565b81810151838201526020016200042056fe60806040526004361015610011575f80fd5b5f3560e01c806302b92c671461017457806309c1ba2e1461016f5780630ca761751461016a5780632795ad201461016557806332b317e7146101605780634585e33b1461015b5780634948e43c146101565780636156beba1461015157806363bd1d4a1461014c57806367e828bf1461014757806379c87e3c14610142578063817852651461013d5780638960790d146101385780638da5cb5b146101335780638dbe7b9d1461012e578063bb69586414610129578063d603b68814610124578063e10e37741461011f578063f60ce3c41461011a578063f68016b714610115578063fa303a53146101105763ffb6b5ad1461010b575f80fd5b610f93565b610f6b565b610f48565b610df5565b610dcd565b610db2565b610cc3565b610ca6565b610c7f565b610c26565b610b88565b610b6d565b610b52565b610b2a565b610af7565b610a42565b610920565b6108a8565b6107ef565b610394565b61022d565b3461021f57606036600319011261021f576004356001600160401b03811680910361021f576024356044359163ffffffff831680930361021f577fada7c059d03027c2d19603401220dcab0db47516c3cb26f0ee1218a123b1548f926060926101e760018060a01b035f54163314611109565b826001600160401b0319600954161760095580600a558163ffffffff19600b541617600b5560405192835260208301526040820152a1005b5f80fd5b5f91031261021f57565b3461021f575f36600319011261021f5760206001600160401b0360095416604051908152f35b634e487b7160e01b5f52604160045260245ffd5b6001600160401b03811161027a57604052565b610253565b604081019081106001600160401b0382111761027a57604052565b60e081019081106001600160401b0382111761027a57604052565b90601f801991011681019081106001600160401b0382111761027a57604052565b6040519061010082018281106001600160401b0382111761027a57604052565b6040519061016082018281106001600160401b0382111761027a57604052565b604051906103238261029a565b565b6001600160401b03811161027a57601f01601f191660200190565b92919261034c82610325565b9161035a60405193846102b5565b82948184528183011161021f578281602093845f960137010152565b9080601f8301121561021f5781602061039193359101610340565b90565b3461021f57606036600319011261021f576004356001600160401b0360243581811161021f576103c8903690600401610376565b9060443590811161021f576103e1903690600401610376565b7f00000000000000000000000000000000000000000000000000000000000000006001600160a01b031633036104415761041b91836131b0565b7f85e1543bf2f84fe80c6badbce3648c8539ad1df4d2b3d822938ca0538be727e65f80a2005b60405163c6829f8360e01b8152600490fd5b90600182811c92168015610481575b602083101461046d57565b634e487b7160e01b5f52602260045260245ffd5b91607f1691610462565b604051905f826005549161049e83610453565b8083529260019081811690811561052357506001146104c5575b50610323925003836102b5565b60055f90815291507f036b6384b5eca791c62761152d0c79bb0604c104a5fb6f4eb0703f3154bb3db05b848310610508575061032393505081016020015f6104b8565b81935090816020925483858a010152019101909185926104ef565b90506020925061032394915060ff191682840152151560051b8201015f6104b8565b604051905f826006549161055883610453565b80835292600190818116908115610523575060011461057e5750610323925003836102b5565b60065f90815291507ff652222313e28459528d920b65115c16c04f3efc82aaedc97be59f3f377c0d3f5b8483106105c1575061032393505081016020015f6104b8565b81935090816020925483858a010152019101909185926105a8565b604051905f82600754916105ef83610453565b8083529260019081811690811561052357506001146106155750610323925003836102b5565b60075f90815291507fa66cc928b5edb82af9bd49922954155ab7b0942694bea4ce44661d9a8736c6885b848310610658575061032393505081016020015f6104b8565b81935090816020925483858a0101520191019091859261063f565b604051905f82600c549161068683610453565b8083529260019081811690811561052357506001146106ac5750610323925003836102b5565b600c5f90815291507fdf6966c971051c3d54ec59162606531493a51404a002842f56009d7e5cf4a8c75b8483106106ef575061032393505081016020015f6104b8565b81935090816020925483858a010152019101909185926106d6565b9060405191825f82549261071d84610453565b9081845260019485811690815f146107865750600114610746575b5050610323925003836102b5565b909391505f52602090815f20935f915b81831061076e57505061032393508201015f80610738565b85548884018501529485019487945091830191610756565b91505061032394506020925060ff191682840152151560051b8201015f80610738565b5f5b8381106107ba5750505f910152565b81810151838201526020016107ab565b906020916107e3815180928185528580860191016107a9565b601f01601f1916010190565b3461021f57602036600319011261021f576004355f908152600d60205260409020805460018201546001600160a01b03169161082d6002820161070a565b61089761083c6003840161070a565b61088961084b6004860161070a565b9161087b60ff600660058901549801541695604051998a998a5260208a015260e060408a015260e08901906107ca565b9087820360608901526107ca565b9085820360808701526107ca565b9160a0840152151560c08301520390f35b3461021f575f36600319011261021f576020600354604051908152f35b9181601f8401121561021f578235916001600160401b03831161021f576020838186019501011161021f57565b602060031982011261021f57600435906001600160401b03821161021f5761091c916004016108c5565b9091565b3461021f5761092e366108f2565b505060025461094d906001600160a01b03165b6001600160a01b031690565b33148015610a0a575b61095f90611765565b6109c9600354801515806109f6575b610977906117a2565b610982600554610453565b1515806109e3575b806109cb575b610999906117ee565b6004546001600160a01b031690600854916109b261048b565b6109ba610545565b916109c36105dc565b93611ef4565b005b506109996109da600754610453565b15159050610990565b506109ef600654610453565b151561098a565b506004546001600160a01b0316151561096e565b505f5461095f90610a23906001600160a01b0316610941565b33149050610956565b600435906001600160a01b038216820361021f57565b3461021f57602036600319011261021f57610a5b610a2c565b5f546001600160a01b039190610a749083163314611109565b168015610ab357600280546001600160a01b031916821790557fc6a05c0189e2eafd31475d2c303def6d669a3e9f58e1229b4659e34b0798fcdc5f80a2005b60405162461bcd60e51b815260206004820152600b60248201526a2d32b9379031b0b63632b960a91b6044820152606490fd5b9060206103919281815201906107ca565b3461021f575f36600319011261021f57610b26610b12610545565b6040519182916020835260208301906107ca565b0390f35b3461021f575f36600319011261021f576001546040516001600160a01b039091168152602090f35b3461021f575f36600319011261021f57610b26610b12610673565b3461021f575f36600319011261021f57610b26610b1261048b565b3461021f575f36600319011261021f576020600854604051908152f35b9060c060031983011261021f57600435916024356001600160a01b038116810361021f57916001600160401b0360443581811161021f5783610be9916004016108c5565b9390939260643583811161021f5782610c04916004016108c5565b9390939260843591821161021f57610c1e916004016108c5565b909160a43590565b3461021f576020610c776109c3610c67610c6f610c4236610ba5565b9a959098939297999194610c6060018060a01b035f54163314611109565b3691610340565b953691610340565b943691610340565b604051908152f35b3461021f575f36600319011261021f575f546040516001600160a01b039091168152602090f35b3461021f575f36600319011261021f576020600a54604051908152f35b3461021f57602036600319011261021f5760025460043590610ced906001600160a01b0316610941565b33148015610d90575b610cff90613413565b600154610d14906001600160a01b0316610941565b90813b1561021f576040516339d212d760e21b8152600481018290525f9283908290602490829084905af18015610d8b57610d72575b507fe60d1aa66a2c42ef798d19b94385714ce444de8e8a47ccd12d2abde1b41420e98280a280f35b80610d7f610d8592610267565b80610223565b5f610d4a565b6116c2565b505f54610cff90610da9906001600160a01b0316610941565b33149050610cf6565b3461021f575f36600319011261021f57610b26610b126105dc565b3461021f575f36600319011261021f576004546040516001600160a01b039091168152602090f35b3461021f57610e03366108f2565b5f90610e1960018060a01b038354163314611109565b6001600160401b03811161027a57610e3b81610e36600c54610453565b611157565b8192601f8211600114610ea7578183947f73989100303daec2fbf01e92f61095af6e662a5fb8d7d0b44224ed39e5d51c269491610e9c575b508260011b905f198460031b1c191617600c555b610e9660405192839283611596565b0390a180f35b90508101355f610e73565b600c5f52601f198216937fdf6966c971051c3d54ec59162606531493a51404a002842f56009d7e5cf4a8c790845b868110610f305750837f73989100303daec2fbf01e92f61095af6e662a5fb8d7d0b44224ed39e5d51c26959610610f17575b5050600182811b01600c55610e87565b8201355f19600385901b60f8161c191690555f80610f07565b90916020600181928587013581550193019101610ed5565b3461021f575f36600319011261021f57602063ffffffff600b5416604051908152f35b3461021f575f36600319011261021f576002546040516001600160a01b039091168152602090f35b3461021f5761103e610fa436610ba5565b94610ff060018060a09b9a9b9794979695961b03610fc6815f54163314611109565b610fd18315156115a7565b610fdc8515156115e4565b610fe7871515611624565b8a161515611663565b6001546020908a9061100a906001600160a01b0316610941565b6040516352b8bd2360e11b8152600481018c90526001600160a01b039092166024830152909b8c9190829081906044820190565b03915afa968715610d8b5761107f6110d6987fb6b204db04670974c4729ff9da54706816ab9cce3713f19a6940d84302f46b049c5f916110db575b506116cd565b61108889600355565b600480546001600160a01b0319166001600160a01b038c161790556110ad82826112ee565b6110b784846113c6565b6110c1868661149e565b6110ca87600855565b604051998a998a61170f565b0390a1005b6110fc915060203d8111611102575b6110f481836102b5565b8101906116ae565b5f611079565b503d6110ea565b1561111057565b60405162461bcd60e51b81526020600482015260096024820152682737ba1037bbb732b960b91b6044820152606490fd5b81811061114c575050565b5f8155600101611141565b90601f8211611164575050565b61032391600c5f527fdf6966c971051c3d54ec59162606531493a51404a002842f56009d7e5cf4a8c7906020601f840160051c830193106111ad575b601f0160051c0190611141565b90915081906111a0565b90601f82116111c4575050565b6103239160055f527f036b6384b5eca791c62761152d0c79bb0604c104a5fb6f4eb0703f3154bb3db0906020601f840160051c830193106111ad57601f0160051c0190611141565b90601f8211611219575050565b6103239160065f527ff652222313e28459528d920b65115c16c04f3efc82aaedc97be59f3f377c0d3f906020601f840160051c830193106111ad57601f0160051c0190611141565b90601f821161126e575050565b6103239160075f527fa66cc928b5edb82af9bd49922954155ab7b0942694bea4ce44661d9a8736c688906020601f840160051c830193106111ad57601f0160051c0190611141565b9190601f81116112c557505050565b610323925f5260205f20906020601f840160051c830193106111ad57601f0160051c0190611141565b91906001600160401b03811161027a576113128161130d600554610453565b6111b7565b5f601f8211600114611349578192935f9261133e575b50508160011b915f199060031b1c191617600555565b013590505f80611328565b60055f52601f198216937f036b6384b5eca791c62761152d0c79bb0604c104a5fb6f4eb0703f3154bb3db091805b8681106113ae5750836001959610611395575b505050811b01600555565b01355f19600384901b60f8161c191690555f808061138a565b90926020600181928686013581550194019101611377565b91906001600160401b03811161027a576113ea816113e5600654610453565b61120c565b5f601f8211600114611421578192935f92611416575b50508160011b915f199060031b1c191617600655565b013590505f80611400565b60065f52601f198216937ff652222313e28459528d920b65115c16c04f3efc82aaedc97be59f3f377c0d3f91805b868110611486575083600195961061146d575b505050811b01600655565b01355f19600384901b60f8161c191690555f8080611462565b9092602060018192868601358155019401910161144f565b91906001600160401b03811161027a576114c2816114bd600754610453565b611261565b5f601f82116001146114f9578192935f926114ee575b50508160011b915f199060031b1c191617600755565b013590505f806114d8565b60075f52601f198216937fa66cc928b5edb82af9bd49922954155ab7b0942694bea4ce44661d9a8736c68891805b86811061155e5750836001959610611545575b505050811b01600755565b01355f19600384901b60f8161c191690555f808061153a565b90926020600181928686013581550194019101611527565b908060209392818452848401375f828201840152601f01601f1916010190565b916020610391938181520191611576565b156115ae57565b60405162461bcd60e51b815260206004820152600e60248201526d14dd185d19481c995c5d5a5c995960921b6044820152606490fd5b156115eb57565b60405162461bcd60e51b8152602060048201526011602482015270111a5cdd1c9a58dd081c995c5d5a5c9959607a1b6044820152606490fd5b1561162b57565b60405162461bcd60e51b815260206004820152601060248201526f14dd185d1a5bdb881c995c5d5a5c995960821b6044820152606490fd5b1561166a57565b60405162461bcd60e51b815260206004820152600f60248201526e11985c9b595c881c995c5d5a5c9959608a1b6044820152606490fd5b5190811515820361021f57565b9081602091031261021f57610391906116a1565b6040513d5f823e3d90fd5b156116d457565b60405162461bcd60e51b815260206004820152601360248201527211985c9b595c881b9bdd08195b9c9bdb1b1959606a1b6044820152606490fd5b99989793611752936117449160c060408e60a09c9a976117609c9782526001808f1b03166020820152015260c08d0191611576565b918a830360608c0152611576565b918783036080890152611576565b930152565b1561176c57565b60405162461bcd60e51b815260206004820152600e60248201526d2737ba1030baba37b6b0ba34b7b760911b6044820152606490fd5b156117a957565b60405162461bcd60e51b815260206004820152601960248201527f4175746f6d6174696f6e20636f6e666967206d697373696e67000000000000006044820152606490fd5b156117f557565b60405162461bcd60e51b815260206004820152601b60248201527f4175746f6d6174696f6e206c6f636174696f6e206d697373696e6700000000006044820152606490fd5b81601f8201121561021f57805161185081610325565b9261185e60405194856102b5565b8184526020828401011161021f5761039191602080850191016107a9565b5190600482101561021f57565b5190600382101561021f57565b919082604091031261021f576040516118ae8161027f565b6020808294805184520151910152565b6001600160401b03811161027a5760051b60200190565b9080601f8301121561021f578151906118ed826118be565b926118fb60405194856102b5565b828452602092838086019160051b8301019280841161021f57848301915b8483106119295750505050505090565b82516001600160401b03811161021f57869161194a8484809489010161183a565b815201920191611919565b9190916101008184031261021f5761196b6102d6565b92611975826116a1565b8452611983602083016116a1565b6020850152604082015160408501526060820151606085015260808201516001600160401b039081811161021f57826119bd9185016118d5565b608086015260a083015181811161021f57826119da9185016118d5565b60a086015260c083015181811161021f57826119f79185016118d5565b60c086015260e083015190811161021f57611a1292016118d5565b60e0830152565b60208183031261021f5780516001600160401b039182821161021f5701916101808382031261021f57611a4a6102f6565b92805183811161021f5782611a6091830161183a565b8452602081015183811161021f5782611a7a91830161183a565b6020850152611a8b6040820161187c565b6040850152611a9c60608201611889565b60608501526080810151608085015260a081015160a085015260c081015183811161021f5782611acd91830161183a565b60c085015260e081015160e0850152610100611aeb83828401611896565b90850152610140928382015190811161021f5761016092611b0d918301611955565b61012085015201519082015290565b15611b2357565b60405162461bcd60e51b815260206004820152600e60248201526d506f6c696379206d697373696e6760901b6044820152606490fd5b634e487b7160e01b5f52602160045260245ffd5b60031115611b7757565b611b59565b15611b8357565b60405162461bcd60e51b815260206004820152600f60248201526e506f6c69637920696e61637469766560881b6044820152606490fd5b60405190611bc78261029a565b606060c0835f81525f60208201525f604082015282808201528260808201528260a08201520152565b60405190608082018281106001600160401b0382111761027a576040526003825281905f5b606080821015611c2f579060209182828701015201611c15565b5050909150565b634e487b7160e01b5f52603260045260245ffd5b805115611c575760200190565b611c36565b805160011015611c575760400190565b805160021015611c575760600190565b8051821015611c575760209160051b010190565b91909182516001600160401b03811161027a57611cb781611cb18454610453565b846112b6565b602080601f8311600114611cf15750819293945f92611ce6575b50508160011b915f199060031b1c1916179055565b015190505f80611cd1565b90601f19831695611d05855f5260205f2090565b925f905b888210611d4057505083600195969710611d28575b505050811b019055565b01515f1960f88460031b161c191690555f8080611d1e565b80600185968294968601518155019501930190611d09565b81518155602080830151600180840180546001600160a01b0319166001600160a01b039390931692909217909155929060028301906040830151948551916001600160401b03831161027a57611db883611db28654610453565b866112b6565b80601f8411600114611e40575092828060c09460069794611e22976103239b5f94611e35575b50501b915f199060031b1c19161790555b611e00606082015160038701611c90565b611e11608082015160048701611c90565b60a081015160058601550151151590565b91019060ff801983541691151516179055565b015192505f80611dde565b9193949596601f198416611e57875f5260205f2090565b935f905b828210611ea35750509361032398979360069793611e2297938360c09810611e8b575b505050811b019055611def565b01515f1960f88460031b161c191690555f8080611e7e565b808886978294978701518155019601940190611e5b565b949392611ee6606093611ed86117609460808a5260808a01906107ca565b9088820360208a01526107ca565b9086820360408801526107ca565b60015494969594909391929190611f13906001600160a01b0316610941565b604051632b07fce360e01b8152600481018690529092905f81602481875afa8015610d8b576060600191611f70935f9161211d575b50611f568151511515611b1c565b0151611f6181611b6d565b611f6a81611b6d565b14611b7c565b611f7c815115156115a7565b611f88825115156115e4565b611f9488511515611624565b6001600160a01b03841695611faa871515611663565b6040516352b8bd2360e11b8152600481018790526001600160a01b038616602482015293602090859060449082905afa908115610d8b5761210c9961201a612118937f8a4230aed0ddfad69bc5865fa9f57face291b99e6ad0ad5a4d6276174631fcf7975f916110db57506116cd565b6120ad61208e612028611bba565b612039612033610673565b82612536565b612089612044611bf0565b8861204e82611c4a565b5261205881611c4a565b508961206382611c5c565b5261206d81611c5c565b508561207882611c6c565b5261208281611c6c565b508261255e565b612365565b6009546001600160401b0316600b5463ffffffff1690600a549261214d565b9a8b976120d06120bb610316565b8b81526001600160a01b039092166020830152565b8560408201528660608201528260808201528360a08201526120f560c0820160019052565b612107895f52600d60205260405f2090565b611d58565b60405194859485611eba565b0390a4565b612138913d8091833e61213081836102b5565b810190611a19565b5f611f48565b9081602091031261021f575190565b92906020926001600160401b039263ffffffff61218c604051978896879663230e93b160e11b885216600487015260a0602487015260a48601906107ca565b6001604486015292166064840152608483015203815f7f00000000000000000000000000000000000000000000000000000000000000006001600160a01b03165af1908115610d8b575f91612205575b50807f1131472297a800fee664d1d89cfa8f7676ff07189ecc53f80bbb5f4969099db85f80a290565b612226915060203d811161222c575b61221e81836102b5565b81019061213e565b5f6121dc565b503d612214565b604051906122408261027f565b600c82526b31b7b232a637b1b0ba34b7b760a11b6020830152565b604051906122688261027f565b60088252676c616e677561676560c01b6020830152565b60011115611b7757565b604051906122968261027f565b6006825265736f7572636560d01b6020830152565b604051906122b88261027f565b60048252636172677360e01b6020830152565b634e487b7160e01b5f52601160045260245ffd5b5f1981146122ed5760010190565b6122cb565b604051906122ff8261027f565b600f82526e39b2b1b932ba39a637b1b0ba34b7b760891b6020830152565b6040519061232a8261027f565b60078252667365637265747360c81b6020830152565b6040519061234d8261027f565b600982526862797465734172677360b81b6020830152565b61236d612596565b9061237f612379612233565b83612ce8565b61239c815161238d81611b6d565b61239681611b6d565b8361265e565b6123a761237961225b565b6123c160408201516123b88161227f565b6123968161227f565b6123cc612379612289565b6123da606082015183612ce8565b60a081018051516124de575b50608081019081515161245e575b60c0915001805151612407575b50515190565b91612413612379612340565b61241c82612d6c565b5f5b8351805182101561244b579061244161243a8261244694611c7c565b5185612c33565b6122df565b61241e565b5050915061245881612df8565b5f612401565b60208101805161246d81611b6d565b61247681611b6d565b156124cc5760c0926124af6124c7926124966124906122f2565b88612ce8565b516124a081611b6d565b6124a981611b6d565b8661265e565b6124c06124ba61231d565b86612ce8565b5184612c33565b6123f4565b60405163a80d31f760e01b8152600490fd5b926124f06124ea6122ab565b84612ce8565b6124f983612d6c565b5f5b8451805182101561252357906124416125178261251e94611c7c565b5186612ce8565b6124fb565b5050925061253082612df8565b5f6123e6565b81511561254c575f808252604082015260600152565b6040516322ce3edd60e01b8152600490fd5b81511561256b5760a00152565b60405163fe936cb760e01b8152600490fd5b6040519061258a8261027f565b5f602083606081520152565b6040516125a28161027f565b6125aa61257d565b808252602082015f81526125bc61257d565b5061010060208301526040518092525f8252610120820191821061021f575f916040525290565b601f198101919082116122ed57565b90602082018092116122ed57565b919082018092116122ed57565b9061261661257d565b50601f811680612644575b50806020830152604051908183525f8252810160200190811061021f5760405290565b602003602081116122ed5781018091116122ed575f612621565b9081519161266a61257d565b5082515160018101908181116122ed5760208501518110156126c3575b60c2602061032396519283010153805182116126bb575b5050604051916020830152602082526126b68261027f565b612c33565b525f8061269e565b8160011b94828604600214831517156122ed576020816126f5610323986126ee60c29551918461260d565b5082612b7c565b5096505050612687565b908160011b91808304600214901517156122ed57565b61271d61257d565b5080515160018101908181116122ed576020830151811015612756575b605b6020845192830101538051821161275257505090565b5290565b8160011b828104600214831517156122ed5761277f906127788551918661260d565b5084612b7c565b5061273a565b61278d61257d565b5080515160018101908181116122ed5760208301518110156127c2575b605a6020845192830101538051821161275257505090565b8160011b828104600214831517156122ed576127e4906127788551918661260d565b506127aa565b6127f261257d565b5080515160018101908181116122ed576020830151811015612827575b60596020845192830101538051821161275257505090565b8160011b828104600214831517156122ed57612849906127788551918661260d565b5061280f565b61285761257d565b5080515160018101908181116122ed57602083015181101561288c575b60586020845192830101538051821161275257505090565b8160011b828104600214831517156122ed576128ae906127788551918661260d565b50612874565b6128bc61257d565b5080515160018101908181116122ed5760208301518110156128f1575b607b6020845192830101538051821161275257505090565b8160011b828104600214831517156122ed57612913906127788551918661260d565b506128d9565b61292161257d565b5080515160018101908181116122ed576020830151811015612956575b607a6020845192830101538051821161275257505090565b8160011b828104600214831517156122ed57612978906127788551918661260d565b5061293e565b61298661257d565b5080515160018101908181116122ed5760208301518110156129bb575b60796020845192830101538051821161275257505090565b8160011b828104600214831517156122ed576129dd906127788551918661260d565b506129a3565b6129eb61257d565b5080515160018101908181116122ed576020830151811015612a20575b60786020845192830101538051821161275257505090565b8160011b828104600214831517156122ed57612a42906127788551918661260d565b50612a08565b90612a5161257d565b5081515160018101918282116122ed576020840151821015612a84575b6020845192830101538051821161275257505090565b8260011b838104600214841517156122ed57612aad90612aa68651918761260d565b5085612b7c565b50612a6e565b90612ac08251918361260d565b50612ac961257d565b50805190612ad561257d565b50612ae38151831115612c2c565b82515192612af18385612600565b916020928284809401518211612b65575b5183815197820101968211612b5d575b505001915b81811015612b37575f1991036101000a0190811990511690825116179052565b9192612b52612b4c612b5892865181526125f2565b946125f2565b926125e3565b612b17565b525f80612b12565b612b77612b71836126ff565b82612ab3565b612b02565b90612b8561257d565b508051612b9061257d565b50612b9e8251821115612c2c565b82515191612bac8284612600565b6020918291828701518111612c15575b865183815197820101968211612c0d575b505001915b81811015612bf3575f1991036101000a019081199051169082511617905290565b9192612b52612b4c612c0892865181526125f2565b612bd2565b525f80612bcd565b612c27612c21826126ff565b88612ab3565b612bbc565b1561021f57565b8151612c6a9291906001600160401b0381169060178211612c6d57612c629150604060ff845192161790612a48565b505b51612b7c565b50565b5060ff8111612c9257612c8c90612c84835161284f565b508251612fc0565b50612c64565b61ffff8111612cb157612c8c90612ca983516127ea565b508251612f59565b63ffffffff8111612cd257612c8c90612cca8351612785565b508251612ef0565b612c8c90612ce08351612715565b508251612e84565b8151612c6a9291906001600160401b0381169060178211612d1757612c629150606060ff845192161790612a48565b5060ff8111612d2e57612c8c90612c8483516129e3565b61ffff8111612d4557612c8c90612ca9835161297e565b63ffffffff8111612d5e57612c8c90612cca8351612919565b612c8c90612ce083516128b4565b805190612d7761257d565b5081515160018101908181116122ed576020840151811015612dc5575b609f6020809551928301015380518211612dbd575b505001805190600182018092116122ed5752565b525f80612da9565b8160011b93828504600214831517156122ed57602081612dee82976126ee609f9551918461260d565b5095505050612d94565b805190612e0361257d565b5081515160018101908181116122ed576020840151811015612e51575b60ff6020809551928301015380518211612e49575b50500180515f198101919082116122ed5752565b525f80612e35565b8160011b93828504600214831517156122ed57602081612e7a82976126ee60ff9551918461260d565b5095505050612e20565b90612e8d61257d565b508151518060080191826008116122ed5760208401518311612ecf575b6008845192830101906001600160401b03198251161790528051821161275257505090565b8260011b838104600214841517156122ed57612eeb9085612ab3565b612eaa565b90612ef961257d565b508151518060040191826004116122ed5760208401518311612f38575b60048451928301019063ffffffff198251161790528051821161275257505090565b8260011b838104600214841517156122ed57612f549085612ab3565b612f16565b90612f6261257d565b508151518060020191826002116122ed5760208401518311612f9f575b60028451928301019061ffff198251161790528051821161275257505090565b8260011b838104600214841517156122ed57612fbb9085612ab3565b612f7f565b90612fc961257d565b508151518060010191826001116122ed5760208401518311613005575b60018451928301019060ff198251161790528051821161275257505090565b8260011b838104600214841517156122ed576130219085612ab3565b612fe6565b906040516130338161029a565b60c060ff600683958054855260018060a01b03600182015416602086015261305d6002820161070a565b604086015261306e6003820161070a565b606086015261307f6004820161070a565b6080860152600581015460a08601520154161515910152565b1561309f57565b60405162461bcd60e51b815260206004820152600f60248201526e155b9adb9bdddb881c995c5d595cdd608a1b6044820152606490fd5b6130e08154610453565b90816130ea575050565b81601f5f93116001146130fb575055565b90808391825261311a601f60208420940160051c840160018501611141565b5555565b60065f91828155826001820155613137600282016130d6565b613143600382016130d6565b61314f600482016130d6565b8260058201550155565b919082604091031261021f576020825192015190565b949192611ee660e09794611ed8613193949c9b9a979c610100808b528a01906107ca565b9760608501526080840152151560a0830152151560c08201520152565b6131ca6131c5825f52600d60205260405f2090565b613026565b926131e06131db60c0860151151590565b613098565b6131fa6131f5835f52600d60205260405f2090565b61311e565b80516133d95750613215602092838082518301019101613159565b91909382151592836133ce575b6001549394929361327a9390613240906001600160a01b0316610941565b835182850180516040516352b8bd2360e11b815260048101939093526001600160a01b031660248301529790958390879081906044820190565b0381855afa908115610d8b5788612118947f7d72a47abc6e4d5d2b8923454ebb1ca42ae524b52ff1e35739bbb96580f12ca8985f946133af575b505f9483806133a8575b6132f5575b50508651995160408089015160608a01516080909a015191516001600160a01b039093169d92998a999450908961316f565b8851925160a08a0151604051636536fabb60e01b815260048101959095526001600160a01b039091166024850152604484015281908390606490829089905af19182918693613389575b50506133825750855189516001600160a01b031690897f731328e429d00b4d00c6b6136c81ca932cf1e2c068dbcd3cc800d6ce7e5d914d5f80a45b885f806132c3565b925061337a565b6133a0929350803d1061222c5761221e81836102b5565b905f8061333f565b50846132be565b816133c79295503d8611611102576110f481836102b5565b925f6132b4565b808610159350613222565b61340e9193507fe69c818c088485a993a95be2d0dc41c93570d7a322c941c98a32a234235b33ff925060405191829182610ae6565b0390a2565b1561341a57565b60405162461bcd60e51b815260206004820152600e60248201526d139bdd08185d5d1a1bdc9a5e995960921b6044820152606490fdfea2646970667358221220f94d9b2bf32ee6ee488f87df6297fdc98de363ef9a9f6568a2f571baff83674764736f6c63430008140033b6b204db04670974c4729ff9da54706816ab9cce3713f19a6940d84302f46b04ada7c059d03027c2d19603401220dcab0db47516c3cb26f0ee1218a123b1548f",
  "linkReferences": {},
  "deployedLinkReferences": {},
  "immutableReferences": {
    "17": [
      {
        "length": 32,
        "start": 995
      },
      {
        "length": 32,
        "start": 8612
      }
    ]
  },
  "inputSourceName": "project/contracts/SubsidyPayoutOracleConsumer.sol",
  "buildInfoId": "solc-0_8_20-bcabb80e5b7119c92a43f6d59e89f2414a4af05c"
}