{
  "_format": "hh3-artifact-1",
  "contractName": "SubsidyPayout",
  "sourceName": "contracts/SubsidyPayout.sol",
  "abi": [
    {
      "inputs": [
        {
          "internalType": "address",
          "name": "initialOracle",
          "type": "address"
        }
      ],
      "stateMutability": "nonpayable",
      "type": "constructor"
    },
    {
      "anonymous": false,
      "inputs": [
        {
          "indexed": true,
          "internalType": "uint256",
          "name": "claimId",
          "type": "uint256"
        },
        {
          "indexed": true,
          "internalType": "uint256",
          "name": "programsId",
          "type": "uint256"
        },
        {
          "indexed": true,
          "internalType": "address",
          "name": "farmer",
          "type": "address"
        }
      ],
      "name": "AutoClaimCreated",
      "type": "event"
    },
    {
      "anonymous": false,
      "inputs": [
        {
          "indexed": true,
          "internalType": "uint256",
          "name": "claimId",
          "type": "uint256"
        },
        {
          "indexed": true,
          "internalType": "uint256",
          "name": "programsId",
          "type": "uint256"
        },
        {
          "indexed": true,
          "internalType": "address",
          "name": "farmer",
          "type": "address"
        },
        {
          "indexed": false,
          "internalType": "uint256",
          "name": "amount",
          "type": "uint256"
        }
      ],
      "name": "ClaimApproved",
      "type": "event"
    },
    {
      "anonymous": false,
      "inputs": [
        {
          "indexed": true,
          "internalType": "uint256",
          "name": "claimId",
          "type": "uint256"
        },
        {
          "indexed": true,
          "internalType": "uint256",
          "name": "programsId",
          "type": "uint256"
        },
        {
          "indexed": true,
          "internalType": "address",
          "name": "farmer",
          "type": "address"
        },
        {
          "indexed": false,
          "internalType": "uint256",
          "name": "amount",
          "type": "uint256"
        }
      ],
      "name": "ClaimPaid",
      "type": "event"
    },
    {
      "anonymous": false,
      "inputs": [
        {
          "indexed": true,
          "internalType": "uint256",
          "name": "claimId",
          "type": "uint256"
        },
        {
          "indexed": true,
          "internalType": "uint256",
          "name": "programsId",
          "type": "uint256"
        },
        {
          "indexed": true,
          "internalType": "address",
          "name": "farmer",
          "type": "address"
        },
        {
          "indexed": false,
          "internalType": "string",
          "name": "reason",
          "type": "string"
        }
      ],
      "name": "ClaimRejected",
      "type": "event"
    },
    {
      "anonymous": false,
      "inputs": [
        {
          "indexed": true,
          "internalType": "uint256",
          "name": "claimId",
          "type": "uint256"
        },
        {
          "indexed": true,
          "internalType": "uint256",
          "name": "programsId",
          "type": "uint256"
        },
        {
          "indexed": true,
          "internalType": "address",
          "name": "farmer",
          "type": "address"
        },
        {
          "indexed": false,
          "internalType": "uint256",
          "name": "amount",
          "type": "uint256"
        },
        {
          "indexed": false,
          "internalType": "bytes32",
          "name": "metadataHash",
          "type": "bytes32"
        }
      ],
      "name": "ClaimSubmitted",
      "type": "event"
    },
    {
      "anonymous": false,
      "inputs": [
        {
          "indexed": true,
          "internalType": "address",
          "name": "agency",
          "type": "address"
        },
        {
          "indexed": false,
          "internalType": "uint256",
          "name": "amount",
          "type": "uint256"
        }
      ],
      "name": "ContractFunded",
      "type": "event"
    },
    {
      "anonymous": false,
      "inputs": [
        {
          "indexed": true,
          "internalType": "uint256",
          "name": "programsId",
          "type": "uint256"
        }
      ],
      "name": "EligibilityUpdated",
      "type": "event"
    },
    {
      "anonymous": false,
      "inputs": [
        {
          "indexed": true,
          "internalType": "address",
          "name": "farmer",
          "type": "address"
        },
        {
          "indexed": true,
          "internalType": "uint256",
          "name": "programsId",
          "type": "uint256"
        }
      ],
      "name": "FarmerEnrolled",
      "type": "event"
    },
    {
      "anonymous": false,
      "inputs": [
        {
          "indexed": true,
          "internalType": "address",
          "name": "from",
          "type": "address"
        },
        {
          "indexed": false,
          "internalType": "uint256",
          "name": "amount",
          "type": "uint256"
        }
      ],
      "name": "FundsDeposited",
      "type": "event"
    },
    {
      "anonymous": false,
      "inputs": [
        {
          "indexed": true,
          "internalType": "address",
          "name": "account",
          "type": "address"
        }
      ],
      "name": "GovernmentRoleGranted",
      "type": "event"
    },
    {
      "anonymous": false,
      "inputs": [
        {
          "indexed": true,
          "internalType": "address",
          "name": "account",
          "type": "address"
        }
      ],
      "name": "GovernmentRoleRevoked",
      "type": "event"
    },
    {
      "anonymous": false,
      "inputs": [
        {
          "indexed": true,
          "internalType": "address",
          "name": "oracle",
          "type": "address"
        }
      ],
      "name": "OracleUpdated",
      "type": "event"
    },
    {
      "anonymous": false,
      "inputs": [
        {
          "indexed": true,
          "internalType": "address",
          "name": "owner",
          "type": "address"
        }
      ],
      "name": "OwnerUpdated",
      "type": "event"
    },
    {
      "anonymous": false,
      "inputs": [
        {
          "indexed": true,
          "internalType": "uint256",
          "name": "programsId",
          "type": "uint256"
        },
        {
          "indexed": false,
          "internalType": "string",
          "name": "name",
          "type": "string"
        },
        {
          "indexed": false,
          "internalType": "enum SubsidyPayout.ProgramType",
          "name": "programsType",
          "type": "uint8"
        },
        {
          "indexed": false,
          "internalType": "enum SubsidyPayout.ProgramStatus",
          "name": "status",
          "type": "uint8"
        },
        {
          "indexed": false,
          "internalType": "uint256",
          "name": "startDate",
          "type": "uint256"
        },
        {
          "indexed": false,
          "internalType": "uint256",
          "name": "endDate",
          "type": "uint256"
        },
        {
          "indexed": false,
          "internalType": "bytes32",
          "name": "metadataHash",
          "type": "bytes32"
        },
        {
          "indexed": false,
          "internalType": "uint256",
          "name": "payoutAmount",
          "type": "uint256"
        },
        {
          "indexed": false,
          "internalType": "uint256",
          "name": "payoutMaxCap",
          "type": "uint256"
        }
      ],
      "name": "ProgramCreated",
      "type": "event"
    },
    {
      "anonymous": false,
      "inputs": [
        {
          "indexed": true,
          "internalType": "uint256",
          "name": "programsId",
          "type": "uint256"
        },
        {
          "indexed": false,
          "internalType": "enum SubsidyPayout.ProgramStatus",
          "name": "status",
          "type": "uint8"
        }
      ],
      "name": "ProgramStatusUpdated",
      "type": "event"
    },
    {
      "anonymous": false,
      "inputs": [
        {
          "indexed": true,
          "internalType": "uint256",
          "name": "programsId",
          "type": "uint256"
        },
        {
          "indexed": false,
          "internalType": "uint256",
          "name": "payoutAmount",
          "type": "uint256"
        },
        {
          "indexed": false,
          "internalType": "uint256",
          "name": "payoutMaxCap",
          "type": "uint256"
        }
      ],
      "name": "ProgramUpdated",
      "type": "event"
    },
    {
      "inputs": [
        {
          "internalType": "address",
          "name": "",
          "type": "address"
        }
      ],
      "name": "agencyFunds",
      "outputs": [
        {
          "internalType": "uint256",
          "name": "",
          "type": "uint256"
        }
      ],
      "stateMutability": "view",
      "type": "function"
    },
    {
      "inputs": [
        {
          "internalType": "uint256",
          "name": "claimId",
          "type": "uint256"
        }
      ],
      "name": "approveAndPayout",
      "outputs": [],
      "stateMutability": "nonpayable",
      "type": "function"
    },
    {
      "inputs": [
        {
          "internalType": "uint256",
          "name": "claimId",
          "type": "uint256"
        }
      ],
      "name": "approveClaim",
      "outputs": [],
      "stateMutability": "nonpayable",
      "type": "function"
    },
    {
      "inputs": [
        {
          "internalType": "uint256",
          "name": "programsId",
          "type": "uint256"
        },
        {
          "internalType": "address",
          "name": "farmer",
          "type": "address"
        },
        {
          "internalType": "bytes32",
          "name": "metadataHash",
          "type": "bytes32"
        }
      ],
      "name": "autoCreateClaim",
      "outputs": [
        {
          "internalType": "uint256",
          "name": "claimId",
          "type": "uint256"
        }
      ],
      "stateMutability": "nonpayable",
      "type": "function"
    },
    {
      "inputs": [
        {
          "internalType": "uint256",
          "name": "",
          "type": "uint256"
        }
      ],
      "name": "claims",
      "outputs": [
        {
          "internalType": "uint256",
          "name": "programsId",
          "type": "uint256"
        },
        {
          "internalType": "address",
          "name": "farmer",
          "type": "address"
        },
        {
          "internalType": "uint256",
          "name": "amount",
          "type": "uint256"
        },
        {
          "internalType": "enum SubsidyPayout.ClaimStatus",
          "name": "status",
          "type": "uint8"
        },
        {
          "internalType": "bytes32",
          "name": "metadataHash",
          "type": "bytes32"
        },
        {
          "internalType": "uint256",
          "name": "submittedAt",
          "type": "uint256"
        },
        {
          "internalType": "string",
          "name": "rejectionReason",
          "type": "string"
        }
      ],
      "stateMutability": "view",
      "type": "function"
    },
    {
      "inputs": [
        {
          "internalType": "string",
          "name": "name",
          "type": "string"
        },
        {
          "internalType": "string",
          "name": "description",
          "type": "string"
        },
        {
          "internalType": "enum SubsidyPayout.ProgramType",
          "name": "programsType",
          "type": "uint8"
        },
        {
          "internalType": "enum SubsidyPayout.ProgramStatus",
          "name": "status",
          "type": "uint8"
        },
        {
          "internalType": "uint256",
          "name": "startDate",
          "type": "uint256"
        },
        {
          "internalType": "uint256",
          "name": "endDate",
          "type": "uint256"
        },
        {
          "internalType": "string",
          "name": "createdBy",
          "type": "string"
        },
        {
          "internalType": "bytes32",
          "name": "metadataHash",
          "type": "bytes32"
        },
        {
          "components": [
            {
              "internalType": "uint256",
              "name": "amount",
              "type": "uint256"
            },
            {
              "internalType": "uint256",
              "name": "maxCap",
              "type": "uint256"
            }
          ],
          "internalType": "struct SubsidyPayout.PayoutRule",
          "name": "payoutRule",
          "type": "tuple"
        },
        {
          "components": [
            {
              "internalType": "bool",
              "name": "hasMinFarmSize",
              "type": "bool"
            },
            {
              "internalType": "bool",
              "name": "hasMaxFarmSize",
              "type": "bool"
            },
            {
              "internalType": "uint256",
              "name": "minFarmSize",
              "type": "uint256"
            },
            {
              "internalType": "uint256",
              "name": "maxFarmSize",
              "type": "uint256"
            },
            {
              "internalType": "string[]",
              "name": "states",
              "type": "string[]"
            },
            {
              "internalType": "string[]",
              "name": "districts",
              "type": "string[]"
            },
            {
              "internalType": "string[]",
              "name": "cropTypes",
              "type": "string[]"
            },
            {
              "internalType": "string[]",
              "name": "certifications",
              "type": "string[]"
            }
          ],
          "internalType": "struct SubsidyPayout.Eligibility",
          "name": "eligibility",
          "type": "tuple"
        }
      ],
      "name": "createProgram",
      "outputs": [
        {
          "internalType": "uint256",
          "name": "programsId",
          "type": "uint256"
        }
      ],
      "stateMutability": "nonpayable",
      "type": "function"
    },
    {
      "inputs": [],
      "name": "deposit",
      "outputs": [],
      "stateMutability": "payable",
      "type": "function"
    },
    {
      "inputs": [
        {
          "internalType": "uint256",
          "name": "programsId",
          "type": "uint256"
        }
      ],
      "name": "enrollInProgram",
      "outputs": [],
      "stateMutability": "nonpayable",
      "type": "function"
    },
    {
      "inputs": [
        {
          "internalType": "address",
          "name": "",
          "type": "address"
        },
        {
          "internalType": "uint256",
          "name": "",
          "type": "uint256"
        }
      ],
      "name": "enrolledPrograms",
      "outputs": [
        {
          "internalType": "uint256",
          "name": "",
          "type": "uint256"
        }
      ],
      "stateMutability": "view",
      "type": "function"
    },
    {
      "inputs": [
        {
          "internalType": "address",
          "name": "agency",
          "type": "address"
        }
      ],
      "name": "getAgencyBalance",
      "outputs": [
        {
          "internalType": "uint256",
          "name": "",
          "type": "uint256"
        }
      ],
      "stateMutability": "view",
      "type": "function"
    },
    {
      "inputs": [
        {
          "internalType": "uint256",
          "name": "claimId",
          "type": "uint256"
        }
      ],
      "name": "getClaim",
      "outputs": [
        {
          "components": [
            {
              "internalType": "uint256",
              "name": "programsId",
              "type": "uint256"
            },
            {
              "internalType": "address",
              "name": "farmer",
              "type": "address"
            },
            {
              "internalType": "uint256",
              "name": "amount",
              "type": "uint256"
            },
            {
              "internalType": "enum SubsidyPayout.ClaimStatus",
              "name": "status",
              "type": "uint8"
            },
            {
              "internalType": "bytes32",
              "name": "metadataHash",
              "type": "bytes32"
            },
            {
              "internalType": "uint256",
              "name": "submittedAt",
              "type": "uint256"
            },
            {
              "internalType": "string",
              "name": "rejectionReason",
              "type": "string"
            }
          ],
          "internalType": "struct SubsidyPayout.Claim",
          "name": "",
          "type": "tuple"
        }
      ],
      "stateMutability": "view",
      "type": "function"
    },
    {
      "inputs": [
        {
          "internalType": "uint256",
          "name": "programsId",
          "type": "uint256"
        }
      ],
      "name": "getProgram",
      "outputs": [
        {
          "components": [
            {
              "internalType": "string",
              "name": "name",
              "type": "string"
            },
            {
              "internalType": "string",
              "name": "description",
              "type": "string"
            },
            {
              "internalType": "enum SubsidyPayout.ProgramType",
              "name": "programsType",
              "type": "uint8"
            },
            {
              "internalType": "enum SubsidyPayout.ProgramStatus",
              "name": "status",
              "type": "uint8"
            },
            {
              "internalType": "uint256",
              "name": "startDate",
              "type": "uint256"
            },
            {
              "internalType": "uint256",
              "name": "endDate",
              "type": "uint256"
            },
            {
              "internalType": "string",
              "name": "createdBy",
              "type": "string"
            },
            {
              "internalType": "bytes32",
              "name": "metadataHash",
              "type": "bytes32"
            },
            {
              "components": [
                {
                  "internalType": "uint256",
                  "name": "amount",
                  "type": "uint256"
                },
                {
                  "internalType": "uint256",
                  "name": "maxCap",
                  "type": "uint256"
                }
              ],
              "internalType": "struct SubsidyPayout.PayoutRule",
              "name": "payoutRule",
              "type": "tuple"
            },
            {
              "components": [
                {
                  "internalType": "bool",
                  "name": "hasMinFarmSize",
                  "type": "bool"
                },
                {
                  "internalType": "bool",
                  "name": "hasMaxFarmSize",
                  "type": "bool"
                },
                {
                  "internalType": "uint256",
                  "name": "minFarmSize",
                  "type": "uint256"
                },
                {
                  "internalType": "uint256",
                  "name": "maxFarmSize",
                  "type": "uint256"
                },
                {
                  "internalType": "string[]",
                  "name": "states",
                  "type": "string[]"
                },
                {
                  "internalType": "string[]",
                  "name": "districts",
                  "type": "string[]"
                },
                {
                  "internalType": "string[]",
                  "name": "cropTypes",
                  "type": "string[]"
                },
                {
                  "internalType": "string[]",
                  "name": "certifications",
                  "type": "string[]"
                }
              ],
              "internalType": "struct SubsidyPayout.Eligibility",
              "name": "eligibility",
              "type": "tuple"
            },
            {
              "internalType": "uint256",
              "name": "totalDisbursed",
              "type": "uint256"
            }
          ],
          "internalType": "struct SubsidyPayout.Program",
          "name": "",
          "type": "tuple"
        }
      ],
      "stateMutability": "view",
      "type": "function"
    },
    {
      "inputs": [
        {
          "internalType": "address",
          "name": "account",
          "type": "address"
        }
      ],
      "name": "grantGovernmentRole",
      "outputs": [],
      "stateMutability": "nonpayable",
      "type": "function"
    },
    {
      "inputs": [
        {
          "internalType": "uint256",
          "name": "",
          "type": "uint256"
        },
        {
          "internalType": "address",
          "name": "",
          "type": "address"
        }
      ],
      "name": "isFarmerEnrolled",
      "outputs": [
        {
          "internalType": "bool",
          "name": "",
          "type": "bool"
        }
      ],
      "stateMutability": "view",
      "type": "function"
    },
    {
      "inputs": [
        {
          "internalType": "address",
          "name": "",
          "type": "address"
        }
      ],
      "name": "isGovernment",
      "outputs": [
        {
          "internalType": "bool",
          "name": "",
          "type": "bool"
        }
      ],
      "stateMutability": "view",
      "type": "function"
    },
    {
      "inputs": [],
      "name": "nextClaimId",
      "outputs": [
        {
          "internalType": "uint256",
          "name": "",
          "type": "uint256"
        }
      ],
      "stateMutability": "view",
      "type": "function"
    },
    {
      "inputs": [],
      "name": "nextProgramId",
      "outputs": [
        {
          "internalType": "uint256",
          "name": "",
          "type": "uint256"
        }
      ],
      "stateMutability": "view",
      "type": "function"
    },
    {
      "inputs": [],
      "name": "oracle",
      "outputs": [
        {
          "internalType": "address",
          "name": "",
          "type": "address"
        }
      ],
      "stateMutability": "view",
      "type": "function"
    },
    {
      "inputs": [],
      "name": "owner",
      "outputs": [
        {
          "internalType": "address",
          "name": "",
          "type": "address"
        }
      ],
      "stateMutability": "view",
      "type": "function"
    },
    {
      "inputs": [
        {
          "internalType": "uint256",
          "name": "",
          "type": "uint256"
        }
      ],
      "name": "programs",
      "outputs": [
        {
          "internalType": "string",
          "name": "name",
          "type": "string"
        },
        {
          "internalType": "string",
          "name": "description",
          "type": "string"
        },
        {
          "internalType": "enum SubsidyPayout.ProgramType",
          "name": "programsType",
          "type": "uint8"
        },
        {
          "internalType": "enum SubsidyPayout.ProgramStatus",
          "name": "status",
          "type": "uint8"
        },
        {
          "internalType": "uint256",
          "name": "startDate",
          "type": "uint256"
        },
        {
          "internalType": "uint256",
          "name": "endDate",
          "type": "uint256"
        },
        {
          "internalType": "string",
          "name": "createdBy",
          "type": "string"
        },
        {
          "internalType": "bytes32",
          "name": "metadataHash",
          "type": "bytes32"
        },
        {
          "components": [
            {
              "internalType": "uint256",
              "name": "amount",
              "type": "uint256"
            },
            {
              "internalType": "uint256",
              "name": "maxCap",
              "type": "uint256"
            }
          ],
          "internalType": "struct SubsidyPayout.PayoutRule",
          "name": "payoutRule",
          "type": "tuple"
        },
        {
          "components": [
            {
              "internalType": "bool",
              "name": "hasMinFarmSize",
              "type": "bool"
            },
            {
              "internalType": "bool",
              "name": "hasMaxFarmSize",
              "type": "bool"
            },
            {
              "internalType": "uint256",
              "name": "minFarmSize",
              "type": "uint256"
            },
            {
              "internalType": "uint256",
              "name": "maxFarmSize",
              "type": "uint256"
            },
            {
              "internalType": "string[]",
              "name": "states",
              "type": "string[]"
            },
            {
              "internalType": "string[]",
              "name": "districts",
              "type": "string[]"
            },
            {
              "internalType": "string[]",
              "name": "cropTypes",
              "type": "string[]"
            },
            {
              "internalType": "string[]",
              "name": "certifications",
              "type": "string[]"
            }
          ],
          "internalType": "struct SubsidyPayout.Eligibility",
          "name": "eligibility",
          "type": "tuple"
        },
        {
          "internalType": "uint256",
          "name": "totalDisbursed",
          "type": "uint256"
        }
      ],
      "stateMutability": "view",
      "type": "function"
    },
    {
      "inputs": [
        {
          "internalType": "uint256",
          "name": "claimId",
          "type": "uint256"
        },
        {
          "internalType": "string",
          "name": "reason",
          "type": "string"
        }
      ],
      "name": "rejectClaim",
      "outputs": [],
      "stateMutability": "nonpayable",
      "type": "function"
    },
    {
      "inputs": [
        {
          "internalType": "address",
          "name": "account",
          "type": "address"
        }
      ],
      "name": "revokeGovernmentRole",
      "outputs": [],
      "stateMutability": "nonpayable",
      "type": "function"
    },
    {
      "inputs": [
        {
          "internalType": "uint256",
          "name": "programsId",
          "type": "uint256"
        },
        {
          "internalType": "bytes32",
          "name": "metadataHash",
          "type": "bytes32"
        }
      ],
      "name": "submitClaim",
      "outputs": [
        {
          "internalType": "uint256",
          "name": "claimId",
          "type": "uint256"
        }
      ],
      "stateMutability": "nonpayable",
      "type": "function"
    },
    {
      "inputs": [
        {
          "internalType": "uint256",
          "name": "programsId",
          "type": "uint256"
        },
        {
          "components": [
            {
              "internalType": "bool",
              "name": "hasMinFarmSize",
              "type": "bool"
            },
            {
              "internalType": "bool",
              "name": "hasMaxFarmSize",
              "type": "bool"
            },
            {
              "internalType": "uint256",
              "name": "minFarmSize",
              "type": "uint256"
            },
            {
              "internalType": "uint256",
              "name": "maxFarmSize",
              "type": "uint256"
            },
            {
              "internalType": "string[]",
              "name": "states",
              "type": "string[]"
            },
            {
              "internalType": "string[]",
              "name": "districts",
              "type": "string[]"
            },
            {
              "internalType": "string[]",
              "name": "cropTypes",
              "type": "string[]"
            },
            {
              "internalType": "string[]",
              "name": "certifications",
              "type": "string[]"
            }
          ],
          "internalType": "struct SubsidyPayout.Eligibility",
          "name": "eligibility",
          "type": "tuple"
        }
      ],
      "name": "updateEligibility",
      "outputs": [],
      "stateMutability": "nonpayable",
      "type": "function"
    },
    {
      "inputs": [
        {
          "internalType": "address",
          "name": "newOracle",
          "type": "address"
        }
      ],
      "name": "updateOracle",
      "outputs": [],
      "stateMutability": "nonpayable",
      "type": "function"
    },
    {
      "inputs": [
        {
          "internalType": "address",
          "name": "newOwner",
          "type": "address"
        }
      ],
      "name": "updateOwner",
      "outputs": [],
      "stateMutability": "nonpayable",
      "type": "function"
    },
    {
      "inputs": [
        {
          "internalType": "uint256",
          "name": "programsId",
          "type": "uint256"
        },
        {
          "components": [
            {
              "internalType": "uint256",
              "name": "amount",
              "type": "uint256"
            },
            {
              "internalType": "uint256",
              "name": "maxCap",
              "type": "uint256"
            }
          ],
          "internalType": "struct SubsidyPayout.PayoutRule",
          "name": "payoutRule",
          "type": "tuple"
        }
      ],
      "name": "updatePayoutRule",
      "outputs": [],
      "stateMutability": "nonpayable",
      "type": "function"
    },
    {
      "inputs": [
        {
          "internalType": "uint256",
          "name": "programsId",
          "type": "uint256"
        },
        {
          "internalType": "enum SubsidyPayout.ProgramStatus",
          "name": "status",
          "type": "uint8"
        }
      ],
      "name": "updateProgramStatus",
      "outputs": [],
      "stateMutability": "nonpayable",
      "type": "function"
    },
    {
      "stateMutability": "payable",
      "type": "receive"
    }
  ],
  "bytecode": "0x60803461010b57601f61294338819003918201601f19168301916001600160401b0383118484101761010f5780849260209460405283398101031261010b57516001600160a01b0381169081900361010b576001600355600160045560018060a01b031990805f923381855416178455338452600260205260408420600160ff1982541617905560015416176001557f3df77beb5db05fcdd70a30fc8adf3f83f9501b68579455adbd100b818094039460405192337f4ffd725fc4a22075e9ec71c59edf9c38cdeb588a91b24fc5b61388c5be41282b8280a2337f06b7e73b864eee3b44819c423de068a65e4ab0266e23e5b6dd94442347d55cad8280a280a261281f90816101248239f35b5f80fd5b634e487b7160e01b5f52604160045260245ffdfe6080604052600436101561008b575b3615610018575f80fd5b335f52600960205260405f2061002f3482546120e7565b90556040513481527f0939f6f4877faf071412e527bc4c6d0bd65ad077e52b57334f7765265647a7f160203392a26040513481527f543ba50a5eec5e6178218e364b1d0f396157b3c8fa278522c2cb7fd99407d47460203392a2005b5f3560e01c806319700eda14611aaf5780631cb44dfc14611a0b5780633577a5ad146119505780633bebc051146118d857806346e30135146116d85780635aef2447146115c0578063644d72b9146113115780636536fabb1461101a5780636c2b04fd14610fdd5780637dc0d1d014610fb5578063880cdc3114610f135780638da5cb5b14610eec57806392db281614610dd2578063998970ac14610d09578063a0021cf114610cec578063a0c222b414610a85578063a5717a4614610a3c578063a888c2cd146109a5578063b6d9cd1e1461094e578063b7a36572146108c7578063ba71b330146108aa578063bf62d3c9146107a5578063c3ecf8971461055c578063cc8fd31414610524578063cf965b6914610524578063d0e30db0146104ce578063d23c617e146104125763e7484b5c0361000e573461040e5760208060031936011261040e57600154600435916001600160a01b0391821633148015610402575b6101f9906123c9565b600a549261020a60ff851615612402565b600160ff1980951617600a55805f526006825260405f20916003830193600160ff86541661023781611c9b565b036103ce5783545f526005825260405f209447600286019661025d885480931015612443565b60ff600282015460081c1660038110156103ba57600161027d91146122d8565b600881015480610365575b5060106102a49161029b84471015612443565b019182546120e7565b905560038782541617905560018401935f808080858954168a54905af13d15610360573d6102d181612396565b906102df6040519283611da4565b81525f853d92013e5b1561032957907fe126a82946b3a6f5969d735bc2da134b26667bbdb0818d872a70cd8aee56b0fc9291549454169454604051908152a4600a5416600a555f80f35b60405162461bcd60e51b815260048101849052600f60248201526e151c985b9cd9995c8819985a5b1959608a1b6044820152606490fd5b6102e8565b6103738360108401546120e7565b1161037e575f610288565b60405162461bcd60e51b8152600481018690526014602482015273141c9bd9dc985b4818d85c08195e18d95959195960621b6044820152606490fd5b634e487b7160e01b5f52602160045260245ffd5b60405162461bcd60e51b815260048101839052600c60248201526b139bdd08185c1c1c9bdd995960a21b6044820152606490fd5b505f54821633146101f0565b5f80fd5b3461040e5760031960403682011261040e5760043590602435906001600160401b03821161040e5761010090823603011261040e576104a890825f526005602052600960405f209161046e6104678454611ce3565b151561229a565b61047a600c8401612769565b610486600d8401612769565b610492600e8401612769565b61049e600f8401612769565b60040191016125db565b7f2ab80980f0eef9858eb5302d23051163010f1aede064abfb6140086c098c2b5e5f80a2005b5f36600319011261040e5734156104f657335f52600960205260405f2061002f3482546120e7565b60405162461bcd60e51b815260206004820152600660248201526509cde408aa8960d31b6044820152606490fd5b3461040e57602036600319011261040e576001600160a01b03610545611c42565b165f526009602052602060405f2054604051908152f35b3461040e57602036600319011261040e575f61014060405161057d81611d36565b60608152606060208201528260408201528260608201528260808201528260a0820152606060c08201528260e08201526040516105b981611d52565b8381528360208201526101008201526040516105d481611d6d565b83815283602082015283604082015283606082015260606080820152606060a0820152606060c0820152606060e082015261012082015201526004355f52600560205260405f206040519061062882611d36565b61063181611dc5565b825261063f60018201611dc5565b602083015260ff600282015481811661065781611c9b565b604085015260081c169060038210156103ba57601091606084015260038101546080840152600481015460a084015261069260058201611dc5565b60c0840152600681015460e08401526106ad60078201611e66565b6101008401526106bf60098201611ee2565b610120840152015461014082015260405180916020825261014061079861075f6107106106fa855161018060208901526101a0880190611ca5565b6020860151878203601f19016040890152611ca5565b604085015161071e81611c9b565b606087015261073560608601516080880190611f60565b608085015160a087015260a085015160c087015260c0850151601f198783030160e0880152611ca5565b60e084015161010086015260206101008501518051610120880152015183860152610120840151601f1986830301610160870152611fc8565b9101516101808301520390f35b3461040e57602036600319011261040e576107be611c42565b5f546001600160a01b03908116916107d7338414612074565b16906107e48215156120ac565b811461086f57805f52600260205260ff60405f2054161561083957805f52600260205260405f2060ff1981541690557f356c02df5f27e0e70ccc1fe4d9fdce0ac870948ebc6b824e6169812b4ec6c6165f80a2005b60405162461bcd60e51b815260206004820152600e60248201526d139bdd0819dbdd995c9b9b595b9d60921b6044820152606490fd5b60405162461bcd60e51b815260206004820152601360248201527221b0b73737ba103932bb37b5b29037bbb732b960691b6044820152606490fd5b3461040e575f36600319011261040e576020600354604051908152f35b3461040e57606036600319011261040e57600435604036602319011261040e57805f5260056020527fae39d9d6b7241a27f43670effb759a4f874fb2441335e82a5298a367763798e16040805f206109226104678254611ce3565b6008602435916109338315156120f4565b826007820155604435918291015582519182526020820152a2005b3461040e57604036600319011261040e57610967611c42565b6001600160a01b03165f9081526007602052604090208054602435919082101561040e576020916109979161204b565b90546040519160031b1c8152f35b3461040e57602036600319011261040e576004355f52600660205260405f208054610a3860018060a01b036001840154169260028101549060ff6003820154166004820154906109fc600660058501549401611dc5565b93604051978897885260208801526040870152610a1881611c9b565b6060860152608085015260a084015260e060c084015260e0830190611ca5565b0390f35b3461040e57604036600319011261040e57610a55611c58565b6004355f52600860205260405f209060018060a01b03165f52602052602060ff60405f2054166040519015158152f35b3461040e57604036600319011261040e5760043560243590805f526020916005835260405f2091610ab96104678454611ce3565b60ff600284015460081c1660038110156103ba57600793610add60018093146122d8565b600381015442101580610cde575b610af490612317565b825f526008865260405f20335f528652610b1460ff60405f205416612354565b600454948591610b2383612135565b6004550191600683548860405191610b3a83611d1b565b878352610bc6828401913383526040850190815260608501905f825260808601938c85528760a08801964288526040519b610b748d611d89565b5f8d5260c08a019c8d525f525260405f20965187558887019060018060a01b039051166bffffffffffffffffffffffff60a01b82541617905551600286015551610bbd81611c9b565b600385016123b1565b5160048301555160058201550191518051906001600160401b038211610cca57610bfa82610bf48654611ce3565b86612159565b8890601f8311600114610c6b579282939183925f94610c60575b50501b915f199060031b1c19161790555b549160405192835284830152827f5a5cab0ce7e50ff4a469602322193052db5a543b8ca05e6ecf08ad55084ff30a60403394a4604051908152f35b015192508a80610c14565b90601f19831691855f52838b5f20935f5b8d88838310610cb35750505010610c9b575b505050811b019055610c25565b01515f1960f88460031b161c19169055888080610c8e565b868601518855909601959485019487935001610c7c565b634e487b7160e01b5f52604160045260245ffd5b506004810154421115610aeb565b3461040e575f36600319011261040e576020600454604051908152f35b3461040e57602036600319011261040e57610d22611c42565b5f546001600160a01b039190610d3b9083163314612074565b16610d478115156120ac565b805f52600260205260ff60405f205416610d9857805f52600260205260405f20600160ff198254161790557f06b7e73b864eee3b44819c423de068a65e4ab0266e23e5b6dd94442347d55cad5f80a2005b60405162461bcd60e51b8152602060048201526012602482015271105b1c9958591e4819dbdd995c9b9b595b9d60721b6044820152606490fd5b3461040e57602036600319011261040e576004355f52600560205260405f20610dfa81611dc5565b610e0660018301611dc5565b9160028101549060ff8216600382015460048301549160058401610e2990611dc5565b9060068501549360078601610e3d90611e66565b93610e4a60098801611ee2565b9660100154976040519a8b9a610180808d528c01610e6791611ca5565b8b810360208d0152610e7891611ca5565b93610e8281611c9b565b60408b015260608a019060081c60ff1690610e9c91611f60565b608089015260a088015286810360c0880152610eb791611ca5565b9160e0860152805161010086015260200151610120850152838103610140850152610ee191611fc8565b906101608301520390f35b3461040e575f36600319011261040e575f546040516001600160a01b039091168152602090f35b3461040e57602036600319011261040e57610f2c611c42565b5f54906001600160a01b0390610f453383851614612074565b16908115610f83576001600160a01b03191681175f9081557f4ffd725fc4a22075e9ec71c59edf9c38cdeb588a91b24fc5b61388c5be41282b9080a2005b60405162461bcd60e51b815260206004820152600a6024820152692d32b9379037bbb732b960b11b6044820152606490fd5b3461040e575f36600319011261040e576001546040516001600160a01b039091168152602090f35b3461040e57602036600319011261040e576001600160a01b03610ffe611c42565b165f526002602052602060ff60405f2054166040519015158152f35b3461040e57606036600319011261040e57600435611036611c58565b600180549092916001600160a01b039160443590831633148015611305575b61105e906123c9565b835f526020946005865260405f209361107a6104678654611ce3565b60ff600286015460081c169260038410156103ba5761109b838995146122d8565b6003860154421015806112f7575b6110b290612317565b865f52600884528160405f20951694855f52845260405f205460ff166110d790612354565b600454956110e487612135565b60045560070191825490604051916110fb83611d1b565b898352868301908882526040840190815260608401905f8252608085019286845260a08601944286526040519a6111318c611d89565b5f8c5260c088019b8c528d5f526006905260405f20965187558987019151166bffffffffffffffffffffffff60a01b8254161790555160028501555161117681611c9b565b61118390600385016123b1565b5160048301555160058201556006019351918251946001600160401b038611610cca5785899589956111ba8a99610bf48654611ce3565b8c90601f841160011461124f5792807f5a5cab0ce7e50ff4a469602322193052db5a543b8ca05e6ecf08ad55084ff30a9795938193604098965f94611244575b50501b915f199060031b1c19161790555b549082519182528a820152a460405192827fa0ae011a7e92dd1401f20d322e6cea9fd114ca02abaf366d067e86d2eb75883a5f80a48152f35b015192505f806111fa565b908d91601f949394198416865f52835f20935f905b8282106112c557505091604097959391857f5a5cab0ce7e50ff4a469602322193052db5a543b8ca05e6ecf08ad55084ff30a9a989694106112ad575b505050811b01905561120b565b01515f1960f88460031b161c191690558e80806112a0565b93879a9d50838594979a9d5081999c509792959197015181550195019301928c9895928c9895928f958d9c9996611264565b5060048601544211156110a9565b505f5483163314611055565b3461040e576003196101603682011261040e576001600160401b039060043582811161040e57611345903690600401611c6e565b909160243584811161040e5761135f903690600401611c6e565b9390926004604435101561040e576003606435101561040e5760c43586811161040e57611390903690600401611c6e565b93909660406101031936011261040e57610144351161040e5761010090610144353603011261040e57801561158b576113cd6101043515156120f4565b60a4356084351015611556576114bf7f31962994ecd7152a21753913c6fcad495a95e706c60082dbfc1402098658cbf99360209761145b6003549889986114138a612135565b600355895f5260058c5261143361014435600401600960405f20016125db565b895f5260058c52611448878960405f2061219c565b895f5260058c52600160405f200161219c565b865f5260058952600260405f2001611474604435611c9b565b60ff1981541660ff60443516179055865f526005895261149c606435600260405f200161225b565b865f5260058952600560405f20608435600382015560a43560048201550161219c565b835f526005865260405f2060e435908160068201556101043560078201555f601061012435928360088201550155611506604051948594610100865261010086019161227a565b91611512604435611c9b565b6044358985015261152860408501606435611f60565b608435606085015260a435608085015260a08401526101043560c084015260e08301520390a2604051908152f35b60405162461bcd60e51b815260206004820152600d60248201526c496e76616c696420646174657360981b6044820152606490fd5b60405162461bcd60e51b815260206004820152600d60248201526c13985b59481c995c5d5a5c9959609a1b6044820152606490fd5b3461040e5760208060031936011261040e57606060c06040516115e281611d1b565b5f81525f848201525f60408201525f838201525f60808201525f60a082015201526004355f526006815260405f20610a386040519161162083611d1b565b8054835260018101546001600160a01b0390811685850190815260028301546040860190815260038401549193929160608701919060ff1661166181611c9b565b825260048401549260808801938452611688600660058701549660a08b0197885201611dc5565b9560c08901968752604051998a99818b5251908a015251166040880152516060870152516116b581611c9b565b60808601525160a08501525160c08401525160e080840152610100830190611ca5565b3461040e5760208060031936011261040e57600435600a54916116fe60ff841615612402565b600160ff1980941617600a55815f526006815260405f2091600383019182549361173460ff861661172e81611c9b565b1561248f565b805490815f526005835260405f2094600286019560ff875460081c1660038110156103ba57600161176591146122d8565b335f526009855260405f205460018a600286019a6117878c54809510156124c9565b1617835560ff600185019860018060a01b0396878b5416908a7f63e70868dc2d7ec072e727d9012d2ae383920c1f02e6f38e7017cd5f06ae09718b604051888152a45460081c1660038110156103ba5760016117e391146122d8565b600882015480611883575b50331561187257335f526009865261180c8160405f205410156124c9565b335f526009865260405f20805491820391821161185e57555b6118366010895492019182546120e7565b90556003888254161790555f808080858954168a54905af13d15610360573d6102d181612396565b634e487b7160e01b5f52601160045260245ffd5b61187e90471015612443565b611825565b6118918260108501546120e7565b1161189c578a6117ee565b60405162461bcd60e51b8152600481018790526014602482015273141c9bd9dc985b4818d85c08195e18d95959195960621b6044820152606490fd5b3461040e57604036600319011261040e57600435602435600381101561040e5760207f7ae6cca0b26c8504c4e19b9ef5fb80349af56d9c3d4be8ce0e4d76856507456291835f526005825261194081600260405f2061193a6104678254611ce3565b0161225b565b61194d6040518092611f60565ba2005b3461040e57604036600319011261040e576004356024356001600160401b03811161040e57611983903690600401611c6e565b91805f5260066020527f6014f6f9dbb4598f3aac859c39462a5a20d68534e732c8bae08cd8bb90264bf060405f209260038401600281546119ca60ff821661172e81611c9b565b60ff19161790556119df85826006870161219c565b8354936001808060a01b039101541694611a0660405192839260208452602084019161227a565b0390a4005b3461040e57602036600319011261040e57611a24611c42565b5f546001600160a01b039190611a3d9083163314612074565b168015611a7c57600180546001600160a01b031916821790557f3df77beb5db05fcdd70a30fc8adf3f83f9501b68579455adbd100b81809403945f80a2005b60405162461bcd60e51b815260206004820152600b60248201526a5a65726f206f7261636c6560a81b6044820152606490fd5b3461040e5760208060031936011261040e5760043590815f526005815260405f20611add6104678254611ce3565b60ff600282015460081c1660038110156103ba57600103611c0857600401544211611bd457815f526008815260405f20335f52815260ff60405f205416611b9d57600790825f526008815260405f20335f52815260405f20600160ff198254161790555260405f208054600160401b811015610cca57611b629160018201815561204b565b81549060031b9083821b915f19901b1916179055337f5330331063e367acf9dbb83b95dbaed37e954e0ddff33e12337f5671bb28a54c5f80a3005b6064906040519062461bcd60e51b82526004820152601060248201526f105b1c9958591e48195b9c9bdb1b195960821b6044820152fd5b6064906040519062461bcd60e51b82526004820152600d60248201526c141c9bd9dc985b48195b991959609a1b6044820152fd5b60405162461bcd60e51b815260048101839052601260248201527150726f6772616d206e6f742061637469766560701b6044820152606490fd5b600435906001600160a01b038216820361040e57565b602435906001600160a01b038216820361040e57565b9181601f8401121561040e578235916001600160401b03831161040e576020838186019501011161040e57565b600411156103ba57565b91908251928382525f5b848110611ccf575050825f602080949584010152601f8019910116010190565b602081830181015184830182015201611caf565b90600182811c92168015611d11575b6020831014611cfd57565b634e487b7160e01b5f52602260045260245ffd5b91607f1691611cf2565b60e081019081106001600160401b03821117610cca57604052565b61016081019081106001600160401b03821117610cca57604052565b604081019081106001600160401b03821117610cca57604052565b61010081019081106001600160401b03821117610cca57604052565b602081019081106001600160401b03821117610cca57604052565b90601f801991011681019081106001600160401b03821117610cca57604052565b9060405191825f825492611dd884611ce3565b9081845260019485811690815f14611e435750600114611e03575b5050611e0192500383611da4565b565b909391505f52602090815f20935f915b818310611e2b575050611e0193508201015f80611df3565b85548884018501529485019487945091830191611e13565b915050611e0194506020925060ff191682840152151560051b8201015f80611df3565b90604051611e7381611d52565b602060018294805484520154910152565b9081546001600160401b038111610cca57604051926020611eaa818460051b0186611da4565b8285525f9182528082208186015b848410611ec6575050505050565b6001838192611ed485611dc5565b815201920193019290611eb8565b90604051611eef81611d6d565b60e0611f5b6006839560ff81548181161515875260081c16151560208601526001810154604086015260028101546060860152611f2e60038201611e84565b6080860152611f3f60048201611e84565b60a0860152611f5060058201611e84565b60c086015201611e84565b910152565b9060038210156103ba5752565b908082519081815260208091019281808460051b8301019501935f915b848310611f9a5750505050505090565b9091929394958480611fb8600193601f198682030187528a51611ca5565b9801930193019194939290611f8a565b61204891815115158152602082015115156020820152604082015160408201526060820151606082015260e06120376120256120136080860151610100806080880152860190611f6d565b60a086015185820360a0870152611f6d565b60c085015184820360c0860152611f6d565b9201519060e0818403910152611f6d565b90565b8054821015612060575f5260205f2001905f90565b634e487b7160e01b5f52603260045260245ffd5b1561207b57565b60405162461bcd60e51b81526020600482015260096024820152682737ba1037bbb732b960b91b6044820152606490fd5b156120b357565b60405162461bcd60e51b815260206004820152600c60248201526b16995c9bc81858d8dbdd5b9d60a21b6044820152606490fd5b9190820180921161185e57565b156120fb57565b60405162461bcd60e51b815260206004820152601260248201527105061796f7574206d757374206265203e20360741b6044820152606490fd5b5f19811461185e5760010190565b81811061214e575050565b5f8155600101612143565b9190601f811161216857505050565b611e01925f5260205f20906020601f840160051c83019310612192575b601f0160051c0190612143565b9091508190612185565b9092916001600160401b038111610cca576121c1816121bb8454611ce3565b84612159565b5f601f82116001146121f857819293945f926121ed575b50508160011b915f199060031b1c1916179055565b013590505f806121d8565b601f198216948382526020918281209281905b8882106122435750508360019596971061222a575b505050811b019055565b01355f19600384901b60f8161c191690555f8080612220565b8060018496829495870135815501950192019061220b565b9060038110156103ba5761ff0082549160081b169061ff001916179055565b908060209392818452848401375f828201840152601f01601f1916010190565b156122a157565b60405162461bcd60e51b815260206004820152600f60248201526e50726f6772616d206d697373696e6760881b6044820152606490fd5b156122df57565b60405162461bcd60e51b815260206004820152601060248201526f50726f6772616d20696e61637469766560801b6044820152606490fd5b1561231e57565b60405162461bcd60e51b815260206004820152600e60248201526d4f7574736964652077696e646f7760901b6044820152606490fd5b1561235b57565b60405162461bcd60e51b815260206004820152601360248201527211985c9b595c881b9bdd08195b9c9bdb1b1959606a1b6044820152606490fd5b6001600160401b038111610cca57601f01601f191660200190565b906123bb81611c9b565b60ff80198354169116179055565b156123d057565b60405162461bcd60e51b815260206004820152600a6024820152694e6f74206f7261636c6560b01b6044820152606490fd5b1561240957565b60405162461bcd60e51b81526020600482015260126024820152711499595b9d1c985b98de48189b1bd8dad95960721b6044820152606490fd5b1561244a57565b60405162461bcd60e51b815260206004820152601d60248201527f496e73756666696369656e7420636f6e74726163742062616c616e63650000006044820152606490fd5b1561249657565b60405162461bcd60e51b815260206004820152600b60248201526a4e6f742070656e64696e6760a81b6044820152606490fd5b156124d057565b60405162461bcd60e51b815260206004820152601b60248201527f4167656e637920696e73756666696369656e742062616c616e636500000000006044820152606490fd5b35801515810361040e5790565b903590601e198136030182121561040e57018035906001600160401b03821161040e57602001918160051b3603831361040e57565b91908110156120605760051b81013590601e198136030182121561040e5701908135916001600160401b03831161040e57602001823603811361040e579190565b9190918054600160401b811015610cca576125b89160018201815561204b565b9290926125c857611e019261219c565b634e487b7160e01b5f525f60045260245ffd5b906125e581612515565b151560ff835491168060ff19831617845561ff0061260560208501612515565b151560081b169161ffff1916171782556001906040810135828401556060810135600284015581805f905b612727575b505f815b6126e5575b505f815b6126a3575b505f905b612656575b50505050565b60e08201906126658284612522565b905081101561269d57612692612688826126826126979587612522565b90612557565b9060068801612598565b612135565b8261264b565b50612650565b60c08301906126b28285612522565b90508110156126df576126926126cf826126826126d99588612522565b9060058901612598565b81612642565b50612647565b60a08301906126f48285612522565b9050811015612721576126926127118261268261271b9588612522565b9060048901612598565b81612639565b5061263e565b60808301906127368285612522565b9050811015612763576126926127538261268261275d9588612522565b9060038901612598565b81612630565b50612635565b8054905f908181558261277b57505050565b81526020808220928301925b8381106127945750505050565b80836127a260019354611ce3565b806127b0575b505001612787565b601f80821185146127c757505081555b835f6127a8565b6127e090848452868420920160051c8201858301612143565b818355556127c056fea2646970667358221220c38633de024c0d3c586c1c71f65e38b1c8221c6d3eaf27ba704bb126d4bee60c64736f6c63430008140033",
  "linkReferences": {},
  "deployedLinkReferences": {},
  "immutableReferences": {},
  "inputSourceName": "project/contracts/SubsidyPayout.sol",
  "buildInfoId": "solc-0_8_20-e386ec780bb5cdefc2833b1085465613817e9c09"
}