{
  "_format": "hh3-artifact-1",
  "contractName": "SubsidyPayout",
  "sourceName": "contracts/SubsidyPayout.sol",
  "abi": [
    {
      "inputs": [
        {
          "internalType": "address",
          "name": "initialOracle",
          "type": "address"
        }
      ],
      "stateMutability": "nonpayable",
      "type": "constructor"
    },
    {
      "anonymous": false,
      "inputs": [
        {
          "indexed": true,
          "internalType": "uint256",
          "name": "claimId",
          "type": "uint256"
        },
        {
          "indexed": true,
          "internalType": "uint256",
          "name": "policyId",
          "type": "uint256"
        },
        {
          "indexed": true,
          "internalType": "address",
          "name": "farmer",
          "type": "address"
        }
      ],
      "name": "AutoClaimCreated",
      "type": "event"
    },
    {
      "anonymous": false,
      "inputs": [
        {
          "indexed": true,
          "internalType": "uint256",
          "name": "claimId",
          "type": "uint256"
        },
        {
          "indexed": true,
          "internalType": "uint256",
          "name": "policyId",
          "type": "uint256"
        },
        {
          "indexed": true,
          "internalType": "address",
          "name": "farmer",
          "type": "address"
        },
        {
          "indexed": false,
          "internalType": "uint256",
          "name": "amount",
          "type": "uint256"
        }
      ],
      "name": "ClaimApproved",
      "type": "event"
    },
    {
      "anonymous": false,
      "inputs": [
        {
          "indexed": true,
          "internalType": "uint256",
          "name": "claimId",
          "type": "uint256"
        },
        {
          "indexed": true,
          "internalType": "uint256",
          "name": "policyId",
          "type": "uint256"
        },
        {
          "indexed": true,
          "internalType": "address",
          "name": "farmer",
          "type": "address"
        },
        {
          "indexed": false,
          "internalType": "uint256",
          "name": "amount",
          "type": "uint256"
        }
      ],
      "name": "ClaimPaid",
      "type": "event"
    },
    {
      "anonymous": false,
      "inputs": [
        {
          "indexed": true,
          "internalType": "uint256",
          "name": "claimId",
          "type": "uint256"
        },
        {
          "indexed": true,
          "internalType": "uint256",
          "name": "policyId",
          "type": "uint256"
        },
        {
          "indexed": true,
          "internalType": "address",
          "name": "farmer",
          "type": "address"
        },
        {
          "indexed": false,
          "internalType": "string",
          "name": "reason",
          "type": "string"
        }
      ],
      "name": "ClaimRejected",
      "type": "event"
    },
    {
      "anonymous": false,
      "inputs": [
        {
          "indexed": true,
          "internalType": "uint256",
          "name": "claimId",
          "type": "uint256"
        },
        {
          "indexed": true,
          "internalType": "uint256",
          "name": "policyId",
          "type": "uint256"
        },
        {
          "indexed": true,
          "internalType": "address",
          "name": "farmer",
          "type": "address"
        },
        {
          "indexed": false,
          "internalType": "uint256",
          "name": "amount",
          "type": "uint256"
        },
        {
          "indexed": false,
          "internalType": "bytes32",
          "name": "metadataHash",
          "type": "bytes32"
        }
      ],
      "name": "ClaimSubmitted",
      "type": "event"
    },
    {
      "anonymous": false,
      "inputs": [
        {
          "indexed": true,
          "internalType": "uint256",
          "name": "policyId",
          "type": "uint256"
        }
      ],
      "name": "EligibilityUpdated",
      "type": "event"
    },
    {
      "anonymous": false,
      "inputs": [
        {
          "indexed": true,
          "internalType": "address",
          "name": "farmer",
          "type": "address"
        },
        {
          "indexed": true,
          "internalType": "uint256",
          "name": "policyId",
          "type": "uint256"
        }
      ],
      "name": "FarmerEnrolled",
      "type": "event"
    },
    {
      "anonymous": false,
      "inputs": [
        {
          "indexed": true,
          "internalType": "address",
          "name": "from",
          "type": "address"
        },
        {
          "indexed": false,
          "internalType": "uint256",
          "name": "amount",
          "type": "uint256"
        }
      ],
      "name": "FundsDeposited",
      "type": "event"
    },
    {
      "anonymous": false,
      "inputs": [
        {
          "indexed": true,
          "internalType": "address",
          "name": "account",
          "type": "address"
        }
      ],
      "name": "GovernmentRoleGranted",
      "type": "event"
    },
    {
      "anonymous": false,
      "inputs": [
        {
          "indexed": true,
          "internalType": "address",
          "name": "account",
          "type": "address"
        }
      ],
      "name": "GovernmentRoleRevoked",
      "type": "event"
    },
    {
      "anonymous": false,
      "inputs": [
        {
          "indexed": true,
          "internalType": "address",
          "name": "oracle",
          "type": "address"
        }
      ],
      "name": "OracleUpdated",
      "type": "event"
    },
    {
      "anonymous": false,
      "inputs": [
        {
          "indexed": true,
          "internalType": "address",
          "name": "owner",
          "type": "address"
        }
      ],
      "name": "OwnerUpdated",
      "type": "event"
    },
    {
      "anonymous": false,
      "inputs": [
        {
          "indexed": true,
          "internalType": "uint256",
          "name": "policyId",
          "type": "uint256"
        },
        {
          "indexed": false,
          "internalType": "string",
          "name": "name",
          "type": "string"
        },
        {
          "indexed": false,
          "internalType": "enum SubsidyPayout.PolicyType",
          "name": "policyType",
          "type": "uint8"
        },
        {
          "indexed": false,
          "internalType": "enum SubsidyPayout.PolicyStatus",
          "name": "status",
          "type": "uint8"
        },
        {
          "indexed": false,
          "internalType": "uint256",
          "name": "startDate",
          "type": "uint256"
        },
        {
          "indexed": false,
          "internalType": "uint256",
          "name": "endDate",
          "type": "uint256"
        },
        {
          "indexed": false,
          "internalType": "bytes32",
          "name": "metadataHash",
          "type": "bytes32"
        },
        {
          "indexed": false,
          "internalType": "uint256",
          "name": "payoutAmount",
          "type": "uint256"
        },
        {
          "indexed": false,
          "internalType": "uint256",
          "name": "payoutMaxCap",
          "type": "uint256"
        }
      ],
      "name": "PolicyCreated",
      "type": "event"
    },
    {
      "anonymous": false,
      "inputs": [
        {
          "indexed": true,
          "internalType": "uint256",
          "name": "policyId",
          "type": "uint256"
        },
        {
          "indexed": false,
          "internalType": "enum SubsidyPayout.PolicyStatus",
          "name": "status",
          "type": "uint8"
        }
      ],
      "name": "PolicyStatusUpdated",
      "type": "event"
    },
    {
      "anonymous": false,
      "inputs": [
        {
          "indexed": true,
          "internalType": "uint256",
          "name": "policyId",
          "type": "uint256"
        },
        {
          "indexed": false,
          "internalType": "uint256",
          "name": "payoutAmount",
          "type": "uint256"
        },
        {
          "indexed": false,
          "internalType": "uint256",
          "name": "payoutMaxCap",
          "type": "uint256"
        }
      ],
      "name": "PolicyUpdated",
      "type": "event"
    },
    {
      "inputs": [
        {
          "internalType": "uint256",
          "name": "claimId",
          "type": "uint256"
        }
      ],
      "name": "approveAndPayout",
      "outputs": [],
      "stateMutability": "nonpayable",
      "type": "function"
    },
    {
      "inputs": [
        {
          "internalType": "uint256",
          "name": "claimId",
          "type": "uint256"
        }
      ],
      "name": "approveClaim",
      "outputs": [],
      "stateMutability": "nonpayable",
      "type": "function"
    },
    {
      "inputs": [
        {
          "internalType": "uint256",
          "name": "policyId",
          "type": "uint256"
        },
        {
          "internalType": "address",
          "name": "farmer",
          "type": "address"
        },
        {
          "internalType": "bytes32",
          "name": "metadataHash",
          "type": "bytes32"
        }
      ],
      "name": "autoCreateClaim",
      "outputs": [
        {
          "internalType": "uint256",
          "name": "claimId",
          "type": "uint256"
        }
      ],
      "stateMutability": "nonpayable",
      "type": "function"
    },
    {
      "inputs": [
        {
          "internalType": "uint256",
          "name": "",
          "type": "uint256"
        }
      ],
      "name": "claims",
      "outputs": [
        {
          "internalType": "uint256",
          "name": "policyId",
          "type": "uint256"
        },
        {
          "internalType": "address",
          "name": "farmer",
          "type": "address"
        },
        {
          "internalType": "uint256",
          "name": "amount",
          "type": "uint256"
        },
        {
          "internalType": "enum SubsidyPayout.ClaimStatus",
          "name": "status",
          "type": "uint8"
        },
        {
          "internalType": "bytes32",
          "name": "metadataHash",
          "type": "bytes32"
        },
        {
          "internalType": "uint256",
          "name": "submittedAt",
          "type": "uint256"
        },
        {
          "internalType": "string",
          "name": "rejectionReason",
          "type": "string"
        }
      ],
      "stateMutability": "view",
      "type": "function"
    },
    {
      "inputs": [
        {
          "internalType": "string",
          "name": "name",
          "type": "string"
        },
        {
          "internalType": "string",
          "name": "description",
          "type": "string"
        },
        {
          "internalType": "enum SubsidyPayout.PolicyType",
          "name": "policyType",
          "type": "uint8"
        },
        {
          "internalType": "enum SubsidyPayout.PolicyStatus",
          "name": "status",
          "type": "uint8"
        },
        {
          "internalType": "uint256",
          "name": "startDate",
          "type": "uint256"
        },
        {
          "internalType": "uint256",
          "name": "endDate",
          "type": "uint256"
        },
        {
          "internalType": "string",
          "name": "createdBy",
          "type": "string"
        },
        {
          "internalType": "bytes32",
          "name": "metadataHash",
          "type": "bytes32"
        },
        {
          "components": [
            {
              "internalType": "uint256",
              "name": "amount",
              "type": "uint256"
            },
            {
              "internalType": "uint256",
              "name": "maxCap",
              "type": "uint256"
            }
          ],
          "internalType": "struct SubsidyPayout.PayoutRule",
          "name": "payoutRule",
          "type": "tuple"
        },
        {
          "components": [
            {
              "internalType": "bool",
              "name": "hasMinFarmSize",
              "type": "bool"
            },
            {
              "internalType": "bool",
              "name": "hasMaxFarmSize",
              "type": "bool"
            },
            {
              "internalType": "uint256",
              "name": "minFarmSize",
              "type": "uint256"
            },
            {
              "internalType": "uint256",
              "name": "maxFarmSize",
              "type": "uint256"
            },
            {
              "internalType": "string[]",
              "name": "states",
              "type": "string[]"
            },
            {
              "internalType": "string[]",
              "name": "districts",
              "type": "string[]"
            },
            {
              "internalType": "string[]",
              "name": "cropTypes",
              "type": "string[]"
            },
            {
              "internalType": "string[]",
              "name": "certifications",
              "type": "string[]"
            }
          ],
          "internalType": "struct SubsidyPayout.Eligibility",
          "name": "eligibility",
          "type": "tuple"
        }
      ],
      "name": "createPolicy",
      "outputs": [
        {
          "internalType": "uint256",
          "name": "policyId",
          "type": "uint256"
        }
      ],
      "stateMutability": "nonpayable",
      "type": "function"
    },
    {
      "inputs": [],
      "name": "deposit",
      "outputs": [],
      "stateMutability": "payable",
      "type": "function"
    },
    {
      "inputs": [
        {
          "internalType": "uint256",
          "name": "policyId",
          "type": "uint256"
        }
      ],
      "name": "enrollInPolicy",
      "outputs": [],
      "stateMutability": "nonpayable",
      "type": "function"
    },
    {
      "inputs": [
        {
          "internalType": "address",
          "name": "",
          "type": "address"
        },
        {
          "internalType": "uint256",
          "name": "",
          "type": "uint256"
        }
      ],
      "name": "enrolledPolicies",
      "outputs": [
        {
          "internalType": "uint256",
          "name": "",
          "type": "uint256"
        }
      ],
      "stateMutability": "view",
      "type": "function"
    },
    {
      "inputs": [
        {
          "internalType": "uint256",
          "name": "claimId",
          "type": "uint256"
        }
      ],
      "name": "getClaim",
      "outputs": [
        {
          "components": [
            {
              "internalType": "uint256",
              "name": "policyId",
              "type": "uint256"
            },
            {
              "internalType": "address",
              "name": "farmer",
              "type": "address"
            },
            {
              "internalType": "uint256",
              "name": "amount",
              "type": "uint256"
            },
            {
              "internalType": "enum SubsidyPayout.ClaimStatus",
              "name": "status",
              "type": "uint8"
            },
            {
              "internalType": "bytes32",
              "name": "metadataHash",
              "type": "bytes32"
            },
            {
              "internalType": "uint256",
              "name": "submittedAt",
              "type": "uint256"
            },
            {
              "internalType": "string",
              "name": "rejectionReason",
              "type": "string"
            }
          ],
          "internalType": "struct SubsidyPayout.Claim",
          "name": "",
          "type": "tuple"
        }
      ],
      "stateMutability": "view",
      "type": "function"
    },
    {
      "inputs": [
        {
          "internalType": "uint256",
          "name": "policyId",
          "type": "uint256"
        }
      ],
      "name": "getPolicy",
      "outputs": [
        {
          "components": [
            {
              "internalType": "string",
              "name": "name",
              "type": "string"
            },
            {
              "internalType": "string",
              "name": "description",
              "type": "string"
            },
            {
              "internalType": "enum SubsidyPayout.PolicyType",
              "name": "policyType",
              "type": "uint8"
            },
            {
              "internalType": "enum SubsidyPayout.PolicyStatus",
              "name": "status",
              "type": "uint8"
            },
            {
              "internalType": "uint256",
              "name": "startDate",
              "type": "uint256"
            },
            {
              "internalType": "uint256",
              "name": "endDate",
              "type": "uint256"
            },
            {
              "internalType": "string",
              "name": "createdBy",
              "type": "string"
            },
            {
              "internalType": "bytes32",
              "name": "metadataHash",
              "type": "bytes32"
            },
            {
              "components": [
                {
                  "internalType": "uint256",
                  "name": "amount",
                  "type": "uint256"
                },
                {
                  "internalType": "uint256",
                  "name": "maxCap",
                  "type": "uint256"
                }
              ],
              "internalType": "struct SubsidyPayout.PayoutRule",
              "name": "payoutRule",
              "type": "tuple"
            },
            {
              "components": [
                {
                  "internalType": "bool",
                  "name": "hasMinFarmSize",
                  "type": "bool"
                },
                {
                  "internalType": "bool",
                  "name": "hasMaxFarmSize",
                  "type": "bool"
                },
                {
                  "internalType": "uint256",
                  "name": "minFarmSize",
                  "type": "uint256"
                },
                {
                  "internalType": "uint256",
                  "name": "maxFarmSize",
                  "type": "uint256"
                },
                {
                  "internalType": "string[]",
                  "name": "states",
                  "type": "string[]"
                },
                {
                  "internalType": "string[]",
                  "name": "districts",
                  "type": "string[]"
                },
                {
                  "internalType": "string[]",
                  "name": "cropTypes",
                  "type": "string[]"
                },
                {
                  "internalType": "string[]",
                  "name": "certifications",
                  "type": "string[]"
                }
              ],
              "internalType": "struct SubsidyPayout.Eligibility",
              "name": "eligibility",
              "type": "tuple"
            },
            {
              "internalType": "uint256",
              "name": "totalDisbursed",
              "type": "uint256"
            }
          ],
          "internalType": "struct SubsidyPayout.Policy",
          "name": "",
          "type": "tuple"
        }
      ],
      "stateMutability": "view",
      "type": "function"
    },
    {
      "inputs": [
        {
          "internalType": "address",
          "name": "account",
          "type": "address"
        }
      ],
      "name": "grantGovernmentRole",
      "outputs": [],
      "stateMutability": "nonpayable",
      "type": "function"
    },
    {
      "inputs": [
        {
          "internalType": "uint256",
          "name": "",
          "type": "uint256"
        },
        {
          "internalType": "address",
          "name": "",
          "type": "address"
        }
      ],
      "name": "isFarmerEnrolled",
      "outputs": [
        {
          "internalType": "bool",
          "name": "",
          "type": "bool"
        }
      ],
      "stateMutability": "view",
      "type": "function"
    },
    {
      "inputs": [
        {
          "internalType": "address",
          "name": "",
          "type": "address"
        }
      ],
      "name": "isGovernment",
      "outputs": [
        {
          "internalType": "bool",
          "name": "",
          "type": "bool"
        }
      ],
      "stateMutability": "view",
      "type": "function"
    },
    {
      "inputs": [],
      "name": "nextClaimId",
      "outputs": [
        {
          "internalType": "uint256",
          "name": "",
          "type": "uint256"
        }
      ],
      "stateMutability": "view",
      "type": "function"
    },
    {
      "inputs": [],
      "name": "nextPolicyId",
      "outputs": [
        {
          "internalType": "uint256",
          "name": "",
          "type": "uint256"
        }
      ],
      "stateMutability": "view",
      "type": "function"
    },
    {
      "inputs": [],
      "name": "oracle",
      "outputs": [
        {
          "internalType": "address",
          "name": "",
          "type": "address"
        }
      ],
      "stateMutability": "view",
      "type": "function"
    },
    {
      "inputs": [],
      "name": "owner",
      "outputs": [
        {
          "internalType": "address",
          "name": "",
          "type": "address"
        }
      ],
      "stateMutability": "view",
      "type": "function"
    },
    {
      "inputs": [
        {
          "internalType": "uint256",
          "name": "",
          "type": "uint256"
        }
      ],
      "name": "policies",
      "outputs": [
        {
          "internalType": "string",
          "name": "name",
          "type": "string"
        },
        {
          "internalType": "string",
          "name": "description",
          "type": "string"
        },
        {
          "internalType": "enum SubsidyPayout.PolicyType",
          "name": "policyType",
          "type": "uint8"
        },
        {
          "internalType": "enum SubsidyPayout.PolicyStatus",
          "name": "status",
          "type": "uint8"
        },
        {
          "internalType": "uint256",
          "name": "startDate",
          "type": "uint256"
        },
        {
          "internalType": "uint256",
          "name": "endDate",
          "type": "uint256"
        },
        {
          "internalType": "string",
          "name": "createdBy",
          "type": "string"
        },
        {
          "internalType": "bytes32",
          "name": "metadataHash",
          "type": "bytes32"
        },
        {
          "components": [
            {
              "internalType": "uint256",
              "name": "amount",
              "type": "uint256"
            },
            {
              "internalType": "uint256",
              "name": "maxCap",
              "type": "uint256"
            }
          ],
          "internalType": "struct SubsidyPayout.PayoutRule",
          "name": "payoutRule",
          "type": "tuple"
        },
        {
          "components": [
            {
              "internalType": "bool",
              "name": "hasMinFarmSize",
              "type": "bool"
            },
            {
              "internalType": "bool",
              "name": "hasMaxFarmSize",
              "type": "bool"
            },
            {
              "internalType": "uint256",
              "name": "minFarmSize",
              "type": "uint256"
            },
            {
              "internalType": "uint256",
              "name": "maxFarmSize",
              "type": "uint256"
            },
            {
              "internalType": "string[]",
              "name": "states",
              "type": "string[]"
            },
            {
              "internalType": "string[]",
              "name": "districts",
              "type": "string[]"
            },
            {
              "internalType": "string[]",
              "name": "cropTypes",
              "type": "string[]"
            },
            {
              "internalType": "string[]",
              "name": "certifications",
              "type": "string[]"
            }
          ],
          "internalType": "struct SubsidyPayout.Eligibility",
          "name": "eligibility",
          "type": "tuple"
        },
        {
          "internalType": "uint256",
          "name": "totalDisbursed",
          "type": "uint256"
        }
      ],
      "stateMutability": "view",
      "type": "function"
    },
    {
      "inputs": [
        {
          "internalType": "uint256",
          "name": "claimId",
          "type": "uint256"
        },
        {
          "internalType": "string",
          "name": "reason",
          "type": "string"
        }
      ],
      "name": "rejectClaim",
      "outputs": [],
      "stateMutability": "nonpayable",
      "type": "function"
    },
    {
      "inputs": [
        {
          "internalType": "address",
          "name": "account",
          "type": "address"
        }
      ],
      "name": "revokeGovernmentRole",
      "outputs": [],
      "stateMutability": "nonpayable",
      "type": "function"
    },
    {
      "inputs": [
        {
          "internalType": "uint256",
          "name": "policyId",
          "type": "uint256"
        },
        {
          "internalType": "bytes32",
          "name": "metadataHash",
          "type": "bytes32"
        }
      ],
      "name": "submitClaim",
      "outputs": [
        {
          "internalType": "uint256",
          "name": "claimId",
          "type": "uint256"
        }
      ],
      "stateMutability": "nonpayable",
      "type": "function"
    },
    {
      "inputs": [
        {
          "internalType": "uint256",
          "name": "policyId",
          "type": "uint256"
        },
        {
          "components": [
            {
              "internalType": "bool",
              "name": "hasMinFarmSize",
              "type": "bool"
            },
            {
              "internalType": "bool",
              "name": "hasMaxFarmSize",
              "type": "bool"
            },
            {
              "internalType": "uint256",
              "name": "minFarmSize",
              "type": "uint256"
            },
            {
              "internalType": "uint256",
              "name": "maxFarmSize",
              "type": "uint256"
            },
            {
              "internalType": "string[]",
              "name": "states",
              "type": "string[]"
            },
            {
              "internalType": "string[]",
              "name": "districts",
              "type": "string[]"
            },
            {
              "internalType": "string[]",
              "name": "cropTypes",
              "type": "string[]"
            },
            {
              "internalType": "string[]",
              "name": "certifications",
              "type": "string[]"
            }
          ],
          "internalType": "struct SubsidyPayout.Eligibility",
          "name": "eligibility",
          "type": "tuple"
        }
      ],
      "name": "updateEligibility",
      "outputs": [],
      "stateMutability": "nonpayable",
      "type": "function"
    },
    {
      "inputs": [
        {
          "internalType": "address",
          "name": "newOracle",
          "type": "address"
        }
      ],
      "name": "updateOracle",
      "outputs": [],
      "stateMutability": "nonpayable",
      "type": "function"
    },
    {
      "inputs": [
        {
          "internalType": "address",
          "name": "newOwner",
          "type": "address"
        }
      ],
      "name": "updateOwner",
      "outputs": [],
      "stateMutability": "nonpayable",
      "type": "function"
    },
    {
      "inputs": [
        {
          "internalType": "uint256",
          "name": "policyId",
          "type": "uint256"
        },
        {
          "components": [
            {
              "internalType": "uint256",
              "name": "amount",
              "type": "uint256"
            },
            {
              "internalType": "uint256",
              "name": "maxCap",
              "type": "uint256"
            }
          ],
          "internalType": "struct SubsidyPayout.PayoutRule",
          "name": "payoutRule",
          "type": "tuple"
        }
      ],
      "name": "updatePayoutRule",
      "outputs": [],
      "stateMutability": "nonpayable",
      "type": "function"
    },
    {
      "inputs": [
        {
          "internalType": "uint256",
          "name": "policyId",
          "type": "uint256"
        },
        {
          "internalType": "enum SubsidyPayout.PolicyStatus",
          "name": "status",
          "type": "uint8"
        }
      ],
      "name": "updatePolicyStatus",
      "outputs": [],
      "stateMutability": "nonpayable",
      "type": "function"
    },
    {
      "stateMutability": "payable",
      "type": "receive"
    }
  ],
  "bytecode": "0x60803461010b57601f61277938819003918201601f19168301916001600160401b0383118484101761010f5780849260209460405283398101031261010b57516001600160a01b0381169081900361010b576001600355600160045560018060a01b031990805f923381855416178455338452600260205260408420600160ff1982541617905560015416176001557f3df77beb5db05fcdd70a30fc8adf3f83f9501b68579455adbd100b818094039460405192337f4ffd725fc4a22075e9ec71c59edf9c38cdeb588a91b24fc5b61388c5be41282b8280a2337f06b7e73b864eee3b44819c423de068a65e4ab0266e23e5b6dd94442347d55cad8280a280a261265590816101248239f35b5f80fd5b634e487b7160e01b5f52604160045260245ffdfe60806040526004361015610046575b3615610018575f80fd5b6040513481527f543ba50a5eec5e6178218e364b1d0f396157b3c8fa278522c2cb7fd99407d47460203392a2005b5f3560e01c80631cb44dfc1461189e57806321b0d525146115ef5780632b07fce3146113a65780633577a5ad146112eb57806346e30135146112145780634956973f146111bd5780635aef2447146110a55780636536fabb14610dae5780636c2b04fd14610d715780637dc0d1d014610d49578063880cdc3114610ca75780638da5cb5b14610c80578063998970ac14610bb7578063a0021cf114610b9a578063a0c222b414610947578063a5717a46146108fe578063a888c2cd14610867578063b7a36572146107e0578063b963a5d114610768578063bf62d3c914610663578063c6e06e4f146104aa578063cad0b8db1461048d578063d0e30db01461041e578063d23c617e14610362578063d3e89483146102485763e7484b5c0361000e5734610244576020366003190112610244576001546004359061019f90336001600160a01b0391821614908115610237575b506120b3565b600954906101b060ff8316156120ec565b600160ff1980931617600955805f52600660205260405f2090600160ff6003840154166101dc816119d9565b0361020357816101f892545f52600560205260405f2091612174565b600954166009555f80f35b60405162461bcd60e51b815260206004820152600c60248201526b139bdd08185c1c1c9bdd995960a21b6044820152606490fd5b90505f541633145f610199565b5f80fd5b34610244576020366003190112610244576004355f52600560205260405f2061027081611bd9565b61027c60018301611bd9565b9160028101549060ff821660038201546004830154916005840161029f90611bd9565b90600685015493600786016102b390611c7a565b936102c060098801611cf6565b9660100154976040519a8b9a610180808d528c016102dd9161199b565b8b810360208d01526102ee9161199b565b936102f8816119d9565b60408b015260608a019060081c60ff1690610312916119e3565b608089015260a088015286810360c088015261032d9161199b565b9160e086015280516101008601526020015161012085015283810361014085015261035791611a4b565b906101608301520390f35b34610244576003196040368201126102445760043590602435906001600160401b03821161024457610100908236030112610244576103f890825f526005602052600960405f20916103be6103b78454611af7565b1515611fa1565b6103ca600c840161259f565b6103d6600d840161259f565b6103e2600e840161259f565b6103ee600f840161259f565b6004019101612411565b7f2ab80980f0eef9858eb5302d23051163010f1aede064abfb6140086c098c2b5e5f80a2005b5f36600319011261024457341561045d576040513481527f543ba50a5eec5e6178218e364b1d0f396157b3c8fa278522c2cb7fd99407d47460203392a2005b60405162461bcd60e51b81526020600482015260086024820152674e6f2076616c756560c01b6044820152606490fd5b34610244575f366003190112610244576020600354604051908152f35b34610244576020806003193601126102445760043590815f526005815260405f206104d86103b78254611af7565b60ff600282015460081c16600381101561064f57600103610616576004015442116105e357815f526008815260405f20335f52815260ff60405f2054166105ac57600790825f526008815260405f20335f52815260405f20600160ff198254161790555260405f208054600160401b8110156105985761055d91600182018155611ace565b81549060031b9083821b915f19901b1916179055337f5330331063e367acf9dbb83b95dbaed37e954e0ddff33e12337f5671bb28a54c5f80a3005b634e487b7160e01b5f52604160045260245ffd5b6064906040519062461bcd60e51b82526004820152601060248201526f105b1c9958591e48195b9c9bdb1b195960821b6044820152fd5b6064906040519062461bcd60e51b82526004820152600c60248201526b141bdb1a58de48195b99195960a21b6044820152fd5b60405162461bcd60e51b8152600481018390526011602482015270506f6c696379206e6f742061637469766560781b6044820152606490fd5b634e487b7160e01b5f52602160045260245ffd5b346102445760203660031901126102445761067c611942565b5f546001600160a01b0390811691610695338414611d74565b16906106a2821515611dac565b811461072d57805f52600260205260ff60405f205416156106f757805f52600260205260405f2060ff1981541690557f356c02df5f27e0e70ccc1fe4d9fdce0ac870948ebc6b824e6169812b4ec6c6165f80a2005b60405162461bcd60e51b815260206004820152600e60248201526d139bdd0819dbdd995c9b9b595b9d60921b6044820152606490fd5b60405162461bcd60e51b815260206004820152601360248201527221b0b73737ba103932bb37b5b29037bbb732b960691b6044820152606490fd5b346102445760403660031901126102445760043560243560038110156102445760207fddba6ca814ce3f0cb8c9b4b44e5e1891ef8c2857746e6b7453464abc1539209b91835f52600582526107d081600260405f206107ca6103b78254611af7565b01611f62565b6107dd60405180926119e3565ba2005b3461024457606036600319011261024457600435604036602319011261024457805f5260056020527f3badea81551087ffbccf48e1f2096512ab718dfab5d02debd5a148d4bb5a6f576040805f2061083b6103b78254611af7565b60086024359161084c831515611de7565b826007820155604435918291015582519182526020820152a2005b34610244576020366003190112610244576004355f52600660205260405f2080546108fa60018060a01b036001840154169260028101549060ff6003820154166004820154906108be600660058501549401611bd9565b936040519788978852602088015260408701526108da816119d9565b6060860152608085015260a084015260e060c084015260e083019061199b565b0390f35b3461024457604036600319011261024457610917611958565b6004355f52600860205260405f209060018060a01b03165f52602052602060ff60405f2054166040519015158152f35b346102445760403660031901126102445760043560243590805f526020916005835260405f209161097b6103b78454611af7565b60ff600284015460081c16600381101561064f5760079361099f6001809314611fde565b600381015442101580610b8c575b6109b69061201c565b825f526008865260405f20335f5286526109d660ff60405f205416612059565b6004549485916109e583611e28565b60045501916006835488604051916109fc83611b82565b878352610a88828401913383526040850190815260608501905f825260808601938c85528760a08801964288526040519b610a368d611b9d565b5f8d5260c08a019c8d525f525260405f20965187558887019060018060a01b039051166bffffffffffffffffffffffff60a01b82541617905551600286015551610a7f816119d9565b6003850161209b565b5160048301555160058201550191518051906001600160401b03821161059857610abc82610ab68654611af7565b86611e60565b8890601f8311600114610b2d579282939183925f94610b22575b50501b915f199060031b1c19161790555b549160405192835284830152827f5a5cab0ce7e50ff4a469602322193052db5a543b8ca05e6ecf08ad55084ff30a60403394a4604051908152f35b015192508a80610ad6565b90601f19831691855f52838b5f20935f5b8d88838310610b755750505010610b5d575b505050811b019055610ae7565b01515f1960f88460031b161c19169055888080610b50565b868601518855909601959485019487935001610b3e565b5060048101544211156109ad565b34610244575f366003190112610244576020600454604051908152f35b3461024457602036600319011261024457610bd0611942565b5f546001600160a01b039190610be99083163314611d74565b16610bf5811515611dac565b805f52600260205260ff60405f205416610c4657805f52600260205260405f20600160ff198254161790557f06b7e73b864eee3b44819c423de068a65e4ab0266e23e5b6dd94442347d55cad5f80a2005b60405162461bcd60e51b8152602060048201526012602482015271105b1c9958591e4819dbdd995c9b9b595b9d60721b6044820152606490fd5b34610244575f366003190112610244575f546040516001600160a01b039091168152602090f35b3461024457602036600319011261024457610cc0611942565b5f54906001600160a01b0390610cd93383851614611d74565b16908115610d17576001600160a01b03191681175f9081557f4ffd725fc4a22075e9ec71c59edf9c38cdeb588a91b24fc5b61388c5be41282b9080a2005b60405162461bcd60e51b815260206004820152600a6024820152692d32b9379037bbb732b960b11b6044820152606490fd5b34610244575f366003190112610244576001546040516001600160a01b039091168152602090f35b34610244576020366003190112610244576001600160a01b03610d92611942565b165f526002602052602060ff60405f2054166040519015158152f35b3461024457606036600319011261024457600435610dca611958565b600180549092916001600160a01b039160443590831633148015611099575b610df2906120b3565b835f526020946005865260405f2093610e0e6103b78654611af7565b60ff600286015460081c1692600384101561064f57610e2f83899514611fde565b60038601544210158061108b575b610e469061201c565b865f52600884528160405f20951694855f52845260405f205460ff16610e6b90612059565b60045495610e7887611e28565b6004556007019182549060405191610e8f83611b82565b898352868301908882526040840190815260608401905f8252608085019286845260a08601944286526040519a610ec58c611b9d565b5f8c5260c088019b8c528d5f526006905260405f20965187558987019151166bffffffffffffffffffffffff60a01b82541617905551600285015551610f0a816119d9565b610f17906003850161209b565b5160048301555160058201556006019351918251946001600160401b038611610598578589958995610f4e8a99610ab68654611af7565b8c90601f8411600114610fe35792807f5a5cab0ce7e50ff4a469602322193052db5a543b8ca05e6ecf08ad55084ff30a9795938193604098965f94610fd8575b50501b915f199060031b1c19161790555b549082519182528a820152a460405192827fa0ae011a7e92dd1401f20d322e6cea9fd114ca02abaf366d067e86d2eb75883a5f80a48152f35b015192505f80610f8e565b908d91601f949394198416865f52835f20935f905b82821061105957505091604097959391857f5a5cab0ce7e50ff4a469602322193052db5a543b8ca05e6ecf08ad55084ff30a9a98969410611041575b505050811b019055610f9f565b01515f1960f88460031b161c191690558e8080611034565b93879a9d50838594979a9d5081999c509792959197015181550195019301928c9895928c9895928f958d9c9996610ff8565b506004860154421115610e3d565b505f5483163314610de9565b346102445760208060031936011261024457606060c06040516110c781611b82565b5f81525f848201525f60408201525f838201525f60808201525f60a082015201526004355f526006815260405f206108fa6040519161110583611b82565b8054835260018101546001600160a01b0390811685850190815260028301546040860190815260038401549193929160608701919060ff16611146816119d9565b82526004840154926080880193845261116d600660058701549660a08b0197885201611bd9565b9560c08901968752604051998a99818b5251908a0152511660408801525160608701525161119a816119d9565b60808601525160a08501525160c08401525160e08084015261010083019061199b565b34610244576040366003190112610244576111d6611942565b6001600160a01b03165f908152600760205260409020805460243591908210156102445760209161120691611ace565b90546040519160031b1c8152f35b346102445760203660031901126102445760095460043561123860ff8316156120ec565b600160ff1980931617600955805f52600660205260405f20600381019081549261126e60ff8516611268816119d9565b1561212d565b8154805f52600560205260405f209360ff600286015460081c1695600387101561064f57876001916112a4836101f89a14611fde565b1617905560018060a01b0360018401541690827f63e70868dc2d7ec072e727d9012d2ae383920c1f02e6f38e7017cd5f06ae097160206002870154604051908152a4612174565b34610244576040366003190112610244576004356024356001600160401b0381116102445761131e90369060040161196e565b91805f5260066020527f6014f6f9dbb4598f3aac859c39462a5a20d68534e732c8bae08cd8bb90264bf060405f2092600384016002815461136560ff8216611268816119d9565b60ff191617905561137a858260068701611ea3565b8354936001808060a01b0391015416946113a1604051928392602084526020840191611f81565b0390a4005b34610244576020366003190112610244575f6101406040516113c781611b2f565b60608152606060208201528260408201528260608201528260808201528260a0820152606060c08201528260e082015260405161140381611b4b565b83815283602082015261010082015260405161141e81611b66565b83815283602082015283604082015283606082015260606080820152606060a0820152606060c0820152606060e082015261012082015201526004355f52600560205260405f206040519061147282611b2f565b61147b81611bd9565b825261148960018201611bd9565b602083015260ff60028201548181166114a1816119d9565b604085015260081c1690600382101561064f57601091606084015260038101546080840152600481015460a08401526114dc60058201611bd9565b60c0840152600681015460e08401526114f760078201611c7a565b61010084015261150960098201611cf6565b61012084015201546101408201526040518091602082526101406115e26115a961155a611544855161018060208901526101a088019061199b565b6020860151878203601f1901604089015261199b565b6040850151611568816119d9565b606087015261157f606086015160808801906119e3565b608085015160a087015260a085015160c087015260c0850151601f198783030160e088015261199b565b60e084015161010086015260206101008501518051610120880152015183860152610120840151601f1986830301610160870152611a4b565b9101516101808301520390f35b346102445760031961016036820112610244576001600160401b03906004358281116102445761162390369060040161196e565b90916024358481116102445761163d90369060040161196e565b9390926004604435101561024457600360643510156102445760c4358681116102445761166e90369060040161196e565b93909660406101031936011261024457610144351161024457610100906101443536030112610244578015611869576116ab610104351515611de7565b60a43560843510156118345761179d7f7014be439cff2298158ebe0cd06c517f761942b02930045bef4f2bacb0c4ed4d936020976117396003549889986116f18a611e28565b600355895f5260058c5261171161014435600401600960405f2001612411565b895f5260058c52611726878960405f20611ea3565b895f5260058c52600160405f2001611ea3565b865f5260058952600260405f20016117526044356119d9565b60ff1981541660ff60443516179055865f526005895261177a606435600260405f2001611f62565b865f5260058952600560405f20608435600382015560a435600482015501611ea3565b835f526005865260405f2060e435908160068201556101043560078201555f6010610124359283600882015501556117e46040519485946101008652610100860191611f81565b916117f06044356119d9565b60443589850152611806604085016064356119e3565b608435606085015260a435608085015260a08401526101043560c084015260e08301520390a2604051908152f35b60405162461bcd60e51b815260206004820152600d60248201526c496e76616c696420646174657360981b6044820152606490fd5b60405162461bcd60e51b815260206004820152600d60248201526c13985b59481c995c5d5a5c9959609a1b6044820152606490fd5b34610244576020366003190112610244576118b7611942565b5f546001600160a01b0391906118d09083163314611d74565b16801561190f57600180546001600160a01b031916821790557f3df77beb5db05fcdd70a30fc8adf3f83f9501b68579455adbd100b81809403945f80a2005b60405162461bcd60e51b815260206004820152600b60248201526a5a65726f206f7261636c6560a81b6044820152606490fd5b600435906001600160a01b038216820361024457565b602435906001600160a01b038216820361024457565b9181601f84011215610244578235916001600160401b038311610244576020838186019501011161024457565b91908251928382525f5b8481106119c5575050825f602080949584010152601f8019910116010190565b6020818301810151848301820152016119a5565b6004111561064f57565b90600382101561064f5752565b908082519081815260208091019281808460051b8301019501935f915b848310611a1d5750505050505090565b9091929394958480611a3b600193601f198682030187528a5161199b565b9801930193019194939290611a0d565b611acb91815115158152602082015115156020820152604082015160408201526060820151606082015260e0611aba611aa8611a9660808601516101008060808801528601906119f0565b60a086015185820360a08701526119f0565b60c085015184820360c08601526119f0565b9201519060e08184039101526119f0565b90565b8054821015611ae3575f5260205f2001905f90565b634e487b7160e01b5f52603260045260245ffd5b90600182811c92168015611b25575b6020831014611b1157565b634e487b7160e01b5f52602260045260245ffd5b91607f1691611b06565b61016081019081106001600160401b0382111761059857604052565b604081019081106001600160401b0382111761059857604052565b61010081019081106001600160401b0382111761059857604052565b60e081019081106001600160401b0382111761059857604052565b602081019081106001600160401b0382111761059857604052565b90601f801991011681019081106001600160401b0382111761059857604052565b9060405191825f825492611bec84611af7565b9081845260019485811690815f14611c575750600114611c17575b5050611c1592500383611bb8565b565b909391505f52602090815f20935f915b818310611c3f575050611c1593508201015f80611c07565b85548884018501529485019487945091830191611c27565b915050611c1594506020925060ff191682840152151560051b8201015f80611c07565b90604051611c8781611b4b565b602060018294805484520154910152565b9081546001600160401b03811161059857604051926020611cbe818460051b0186611bb8565b8285525f9182528082208186015b848410611cda575050505050565b6001838192611ce885611bd9565b815201920193019290611ccc565b90604051611d0381611b66565b60e0611d6f6006839560ff81548181161515875260081c16151560208601526001810154604086015260028101546060860152611d4260038201611c98565b6080860152611d5360048201611c98565b60a0860152611d6460058201611c98565b60c086015201611c98565b910152565b15611d7b57565b60405162461bcd60e51b81526020600482015260096024820152682737ba1037bbb732b960b91b6044820152606490fd5b15611db357565b60405162461bcd60e51b815260206004820152600c60248201526b16995c9bc81858d8dbdd5b9d60a21b6044820152606490fd5b15611dee57565b60405162461bcd60e51b815260206004820152601260248201527105061796f7574206d757374206265203e20360741b6044820152606490fd5b5f198114611e365760010190565b634e487b7160e01b5f52601160045260245ffd5b818110611e55575050565b5f8155600101611e4a565b9190601f8111611e6f57505050565b611c15925f5260205f20906020601f840160051c83019310611e99575b601f0160051c0190611e4a565b9091508190611e8c565b9092916001600160401b03811161059857611ec881611ec28454611af7565b84611e60565b5f601f8211600114611eff57819293945f92611ef4575b50508160011b915f199060031b1c1916179055565b013590505f80611edf565b601f198216948382526020918281209281905b888210611f4a57505083600195969710611f31575b505050811b019055565b01355f19600384901b60f8161c191690555f8080611f27565b80600184968294958701358155019501920190611f12565b90600381101561064f5761ff0082549160081b169061ff001916179055565b908060209392818452848401375f828201840152601f01601f1916010190565b15611fa857565b60405162461bcd60e51b815260206004820152600e60248201526d506f6c696379206d697373696e6760901b6044820152606490fd5b15611fe557565b60405162461bcd60e51b815260206004820152600f60248201526e506f6c69637920696e61637469766560881b6044820152606490fd5b1561202357565b60405162461bcd60e51b815260206004820152600e60248201526d4f7574736964652077696e646f7760901b6044820152606490fd5b1561206057565b60405162461bcd60e51b815260206004820152601360248201527211985c9b595c881b9bdd08195b9c9bdb1b1959606a1b6044820152606490fd5b906120a5816119d9565b60ff80198354169116179055565b156120ba57565b60405162461bcd60e51b815260206004820152600a6024820152694e6f74206f7261636c6560b01b6044820152606490fd5b156120f357565b60405162461bcd60e51b81526020600482015260126024820152711499595b9d1c985b98de48189b1bd8dad95960721b6044820152606490fd5b1561213457565b60405162461bcd60e51b815260206004820152600b60248201526a4e6f742070656e64696e6760a81b6044820152606490fd5b91908201809211611e3657565b60ff600284015460081c16600381101561064f5760016121949114611fde565b6008830154806122f2575b5047600283019384548092106122ad5760106121be9101918254612167565b905560038201600360ff19825416179055600182019160018060a01b0390818454165f80808080948a54905af1903d156122a7573d906001600160401b038211612293576040519161221a601f8201601f191660200184611bb8565b825260203d92013e5b1561225c577fe126a82946b3a6f5969d735bc2da134b26667bbdb0818d872a70cd8aee56b0fc91602091549454169454604051908152a4565b60405162461bcd60e51b815260206004820152600f60248201526e151c985b9cd9995c8819985a5b1959608a1b6044820152606490fd5b634e487b7160e01b81526041600452602490fd5b50612223565b60405162461bcd60e51b815260206004820152601d60248201527f496e73756666696369656e7420636f6e74726163742062616c616e63650000006044820152606490fd5b6123056010850154600285015490612167565b11612310575f61219f565b60405162461bcd60e51b8152602060048201526013602482015272141bdb1a58de4818d85c08195e18d959591959606a1b6044820152606490fd5b3580151581036102445790565b903590601e198136030182121561024457018035906001600160401b03821161024457602001918160051b3603831361024457565b9190811015611ae35760051b81013590601e19813603018212156102445701908135916001600160401b038311610244576020018236038113610244579190565b9190918054600160401b811015610598576123ee91600182018155611ace565b9290926123fe57611c1592611ea3565b634e487b7160e01b5f525f60045260245ffd5b9061241b8161234b565b151560ff835491168060ff19831617845561ff0061243b6020850161234b565b151560081b169161ffff1916171782556001906040810135828401556060810135600284015581805f905b61255d575b505f815b61251b575b505f815b6124d9575b505f905b61248c575b50505050565b60e082019061249b8284612358565b90508110156124d3576124c86124be826124b86124cd9587612358565b9061238d565b90600688016123ce565b611e28565b82612481565b50612486565b60c08301906124e88285612358565b9050811015612515576124c8612505826124b861250f9588612358565b90600589016123ce565b81612478565b5061247d565b60a083019061252a8285612358565b9050811015612557576124c8612547826124b86125519588612358565b90600489016123ce565b8161246f565b50612474565b608083019061256c8285612358565b9050811015612599576124c8612589826124b86125939588612358565b90600389016123ce565b81612466565b5061246b565b8054905f90818155826125b157505050565b81526020808220928301925b8381106125ca5750505050565b80836125d860019354611af7565b806125e6575b5050016125bd565b601f80821185146125fd57505081555b835f6125de565b61261690848452868420920160051c8201858301611e4a565b818355556125f656fea2646970667358221220aab78fbb64cf81dc5daa7bca5466fb49595b5d82ed17590793b43fcd2ef76e7164736f6c63430008140033",
  "linkReferences": {},
  "deployedLinkReferences": {},
  "immutableReferences": {},
  "inputSourceName": "project/contracts/SubsidyPayout.sol",
  "buildInfoId": "solc-0_8_20-0a117af2eb9dca23316d0c9edef1f33bf27cb333"
}